{
  "contractName": "OpenJournal",
  "abi": [
    {
      "constant": true,
      "inputs": [],
      "name": "name",
      "outputs": [
        {
          "name": "",
          "type": "string"
        }
      ],
      "payable": false,
      "stateMutability": "view",
      "type": "function"
    },
    {
      "constant": false,
      "inputs": [
        {
          "name": "_spender",
          "type": "address"
        },
        {
          "name": "_value",
          "type": "uint256"
        }
      ],
      "name": "approve",
      "outputs": [
        {
          "name": "success",
          "type": "bool"
        }
      ],
      "payable": false,
      "stateMutability": "nonpayable",
      "type": "function"
    },
    {
      "constant": true,
      "inputs": [],
      "name": "totalSupply",
      "outputs": [
        {
          "name": "",
          "type": "uint256"
        }
      ],
      "payable": false,
      "stateMutability": "view",
      "type": "function"
    },
    {
      "constant": true,
      "inputs": [
        {
          "name": "",
          "type": "uint256"
        }
      ],
      "name": "journals",
      "outputs": [
        {
          "name": "number",
          "type": "uint256"
        },
        {
          "name": "author",
          "type": "address"
        },
        {
          "name": "title",
          "type": "string"
        },
        {
          "name": "description",
          "type": "string"
        },
        {
          "name": "value",
          "type": "uint256"
        }
      ],
      "payable": false,
      "stateMutability": "view",
      "type": "function"
    },
    {
      "constant": false,
      "inputs": [
        {
          "name": "_from",
          "type": "address"
        },
        {
          "name": "_to",
          "type": "address"
        },
        {
          "name": "_value",
          "type": "uint256"
        }
      ],
      "name": "transferFrom",
      "outputs": [
        {
          "name": "success",
          "type": "bool"
        }
      ],
      "payable": false,
      "stateMutability": "nonpayable",
      "type": "function"
    },
    {
      "constant": true,
      "inputs": [
        {
          "name": "",
          "type": "address"
        }
      ],
      "name": "balances",
      "outputs": [
        {
          "name": "",
          "type": "uint256"
        }
      ],
      "payable": false,
      "stateMutability": "view",
      "type": "function"
    },
    {
      "constant": true,
      "inputs": [],
      "name": "rate",
      "outputs": [
        {
          "name": "",
          "type": "uint256"
        }
      ],
      "payable": false,
      "stateMutability": "view",
      "type": "function"
    },
    {
      "constant": true,
      "inputs": [],
      "name": "decimals",
      "outputs": [
        {
          "name": "",
          "type": "uint8"
        }
      ],
      "payable": false,
      "stateMutability": "view",
      "type": "function"
    },
    {
      "constant": true,
      "inputs": [],
      "name": "subscriberNumber",
      "outputs": [
        {
          "name": "",
          "type": "uint256"
        }
      ],
      "payable": false,
      "stateMutability": "view",
      "type": "function"
    },
    {
      "constant": true,
      "inputs": [
        {
          "name": "",
          "type": "address"
        }
      ],
      "name": "subscribers",
      "outputs": [
        {
          "name": "subscriber_number",
          "type": "uint256"
        },
        {
          "name": "subscriber_address",
          "type": "address"
        }
      ],
      "payable": false,
      "stateMutability": "view",
      "type": "function"
    },
    {
      "constant": true,
      "inputs": [
        {
          "name": "",
          "type": "address"
        },
        {
          "name": "",
          "type": "address"
        }
      ],
      "name": "allowed",
      "outputs": [
        {
          "name": "",
          "type": "uint256"
        }
      ],
      "payable": false,
      "stateMutability": "view",
      "type": "function"
    },
    {
      "constant": true,
      "inputs": [],
      "name": "journalNumber",
      "outputs": [
        {
          "name": "",
          "type": "uint256"
        }
      ],
      "payable": false,
      "stateMutability": "view",
      "type": "function"
    },
    {
      "constant": true,
      "inputs": [
        {
          "name": "_owner",
          "type": "address"
        }
      ],
      "name": "balanceOf",
      "outputs": [
        {
          "name": "balance",
          "type": "uint256"
        }
      ],
      "payable": false,
      "stateMutability": "view",
      "type": "function"
    },
    {
      "constant": true,
      "inputs": [],
      "name": "symbol",
      "outputs": [
        {
          "name": "",
          "type": "string"
        }
      ],
      "payable": false,
      "stateMutability": "view",
      "type": "function"
    },
    {
      "constant": true,
      "inputs": [],
      "name": "signUpCost",
      "outputs": [
        {
          "name": "",
          "type": "uint256"
        }
      ],
      "payable": false,
      "stateMutability": "view",
      "type": "function"
    },
    {
      "constant": false,
      "inputs": [],
      "name": "buyToken",
      "outputs": [],
      "payable": true,
      "stateMutability": "payable",
      "type": "function"
    },
    {
      "constant": false,
      "inputs": [
        {
          "name": "_to",
          "type": "address"
        },
        {
          "name": "_value",
          "type": "uint256"
        }
      ],
      "name": "transfer",
      "outputs": [
        {
          "name": "success",
          "type": "bool"
        }
      ],
      "payable": false,
      "stateMutability": "nonpayable",
      "type": "function"
    },
    {
      "constant": true,
      "inputs": [
        {
          "name": "",
          "type": "address"
        },
        {
          "name": "",
          "type": "uint256"
        }
      ],
      "name": "is_subscribed",
      "outputs": [
        {
          "name": "",
          "type": "bool"
        }
      ],
      "payable": false,
      "stateMutability": "view",
      "type": "function"
    },
    {
      "constant": true,
      "inputs": [
        {
          "name": "_owner",
          "type": "address"
        },
        {
          "name": "_spender",
          "type": "address"
        }
      ],
      "name": "allowance",
      "outputs": [
        {
          "name": "remaining",
          "type": "uint256"
        }
      ],
      "payable": false,
      "stateMutability": "view",
      "type": "function"
    },
    {
      "constant": true,
      "inputs": [],
      "name": "master",
      "outputs": [
        {
          "name": "",
          "type": "address"
        }
      ],
      "payable": false,
      "stateMutability": "view",
      "type": "function"
    },
    {
      "constant": true,
      "inputs": [],
      "name": "upperbound_value",
      "outputs": [
        {
          "name": "",
          "type": "uint256"
        }
      ],
      "payable": false,
      "stateMutability": "view",
      "type": "function"
    },
    {
      "inputs": [
        {
          "name": "_subscriberNumber",
          "type": "uint256"
        },
        {
          "name": "_journalNumber",
          "type": "uint256"
        },
        {
          "name": "_signUpCost",
          "type": "uint256"
        },
        {
          "name": "_upperbound_value",
          "type": "uint256"
        }
      ],
      "payable": false,
      "stateMutability": "nonpayable",
      "type": "constructor"
    },
    {
      "payable": true,
      "stateMutability": "payable",
      "type": "fallback"
    },
    {
      "anonymous": false,
      "inputs": [
        {
          "indexed": true,
          "name": "_subscriber_number",
          "type": "uint256"
        },
        {
          "indexed": true,
          "name": "_subscriber_address",
          "type": "address"
        },
        {
          "indexed": false,
          "name": "_subscriber_journal",
          "type": "uint256[]"
        }
      ],
      "name": "LogSignUp",
      "type": "event"
    },
    {
      "anonymous": false,
      "inputs": [
        {
          "indexed": true,
          "name": "_number",
          "type": "uint256"
        },
        {
          "indexed": true,
          "name": "_author",
          "type": "address"
        },
        {
          "indexed": false,
          "name": "_title",
          "type": "string"
        },
        {
          "indexed": false,
          "name": "_value",
          "type": "uint256"
        }
      ],
      "name": "LogRegistJournal",
      "type": "event"
    },
    {
      "anonymous": false,
      "inputs": [
        {
          "indexed": true,
          "name": "_subscriber",
          "type": "address"
        },
        {
          "indexed": false,
          "name": "_myjournals",
          "type": "uint256[]"
        },
        {
          "indexed": false,
          "name": "_subscribed",
          "type": "uint256[]"
        }
      ],
      "name": "LogSubscribeJournal",
      "type": "event"
    },
    {
      "anonymous": false,
      "inputs": [
        {
          "indexed": false,
          "name": "msgValue",
          "type": "uint256"
        },
        {
          "indexed": false,
          "name": "amount",
          "type": "uint256"
        },
        {
          "indexed": false,
          "name": "totalSupply",
          "type": "uint256"
        },
        {
          "indexed": false,
          "name": "msgSender",
          "type": "address"
        }
      ],
      "name": "BuyToken",
      "type": "event"
    },
    {
      "anonymous": false,
      "inputs": [
        {
          "indexed": true,
          "name": "_from",
          "type": "address"
        },
        {
          "indexed": true,
          "name": "_to",
          "type": "address"
        },
        {
          "indexed": false,
          "name": "_value",
          "type": "uint256"
        }
      ],
      "name": "Transfer",
      "type": "event"
    },
    {
      "anonymous": false,
      "inputs": [
        {
          "indexed": true,
          "name": "_owner",
          "type": "address"
        },
        {
          "indexed": true,
          "name": "_spender",
          "type": "address"
        },
        {
          "indexed": false,
          "name": "_value",
          "type": "uint256"
        }
      ],
      "name": "Approval",
      "type": "event"
    },
    {
      "constant": false,
      "inputs": [],
      "name": "signUp",
      "outputs": [
        {
          "name": "",
          "type": "bool"
        }
      ],
      "payable": false,
      "stateMutability": "nonpayable",
      "type": "function"
    },
    {
      "constant": false,
      "inputs": [
        {
          "name": "_journalValue",
          "type": "uint256"
        },
        {
          "name": "_title",
          "type": "string"
        },
        {
          "name": "_description",
          "type": "string"
        }
      ],
      "name": "registJournal",
      "outputs": [
        {
          "name": "",
          "type": "bool"
        }
      ],
      "payable": false,
      "stateMutability": "nonpayable",
      "type": "function"
    },
    {
      "constant": false,
      "inputs": [
        {
          "name": "_journalNumber",
          "type": "uint256"
        }
      ],
      "name": "subscribeJournal",
      "outputs": [
        {
          "name": "",
          "type": "bool"
        }
      ],
      "payable": false,
      "stateMutability": "nonpayable",
      "type": "function"
    },
    {
      "constant": true,
      "inputs": [],
      "name": "showSubscribedJournal",
      "outputs": [
        {
          "name": "",
          "type": "uint256[]"
        }
      ],
      "payable": false,
      "stateMutability": "view",
      "type": "function"
    },
    {
      "constant": true,
      "inputs": [
        {
          "name": "_journalNumber",
          "type": "uint256"
        }
      ],
      "name": "showJournalSubscriber",
      "outputs": [
        {
          "name": "",
          "type": "uint256[]"
        }
      ],
      "payable": false,
      "stateMutability": "view",
      "type": "function"
    }
  ],
  "bytecode": "0x60806040523480156200001157600080fd5b506040516080806200237183398101806040528101908080519060200190929190805190602001909291908051906020019092919080519060200190929190505050620186a06040805190810160405280600c81526020017f4a6f75726e616c546f6b656e000000000000000000000000000000000000000081525060126040805190810160405280600281526020017f6a7400000000000000000000000000000000000000000000000000000000000081525083600160003373ffffffffffffffffffffffffffffffffffffffff1673ffffffffffffffffffffffffffffffffffffffff1681526020019081526020016000208190555083600081905550826003908051906020019062000128929190620001c8565b5081600460006101000a81548160ff021916908360ff16021790555080600590805190602001906200015c929190620001c8565b5033600660006101000a81548173ffffffffffffffffffffffffffffffffffffffff021916908373ffffffffffffffffffffffffffffffffffffffff1602179055505050505083600a8190555082600b8190555081600c8190555080600d819055505050505062000277565b828054600181600116156101000203166002900490600052602060002090601f016020900481019282601f106200020b57805160ff19168380011785556200023c565b828001600101855582156200023c579182015b828111156200023b5782518255916020019190600101906200021e565b5b5090506200024b91906200024f565b5090565b6200027491905b808211156200027057600081600090555060010162000256565b5090565b90565b6120ea80620002876000396000f300608060405260043610610154576000357c0100000000000000000000000000000000000000000000000000000000900463ffffffff16806306fdde031461015e578063095ea7b3146101ee5780630ec8e9b71461025357806318160ddd14610298578063197cc19e146102c357806323b872dd1461041657806327e235e31461049b5780632c4e722e146104f2578063313ce5671461051d578063391ccf8d1461054e5780634c3f44871461061f5780635745ae281461064a5780635c658165146106d45780635ee490d21461074b57806370a0823114610776578063883d9184146107cd57806395d89b41146108395780639e9378cc146108c9578063a4821719146108f4578063a9059cbb146108fe578063bf96ae6314610963578063c1f9c93014610992578063c475b173146109f7578063dd62ed3e14610a79578063ee97f7f314610af0578063f23c081b14610b47575b61015c610b72565b005b34801561016a57600080fd5b50610173610d24565b6040518080602001828103825283818151815260200191508051906020019080838360005b838110156101b3578082015181840152602081019050610198565b50505050905090810190601f1680156101e05780820380516001836020036101000a031916815260200191505b509250505060405180910390f35b3480156101fa57600080fd5b50610239600480360381019080803573ffffffffffffffffffffffffffffffffffffffff16906020019092919080359060200190929190505050610dc2565b604051808215151515815260200191505060405180910390f35b34801561025f57600080fd5b5061027e60048036038101908080359060200190929190505050610eb4565b604051808215151515815260200191505060405180910390f35b3480156102a457600080fd5b506102ad611224565b6040518082815260200191505060405180910390f35b3480156102cf57600080fd5b506102ee6004803603810190808035906020019092919050505061122a565b604051808681526020018573ffffffffffffffffffffffffffffffffffffffff1673ffffffffffffffffffffffffffffffffffffffff1681526020018060200180602001848152602001838103835286818151815260200191508051906020019080838360005b83811015610370578082015181840152602081019050610355565b50505050905090810190601f16801561039d5780820380516001836020036101000a031916815260200191505b50838103825285818151815260200191508051906020019080838360005b838110156103d65780820151818401526020810190506103bb565b50505050905090810190601f1680156104035780820380516001836020036101000a031916815260200191505b5097505050505050505060405180910390f35b34801561042257600080fd5b50610481600480360381019080803573ffffffffffffffffffffffffffffffffffffffff169060200190929190803573ffffffffffffffffffffffffffffffffffffffff169060200190929190803590602001909291905050506113b0565b604051808215151515815260200191505060405180910390f35b3480156104a757600080fd5b506104dc600480360381019080803573ffffffffffffffffffffffffffffffffffffffff16906020019092919050505061164a565b6040518082815260200191505060405180910390f35b3480156104fe57600080fd5b50610507611662565b6040518082815260200191505060405180910390f35b34801561052957600080fd5b50610532611668565b604051808260ff1660ff16815260200191505060405180910390f35b34801561055a57600080fd5b5061060560048036038101908080359060200190929190803590602001908201803590602001908080601f0160208091040260200160405190810160405280939291908181526020018383808284378201915050505050509192919290803590602001908201803590602001908080601f016020809104026020016040519081016040528093929190818152602001838380828437820191505050505050919291929050505061167b565b604051808215151515815260200191505060405180910390f35b34801561062b57600080fd5b506106346118a9565b6040518082815260200191505060405180910390f35b34801561065657600080fd5b5061068b600480360381019080803573ffffffffffffffffffffffffffffffffffffffff1690602001909291905050506118af565b604051808381526020018273ffffffffffffffffffffffffffffffffffffffff1673ffffffffffffffffffffffffffffffffffffffff1681526020019250505060405180910390f35b3480156106e057600080fd5b50610735600480360381019080803573ffffffffffffffffffffffffffffffffffffffff169060200190929190803573ffffffffffffffffffffffffffffffffffffffff1690602001909291905050506118f3565b6040518082815260200191505060405180910390f35b34801561075757600080fd5b50610760611918565b6040518082815260200191505060405180910390f35b34801561078257600080fd5b506107b7600480360381019080803573ffffffffffffffffffffffffffffffffffffffff16906020019092919050505061191e565b6040518082815260200191505060405180910390f35b3480156107d957600080fd5b506107e2611967565b6040518080602001828103825283818151815260200191508051906020019060200280838360005b8381101561082557808201518184015260208101905061080a565b505050509050019250505060405180910390f35b34801561084557600080fd5b5061084e6119ff565b6040518080602001828103825283818151815260200191508051906020019080838360005b8381101561088e578082015181840152602081019050610873565b50505050905090810190601f1680156108bb5780820380516001836020036101000a031916815260200191505b509250505060405180910390f35b3480156108d557600080fd5b506108de611a9d565b6040518082815260200191505060405180910390f35b6108fc610b72565b005b34801561090a57600080fd5b50610949600480360381019080803573ffffffffffffffffffffffffffffffffffffffff16906020019092919080359060200190929190505050611aa3565b604051808215151515815260200191505060405180910390f35b34801561096f57600080fd5b50610978611bfc565b604051808215151515815260200191505060405180910390f35b34801561099e57600080fd5b506109dd600480360381019080803573ffffffffffffffffffffffffffffffffffffffff16906020019092919080359060200190929190505050611e2b565b604051808215151515815260200191505060405180910390f35b348015610a0357600080fd5b50610a2260048036038101908080359060200190929190505050611e5a565b6040518080602001828103825283818151815260200191508051906020019060200280838360005b83811015610a65578082015181840152602081019050610a4a565b505050509050019250505060405180910390f35b348015610a8557600080fd5b50610ada600480360381019080803573ffffffffffffffffffffffffffffffffffffffff169060200190929190803573ffffffffffffffffffffffffffffffffffffffff169060200190929190505050611ec8565b6040518082815260200191505060405180910390f35b348015610afc57600080fd5b50610b05611f4f565b604051808273ffffffffffffffffffffffffffffffffffffffff1673ffffffffffffffffffffffffffffffffffffffff16815260200191505060405180910390f35b348015610b5357600080fd5b50610b5c611f75565b6040518082815260200191505060405180910390f35b6000610b896103e834611f7b90919063ffffffff16565b9050610bdd81600160003373ffffffffffffffffffffffffffffffffffffffff1673ffffffffffffffffffffffffffffffffffffffff16815260200190815260200160002054611fae90919063ffffffff16565b600160003373ffffffffffffffffffffffffffffffffffffffff1673ffffffffffffffffffffffffffffffffffffffff16815260200190815260200160002081905550610c3581600054611fae90919063ffffffff16565b600081905550600660009054906101000a900473ffffffffffffffffffffffffffffffffffffffff1673ffffffffffffffffffffffffffffffffffffffff166108fc349081150290604051600060405180830381858888f19350505050158015610ca3573d6000803e3d6000fd5b507f8a60543d8956caca73ab0f9c7b38880378188cfc3e2fbfaf27dc477f508afa95348260005433604051808581526020018481526020018381526020018273ffffffffffffffffffffffffffffffffffffffff1673ffffffffffffffffffffffffffffffffffffffff16815260200194505050505060405180910390a150565b60038054600181600116156101000203166002900480601f016020809104026020016040519081016040528092919081815260200182805460018160011615610100020316600290048015610dba5780601f10610d8f57610100808354040283529160200191610dba565b820191906000526020600020905b815481529060010190602001808311610d9d57829003601f168201915b505050505081565b600081600260003373ffffffffffffffffffffffffffffffffffffffff1673ffffffffffffffffffffffffffffffffffffffff16815260200190815260200160002060008573ffffffffffffffffffffffffffffffffffffffff1673ffffffffffffffffffffffffffffffffffffffff168152602001908152602001600020819055508273ffffffffffffffffffffffffffffffffffffffff163373ffffffffffffffffffffffffffffffffffffffff167f8c5be1e5ebec7d5bd14f71427d1e84f3dd0314c0f7b2291e5b200ac8c7c3b925846040518082815260200191505060405180910390a36001905092915050565b600080600083118015610ec95750600b548311155b8015610f36575060001515600960003373ffffffffffffffffffffffffffffffffffffffff1673ffffffffffffffffffffffffffffffffffffffff168152602001908152602001600020600085815260200190815260200160002060009054906101000a900460ff161515145b1515610f4157600080fd5b610f976007600085815260200190815260200160002060010160009054906101000a900473ffffffffffffffffffffffffffffffffffffffff166007600086815260200190815260200160002060040154611aa3565b50600860003373ffffffffffffffffffffffffffffffffffffffff1673ffffffffffffffffffffffffffffffffffffffff168152602001908152602001600020600001549050600860003373ffffffffffffffffffffffffffffffffffffffff1673ffffffffffffffffffffffffffffffffffffffff168152602001908152602001600020600201839080600181540180825580915050906001820390600052602060002001600090919290919091505550600760008481526020019081526020016000206005018190806001815401808255809150509060018203906000526020600020016000909192909190915055506001600960003373ffffffffffffffffffffffffffffffffffffffff1673ffffffffffffffffffffffffffffffffffffffff168152602001908152602001600020600085815260200190815260200160002060006101000a81548160ff0219169083151502179055503373ffffffffffffffffffffffffffffffffffffffff167ff1c720f62d23fcc4facc0e74b1d49efa7fc5c9f2f41a04324adc249277336f22600860003373ffffffffffffffffffffffffffffffffffffffff1673ffffffffffffffffffffffffffffffffffffffff1681526020019081526020016000206002016007600087815260200190815260200160002060050160405180806020018060200183810383528581815481526020019150805480156111cb57602002820191906000526020600020905b8154815260200190600101908083116111b7575b5050838103825284818154815260200191508054801561120a57602002820191906000526020600020905b8154815260200190600101908083116111f6575b505094505050505060405180910390a26001915050919050565b60005481565b60076020528060005260406000206000915090508060000154908060010160009054906101000a900473ffffffffffffffffffffffffffffffffffffffff1690806002018054600181600116156101000203166002900480601f0160208091040260200160405190810160405280929190818152602001828054600181600116156101000203166002900480156113025780601f106112d757610100808354040283529160200191611302565b820191906000526020600020905b8154815290600101906020018083116112e557829003601f168201915b505050505090806003018054600181600116156101000203166002900480601f0160208091040260200160405190810160405280929190818152602001828054600181600116156101000203166002900480156113a05780601f10611375576101008083540402835291602001916113a0565b820191906000526020600020905b81548152906001019060200180831161138357829003601f168201915b5050505050908060040154905085565b600080600260008673ffffffffffffffffffffffffffffffffffffffff1673ffffffffffffffffffffffffffffffffffffffff16815260200190815260200160002060003373ffffffffffffffffffffffffffffffffffffffff1673ffffffffffffffffffffffffffffffffffffffff16815260200190815260200160002054905082600160008773ffffffffffffffffffffffffffffffffffffffff1673ffffffffffffffffffffffffffffffffffffffff16815260200190815260200160002054101580156114815750828110155b151561148c57600080fd5b82600160008673ffffffffffffffffffffffffffffffffffffffff1673ffffffffffffffffffffffffffffffffffffffff1681526020019081526020016000206000828254019250508190555082600160008773ffffffffffffffffffffffffffffffffffffffff1673ffffffffffffffffffffffffffffffffffffffff168152602001908152602001600020600082825403925050819055507fffffffffffffffffffffffffffffffffffffffffffffffffffffffffffffffff8110156115d95782600260008773ffffffffffffffffffffffffffffffffffffffff1673ffffffffffffffffffffffffffffffffffffffff16815260200190815260200160002060003373ffffffffffffffffffffffffffffffffffffffff1673ffffffffffffffffffffffffffffffffffffffff168152602001908152602001600020600082825403925050819055505b8373ffffffffffffffffffffffffffffffffffffffff168573ffffffffffffffffffffffffffffffffffffffff167fddf252ad1be2c89b69c2b068fc378daa952ba7f163c4a11628f55a4df523b3ef856040518082815260200191505060405180910390a360019150509392505050565b60016020528060005260406000206000915090505481565b6103e881565b600460009054906101000a900460ff1681565b6000600d54841115151561168e57600080fd5b600b6000815480929190600101919050555060c060405190810160405280600b5481526020013373ffffffffffffffffffffffffffffffffffffffff16815260200184815260200183815260200185815260200160006040519080825280602002602001820160405280156117125781602001602082028038833980820191505090505b5081525060076000600b5481526020019081526020016000206000820151816000015560208201518160010160006101000a81548173ffffffffffffffffffffffffffffffffffffffff021916908373ffffffffffffffffffffffffffffffffffffffff1602179055506040820151816002019080519060200190611798929190611fcc565b5060608201518160030190805190602001906117b5929190611fcc565b506080820151816004015560a08201518160050190805190602001906117dc92919061204c565b509050503373ffffffffffffffffffffffffffffffffffffffff16600b547fac3f151df88e61cc6c04370d52b99d5ecedea4caa23bd1db4dfd3cb50f80d40985876040518080602001838152602001828103825284818151815260200191508051906020019080838360005b83811015611863578082015181840152602081019050611848565b50505050905090810190601f1680156118905780820380516001836020036101000a031916815260200191505b50935050505060405180910390a3600190509392505050565b600a5481565b60086020528060005260406000206000915090508060000154908060010160009054906101000a900473ffffffffffffffffffffffffffffffffffffffff16905082565b6002602052816000526040600020602052806000526040600020600091509150505481565b600b5481565b6000600160008373ffffffffffffffffffffffffffffffffffffffff1673ffffffffffffffffffffffffffffffffffffffff168152602001908152602001600020549050919050565b6060600860003373ffffffffffffffffffffffffffffffffffffffff1673ffffffffffffffffffffffffffffffffffffffff1681526020019081526020016000206002018054806020026020016040519081016040528092919081815260200182805480156119f557602002820191906000526020600020905b8154815260200190600101908083116119e1575b5050505050905090565b60058054600181600116156101000203166002900480601f016020809104026020016040519081016040528092919081815260200182805460018160011615610100020316600290048015611a955780601f10611a6a57610100808354040283529160200191611a95565b820191906000526020600020905b815481529060010190602001808311611a7857829003601f168201915b505050505081565b600c5481565b600081600160003373ffffffffffffffffffffffffffffffffffffffff1673ffffffffffffffffffffffffffffffffffffffff1681526020019081526020016000205410151515611af357600080fd5b81600160003373ffffffffffffffffffffffffffffffffffffffff1673ffffffffffffffffffffffffffffffffffffffff1681526020019081526020016000206000828254039250508190555081600160008573ffffffffffffffffffffffffffffffffffffffff1673ffffffffffffffffffffffffffffffffffffffff168152602001908152602001600020600082825401925050819055508273ffffffffffffffffffffffffffffffffffffffff163373ffffffffffffffffffffffffffffffffffffffff167fddf252ad1be2c89b69c2b068fc378daa952ba7f163c4a11628f55a4df523b3ef846040518082815260200191505060405180910390a36001905092915050565b6000600a60008154809291906001019190505550606060405190810160405280600a5481526020013373ffffffffffffffffffffffffffffffffffffffff1681526020016000604051908082528060200260200182016040528015611c705781602001602082028038833980820191505090505b50815250600860003373ffffffffffffffffffffffffffffffffffffffff1673ffffffffffffffffffffffffffffffffffffffff1681526020019081526020016000206000820151816000015560208201518160010160006101000a81548173ffffffffffffffffffffffffffffffffffffffff021916908373ffffffffffffffffffffffffffffffffffffffff1602179055506040820151816002019080519060200190611d2092919061204c565b50905050611d53600e60009054906101000a900473ffffffffffffffffffffffffffffffffffffffff1633600c546113b0565b503373ffffffffffffffffffffffffffffffffffffffff16600a547f4b671216edfc4634e6fc868e9b6d7f7987af44a9da63212698a749b64d04a478600860003373ffffffffffffffffffffffffffffffffffffffff1673ffffffffffffffffffffffffffffffffffffffff16815260200190815260200160002060020160405180806020018281038252838181548152602001915080548015611e1657602002820191906000526020600020905b815481526020019060010190808311611e02575b50509250505060405180910390a36001905090565b60096020528160005260406000206020528060005260406000206000915091509054906101000a900460ff1681565b606060076000838152602001908152602001600020600501805480602002602001604051908101604052809291908181526020018280548015611ebc57602002820191906000526020600020905b815481526020019060010190808311611ea8575b50505050509050919050565b6000600260008473ffffffffffffffffffffffffffffffffffffffff1673ffffffffffffffffffffffffffffffffffffffff16815260200190815260200160002060008373ffffffffffffffffffffffffffffffffffffffff1673ffffffffffffffffffffffffffffffffffffffff16815260200190815260200160002054905092915050565b600e60009054906101000a900473ffffffffffffffffffffffffffffffffffffffff1681565b600d5481565b60008082840290506000841480611f9c5750828482811515611f9957fe5b04145b1515611fa457fe5b8091505092915050565b6000808284019050838110151515611fc257fe5b8091505092915050565b828054600181600116156101000203166002900490600052602060002090601f016020900481019282601f1061200d57805160ff191683800117855561203b565b8280016001018555821561203b579182015b8281111561203a57825182559160200191906001019061201f565b5b5090506120489190612099565b5090565b828054828255906000526020600020908101928215612088579160200282015b8281111561208757825182559160200191906001019061206c565b5b5090506120959190612099565b5090565b6120bb91905b808211156120b757600081600090555060010161209f565b5090565b905600a165627a7a723058203b85fbad08a696548000e72abf40857c56755e5f809c03b82cf4cc64d91fcce10029",
  "source": "pragma solidity ^0.4.18;\n\nimport \"./Token/JournalToken.sol\";\n\ncontract OpenJournal is JournalToken(100000, \"JournalToken\", 18, \"jt\") {\n    \n    struct Journal {\n        uint number;\n        address author;\n        string title;\n        string description;     //    \n        uint value;\n        uint[] subscribed;\n        //uint[] reference_journal;\n    }\n    \n    struct Subscriber {\n        uint subscriber_number;             //  number(   )\n        address subscriber_address;         //  \n        uint[] subscriber_journal;          //   \n    }    \n\n    mapping (uint => Journal) public journals;                                  //   : Journal\n    mapping (address => Subscriber) public subscribers;                         //   : Subscriber\n    mapping (address => mapping (uint => bool)) public is_subscribed;           //     \n\n    uint public subscriberNumber;       // Subscriber ( test  2  )\n    uint public journalNumber;          // Journal ( test  2  )\n    uint public signUpCost;             //   \n    uint public upperbound_value;       //       \n    address public master;    \n\n    event LogSignUp(\n        uint indexed _subscriber_number, \n        address indexed _subscriber_address, \n        uint[] _subscriber_journal\n    );  \n\n    event LogRegistJournal(\n        uint indexed _number, \n        address indexed _author, \n        string _title, \n        uint _value\n    );  \n\n    event LogSubscribeJournal(\n        address indexed _subscriber, \n        uint[] _myjournals, \n        uint[] _subscribed\n    );   \n\n    function OpenJournal(\n        uint _subscriberNumber,\n        uint _journalNumber,\n        uint _signUpCost,\n        uint _upperbound_value\n    ) public {\n        subscriberNumber = _subscriberNumber;\n        journalNumber = _journalNumber;\n        signUpCost = _signUpCost;\n        upperbound_value = _upperbound_value;\n    }   \n\n    function signUp() public returns (bool) {\n        subscriberNumber++;\n\n        subscribers[msg.sender] = Subscriber(\n            subscriberNumber,\n            msg.sender,\n            new uint[](0)\n        );\n\n        transferFrom(master, msg.sender, signUpCost);\n\n        emit LogSignUp(subscriberNumber, msg.sender, subscribers[msg.sender].subscriber_journal);\n\n        return true;\n    }\n\n    function registJournal(uint _journalValue, string _title, string _description) public returns (bool) {\n        require(_journalValue <= upperbound_value);\n        journalNumber++;\n\n        journals[journalNumber] = Journal(\n            journalNumber,\n            msg.sender,\n            _title,\n            _description,\n            _journalValue,\n            new uint[](0)            \n        );\n\n        emit LogRegistJournal(journalNumber, msg.sender, _title, _journalValue);   \n\n        return true;    \n    }\n\n    function subscribeJournal(uint _journalNumber) public returns (bool){\n        require(_journalNumber > 0 && _journalNumber <= journalNumber && is_subscribed[msg.sender][_journalNumber] == false);        \n\n        transfer(journals[_journalNumber].author, journals[_journalNumber].value);\n        uint sub_id = subscribers[msg.sender].subscriber_number;\n\n        subscribers[msg.sender].subscriber_journal.push(_journalNumber);  \n        journals[_journalNumber].subscribed.push(sub_id);       \n        is_subscribed[msg.sender][_journalNumber] = true;\n\n        emit LogSubscribeJournal(msg.sender, subscribers[msg.sender].subscriber_journal, journals[_journalNumber].subscribed);\n\n        return true;\n    }\n\n    function showSubscribedJournal() public view returns (uint[]){\n        return subscribers[msg.sender].subscriber_journal;\n    }\n\n    function showJournalSubscriber(uint _journalNumber) public view returns (uint[]) {\n        return journals[_journalNumber].subscribed;\n    }\n}\n",
  "sourcePath": "/Users/chaminjun/Desktop/GraduationProject/2018-cap1-1/src/OpenJournal/blockchain/contracts/OpenJournal.sol",
  "compiler": {
    "name": "solc",
    "version": "0.4.23+commit.124ca40d.Emscripten.clang"
  },
  "schemaVersion": "2.0.0",
  "updatedAt": "2018-05-03T09:47:12.466Z"
}