{
  "contractName": "OpenJournal",
  "abi": [
    {
      "constant": true,
      "inputs": [],
      "name": "name",
      "outputs": [
        {
          "name": "",
          "type": "string"
        }
      ],
      "payable": false,
      "stateMutability": "view",
      "type": "function"
    },
    {
      "constant": false,
      "inputs": [
        {
          "name": "_spender",
          "type": "address"
        },
        {
          "name": "_value",
          "type": "uint256"
        }
      ],
      "name": "approve",
      "outputs": [
        {
          "name": "success",
          "type": "bool"
        }
      ],
      "payable": false,
      "stateMutability": "nonpayable",
      "type": "function"
    },
    {
      "constant": true,
      "inputs": [],
      "name": "totalSupply",
      "outputs": [
        {
          "name": "",
          "type": "uint256"
        }
      ],
      "payable": false,
      "stateMutability": "view",
      "type": "function"
    },
    {
      "constant": true,
      "inputs": [
        {
          "name": "",
          "type": "uint256"
        }
      ],
      "name": "journals",
      "outputs": [
        {
          "name": "number",
          "type": "uint256"
        },
        {
          "name": "author",
          "type": "address"
        },
        {
          "name": "title",
          "type": "string"
        },
        {
          "name": "description",
          "type": "string"
        },
        {
          "name": "value",
          "type": "uint8"
        }
      ],
      "payable": false,
      "stateMutability": "view",
      "type": "function"
    },
    {
      "constant": false,
      "inputs": [
        {
          "name": "_from",
          "type": "address"
        },
        {
          "name": "_to",
          "type": "address"
        },
        {
          "name": "_value",
          "type": "uint256"
        }
      ],
      "name": "transferFrom",
      "outputs": [
        {
          "name": "success",
          "type": "bool"
        }
      ],
      "payable": false,
      "stateMutability": "nonpayable",
      "type": "function"
    },
    {
      "constant": true,
      "inputs": [
        {
          "name": "",
          "type": "address"
        }
      ],
      "name": "balances",
      "outputs": [
        {
          "name": "",
          "type": "uint256"
        }
      ],
      "payable": false,
      "stateMutability": "view",
      "type": "function"
    },
    {
      "constant": true,
      "inputs": [],
      "name": "rate",
      "outputs": [
        {
          "name": "",
          "type": "uint256"
        }
      ],
      "payable": false,
      "stateMutability": "view",
      "type": "function"
    },
    {
      "constant": true,
      "inputs": [],
      "name": "decimals",
      "outputs": [
        {
          "name": "",
          "type": "uint8"
        }
      ],
      "payable": false,
      "stateMutability": "view",
      "type": "function"
    },
    {
      "constant": true,
      "inputs": [],
      "name": "subscriberNumber",
      "outputs": [
        {
          "name": "",
          "type": "uint256"
        }
      ],
      "payable": false,
      "stateMutability": "view",
      "type": "function"
    },
    {
      "constant": true,
      "inputs": [
        {
          "name": "",
          "type": "address"
        }
      ],
      "name": "subscribers",
      "outputs": [
        {
          "name": "subscriber_number",
          "type": "uint256"
        },
        {
          "name": "subscriber_address",
          "type": "address"
        }
      ],
      "payable": false,
      "stateMutability": "view",
      "type": "function"
    },
    {
      "constant": true,
      "inputs": [
        {
          "name": "",
          "type": "address"
        },
        {
          "name": "",
          "type": "address"
        }
      ],
      "name": "allowed",
      "outputs": [
        {
          "name": "",
          "type": "uint256"
        }
      ],
      "payable": false,
      "stateMutability": "view",
      "type": "function"
    },
    {
      "constant": true,
      "inputs": [],
      "name": "journalNumber",
      "outputs": [
        {
          "name": "",
          "type": "uint256"
        }
      ],
      "payable": false,
      "stateMutability": "view",
      "type": "function"
    },
    {
      "constant": true,
      "inputs": [
        {
          "name": "_owner",
          "type": "address"
        }
      ],
      "name": "balanceOf",
      "outputs": [
        {
          "name": "balance",
          "type": "uint256"
        }
      ],
      "payable": false,
      "stateMutability": "view",
      "type": "function"
    },
    {
      "constant": true,
      "inputs": [],
      "name": "symbol",
      "outputs": [
        {
          "name": "",
          "type": "string"
        }
      ],
      "payable": false,
      "stateMutability": "view",
      "type": "function"
    },
    {
      "constant": true,
      "inputs": [],
      "name": "signUpCost",
      "outputs": [
        {
          "name": "",
          "type": "uint8"
        }
      ],
      "payable": false,
      "stateMutability": "view",
      "type": "function"
    },
    {
      "constant": false,
      "inputs": [],
      "name": "buyToken",
      "outputs": [],
      "payable": true,
      "stateMutability": "payable",
      "type": "function"
    },
    {
      "constant": false,
      "inputs": [
        {
          "name": "_to",
          "type": "address"
        },
        {
          "name": "_value",
          "type": "uint256"
        }
      ],
      "name": "transfer",
      "outputs": [
        {
          "name": "success",
          "type": "bool"
        }
      ],
      "payable": false,
      "stateMutability": "nonpayable",
      "type": "function"
    },
    {
      "constant": true,
      "inputs": [
        {
          "name": "",
          "type": "address"
        },
        {
          "name": "",
          "type": "uint256"
        }
      ],
      "name": "is_subscribed",
      "outputs": [
        {
          "name": "",
          "type": "bool"
        }
      ],
      "payable": false,
      "stateMutability": "view",
      "type": "function"
    },
    {
      "constant": true,
      "inputs": [
        {
          "name": "_owner",
          "type": "address"
        },
        {
          "name": "_spender",
          "type": "address"
        }
      ],
      "name": "allowance",
      "outputs": [
        {
          "name": "remaining",
          "type": "uint256"
        }
      ],
      "payable": false,
      "stateMutability": "view",
      "type": "function"
    },
    {
      "constant": true,
      "inputs": [],
      "name": "master",
      "outputs": [
        {
          "name": "",
          "type": "address"
        }
      ],
      "payable": false,
      "stateMutability": "view",
      "type": "function"
    },
    {
      "constant": true,
      "inputs": [],
      "name": "upperbound_value",
      "outputs": [
        {
          "name": "",
          "type": "uint8"
        }
      ],
      "payable": false,
      "stateMutability": "view",
      "type": "function"
    },
    {
      "inputs": [
        {
          "name": "_subscriberNumber",
          "type": "uint256"
        },
        {
          "name": "_journalNumber",
          "type": "uint256"
        },
        {
          "name": "_signUpCost",
          "type": "uint8"
        },
        {
          "name": "_upperbound_value",
          "type": "uint8"
        }
      ],
      "payable": false,
      "stateMutability": "nonpayable",
      "type": "constructor"
    },
    {
      "payable": true,
      "stateMutability": "payable",
      "type": "fallback"
    },
    {
      "anonymous": false,
      "inputs": [
        {
          "indexed": true,
          "name": "_subscriber_number",
          "type": "uint256"
        },
        {
          "indexed": true,
          "name": "_subscriber_address",
          "type": "address"
        },
        {
          "indexed": false,
          "name": "_subscriber_journal",
          "type": "uint256[]"
        }
      ],
      "name": "LogSignUp",
      "type": "event"
    },
    {
      "anonymous": false,
      "inputs": [
        {
          "indexed": true,
          "name": "_number",
          "type": "uint256"
        },
        {
          "indexed": true,
          "name": "_author",
          "type": "address"
        },
        {
          "indexed": false,
          "name": "_title",
          "type": "string"
        },
        {
          "indexed": false,
          "name": "_value",
          "type": "uint8"
        }
      ],
      "name": "LogRegistJournal",
      "type": "event"
    },
    {
      "anonymous": false,
      "inputs": [
        {
          "indexed": true,
          "name": "_subscriber",
          "type": "address"
        },
        {
          "indexed": false,
          "name": "_myjournals",
          "type": "uint256[]"
        },
        {
          "indexed": false,
          "name": "_subscribed",
          "type": "uint256[]"
        }
      ],
      "name": "LogSubscribeJournal",
      "type": "event"
    },
    {
      "anonymous": false,
      "inputs": [
        {
          "indexed": false,
          "name": "_journals",
          "type": "uint256[]"
        }
      ],
      "name": "LogShowSubscribedJournal",
      "type": "event"
    },
    {
      "anonymous": false,
      "inputs": [
        {
          "indexed": false,
          "name": "_subscriber",
          "type": "uint256[]"
        }
      ],
      "name": "LogShowJournalSubscriber",
      "type": "event"
    },
    {
      "anonymous": false,
      "inputs": [
        {
          "indexed": false,
          "name": "msgValue",
          "type": "uint256"
        },
        {
          "indexed": false,
          "name": "amount",
          "type": "uint256"
        },
        {
          "indexed": false,
          "name": "totalSupply",
          "type": "uint256"
        },
        {
          "indexed": false,
          "name": "msgSender",
          "type": "address"
        },
        {
          "indexed": false,
          "name": "decimals",
          "type": "uint8"
        },
        {
          "indexed": false,
          "name": "symbol",
          "type": "string"
        }
      ],
      "name": "BuyToken",
      "type": "event"
    },
    {
      "anonymous": false,
      "inputs": [
        {
          "indexed": true,
          "name": "_from",
          "type": "address"
        },
        {
          "indexed": true,
          "name": "_to",
          "type": "address"
        },
        {
          "indexed": false,
          "name": "_value",
          "type": "uint256"
        }
      ],
      "name": "Transfer",
      "type": "event"
    },
    {
      "anonymous": false,
      "inputs": [
        {
          "indexed": true,
          "name": "_owner",
          "type": "address"
        },
        {
          "indexed": true,
          "name": "_spender",
          "type": "address"
        },
        {
          "indexed": false,
          "name": "_value",
          "type": "uint256"
        }
      ],
      "name": "Approval",
      "type": "event"
    },
    {
      "constant": false,
      "inputs": [],
      "name": "signUp",
      "outputs": [
        {
          "name": "",
          "type": "bool"
        }
      ],
      "payable": false,
      "stateMutability": "nonpayable",
      "type": "function"
    },
    {
      "constant": false,
      "inputs": [
        {
          "name": "_journalValue",
          "type": "uint8"
        },
        {
          "name": "_title",
          "type": "string"
        },
        {
          "name": "_description",
          "type": "string"
        }
      ],
      "name": "registJournal",
      "outputs": [
        {
          "name": "",
          "type": "bool"
        }
      ],
      "payable": false,
      "stateMutability": "nonpayable",
      "type": "function"
    },
    {
      "constant": false,
      "inputs": [
        {
          "name": "_journalNumber",
          "type": "uint256"
        }
      ],
      "name": "subscribeJournal",
      "outputs": [
        {
          "name": "",
          "type": "bool"
        }
      ],
      "payable": false,
      "stateMutability": "nonpayable",
      "type": "function"
    },
    {
      "constant": true,
      "inputs": [],
      "name": "showSubscribedJournal",
      "outputs": [
        {
          "name": "",
          "type": "uint256[]"
        }
      ],
      "payable": false,
      "stateMutability": "view",
      "type": "function"
    },
    {
      "constant": true,
      "inputs": [
        {
          "name": "_journalNumber",
          "type": "uint256"
        }
      ],
      "name": "showJournalSubscriber",
      "outputs": [
        {
          "name": "",
          "type": "uint256[]"
        }
      ],
      "payable": false,
      "stateMutability": "view",
      "type": "function"
    }
  ],
  "bytecode": "0x60806040523480156200001157600080fd5b506040516080806200261e83398101806040528101908080519060200190929190805190602001909291908051906020019092919080519060200190929190505050620186a06040805190810160405280600c81526020017f4a6f75726e616c546f6b656e000000000000000000000000000000000000000081525060126040805190810160405280600281526020017f6a7400000000000000000000000000000000000000000000000000000000000081525083600160003373ffffffffffffffffffffffffffffffffffffffff1673ffffffffffffffffffffffffffffffffffffffff1681526020019081526020016000208190555083600081905550826003908051906020019062000128929190620001f0565b5081600460006101000a81548160ff021916908360ff16021790555080600590805190602001906200015c929190620001f0565b5033600660006101000a81548173ffffffffffffffffffffffffffffffffffffffff021916908373ffffffffffffffffffffffffffffffffffffffff1602179055505050505083600a8190555082600b8190555081600c60006101000a81548160ff021916908360ff16021790555080600c60016101000a81548160ff021916908360ff160217905550505050506200029f565b828054600181600116156101000203166002900490600052602060002090601f016020900481019282601f106200023357805160ff191683800117855562000264565b8280016001018555821562000264579182015b828111156200026357825182559160200191906001019062000246565b5b50905062000273919062000277565b5090565b6200029c91905b80821115620002985760008160009055506001016200027e565b5090565b90565b61236f80620002af6000396000f300608060405260043610610154576000357c0100000000000000000000000000000000000000000000000000000000900463ffffffff16806306fdde031461015e578063095ea7b3146101ee5780630ec8e9b71461025357806318160ddd14610298578063197cc19e146102c35780631f953a571461041c57806323b872dd146104f057806327e235e3146105755780632c4e722e146105cc578063313ce567146105f75780634c3f4487146106285780635745ae28146106535780635c658165146106dd5780635ee490d21461075457806370a082311461077f578063883d9184146107d657806395d89b41146108425780639e9378cc146108d2578063a482171914610903578063a9059cbb1461090d578063bf96ae6314610972578063c1f9c930146109a1578063c475b17314610a06578063dd62ed3e14610a88578063ee97f7f314610aff578063f23c081b14610b56575b61015c610b87565b005b34801561016a57600080fd5b50610173610def565b6040518080602001828103825283818151815260200191508051906020019080838360005b838110156101b3578082015181840152602081019050610198565b50505050905090810190601f1680156101e05780820380516001836020036101000a031916815260200191505b509250505060405180910390f35b3480156101fa57600080fd5b50610239600480360381019080803573ffffffffffffffffffffffffffffffffffffffff16906020019092919080359060200190929190505050610e8d565b604051808215151515815260200191505060405180910390f35b34801561025f57600080fd5b5061027e60048036038101908080359060200190929190505050610f7f565b604051808215151515815260200191505060405180910390f35b3480156102a457600080fd5b506102ad6112ff565b6040518082815260200191505060405180910390f35b3480156102cf57600080fd5b506102ee60048036038101908080359060200190929190505050611305565b604051808681526020018573ffffffffffffffffffffffffffffffffffffffff1673ffffffffffffffffffffffffffffffffffffffff16815260200180602001806020018460ff1660ff168152602001838103835286818151815260200191508051906020019080838360005b8381101561037657808201518184015260208101905061035b565b50505050905090810190601f1680156103a35780820380516001836020036101000a031916815260200191505b50838103825285818151815260200191508051906020019080838360005b838110156103dc5780820151818401526020810190506103c1565b50505050905090810190601f1680156104095780820380516001836020036101000a031916815260200191505b5097505050505050505060405180910390f35b34801561042857600080fd5b506104d6600480360381019080803560ff169060200190929190803590602001908201803590602001908080601f0160208091040260200160405190810160405280939291908181526020018383808284378201915050505050509192919290803590602001908201803590602001908080601f0160208091040260200160405190810160405280939291908181526020018383808284378201915050505050509192919290505050611498565b604051808215151515815260200191505060405180910390f35b3480156104fc57600080fd5b5061055b600480360381019080803573ffffffffffffffffffffffffffffffffffffffff169060200190929190803573ffffffffffffffffffffffffffffffffffffffff169060200190929190803590602001909291905050506116f9565b604051808215151515815260200191505060405180910390f35b34801561058157600080fd5b506105b6600480360381019080803573ffffffffffffffffffffffffffffffffffffffff169060200190929190505050611993565b6040518082815260200191505060405180910390f35b3480156105d857600080fd5b506105e16119ab565b6040518082815260200191505060405180910390f35b34801561060357600080fd5b5061060c6119b1565b604051808260ff1660ff16815260200191505060405180910390f35b34801561063457600080fd5b5061063d6119c4565b6040518082815260200191505060405180910390f35b34801561065f57600080fd5b50610694600480360381019080803573ffffffffffffffffffffffffffffffffffffffff1690602001909291905050506119ca565b604051808381526020018273ffffffffffffffffffffffffffffffffffffffff1673ffffffffffffffffffffffffffffffffffffffff1681526020019250505060405180910390f35b3480156106e957600080fd5b5061073e600480360381019080803573ffffffffffffffffffffffffffffffffffffffff169060200190929190803573ffffffffffffffffffffffffffffffffffffffff169060200190929190505050611a0e565b6040518082815260200191505060405180910390f35b34801561076057600080fd5b50610769611a33565b6040518082815260200191505060405180910390f35b34801561078b57600080fd5b506107c0600480360381019080803573ffffffffffffffffffffffffffffffffffffffff169060200190929190505050611a39565b6040518082815260200191505060405180910390f35b3480156107e257600080fd5b506107eb611a82565b6040518080602001828103825283818151815260200191508051906020019060200280838360005b8381101561082e578082015181840152602081019050610813565b505050509050019250505060405180910390f35b34801561084e57600080fd5b50610857611bd0565b6040518080602001828103825283818151815260200191508051906020019080838360005b8381101561089757808201518184015260208101905061087c565b50505050905090810190601f1680156108c45780820380516001836020036101000a031916815260200191505b509250505060405180910390f35b3480156108de57600080fd5b506108e7611c6e565b604051808260ff1660ff16815260200191505060405180910390f35b61090b610b87565b005b34801561091957600080fd5b50610958600480360381019080803573ffffffffffffffffffffffffffffffffffffffff16906020019092919080359060200190929190505050611c81565b604051808215151515815260200191505060405180910390f35b34801561097e57600080fd5b50610987611dda565b604051808215151515815260200191505060405180910390f35b3480156109ad57600080fd5b506109ec600480360381019080803573ffffffffffffffffffffffffffffffffffffffff16906020019092919080359060200190929190505050612019565b604051808215151515815260200191505060405180910390f35b348015610a1257600080fd5b50610a3160048036038101908080359060200190929190505050612048565b6040518080602001828103825283818151815260200191508051906020019060200280838360005b83811015610a74578082015181840152602081019050610a59565b505050509050019250505060405180910390f35b348015610a9457600080fd5b50610ae9600480360381019080803573ffffffffffffffffffffffffffffffffffffffff169060200190929190803573ffffffffffffffffffffffffffffffffffffffff169060200190929190505050612140565b6040518082815260200191505060405180910390f35b348015610b0b57600080fd5b50610b146121c7565b604051808273ffffffffffffffffffffffffffffffffffffffff1673ffffffffffffffffffffffffffffffffffffffff16815260200191505060405180910390f35b348015610b6257600080fd5b50610b6b6121ed565b604051808260ff1660ff16815260200191505060405180910390f35b60008034111515610b9757600080fd5b610bac6103e83461220090919063ffffffff16565b9050610c0081600160003373ffffffffffffffffffffffffffffffffffffffff1673ffffffffffffffffffffffffffffffffffffffff1681526020019081526020016000205461223390919063ffffffff16565b600160003373ffffffffffffffffffffffffffffffffffffffff1673ffffffffffffffffffffffffffffffffffffffff16815260200190815260200160002081905550610c588160005461223390919063ffffffff16565b600081905550600660009054906101000a900473ffffffffffffffffffffffffffffffffffffffff1673ffffffffffffffffffffffffffffffffffffffff166108fc349081150290604051600060405180830381858888f19350505050158015610cc6573d6000803e3d6000fd5b507f712a7c91acc43a1321298fb00af337b26e06f3905018f430338ea13df04e7db6348260005433600460009054906101000a900460ff166005604051808781526020018681526020018581526020018473ffffffffffffffffffffffffffffffffffffffff1673ffffffffffffffffffffffffffffffffffffffff1681526020018360ff1660ff16815260200180602001828103825283818154600181600116156101000203166002900481526020019150805460018160011615610100020316600290048015610dd95780601f10610dae57610100808354040283529160200191610dd9565b820191906000526020600020905b815481529060010190602001808311610dbc57829003601f168201915b505097505050505050505060405180910390a150565b60038054600181600116156101000203166002900480601f016020809104026020016040519081016040528092919081815260200182805460018160011615610100020316600290048015610e855780601f10610e5a57610100808354040283529160200191610e85565b820191906000526020600020905b815481529060010190602001808311610e6857829003601f168201915b505050505081565b600081600260003373ffffffffffffffffffffffffffffffffffffffff1673ffffffffffffffffffffffffffffffffffffffff16815260200190815260200160002060008573ffffffffffffffffffffffffffffffffffffffff1673ffffffffffffffffffffffffffffffffffffffff168152602001908152602001600020819055508273ffffffffffffffffffffffffffffffffffffffff163373ffffffffffffffffffffffffffffffffffffffff167f8c5be1e5ebec7d5bd14f71427d1e84f3dd0314c0f7b2291e5b200ac8c7c3b925846040518082815260200191505060405180910390a36001905092915050565b600080600083118015610f945750600b548311155b8015611001575060001515600960003373ffffffffffffffffffffffffffffffffffffffff1673ffffffffffffffffffffffffffffffffffffffff168152602001908152602001600020600085815260200190815260200160002060009054906101000a900460ff161515145b151561100c57600080fd5b6110726007600085815260200190815260200160002060010160009054906101000a900473ffffffffffffffffffffffffffffffffffffffff166007600086815260200190815260200160002060040160009054906101000a900460ff1660ff16611c81565b50600860003373ffffffffffffffffffffffffffffffffffffffff1673ffffffffffffffffffffffffffffffffffffffff168152602001908152602001600020600001549050600860003373ffffffffffffffffffffffffffffffffffffffff1673ffffffffffffffffffffffffffffffffffffffff168152602001908152602001600020600201839080600181540180825580915050906001820390600052602060002001600090919290919091505550600760008481526020019081526020016000206005018190806001815401808255809150509060018203906000526020600020016000909192909190915055506001600960003373ffffffffffffffffffffffffffffffffffffffff1673ffffffffffffffffffffffffffffffffffffffff168152602001908152602001600020600085815260200190815260200160002060006101000a81548160ff0219169083151502179055503373ffffffffffffffffffffffffffffffffffffffff167ff1c720f62d23fcc4facc0e74b1d49efa7fc5c9f2f41a04324adc249277336f22600860003373ffffffffffffffffffffffffffffffffffffffff1673ffffffffffffffffffffffffffffffffffffffff1681526020019081526020016000206002016007600087815260200190815260200160002060050160405180806020018060200183810383528581815481526020019150805480156112a657602002820191906000526020600020905b815481526020019060010190808311611292575b505083810382528481815481526020019150805480156112e557602002820191906000526020600020905b8154815260200190600101908083116112d1575b505094505050505060405180910390a26001915050919050565b60005481565b60076020528060005260406000206000915090508060000154908060010160009054906101000a900473ffffffffffffffffffffffffffffffffffffffff1690806002018054600181600116156101000203166002900480601f0160208091040260200160405190810160405280929190818152602001828054600181600116156101000203166002900480156113dd5780601f106113b2576101008083540402835291602001916113dd565b820191906000526020600020905b8154815290600101906020018083116113c057829003601f168201915b505050505090806003018054600181600116156101000203166002900480601f01602080910402602001604051908101604052809291908181526020018280546001816001161561010002031660029004801561147b5780601f106114505761010080835404028352916020019161147b565b820191906000526020600020905b81548152906001019060200180831161145e57829003601f168201915b5050505050908060040160009054906101000a900460ff16905085565b6000600c60019054906101000a900460ff1660ff168460ff16111515156114be57600080fd5b600b6000815480929190600101919050555060c060405190810160405280600b5481526020013373ffffffffffffffffffffffffffffffffffffffff1681526020018481526020018381526020018560ff16815260200160006040519080825280602002602001820160405280156115455781602001602082028038833980820191505090505b5081525060076000600b5481526020019081526020016000206000820151816000015560208201518160010160006101000a81548173ffffffffffffffffffffffffffffffffffffffff021916908373ffffffffffffffffffffffffffffffffffffffff16021790555060408201518160020190805190602001906115cb929190612251565b5060608201518160030190805190602001906115e8929190612251565b5060808201518160040160006101000a81548160ff021916908360ff16021790555060a08201518160050190805190602001906116269291906122d1565b509050503373ffffffffffffffffffffffffffffffffffffffff16600b547fe52515fa15a0cfd32fd25a657d2146ea496a781b5c94f883f655b733c942b702858760405180806020018360ff1660ff168152602001828103825284818151815260200191508051906020019080838360005b838110156116b3578082015181840152602081019050611698565b50505050905090810190601f1680156116e05780820380516001836020036101000a031916815260200191505b50935050505060405180910390a3600190509392505050565b600080600260008673ffffffffffffffffffffffffffffffffffffffff1673ffffffffffffffffffffffffffffffffffffffff16815260200190815260200160002060003373ffffffffffffffffffffffffffffffffffffffff1673ffffffffffffffffffffffffffffffffffffffff16815260200190815260200160002054905082600160008773ffffffffffffffffffffffffffffffffffffffff1673ffffffffffffffffffffffffffffffffffffffff16815260200190815260200160002054101580156117ca5750828110155b15156117d557600080fd5b82600160008673ffffffffffffffffffffffffffffffffffffffff1673ffffffffffffffffffffffffffffffffffffffff1681526020019081526020016000206000828254019250508190555082600160008773ffffffffffffffffffffffffffffffffffffffff1673ffffffffffffffffffffffffffffffffffffffff168152602001908152602001600020600082825403925050819055507fffffffffffffffffffffffffffffffffffffffffffffffffffffffffffffffff8110156119225782600260008773ffffffffffffffffffffffffffffffffffffffff1673ffffffffffffffffffffffffffffffffffffffff16815260200190815260200160002060003373ffffffffffffffffffffffffffffffffffffffff1673ffffffffffffffffffffffffffffffffffffffff168152602001908152602001600020600082825403925050819055505b8373ffffffffffffffffffffffffffffffffffffffff168573ffffffffffffffffffffffffffffffffffffffff167fddf252ad1be2c89b69c2b068fc378daa952ba7f163c4a11628f55a4df523b3ef856040518082815260200191505060405180910390a360019150509392505050565b60016020528060005260406000206000915090505481565b6103e881565b600460009054906101000a900460ff1681565b600a5481565b60086020528060005260406000206000915090508060000154908060010160009054906101000a900473ffffffffffffffffffffffffffffffffffffffff16905082565b6002602052816000526040600020602052806000526040600020600091509150505481565b600b5481565b6000600160008373ffffffffffffffffffffffffffffffffffffffff1673ffffffffffffffffffffffffffffffffffffffff168152602001908152602001600020549050919050565b60607f8bc2e06f62da7b9fdc5203cddbd68637aacc4909869d52e589449b6718ffa3ef600860003373ffffffffffffffffffffffffffffffffffffffff1673ffffffffffffffffffffffffffffffffffffffff16815260200190815260200160002060020160405180806020018281038252838181548152602001915080548015611b2c57602002820191906000526020600020905b815481526020019060010190808311611b18575b50509250505060405180910390a1600860003373ffffffffffffffffffffffffffffffffffffffff1673ffffffffffffffffffffffffffffffffffffffff168152602001908152602001600020600201805480602002602001604051908101604052809291908181526020018280548015611bc657602002820191906000526020600020905b815481526020019060010190808311611bb2575b5050505050905090565b60058054600181600116156101000203166002900480601f016020809104026020016040519081016040528092919081815260200182805460018160011615610100020316600290048015611c665780601f10611c3b57610100808354040283529160200191611c66565b820191906000526020600020905b815481529060010190602001808311611c4957829003601f168201915b505050505081565b600c60009054906101000a900460ff1681565b600081600160003373ffffffffffffffffffffffffffffffffffffffff1673ffffffffffffffffffffffffffffffffffffffff1681526020019081526020016000205410151515611cd157600080fd5b81600160003373ffffffffffffffffffffffffffffffffffffffff1673ffffffffffffffffffffffffffffffffffffffff1681526020019081526020016000206000828254039250508190555081600160008573ffffffffffffffffffffffffffffffffffffffff1673ffffffffffffffffffffffffffffffffffffffff168152602001908152602001600020600082825401925050819055508273ffffffffffffffffffffffffffffffffffffffff163373ffffffffffffffffffffffffffffffffffffffff167fddf252ad1be2c89b69c2b068fc378daa952ba7f163c4a11628f55a4df523b3ef846040518082815260200191505060405180910390a36001905092915050565b6000600a60008154809291906001019190505550606060405190810160405280600a5481526020013373ffffffffffffffffffffffffffffffffffffffff1681526020016000604051908082528060200260200182016040528015611e4e5781602001602082028038833980820191505090505b50815250600860003373ffffffffffffffffffffffffffffffffffffffff1673ffffffffffffffffffffffffffffffffffffffff1681526020019081526020016000206000820151816000015560208201518160010160006101000a81548173ffffffffffffffffffffffffffffffffffffffff021916908373ffffffffffffffffffffffffffffffffffffffff1602179055506040820151816002019080519060200190611efe9291906122d1565b50905050611f41600c60029054906101000a900473ffffffffffffffffffffffffffffffffffffffff1633600c60009054906101000a900460ff1660ff166116f9565b503373ffffffffffffffffffffffffffffffffffffffff16600a547f4b671216edfc4634e6fc868e9b6d7f7987af44a9da63212698a749b64d04a478600860003373ffffffffffffffffffffffffffffffffffffffff1673ffffffffffffffffffffffffffffffffffffffff1681526020019081526020016000206002016040518080602001828103825283818154815260200191508054801561200457602002820191906000526020600020905b815481526020019060010190808311611ff0575b50509250505060405180910390a36001905090565b60096020528160005260406000206020528060005260406000206000915091509054906101000a900460ff1681565b60607f0c4ae26fb47ae87df3d36e82881909ed1eaf2243302e2b307bf1c64aefc8456c60076000848152602001908152602001600020600501604051808060200182810382528381815481526020019150805480156120c657602002820191906000526020600020905b8154815260200190600101908083116120b2575b50509250505060405180910390a16007600083815260200190815260200160002060050180548060200260200160405190810160405280929190818152602001828054801561213457602002820191906000526020600020905b815481526020019060010190808311612120575b50505050509050919050565b6000600260008473ffffffffffffffffffffffffffffffffffffffff1673ffffffffffffffffffffffffffffffffffffffff16815260200190815260200160002060008373ffffffffffffffffffffffffffffffffffffffff1673ffffffffffffffffffffffffffffffffffffffff16815260200190815260200160002054905092915050565b600c60029054906101000a900473ffffffffffffffffffffffffffffffffffffffff1681565b600c60019054906101000a900460ff1681565b60008082840290506000841480612221575082848281151561221e57fe5b04145b151561222957fe5b8091505092915050565b600080828401905083811015151561224757fe5b8091505092915050565b828054600181600116156101000203166002900490600052602060002090601f016020900481019282601f1061229257805160ff19168380011785556122c0565b828001600101855582156122c0579182015b828111156122bf5782518255916020019190600101906122a4565b5b5090506122cd919061231e565b5090565b82805482825590600052602060002090810192821561230d579160200282015b8281111561230c5782518255916020019190600101906122f1565b5b50905061231a919061231e565b5090565b61234091905b8082111561233c576000816000905550600101612324565b5090565b905600a165627a7a7230582040f3d985467b3af990413a62b5c0477b079641cbd2aa7ba57dafd67ff89a2a260029",
  "source": "pragma solidity ^0.4.18;\n\nimport \"./Token/JournalToken.sol\";\n\ncontract OpenJournal is JournalToken(100000, \"JournalToken\", 18, \"jt\") {\n    \n    struct Journal {\n        uint256 number;\n        address author;\n        string title;\n        string description;     //    \n        uint8 value;\n        uint[] subscribed;\n        //uint[] reference_journal;\n    }\n    \n    struct Subscriber {\n        uint256 subscriber_number;          //  number(   )\n        address subscriber_address;         //  \n        uint[] subscriber_journal;          //   \n    }    \n\n    mapping (uint => Journal) public journals;                                  //   : Journal\n    mapping (address => Subscriber) public subscribers;                         //   : Subscriber\n    mapping (address => mapping (uint => bool)) public is_subscribed;           //     \n\n    uint256 public subscriberNumber;       // Subscriber ( test  2  )\n    uint256 public journalNumber;          // Journal ( test  2  )\n    uint8 public signUpCost;               //   \n    uint8 public upperbound_value;         //       \n    address public master;    \n\n    event LogSignUp(\n        uint256 indexed _subscriber_number, \n        address indexed _subscriber_address, \n        uint[] _subscriber_journal\n    );  \n\n    event LogRegistJournal(\n        uint256 indexed _number, \n        address indexed _author, \n        string _title, \n        uint8 _value\n    );  \n\n    event LogSubscribeJournal(\n        address indexed _subscriber, \n        uint[] _myjournals, \n        uint[] _subscribed\n    );\n\n    event LogShowSubscribedJournal(\n        uint[] _journals\n    );  \n\n    event LogShowJournalSubscriber(\n        uint[] _subscriber\n    );     \n\n    function OpenJournal(\n        uint256 _subscriberNumber,\n        uint256 _journalNumber,\n        uint8 _signUpCost,\n        uint8 _upperbound_value\n    ) public {\n        subscriberNumber = _subscriberNumber;\n        journalNumber = _journalNumber;\n        signUpCost = _signUpCost;\n        upperbound_value = _upperbound_value;\n    }   \n\n    function signUp() public returns (bool) {\n        subscriberNumber++;\n\n        subscribers[msg.sender] = Subscriber(\n            subscriberNumber,\n            msg.sender,\n            new uint[](0)\n        );\n\n        transferFrom(master, msg.sender, signUpCost);\n\n        emit LogSignUp(subscriberNumber, msg.sender, subscribers[msg.sender].subscriber_journal);\n\n        return true;\n    }\n\n    function registJournal(uint8 _journalValue, string _title, string _description) public returns (bool) {\n        require(_journalValue <= upperbound_value);\n        journalNumber++;\n\n        journals[journalNumber] = Journal(\n            journalNumber,\n            msg.sender,\n            _title,\n            _description,\n            _journalValue,\n            new uint[](0)            \n        );\n\n        emit LogRegistJournal(journalNumber, msg.sender, _title, _journalValue);   \n\n        return true;    \n    }\n\n    function subscribeJournal(uint256 _journalNumber) public returns (bool){\n        require(_journalNumber > 0 && _journalNumber <= journalNumber && is_subscribed[msg.sender][_journalNumber] == false);        \n\n        transfer(journals[_journalNumber].author, journals[_journalNumber].value);\n        uint sub_id = subscribers[msg.sender].subscriber_number;\n\n        subscribers[msg.sender].subscriber_journal.push(_journalNumber);  \n        journals[_journalNumber].subscribed.push(sub_id);       \n        is_subscribed[msg.sender][_journalNumber] = true;\n\n        emit LogSubscribeJournal(msg.sender, subscribers[msg.sender].subscriber_journal, journals[_journalNumber].subscribed);\n\n        return true;\n    }\n\n    function showSubscribedJournal() public view returns (uint[]){\n        emit LogShowSubscribedJournal(subscribers[msg.sender].subscriber_journal);\n\n        return subscribers[msg.sender].subscriber_journal;\n    }\n\n    function showJournalSubscriber(uint _journalNumber) public view returns (uint[]) {\n        emit LogShowJournalSubscriber(journals[_journalNumber].subscribed);\n\n        return journals[_journalNumber].subscribed;\n    }\n}\n",
  "sourcePath": "/Users/chaminjun/Desktop/GraduationProject/2018-cap1-1/src/OpenJournal/blockchain/contracts/OpenJournal.sol",
  "compiler": {
    "name": "solc",
    "version": "0.4.23+commit.124ca40d.Emscripten.clang"
  },
  "schemaVersion": "2.0.0",
  "updatedAt": "2018-05-04T14:46:14.088Z"
}