{
  "contractName": "OpenJournal",
  "abi": [
    {
      "constant": true,
      "inputs": [],
      "name": "name",
      "outputs": [
        {
          "name": "",
          "type": "string"
        }
      ],
      "payable": false,
      "stateMutability": "view",
      "type": "function"
    },
    {
      "constant": false,
      "inputs": [
        {
          "name": "_spender",
          "type": "address"
        },
        {
          "name": "_value",
          "type": "uint256"
        }
      ],
      "name": "approve",
      "outputs": [
        {
          "name": "success",
          "type": "bool"
        }
      ],
      "payable": false,
      "stateMutability": "nonpayable",
      "type": "function"
    },
    {
      "constant": true,
      "inputs": [],
      "name": "totalSupply",
      "outputs": [
        {
          "name": "",
          "type": "uint256"
        }
      ],
      "payable": false,
      "stateMutability": "view",
      "type": "function"
    },
    {
      "constant": true,
      "inputs": [
        {
          "name": "",
          "type": "uint256"
        }
      ],
      "name": "journals",
      "outputs": [
        {
          "name": "number",
          "type": "uint256"
        },
        {
          "name": "author",
          "type": "address"
        },
        {
          "name": "title",
          "type": "string"
        },
        {
          "name": "description",
          "type": "string"
        },
        {
          "name": "value",
          "type": "uint8"
        }
      ],
      "payable": false,
      "stateMutability": "view",
      "type": "function"
    },
    {
      "constant": false,
      "inputs": [
        {
          "name": "_from",
          "type": "address"
        },
        {
          "name": "_to",
          "type": "address"
        },
        {
          "name": "_value",
          "type": "uint256"
        }
      ],
      "name": "transferFrom",
      "outputs": [
        {
          "name": "success",
          "type": "bool"
        }
      ],
      "payable": false,
      "stateMutability": "nonpayable",
      "type": "function"
    },
    {
      "constant": true,
      "inputs": [
        {
          "name": "",
          "type": "address"
        }
      ],
      "name": "balances",
      "outputs": [
        {
          "name": "",
          "type": "uint256"
        }
      ],
      "payable": false,
      "stateMutability": "view",
      "type": "function"
    },
    {
      "constant": true,
      "inputs": [],
      "name": "rate",
      "outputs": [
        {
          "name": "",
          "type": "uint256"
        }
      ],
      "payable": false,
      "stateMutability": "view",
      "type": "function"
    },
    {
      "constant": true,
      "inputs": [],
      "name": "decimals",
      "outputs": [
        {
          "name": "",
          "type": "uint8"
        }
      ],
      "payable": false,
      "stateMutability": "view",
      "type": "function"
    },
    {
      "constant": true,
      "inputs": [],
      "name": "subscriberNumber",
      "outputs": [
        {
          "name": "",
          "type": "uint256"
        }
      ],
      "payable": false,
      "stateMutability": "view",
      "type": "function"
    },
    {
      "constant": true,
      "inputs": [
        {
          "name": "",
          "type": "address"
        }
      ],
      "name": "subscribers",
      "outputs": [
        {
          "name": "subscriber_number",
          "type": "uint256"
        },
        {
          "name": "subscriber_address",
          "type": "address"
        }
      ],
      "payable": false,
      "stateMutability": "view",
      "type": "function"
    },
    {
      "constant": true,
      "inputs": [
        {
          "name": "",
          "type": "address"
        },
        {
          "name": "",
          "type": "address"
        }
      ],
      "name": "allowed",
      "outputs": [
        {
          "name": "",
          "type": "uint256"
        }
      ],
      "payable": false,
      "stateMutability": "view",
      "type": "function"
    },
    {
      "constant": true,
      "inputs": [],
      "name": "journalNumber",
      "outputs": [
        {
          "name": "",
          "type": "uint256"
        }
      ],
      "payable": false,
      "stateMutability": "view",
      "type": "function"
    },
    {
      "constant": true,
      "inputs": [
        {
          "name": "_owner",
          "type": "address"
        }
      ],
      "name": "balanceOf",
      "outputs": [
        {
          "name": "balance",
          "type": "uint256"
        }
      ],
      "payable": false,
      "stateMutability": "view",
      "type": "function"
    },
    {
      "constant": true,
      "inputs": [],
      "name": "owner",
      "outputs": [
        {
          "name": "",
          "type": "address"
        }
      ],
      "payable": false,
      "stateMutability": "view",
      "type": "function"
    },
    {
      "constant": true,
      "inputs": [],
      "name": "symbol",
      "outputs": [
        {
          "name": "",
          "type": "string"
        }
      ],
      "payable": false,
      "stateMutability": "view",
      "type": "function"
    },
    {
      "constant": true,
      "inputs": [],
      "name": "signUpCost",
      "outputs": [
        {
          "name": "",
          "type": "uint8"
        }
      ],
      "payable": false,
      "stateMutability": "view",
      "type": "function"
    },
    {
      "constant": false,
      "inputs": [],
      "name": "buyToken",
      "outputs": [],
      "payable": true,
      "stateMutability": "payable",
      "type": "function"
    },
    {
      "constant": false,
      "inputs": [
        {
          "name": "_newOwner",
          "type": "address"
        }
      ],
      "name": "changeOwner",
      "outputs": [],
      "payable": false,
      "stateMutability": "nonpayable",
      "type": "function"
    },
    {
      "constant": false,
      "inputs": [
        {
          "name": "_to",
          "type": "address"
        },
        {
          "name": "_value",
          "type": "uint256"
        }
      ],
      "name": "transfer",
      "outputs": [
        {
          "name": "success",
          "type": "bool"
        }
      ],
      "payable": false,
      "stateMutability": "nonpayable",
      "type": "function"
    },
    {
      "constant": true,
      "inputs": [
        {
          "name": "",
          "type": "address"
        },
        {
          "name": "",
          "type": "uint256"
        }
      ],
      "name": "is_subscribed",
      "outputs": [
        {
          "name": "",
          "type": "bool"
        }
      ],
      "payable": false,
      "stateMutability": "view",
      "type": "function"
    },
    {
      "constant": true,
      "inputs": [
        {
          "name": "_owner",
          "type": "address"
        },
        {
          "name": "_spender",
          "type": "address"
        }
      ],
      "name": "allowance",
      "outputs": [
        {
          "name": "remaining",
          "type": "uint256"
        }
      ],
      "payable": false,
      "stateMutability": "view",
      "type": "function"
    },
    {
      "constant": true,
      "inputs": [],
      "name": "upperbound_value",
      "outputs": [
        {
          "name": "",
          "type": "uint8"
        }
      ],
      "payable": false,
      "stateMutability": "view",
      "type": "function"
    },
    {
      "inputs": [
        {
          "name": "_subscriberNumber",
          "type": "uint256"
        },
        {
          "name": "_journalNumber",
          "type": "uint256"
        },
        {
          "name": "_signUpCost",
          "type": "uint8"
        },
        {
          "name": "_upperbound_value",
          "type": "uint8"
        }
      ],
      "payable": false,
      "stateMutability": "nonpayable",
      "type": "constructor"
    },
    {
      "payable": true,
      "stateMutability": "payable",
      "type": "fallback"
    },
    {
      "anonymous": false,
      "inputs": [
        {
          "indexed": true,
          "name": "_subscriber_number",
          "type": "uint256"
        },
        {
          "indexed": true,
          "name": "_subscriber_address",
          "type": "address"
        },
        {
          "indexed": false,
          "name": "_subscriber_journal",
          "type": "uint256[]"
        }
      ],
      "name": "LogSignUp",
      "type": "event"
    },
    {
      "anonymous": false,
      "inputs": [
        {
          "indexed": true,
          "name": "_number",
          "type": "uint256"
        },
        {
          "indexed": true,
          "name": "_author",
          "type": "address"
        },
        {
          "indexed": false,
          "name": "_title",
          "type": "string"
        },
        {
          "indexed": false,
          "name": "_value",
          "type": "uint8"
        }
      ],
      "name": "LogRegistJournal",
      "type": "event"
    },
    {
      "anonymous": false,
      "inputs": [
        {
          "indexed": true,
          "name": "_subscriber",
          "type": "address"
        },
        {
          "indexed": false,
          "name": "_myjournals",
          "type": "uint256[]"
        },
        {
          "indexed": false,
          "name": "_subscribed",
          "type": "uint256[]"
        },
        {
          "indexed": false,
          "name": "_is_subscribed",
          "type": "bool"
        }
      ],
      "name": "LogSubscribeJournal",
      "type": "event"
    },
    {
      "anonymous": false,
      "inputs": [
        {
          "indexed": false,
          "name": "_journals",
          "type": "uint256[]"
        }
      ],
      "name": "LogShowSubscribedJournal",
      "type": "event"
    },
    {
      "anonymous": false,
      "inputs": [
        {
          "indexed": false,
          "name": "_subscriber",
          "type": "uint256[]"
        }
      ],
      "name": "LogShowJournalSubscriber",
      "type": "event"
    },
    {
      "anonymous": false,
      "inputs": [
        {
          "indexed": false,
          "name": "msgValue",
          "type": "uint256"
        },
        {
          "indexed": false,
          "name": "amount",
          "type": "uint256"
        },
        {
          "indexed": false,
          "name": "totalSupply",
          "type": "uint256"
        },
        {
          "indexed": false,
          "name": "msgSender",
          "type": "address"
        },
        {
          "indexed": false,
          "name": "decimals",
          "type": "uint8"
        },
        {
          "indexed": false,
          "name": "symbol",
          "type": "string"
        }
      ],
      "name": "BuyToken",
      "type": "event"
    },
    {
      "anonymous": false,
      "inputs": [
        {
          "indexed": true,
          "name": "_from",
          "type": "address"
        },
        {
          "indexed": true,
          "name": "_to",
          "type": "address"
        },
        {
          "indexed": false,
          "name": "_value",
          "type": "uint256"
        }
      ],
      "name": "Transfer",
      "type": "event"
    },
    {
      "anonymous": false,
      "inputs": [
        {
          "indexed": true,
          "name": "_owner",
          "type": "address"
        },
        {
          "indexed": true,
          "name": "_spender",
          "type": "address"
        },
        {
          "indexed": false,
          "name": "_value",
          "type": "uint256"
        }
      ],
      "name": "Approval",
      "type": "event"
    },
    {
      "constant": false,
      "inputs": [
        {
          "name": "_to",
          "type": "address"
        }
      ],
      "name": "signUp",
      "outputs": [
        {
          "name": "",
          "type": "bool"
        }
      ],
      "payable": false,
      "stateMutability": "nonpayable",
      "type": "function"
    },
    {
      "constant": false,
      "inputs": [
        {
          "name": "_journalValue",
          "type": "uint8"
        },
        {
          "name": "_title",
          "type": "string"
        },
        {
          "name": "_description",
          "type": "string"
        }
      ],
      "name": "registJournal",
      "outputs": [
        {
          "name": "",
          "type": "bool"
        }
      ],
      "payable": false,
      "stateMutability": "nonpayable",
      "type": "function"
    },
    {
      "constant": false,
      "inputs": [
        {
          "name": "_journalNumber",
          "type": "uint256"
        }
      ],
      "name": "subscribeJournal",
      "outputs": [
        {
          "name": "",
          "type": "bool"
        }
      ],
      "payable": false,
      "stateMutability": "nonpayable",
      "type": "function"
    },
    {
      "constant": true,
      "inputs": [],
      "name": "showSubscribedJournal",
      "outputs": [
        {
          "name": "",
          "type": "uint256[]"
        }
      ],
      "payable": false,
      "stateMutability": "view",
      "type": "function"
    },
    {
      "constant": true,
      "inputs": [
        {
          "name": "_journalNumber",
          "type": "uint256"
        }
      ],
      "name": "showJournalSubscriber",
      "outputs": [
        {
          "name": "",
          "type": "uint256[]"
        }
      ],
      "payable": false,
      "stateMutability": "view",
      "type": "function"
    }
  ],
  "bytecode": "0x60806040523480156200001157600080fd5b5060405160808062002b098339810180604052810190808051906020019092919080519060200190929190805190602001909291908051906020019092919050505060006040805190810160405280600781526020017f4f4a546f6b656e0000000000000000000000000000000000000000000000000081525060126040805190810160405280600281526020017f4f4a00000000000000000000000000000000000000000000000000000000000081525033600160006101000a81548173ffffffffffffffffffffffffffffffffffffffff021916908373ffffffffffffffffffffffffffffffffffffffff16021790555083600260003373ffffffffffffffffffffffffffffffffffffffff1673ffffffffffffffffffffffffffffffffffffffff168152602001908152602001600020819055508360008190555082600490805190602001906200016792919062000270565b5081600560006101000a81548160ff021916908360ff16021790555080600690805190602001906200019b92919062000270565b5033600760006101000a81548173ffffffffffffffffffffffffffffffffffffffff021916908373ffffffffffffffffffffffffffffffffffffffff1602179055505050505083600b8190555082600c8190555081600d60006101000a81548160ff021916908360ff16021790555080600d60016101000a81548160ff021916908360ff16021790555033600d60026101000a81548173ffffffffffffffffffffffffffffffffffffffff021916908373ffffffffffffffffffffffffffffffffffffffff160217905550505050506200031f565b828054600181600116156101000203166002900490600052602060002090601f016020900481019282601f10620002b357805160ff1916838001178555620002e4565b82800160010185558215620002e4579182015b82811115620002e3578251825591602001919060010190620002c6565b5b509050620002f39190620002f7565b5090565b6200031c91905b8082111562000318576000816000905550600101620002fe565b5090565b90565b6127da806200032f6000396000f30060806040526004361061015f576000357c0100000000000000000000000000000000000000000000000000000000900463ffffffff16806306fdde03146101c5578063095ea7b3146102555780630ec8e9b7146102ba57806318160ddd146102ff578063197cc19e1461032a5780631f953a571461048357806323b872dd1461055757806327e235e3146105dc5780632c4e722e14610633578063313ce5671461065e5780634c3f44871461068f5780635745ae28146106ba5780635c658165146107445780635ee490d2146107bb57806370a08231146107e6578063883d91841461083d5780638da5cb5b146108a957806395d89b41146109005780639e9378cc14610990578063a4821719146109c1578063a6f9dae1146109cb578063a9059cbb14610a0e578063c1f9c93014610a73578063c475b17314610ad8578063cb9429b514610b5a578063dd62ed3e14610bb5578063f23c081b14610c2c575b600160009054906101000a900473ffffffffffffffffffffffffffffffffffffffff1673ffffffffffffffffffffffffffffffffffffffff163373ffffffffffffffffffffffffffffffffffffffff161415156101bb57600080fd5b6101c3610c5d565b005b3480156101d157600080fd5b506101da610f22565b6040518080602001828103825283818151815260200191508051906020019080838360005b8381101561021a5780820151818401526020810190506101ff565b50505050905090810190601f1680156102475780820380516001836020036101000a031916815260200191505b509250505060405180910390f35b34801561026157600080fd5b506102a0600480360381019080803573ffffffffffffffffffffffffffffffffffffffff16906020019092919080359060200190929190505050610fc0565b604051808215151515815260200191505060405180910390f35b3480156102c657600080fd5b506102e5600480360381019080803590602001909291905050506110b2565b604051808215151515815260200191505060405180910390f35b34801561030b57600080fd5b5061031461149b565b6040518082815260200191505060405180910390f35b34801561033657600080fd5b50610355600480360381019080803590602001909291905050506114a1565b604051808681526020018573ffffffffffffffffffffffffffffffffffffffff1673ffffffffffffffffffffffffffffffffffffffff16815260200180602001806020018460ff1660ff168152602001838103835286818151815260200191508051906020019080838360005b838110156103dd5780820151818401526020810190506103c2565b50505050905090810190601f16801561040a5780820380516001836020036101000a031916815260200191505b50838103825285818151815260200191508051906020019080838360005b83811015610443578082015181840152602081019050610428565b50505050905090810190601f1680156104705780820380516001836020036101000a031916815260200191505b5097505050505050505060405180910390f35b34801561048f57600080fd5b5061053d600480360381019080803560ff169060200190929190803590602001908201803590602001908080601f0160208091040260200160405190810160405280939291908181526020018383808284378201915050505050509192919290803590602001908201803590602001908080601f0160208091040260200160405190810160405280939291908181526020018383808284378201915050505050509192919290505050611634565b604051808215151515815260200191505060405180910390f35b34801561056357600080fd5b506105c2600480360381019080803573ffffffffffffffffffffffffffffffffffffffff169060200190929190803573ffffffffffffffffffffffffffffffffffffffff1690602001909291908035906020019092919050505061189f565b604051808215151515815260200191505060405180910390f35b3480156105e857600080fd5b5061061d600480360381019080803573ffffffffffffffffffffffffffffffffffffffff169060200190929190505050611c4e565b6040518082815260200191505060405180910390f35b34801561063f57600080fd5b50610648611c66565b6040518082815260200191505060405180910390f35b34801561066a57600080fd5b50610673611c6c565b604051808260ff1660ff16815260200191505060405180910390f35b34801561069b57600080fd5b506106a4611c7f565b6040518082815260200191505060405180910390f35b3480156106c657600080fd5b506106fb600480360381019080803573ffffffffffffffffffffffffffffffffffffffff169060200190929190505050611c85565b604051808381526020018273ffffffffffffffffffffffffffffffffffffffff1673ffffffffffffffffffffffffffffffffffffffff1681526020019250505060405180910390f35b34801561075057600080fd5b506107a5600480360381019080803573ffffffffffffffffffffffffffffffffffffffff169060200190929190803573ffffffffffffffffffffffffffffffffffffffff169060200190929190505050611cc9565b6040518082815260200191505060405180910390f35b3480156107c757600080fd5b506107d0611cee565b6040518082815260200191505060405180910390f35b3480156107f257600080fd5b50610827600480360381019080803573ffffffffffffffffffffffffffffffffffffffff169060200190929190505050611cf4565b6040518082815260200191505060405180910390f35b34801561084957600080fd5b50610852611d3d565b6040518080602001828103825283818151815260200191508051906020019060200280838360005b8381101561089557808201518184015260208101905061087a565b505050509050019250505060405180910390f35b3480156108b557600080fd5b506108be611e8b565b604051808273ffffffffffffffffffffffffffffffffffffffff1673ffffffffffffffffffffffffffffffffffffffff16815260200191505060405180910390f35b34801561090c57600080fd5b50610915611eb1565b6040518080602001828103825283818151815260200191508051906020019080838360005b8381101561095557808201518184015260208101905061093a565b50505050905090810190601f1680156109825780820380516001836020036101000a031916815260200191505b509250505060405180910390f35b34801561099c57600080fd5b506109a5611f4f565b604051808260ff1660ff16815260200191505060405180910390f35b6109c9610c5d565b005b3480156109d757600080fd5b50610a0c600480360381019080803573ffffffffffffffffffffffffffffffffffffffff169060200190929190505050611f62565b005b348015610a1a57600080fd5b50610a59600480360381019080803573ffffffffffffffffffffffffffffffffffffffff16906020019092919080359060200190929190505050612002565b604051808215151515815260200191505060405180910390f35b348015610a7f57600080fd5b50610abe600480360381019080803573ffffffffffffffffffffffffffffffffffffffff1690602001909291908035906020019092919050505061220d565b604051808215151515815260200191505060405180910390f35b348015610ae457600080fd5b50610b036004803603810190808035906020019092919050505061223c565b6040518080602001828103825283818151815260200191508051906020019060200280838360005b83811015610b46578082015181840152602081019050610b2b565b505050509050019250505060405180910390f35b348015610b6657600080fd5b50610b9b600480360381019080803573ffffffffffffffffffffffffffffffffffffffff169060200190929190505050612334565b604051808215151515815260200191505060405180910390f35b348015610bc157600080fd5b50610c16600480360381019080803573ffffffffffffffffffffffffffffffffffffffff169060200190929190803573ffffffffffffffffffffffffffffffffffffffff1690602001909291905050506125b8565b6040518082815260200191505060405180910390f35b348015610c3857600080fd5b50610c4161263f565b604051808260ff1660ff16815260200191505060405180910390f35b6000600160009054906101000a900473ffffffffffffffffffffffffffffffffffffffff1673ffffffffffffffffffffffffffffffffffffffff163373ffffffffffffffffffffffffffffffffffffffff16141515610cbb57600080fd5b600034111515610cca57600080fd5b610cdf6103e83461265290919063ffffffff16565b9050610d3381600260003373ffffffffffffffffffffffffffffffffffffffff1673ffffffffffffffffffffffffffffffffffffffff1681526020019081526020016000205461268590919063ffffffff16565b600260003373ffffffffffffffffffffffffffffffffffffffff1673ffffffffffffffffffffffffffffffffffffffff16815260200190815260200160002081905550610d8b8160005461268590919063ffffffff16565b600081905550600760009054906101000a900473ffffffffffffffffffffffffffffffffffffffff1673ffffffffffffffffffffffffffffffffffffffff166108fc349081150290604051600060405180830381858888f19350505050158015610df9573d6000803e3d6000fd5b507f712a7c91acc43a1321298fb00af337b26e06f3905018f430338ea13df04e7db6348260005433600560009054906101000a900460ff166006604051808781526020018681526020018581526020018473ffffffffffffffffffffffffffffffffffffffff1673ffffffffffffffffffffffffffffffffffffffff1681526020018360ff1660ff16815260200180602001828103825283818154600181600116156101000203166002900481526020019150805460018160011615610100020316600290048015610f0c5780601f10610ee157610100808354040283529160200191610f0c565b820191906000526020600020905b815481529060010190602001808311610eef57829003601f168201915b505097505050505050505060405180910390a150565b60048054600181600116156101000203166002900480601f016020809104026020016040519081016040528092919081815260200182805460018160011615610100020316600290048015610fb85780601f10610f8d57610100808354040283529160200191610fb8565b820191906000526020600020905b815481529060010190602001808311610f9b57829003601f168201915b505050505081565b600081600360003373ffffffffffffffffffffffffffffffffffffffff1673ffffffffffffffffffffffffffffffffffffffff16815260200190815260200160002060008573ffffffffffffffffffffffffffffffffffffffff1673ffffffffffffffffffffffffffffffffffffffff168152602001908152602001600020819055508273ffffffffffffffffffffffffffffffffffffffff163373ffffffffffffffffffffffffffffffffffffffff167f8c5be1e5ebec7d5bd14f71427d1e84f3dd0314c0f7b2291e5b200ac8c7c3b925846040518082815260200191505060405180910390a36001905092915050565b6000806000831180156110c75750600c548311155b8015611134575060001515600a60003373ffffffffffffffffffffffffffffffffffffffff1673ffffffffffffffffffffffffffffffffffffffff168152602001908152602001600020600085815260200190815260200160002060009054906101000a900460ff161515145b151561113f57600080fd5b6111a56008600085815260200190815260200160002060010160009054906101000a900473ffffffffffffffffffffffffffffffffffffffff166008600086815260200190815260200160002060040160009054906101000a900460ff1660ff16612002565b50600960003373ffffffffffffffffffffffffffffffffffffffff1673ffffffffffffffffffffffffffffffffffffffff168152602001908152602001600020600001549050600960003373ffffffffffffffffffffffffffffffffffffffff1673ffffffffffffffffffffffffffffffffffffffff168152602001908152602001600020600201839080600181540180825580915050906001820390600052602060002001600090919290919091505550600860008481526020019081526020016000206005018190806001815401808255809150509060018203906000526020600020016000909192909190915055506001600a60003373ffffffffffffffffffffffffffffffffffffffff1673ffffffffffffffffffffffffffffffffffffffff168152602001908152602001600020600085815260200190815260200160002060006101000a81548160ff0219169083151502179055503373ffffffffffffffffffffffffffffffffffffffff167f7a31ea183677c98234068a67a178e360d7832c706728b099c6c88dbcfb37958c600960003373ffffffffffffffffffffffffffffffffffffffff1673ffffffffffffffffffffffffffffffffffffffff16815260200190815260200160002060020160086000878152602001908152602001600020600501600a60003373ffffffffffffffffffffffffffffffffffffffff1673ffffffffffffffffffffffffffffffffffffffff168152602001908152602001600020600088815260200190815260200160002060009054906101000a900460ff1660405180806020018060200184151515158152602001838103835286818154815260200191508054801561144157602002820191906000526020600020905b81548152602001906001019080831161142d575b5050838103825285818154815260200191508054801561148057602002820191906000526020600020905b81548152602001906001019080831161146c575b50509550505050505060405180910390a26001915050919050565b60005481565b60086020528060005260406000206000915090508060000154908060010160009054906101000a900473ffffffffffffffffffffffffffffffffffffffff1690806002018054600181600116156101000203166002900480601f0160208091040260200160405190810160405280929190818152602001828054600181600116156101000203166002900480156115795780601f1061154e57610100808354040283529160200191611579565b820191906000526020600020905b81548152906001019060200180831161155c57829003601f168201915b505050505090806003018054600181600116156101000203166002900480601f0160208091040260200160405190810160405280929190818152602001828054600181600116156101000203166002900480156116175780601f106115ec57610100808354040283529160200191611617565b820191906000526020600020905b8154815290600101906020018083116115fa57829003601f168201915b5050505050908060040160009054906101000a900460ff16905085565b6000600d60019054906101000a900460ff1660ff168460ff161115151561165a57600080fd5b6116706001600c5461268590919063ffffffff16565b600c8190555060c060405190810160405280600c5481526020013373ffffffffffffffffffffffffffffffffffffffff1681526020018481526020018381526020018560ff16815260200160006040519080825280602002602001820160405280156116eb5781602001602082028038833980820191505090505b5081525060086000600c5481526020019081526020016000206000820151816000015560208201518160010160006101000a81548173ffffffffffffffffffffffffffffffffffffffff021916908373ffffffffffffffffffffffffffffffffffffffff16021790555060408201518160020190805190602001906117719291906126bc565b50606082015181600301908051906020019061178e9291906126bc565b5060808201518160040160006101000a81548160ff021916908360ff16021790555060a08201518160050190805190602001906117cc92919061273c565b509050503373ffffffffffffffffffffffffffffffffffffffff16600c547fe52515fa15a0cfd32fd25a657d2146ea496a781b5c94f883f655b733c942b702858760405180806020018360ff1660ff168152602001828103825284818151815260200191508051906020019080838360005b8381101561185957808201518184015260208101905061183e565b50505050905090810190601f1680156118865780820380516001836020036101000a031916815260200191505b50935050505060405180910390a3600190509392505050565b600080600360008673ffffffffffffffffffffffffffffffffffffffff1673ffffffffffffffffffffffffffffffffffffffff16815260200190815260200160002060003373ffffffffffffffffffffffffffffffffffffffff1673ffffffffffffffffffffffffffffffffffffffff16815260200190815260200160002054905082600260008773ffffffffffffffffffffffffffffffffffffffff1673ffffffffffffffffffffffffffffffffffffffff16815260200190815260200160002054101580156119705750828110155b151561197b57600080fd5b6119cd83600260008773ffffffffffffffffffffffffffffffffffffffff1673ffffffffffffffffffffffffffffffffffffffff1681526020019081526020016000205461268590919063ffffffff16565b600260008673ffffffffffffffffffffffffffffffffffffffff1673ffffffffffffffffffffffffffffffffffffffff16815260200190815260200160002081905550611a6283600260008873ffffffffffffffffffffffffffffffffffffffff1673ffffffffffffffffffffffffffffffffffffffff168152602001908152602001600020546126a390919063ffffffff16565b600260008773ffffffffffffffffffffffffffffffffffffffff1673ffffffffffffffffffffffffffffffffffffffff168152602001908152602001600020819055507fffffffffffffffffffffffffffffffffffffffffffffffffffffffffffffffff811015611bdd57611b5c83600360008873ffffffffffffffffffffffffffffffffffffffff1673ffffffffffffffffffffffffffffffffffffffff16815260200190815260200160002060003373ffffffffffffffffffffffffffffffffffffffff1673ffffffffffffffffffffffffffffffffffffffff168152602001908152602001600020546126a390919063ffffffff16565b600360008773ffffffffffffffffffffffffffffffffffffffff1673ffffffffffffffffffffffffffffffffffffffff16815260200190815260200160002060003373ffffffffffffffffffffffffffffffffffffffff1673ffffffffffffffffffffffffffffffffffffffff168152602001908152602001600020819055505b8373ffffffffffffffffffffffffffffffffffffffff168573ffffffffffffffffffffffffffffffffffffffff167fddf252ad1be2c89b69c2b068fc378daa952ba7f163c4a11628f55a4df523b3ef856040518082815260200191505060405180910390a360019150509392505050565b60026020528060005260406000206000915090505481565b6103e881565b600560009054906101000a900460ff1681565b600b5481565b60096020528060005260406000206000915090508060000154908060010160009054906101000a900473ffffffffffffffffffffffffffffffffffffffff16905082565b6003602052816000526040600020602052806000526040600020600091509150505481565b600c5481565b6000600260008373ffffffffffffffffffffffffffffffffffffffff1673ffffffffffffffffffffffffffffffffffffffff168152602001908152602001600020549050919050565b60607f8bc2e06f62da7b9fdc5203cddbd68637aacc4909869d52e589449b6718ffa3ef600960003373ffffffffffffffffffffffffffffffffffffffff1673ffffffffffffffffffffffffffffffffffffffff16815260200190815260200160002060020160405180806020018281038252838181548152602001915080548015611de757602002820191906000526020600020905b815481526020019060010190808311611dd3575b50509250505060405180910390a1600960003373ffffffffffffffffffffffffffffffffffffffff1673ffffffffffffffffffffffffffffffffffffffff168152602001908152602001600020600201805480602002602001604051908101604052809291908181526020018280548015611e8157602002820191906000526020600020905b815481526020019060010190808311611e6d575b5050505050905090565b600d60029054906101000a900473ffffffffffffffffffffffffffffffffffffffff1681565b60068054600181600116156101000203166002900480601f016020809104026020016040519081016040528092919081815260200182805460018160011615610100020316600290048015611f475780601f10611f1c57610100808354040283529160200191611f47565b820191906000526020600020905b815481529060010190602001808311611f2a57829003601f168201915b505050505081565b600d60009054906101000a900460ff1681565b600160009054906101000a900473ffffffffffffffffffffffffffffffffffffffff1673ffffffffffffffffffffffffffffffffffffffff163373ffffffffffffffffffffffffffffffffffffffff16141515611fbe57600080fd5b80600160006101000a81548173ffffffffffffffffffffffffffffffffffffffff021916908373ffffffffffffffffffffffffffffffffffffffff16021790555050565b60008160026000600760009054906101000a900473ffffffffffffffffffffffffffffffffffffffff1673ffffffffffffffffffffffffffffffffffffffff1673ffffffffffffffffffffffffffffffffffffffff168152602001908152602001600020541015151561207457600080fd5b6120c682600260003373ffffffffffffffffffffffffffffffffffffffff1673ffffffffffffffffffffffffffffffffffffffff168152602001908152602001600020546126a390919063ffffffff16565b600260003373ffffffffffffffffffffffffffffffffffffffff1673ffffffffffffffffffffffffffffffffffffffff1681526020019081526020016000208190555061215b82600260008673ffffffffffffffffffffffffffffffffffffffff1673ffffffffffffffffffffffffffffffffffffffff1681526020019081526020016000205461268590919063ffffffff16565b600260008573ffffffffffffffffffffffffffffffffffffffff1673ffffffffffffffffffffffffffffffffffffffff168152602001908152602001600020819055508273ffffffffffffffffffffffffffffffffffffffff163373ffffffffffffffffffffffffffffffffffffffff167fddf252ad1be2c89b69c2b068fc378daa952ba7f163c4a11628f55a4df523b3ef846040518082815260200191505060405180910390a36001905092915050565b600a6020528160005260406000206020528060005260406000206000915091509054906101000a900460ff1681565b60607f0c4ae26fb47ae87df3d36e82881909ed1eaf2243302e2b307bf1c64aefc8456c60086000848152602001908152602001600020600501604051808060200182810382528381815481526020019150805480156122ba57602002820191906000526020600020905b8154815260200190600101908083116122a6575b50509250505060405180910390a16008600083815260200190815260200160002060050180548060200260200160405190810160405280929190818152602001828054801561232857602002820191906000526020600020905b815481526020019060010190808311612314575b50505050509050919050565b6000600160009054906101000a900473ffffffffffffffffffffffffffffffffffffffff1673ffffffffffffffffffffffffffffffffffffffff163373ffffffffffffffffffffffffffffffffffffffff1614151561239257600080fd5b6123a86001600b5461268590919063ffffffff16565b600b81905550606060405190810160405280600b5481526020018373ffffffffffffffffffffffffffffffffffffffff168152602001600060405190808252806020026020018201604052801561240e5781602001602082028038833980820191505090505b50815250600960008473ffffffffffffffffffffffffffffffffffffffff1673ffffffffffffffffffffffffffffffffffffffff1681526020019081526020016000206000820151816000015560208201518160010160006101000a81548173ffffffffffffffffffffffffffffffffffffffff021916908373ffffffffffffffffffffffffffffffffffffffff16021790555060408201518160020190805190602001906124be92919061273c565b509050506124de82600d60009054906101000a900460ff1660ff16612002565b508173ffffffffffffffffffffffffffffffffffffffff16600b547f4b671216edfc4634e6fc868e9b6d7f7987af44a9da63212698a749b64d04a478600960003373ffffffffffffffffffffffffffffffffffffffff1673ffffffffffffffffffffffffffffffffffffffff168152602001908152602001600020600201604051808060200182810382528381815481526020019150805480156125a157602002820191906000526020600020905b81548152602001906001019080831161258d575b50509250505060405180910390a360019050919050565b6000600360008473ffffffffffffffffffffffffffffffffffffffff1673ffffffffffffffffffffffffffffffffffffffff16815260200190815260200160002060008373ffffffffffffffffffffffffffffffffffffffff1673ffffffffffffffffffffffffffffffffffffffff16815260200190815260200160002054905092915050565b600d60019054906101000a900460ff1681565b60008082840290506000841480612673575082848281151561267057fe5b04145b151561267b57fe5b8091505092915050565b600080828401905083811015151561269957fe5b8091505092915050565b60008282111515156126b157fe5b818303905092915050565b828054600181600116156101000203166002900490600052602060002090601f016020900481019282601f106126fd57805160ff191683800117855561272b565b8280016001018555821561272b579182015b8281111561272a57825182559160200191906001019061270f565b5b5090506127389190612789565b5090565b828054828255906000526020600020908101928215612778579160200282015b8281111561277757825182559160200191906001019061275c565b5b5090506127859190612789565b5090565b6127ab91905b808211156127a757600081600090555060010161278f565b5090565b905600a165627a7a7230582098dc02b412f0b1c52d4a34b9cf084823ab9e5196cde82a57c0f159f38e394bf70029",
  "source": "pragma solidity ^0.4.21;\n\nimport \"./Token/JournalToken.sol\";\n\ncontract OpenJournal is JournalToken(0, \"OJToken\", 18, \"OJ\") {\n    \n    struct Journal {\n        uint256 number;\n        address author;\n        string title;\n        string description;     //    \n        uint8 value;\n        uint[] subscribed;\n        //uint[] reference_journal;\n    }\n    \n    struct Subscriber {\n        uint256 subscriber_number;          //  number(   )\n        address subscriber_address;         //  \n        uint[] subscriber_journal;          //   \n    }    \n\n    mapping (uint => Journal) public journals;                                  //   : Journal\n    mapping (address => Subscriber) public subscribers;                         //   : Subscriber\n    mapping (address => mapping (uint => bool)) public is_subscribed;           //     \n\n    uint256 public subscriberNumber;       // Subscriber ( test  2  )\n    uint256 public journalNumber;          // Journal ( test  2  )\n    uint8 public signUpCost;               //   \n    uint8 public upperbound_value;         //       \n    address public owner;  \n\n    event LogSignUp(\n        uint256 indexed _subscriber_number, \n        address indexed _subscriber_address, \n        uint[] _subscriber_journal\n    );  \n\n    event LogRegistJournal(\n        uint256 indexed _number, \n        address indexed _author, \n        string _title, \n        uint8 _value\n    );  \n\n    event LogSubscribeJournal(\n        address indexed _subscriber, \n        uint[] _myjournals, \n        uint[] _subscribed,\n        bool _is_subscribed\n    );\n\n    event LogShowSubscribedJournal(\n        uint[] _journals\n    );  \n\n    event LogShowJournalSubscriber(\n        uint[] _subscriber\n    );     \n\n    function OpenJournal(\n        uint256 _subscriberNumber,\n        uint256 _journalNumber,\n        uint8 _signUpCost,\n        uint8 _upperbound_value\n    ) public {\n        subscriberNumber = _subscriberNumber;\n        journalNumber = _journalNumber;\n        signUpCost = _signUpCost;\n        upperbound_value = _upperbound_value;\n        owner = msg.sender;\n    }\n\n    function signUp(address _to) public onlyOwner returns (bool) {\n        subscriberNumber = subscriberNumber.add(1);            \n        subscribers[_to] = Subscriber(\n            subscriberNumber,\n            _to,\n            new uint[](0)\n        );\n        transfer(_to, signUpCost);   \n        emit LogSignUp(subscriberNumber, _to, subscribers[msg.sender].subscriber_journal);\n        return true;\n    }\n\n    function registJournal(uint8 _journalValue, string _title, string _description) public returns (bool) {\n        require(_journalValue <= upperbound_value);\n        journalNumber = journalNumber.add(1);\n        journals[journalNumber] = Journal(\n            journalNumber,\n            msg.sender,\n            _title,\n            _description,\n            _journalValue,\n            new uint[](0)            \n        );\n        emit LogRegistJournal(journalNumber, msg.sender, _title, _journalValue);   \n\n        return true;    \n    }\n\n    function subscribeJournal(uint256 _journalNumber) public returns (bool){\n        require(_journalNumber > 0 && _journalNumber <= journalNumber && is_subscribed[msg.sender][_journalNumber] == false);        \n\n        transfer(journals[_journalNumber].author, journals[_journalNumber].value);\n        uint sub_id = subscribers[msg.sender].subscriber_number;\n\n        subscribers[msg.sender].subscriber_journal.push(_journalNumber);  \n        journals[_journalNumber].subscribed.push(sub_id);       \n        is_subscribed[msg.sender][_journalNumber] = true;\n\n        emit LogSubscribeJournal(\n            msg.sender, \n            subscribers[msg.sender].subscriber_journal, \n            journals[_journalNumber].subscribed, \n            is_subscribed[msg.sender][_journalNumber]\n        );\n\n        return true;\n    }\n\n    function showSubscribedJournal() public view returns (uint[]){\n        emit LogShowSubscribedJournal(subscribers[msg.sender].subscriber_journal);\n\n        return subscribers[msg.sender].subscriber_journal;\n    }\n\n    function showJournalSubscriber(uint _journalNumber) public view returns (uint[]) {\n        emit LogShowJournalSubscriber(journals[_journalNumber].subscribed);\n\n        return journals[_journalNumber].subscribed;\n    }\n}\n",
  "sourcePath": "/Users/chaminjun/Desktop/GraduationProject/2018-cap1-1/src/OpenJournal/blockchain/contracts/OpenJournal.sol",
  "compiler": {
    "name": "solc",
    "version": "0.4.23+commit.124ca40d.Emscripten.clang"
  },
  "schemaVersion": "2.0.0",
  "updatedAt": "2018-05-06T03:57:12.793Z"
}