{
  "contractName": "OpenJournal",
  "abi": [
    {
      "constant": true,
      "inputs": [],
      "name": "name",
      "outputs": [
        {
          "name": "",
          "type": "string"
        }
      ],
      "payable": false,
      "stateMutability": "view",
      "type": "function"
    },
    {
      "constant": false,
      "inputs": [
        {
          "name": "_spender",
          "type": "address"
        },
        {
          "name": "_value",
          "type": "uint256"
        }
      ],
      "name": "approve",
      "outputs": [
        {
          "name": "success",
          "type": "bool"
        }
      ],
      "payable": false,
      "stateMutability": "nonpayable",
      "type": "function"
    },
    {
      "constant": true,
      "inputs": [],
      "name": "totalSupply",
      "outputs": [
        {
          "name": "",
          "type": "uint256"
        }
      ],
      "payable": false,
      "stateMutability": "view",
      "type": "function"
    },
    {
      "constant": true,
      "inputs": [
        {
          "name": "",
          "type": "uint256"
        }
      ],
      "name": "journals",
      "outputs": [
        {
          "name": "number",
          "type": "uint256"
        },
        {
          "name": "author",
          "type": "address"
        },
        {
          "name": "title",
          "type": "string"
        },
        {
          "name": "description",
          "type": "string"
        },
        {
          "name": "value",
          "type": "uint8"
        }
      ],
      "payable": false,
      "stateMutability": "view",
      "type": "function"
    },
    {
      "constant": false,
      "inputs": [
        {
          "name": "_from",
          "type": "address"
        },
        {
          "name": "_to",
          "type": "address"
        },
        {
          "name": "_value",
          "type": "uint256"
        }
      ],
      "name": "transferFrom",
      "outputs": [
        {
          "name": "success",
          "type": "bool"
        }
      ],
      "payable": false,
      "stateMutability": "nonpayable",
      "type": "function"
    },
    {
      "constant": true,
      "inputs": [
        {
          "name": "",
          "type": "address"
        }
      ],
      "name": "balances",
      "outputs": [
        {
          "name": "",
          "type": "uint256"
        }
      ],
      "payable": false,
      "stateMutability": "view",
      "type": "function"
    },
    {
      "constant": true,
      "inputs": [],
      "name": "rate",
      "outputs": [
        {
          "name": "",
          "type": "uint256"
        }
      ],
      "payable": false,
      "stateMutability": "view",
      "type": "function"
    },
    {
      "constant": true,
      "inputs": [],
      "name": "decimals",
      "outputs": [
        {
          "name": "",
          "type": "uint8"
        }
      ],
      "payable": false,
      "stateMutability": "view",
      "type": "function"
    },
    {
      "constant": true,
      "inputs": [],
      "name": "subscriberNumber",
      "outputs": [
        {
          "name": "",
          "type": "uint256"
        }
      ],
      "payable": false,
      "stateMutability": "view",
      "type": "function"
    },
    {
      "constant": true,
      "inputs": [
        {
          "name": "",
          "type": "address"
        }
      ],
      "name": "subscribers",
      "outputs": [
        {
          "name": "subscriber_number",
          "type": "uint256"
        },
        {
          "name": "subscriber_address",
          "type": "address"
        }
      ],
      "payable": false,
      "stateMutability": "view",
      "type": "function"
    },
    {
      "constant": true,
      "inputs": [
        {
          "name": "",
          "type": "address"
        },
        {
          "name": "",
          "type": "address"
        }
      ],
      "name": "allowed",
      "outputs": [
        {
          "name": "",
          "type": "uint256"
        }
      ],
      "payable": false,
      "stateMutability": "view",
      "type": "function"
    },
    {
      "constant": true,
      "inputs": [],
      "name": "journalNumber",
      "outputs": [
        {
          "name": "",
          "type": "uint256"
        }
      ],
      "payable": false,
      "stateMutability": "view",
      "type": "function"
    },
    {
      "constant": true,
      "inputs": [
        {
          "name": "_owner",
          "type": "address"
        }
      ],
      "name": "balanceOf",
      "outputs": [
        {
          "name": "balance",
          "type": "uint256"
        }
      ],
      "payable": false,
      "stateMutability": "view",
      "type": "function"
    },
    {
      "constant": true,
      "inputs": [],
      "name": "owner",
      "outputs": [
        {
          "name": "",
          "type": "address"
        }
      ],
      "payable": false,
      "stateMutability": "view",
      "type": "function"
    },
    {
      "constant": true,
      "inputs": [],
      "name": "symbol",
      "outputs": [
        {
          "name": "",
          "type": "string"
        }
      ],
      "payable": false,
      "stateMutability": "view",
      "type": "function"
    },
    {
      "constant": true,
      "inputs": [],
      "name": "signUpCost",
      "outputs": [
        {
          "name": "",
          "type": "uint8"
        }
      ],
      "payable": false,
      "stateMutability": "view",
      "type": "function"
    },
    {
      "constant": false,
      "inputs": [],
      "name": "buyToken",
      "outputs": [],
      "payable": true,
      "stateMutability": "payable",
      "type": "function"
    },
    {
      "constant": false,
      "inputs": [
        {
          "name": "_to",
          "type": "address"
        },
        {
          "name": "_value",
          "type": "uint256"
        }
      ],
      "name": "transfer",
      "outputs": [
        {
          "name": "success",
          "type": "bool"
        }
      ],
      "payable": false,
      "stateMutability": "nonpayable",
      "type": "function"
    },
    {
      "constant": true,
      "inputs": [
        {
          "name": "",
          "type": "address"
        },
        {
          "name": "",
          "type": "uint256"
        }
      ],
      "name": "is_subscribed",
      "outputs": [
        {
          "name": "",
          "type": "bool"
        }
      ],
      "payable": false,
      "stateMutability": "view",
      "type": "function"
    },
    {
      "constant": true,
      "inputs": [
        {
          "name": "_owner",
          "type": "address"
        },
        {
          "name": "_spender",
          "type": "address"
        }
      ],
      "name": "allowance",
      "outputs": [
        {
          "name": "remaining",
          "type": "uint256"
        }
      ],
      "payable": false,
      "stateMutability": "view",
      "type": "function"
    },
    {
      "constant": true,
      "inputs": [],
      "name": "upperbound_value",
      "outputs": [
        {
          "name": "",
          "type": "uint8"
        }
      ],
      "payable": false,
      "stateMutability": "view",
      "type": "function"
    },
    {
      "inputs": [
        {
          "name": "_subscriberNumber",
          "type": "uint256"
        },
        {
          "name": "_journalNumber",
          "type": "uint256"
        },
        {
          "name": "_signUpCost",
          "type": "uint8"
        },
        {
          "name": "_upperbound_value",
          "type": "uint8"
        }
      ],
      "payable": false,
      "stateMutability": "nonpayable",
      "type": "constructor"
    },
    {
      "payable": true,
      "stateMutability": "payable",
      "type": "fallback"
    },
    {
      "anonymous": false,
      "inputs": [
        {
          "indexed": true,
          "name": "_subscriber_number",
          "type": "uint256"
        },
        {
          "indexed": true,
          "name": "_subscriber_address",
          "type": "address"
        },
        {
          "indexed": false,
          "name": "_subscriber_journal",
          "type": "uint256[]"
        }
      ],
      "name": "LogSignUp",
      "type": "event"
    },
    {
      "anonymous": false,
      "inputs": [
        {
          "indexed": true,
          "name": "_number",
          "type": "uint256"
        },
        {
          "indexed": true,
          "name": "_author",
          "type": "address"
        },
        {
          "indexed": false,
          "name": "_title",
          "type": "string"
        },
        {
          "indexed": false,
          "name": "_value",
          "type": "uint8"
        }
      ],
      "name": "LogRegistJournal",
      "type": "event"
    },
    {
      "anonymous": false,
      "inputs": [
        {
          "indexed": true,
          "name": "_subscriber",
          "type": "address"
        },
        {
          "indexed": false,
          "name": "_myjournals",
          "type": "uint256[]"
        },
        {
          "indexed": false,
          "name": "_subscribed",
          "type": "uint256[]"
        }
      ],
      "name": "LogSubscribeJournal",
      "type": "event"
    },
    {
      "anonymous": false,
      "inputs": [
        {
          "indexed": false,
          "name": "_journals",
          "type": "uint256[]"
        }
      ],
      "name": "LogShowSubscribedJournal",
      "type": "event"
    },
    {
      "anonymous": false,
      "inputs": [
        {
          "indexed": false,
          "name": "_subscriber",
          "type": "uint256[]"
        }
      ],
      "name": "LogShowJournalSubscriber",
      "type": "event"
    },
    {
      "anonymous": false,
      "inputs": [
        {
          "indexed": false,
          "name": "a",
          "type": "uint256"
        },
        {
          "indexed": false,
          "name": "b",
          "type": "uint256"
        }
      ],
      "name": "Test",
      "type": "event"
    },
    {
      "anonymous": false,
      "inputs": [
        {
          "indexed": false,
          "name": "msgValue",
          "type": "uint256"
        },
        {
          "indexed": false,
          "name": "amount",
          "type": "uint256"
        },
        {
          "indexed": false,
          "name": "totalSupply",
          "type": "uint256"
        },
        {
          "indexed": false,
          "name": "msgSender",
          "type": "address"
        },
        {
          "indexed": false,
          "name": "decimals",
          "type": "uint8"
        },
        {
          "indexed": false,
          "name": "symbol",
          "type": "string"
        }
      ],
      "name": "BuyToken",
      "type": "event"
    },
    {
      "anonymous": false,
      "inputs": [
        {
          "indexed": true,
          "name": "_from",
          "type": "address"
        },
        {
          "indexed": true,
          "name": "_to",
          "type": "address"
        },
        {
          "indexed": false,
          "name": "_value",
          "type": "uint256"
        }
      ],
      "name": "Transfer",
      "type": "event"
    },
    {
      "anonymous": false,
      "inputs": [
        {
          "indexed": true,
          "name": "_owner",
          "type": "address"
        },
        {
          "indexed": true,
          "name": "_spender",
          "type": "address"
        },
        {
          "indexed": false,
          "name": "_value",
          "type": "uint256"
        }
      ],
      "name": "Approval",
      "type": "event"
    },
    {
      "constant": false,
      "inputs": [
        {
          "name": "_to",
          "type": "address"
        }
      ],
      "name": "signUp",
      "outputs": [
        {
          "name": "",
          "type": "bool"
        }
      ],
      "payable": false,
      "stateMutability": "nonpayable",
      "type": "function"
    },
    {
      "constant": false,
      "inputs": [
        {
          "name": "_journalValue",
          "type": "uint8"
        },
        {
          "name": "_title",
          "type": "string"
        },
        {
          "name": "_description",
          "type": "string"
        }
      ],
      "name": "registJournal",
      "outputs": [
        {
          "name": "",
          "type": "bool"
        }
      ],
      "payable": false,
      "stateMutability": "nonpayable",
      "type": "function"
    },
    {
      "constant": false,
      "inputs": [
        {
          "name": "_journalNumber",
          "type": "uint256"
        }
      ],
      "name": "subscribeJournal",
      "outputs": [
        {
          "name": "",
          "type": "bool"
        }
      ],
      "payable": false,
      "stateMutability": "nonpayable",
      "type": "function"
    },
    {
      "constant": true,
      "inputs": [],
      "name": "showSubscribedJournal",
      "outputs": [
        {
          "name": "",
          "type": "uint256[]"
        }
      ],
      "payable": false,
      "stateMutability": "view",
      "type": "function"
    },
    {
      "constant": true,
      "inputs": [
        {
          "name": "_journalNumber",
          "type": "uint256"
        }
      ],
      "name": "showJournalSubscriber",
      "outputs": [
        {
          "name": "",
          "type": "uint256[]"
        }
      ],
      "payable": false,
      "stateMutability": "view",
      "type": "function"
    }
  ],
  "bytecode": "0x60806040523480156200001157600080fd5b506040516080806200278f8339810180604052810190808051906020019092919080519060200190929190805190602001909291908051906020019092919050505060006040805190810160405280600781526020017f4f4a546f6b656e0000000000000000000000000000000000000000000000000081525060126040805190810160405280600281526020017f4f4a00000000000000000000000000000000000000000000000000000000000081525083600160003373ffffffffffffffffffffffffffffffffffffffff1673ffffffffffffffffffffffffffffffffffffffff16815260200190815260200160002081905550836000819055508260039080519060200190620001269291906200022f565b5081600460006101000a81548160ff021916908360ff16021790555080600590805190602001906200015a9291906200022f565b5033600660006101000a81548173ffffffffffffffffffffffffffffffffffffffff021916908373ffffffffffffffffffffffffffffffffffffffff1602179055505050505083600a8190555082600b8190555081600c60006101000a81548160ff021916908360ff16021790555080600c60016101000a81548160ff021916908360ff16021790555033600c60026101000a81548173ffffffffffffffffffffffffffffffffffffffff021916908373ffffffffffffffffffffffffffffffffffffffff16021790555050505050620002de565b828054600181600116156101000203166002900490600052602060002090601f016020900481019282601f106200027257805160ff1916838001178555620002a3565b82800160010185558215620002a3579182015b82811115620002a257825182559160200191906001019062000285565b5b509050620002b29190620002b6565b5090565b620002db91905b80821115620002d7576000816000905550600101620002bd565b5090565b90565b6124a180620002ee6000396000f300608060405260043610610154576000357c0100000000000000000000000000000000000000000000000000000000900463ffffffff16806306fdde031461015e578063095ea7b3146101ee5780630ec8e9b71461025357806318160ddd14610298578063197cc19e146102c35780631f953a571461041c57806323b872dd146104f057806327e235e3146105755780632c4e722e146105cc578063313ce567146105f75780634c3f4487146106285780635745ae28146106535780635c658165146106dd5780635ee490d21461075457806370a082311461077f578063883d9184146107d65780638da5cb5b1461084257806395d89b41146108995780639e9378cc14610929578063a48217191461095a578063a9059cbb14610964578063c1f9c930146109c9578063c475b17314610a2e578063cb9429b514610ab0578063dd62ed3e14610b0b578063f23c081b14610b82575b61015c610bb3565b005b34801561016a57600080fd5b50610173610e1b565b6040518080602001828103825283818151815260200191508051906020019080838360005b838110156101b3578082015181840152602081019050610198565b50505050905090810190601f1680156101e05780820380516001836020036101000a031916815260200191505b509250505060405180910390f35b3480156101fa57600080fd5b50610239600480360381019080803573ffffffffffffffffffffffffffffffffffffffff16906020019092919080359060200190929190505050610eb9565b604051808215151515815260200191505060405180910390f35b34801561025f57600080fd5b5061027e60048036038101908080359060200190929190505050610fab565b604051808215151515815260200191505060405180910390f35b3480156102a457600080fd5b506102ad61132b565b6040518082815260200191505060405180910390f35b3480156102cf57600080fd5b506102ee60048036038101908080359060200190929190505050611331565b604051808681526020018573ffffffffffffffffffffffffffffffffffffffff1673ffffffffffffffffffffffffffffffffffffffff16815260200180602001806020018460ff1660ff168152602001838103835286818151815260200191508051906020019080838360005b8381101561037657808201518184015260208101905061035b565b50505050905090810190601f1680156103a35780820380516001836020036101000a031916815260200191505b50838103825285818151815260200191508051906020019080838360005b838110156103dc5780820151818401526020810190506103c1565b50505050905090810190601f1680156104095780820380516001836020036101000a031916815260200191505b5097505050505050505060405180910390f35b34801561042857600080fd5b506104d6600480360381019080803560ff169060200190929190803590602001908201803590602001908080601f0160208091040260200160405190810160405280939291908181526020018383808284378201915050505050509192919290803590602001908201803590602001908080601f01602080910402602001604051908101604052809392919081815260200183838082843782019150505050505091929192905050506114c4565b604051808215151515815260200191505060405180910390f35b3480156104fc57600080fd5b5061055b600480360381019080803573ffffffffffffffffffffffffffffffffffffffff169060200190929190803573ffffffffffffffffffffffffffffffffffffffff16906020019092919080359060200190929190505050611725565b604051808215151515815260200191505060405180910390f35b34801561058157600080fd5b506105b6600480360381019080803573ffffffffffffffffffffffffffffffffffffffff1690602001909291905050506119bf565b6040518082815260200191505060405180910390f35b3480156105d857600080fd5b506105e16119d7565b6040518082815260200191505060405180910390f35b34801561060357600080fd5b5061060c6119dd565b604051808260ff1660ff16815260200191505060405180910390f35b34801561063457600080fd5b5061063d6119f0565b6040518082815260200191505060405180910390f35b34801561065f57600080fd5b50610694600480360381019080803573ffffffffffffffffffffffffffffffffffffffff1690602001909291905050506119f6565b604051808381526020018273ffffffffffffffffffffffffffffffffffffffff1673ffffffffffffffffffffffffffffffffffffffff1681526020019250505060405180910390f35b3480156106e957600080fd5b5061073e600480360381019080803573ffffffffffffffffffffffffffffffffffffffff169060200190929190803573ffffffffffffffffffffffffffffffffffffffff169060200190929190505050611a3a565b6040518082815260200191505060405180910390f35b34801561076057600080fd5b50610769611a5f565b6040518082815260200191505060405180910390f35b34801561078b57600080fd5b506107c0600480360381019080803573ffffffffffffffffffffffffffffffffffffffff169060200190929190505050611a65565b6040518082815260200191505060405180910390f35b3480156107e257600080fd5b506107eb611aae565b6040518080602001828103825283818151815260200191508051906020019060200280838360005b8381101561082e578082015181840152602081019050610813565b505050509050019250505060405180910390f35b34801561084e57600080fd5b50610857611bfc565b604051808273ffffffffffffffffffffffffffffffffffffffff1673ffffffffffffffffffffffffffffffffffffffff16815260200191505060405180910390f35b3480156108a557600080fd5b506108ae611c22565b6040518080602001828103825283818151815260200191508051906020019080838360005b838110156108ee5780820151818401526020810190506108d3565b50505050905090810190601f16801561091b5780820380516001836020036101000a031916815260200191505b509250505060405180910390f35b34801561093557600080fd5b5061093e611cc0565b604051808260ff1660ff16815260200191505060405180910390f35b610962610bb3565b005b34801561097057600080fd5b506109af600480360381019080803573ffffffffffffffffffffffffffffffffffffffff16906020019092919080359060200190929190505050611cd3565b604051808215151515815260200191505060405180910390f35b3480156109d557600080fd5b50610a14600480360381019080803573ffffffffffffffffffffffffffffffffffffffff16906020019092919080359060200190929190505050611ede565b604051808215151515815260200191505060405180910390f35b348015610a3a57600080fd5b50610a5960048036038101908080359060200190929190505050611f0d565b6040518080602001828103825283818151815260200191508051906020019060200280838360005b83811015610a9c578082015181840152602081019050610a81565b505050509050019250505060405180910390f35b348015610abc57600080fd5b50610af1600480360381019080803573ffffffffffffffffffffffffffffffffffffffff169060200190929190505050612005565b604051808215151515815260200191505060405180910390f35b348015610b1757600080fd5b50610b6c600480360381019080803573ffffffffffffffffffffffffffffffffffffffff169060200190929190803573ffffffffffffffffffffffffffffffffffffffff16906020019092919050505061227f565b6040518082815260200191505060405180910390f35b348015610b8e57600080fd5b50610b97612306565b604051808260ff1660ff16815260200191505060405180910390f35b60008034111515610bc357600080fd5b610bd86103e83461231990919063ffffffff16565b9050610c2c81600160003373ffffffffffffffffffffffffffffffffffffffff1673ffffffffffffffffffffffffffffffffffffffff1681526020019081526020016000205461234c90919063ffffffff16565b600160003373ffffffffffffffffffffffffffffffffffffffff1673ffffffffffffffffffffffffffffffffffffffff16815260200190815260200160002081905550610c848160005461234c90919063ffffffff16565b600081905550600660009054906101000a900473ffffffffffffffffffffffffffffffffffffffff1673ffffffffffffffffffffffffffffffffffffffff166108fc349081150290604051600060405180830381858888f19350505050158015610cf2573d6000803e3d6000fd5b507f712a7c91acc43a1321298fb00af337b26e06f3905018f430338ea13df04e7db6348260005433600460009054906101000a900460ff166005604051808781526020018681526020018581526020018473ffffffffffffffffffffffffffffffffffffffff1673ffffffffffffffffffffffffffffffffffffffff1681526020018360ff1660ff16815260200180602001828103825283818154600181600116156101000203166002900481526020019150805460018160011615610100020316600290048015610e055780601f10610dda57610100808354040283529160200191610e05565b820191906000526020600020905b815481529060010190602001808311610de857829003601f168201915b505097505050505050505060405180910390a150565b60038054600181600116156101000203166002900480601f016020809104026020016040519081016040528092919081815260200182805460018160011615610100020316600290048015610eb15780601f10610e8657610100808354040283529160200191610eb1565b820191906000526020600020905b815481529060010190602001808311610e9457829003601f168201915b505050505081565b600081600260003373ffffffffffffffffffffffffffffffffffffffff1673ffffffffffffffffffffffffffffffffffffffff16815260200190815260200160002060008573ffffffffffffffffffffffffffffffffffffffff1673ffffffffffffffffffffffffffffffffffffffff168152602001908152602001600020819055508273ffffffffffffffffffffffffffffffffffffffff163373ffffffffffffffffffffffffffffffffffffffff167f8c5be1e5ebec7d5bd14f71427d1e84f3dd0314c0f7b2291e5b200ac8c7c3b925846040518082815260200191505060405180910390a36001905092915050565b600080600083118015610fc05750600b548311155b801561102d575060001515600960003373ffffffffffffffffffffffffffffffffffffffff1673ffffffffffffffffffffffffffffffffffffffff168152602001908152602001600020600085815260200190815260200160002060009054906101000a900460ff161515145b151561103857600080fd5b61109e6007600085815260200190815260200160002060010160009054906101000a900473ffffffffffffffffffffffffffffffffffffffff166007600086815260200190815260200160002060040160009054906101000a900460ff1660ff16611cd3565b50600860003373ffffffffffffffffffffffffffffffffffffffff1673ffffffffffffffffffffffffffffffffffffffff168152602001908152602001600020600001549050600860003373ffffffffffffffffffffffffffffffffffffffff1673ffffffffffffffffffffffffffffffffffffffff168152602001908152602001600020600201839080600181540180825580915050906001820390600052602060002001600090919290919091505550600760008481526020019081526020016000206005018190806001815401808255809150509060018203906000526020600020016000909192909190915055506001600960003373ffffffffffffffffffffffffffffffffffffffff1673ffffffffffffffffffffffffffffffffffffffff168152602001908152602001600020600085815260200190815260200160002060006101000a81548160ff0219169083151502179055503373ffffffffffffffffffffffffffffffffffffffff167ff1c720f62d23fcc4facc0e74b1d49efa7fc5c9f2f41a04324adc249277336f22600860003373ffffffffffffffffffffffffffffffffffffffff1673ffffffffffffffffffffffffffffffffffffffff1681526020019081526020016000206002016007600087815260200190815260200160002060050160405180806020018060200183810383528581815481526020019150805480156112d257602002820191906000526020600020905b8154815260200190600101908083116112be575b5050838103825284818154815260200191508054801561131157602002820191906000526020600020905b8154815260200190600101908083116112fd575b505094505050505060405180910390a26001915050919050565b60005481565b60076020528060005260406000206000915090508060000154908060010160009054906101000a900473ffffffffffffffffffffffffffffffffffffffff1690806002018054600181600116156101000203166002900480601f0160208091040260200160405190810160405280929190818152602001828054600181600116156101000203166002900480156114095780601f106113de57610100808354040283529160200191611409565b820191906000526020600020905b8154815290600101906020018083116113ec57829003601f168201915b505050505090806003018054600181600116156101000203166002900480601f0160208091040260200160405190810160405280929190818152602001828054600181600116156101000203166002900480156114a75780601f1061147c576101008083540402835291602001916114a7565b820191906000526020600020905b81548152906001019060200180831161148a57829003601f168201915b5050505050908060040160009054906101000a900460ff16905085565b6000600c60019054906101000a900460ff1660ff168460ff16111515156114ea57600080fd5b600b6000815480929190600101919050555060c060405190810160405280600b5481526020013373ffffffffffffffffffffffffffffffffffffffff1681526020018481526020018381526020018560ff16815260200160006040519080825280602002602001820160405280156115715781602001602082028038833980820191505090505b5081525060076000600b5481526020019081526020016000206000820151816000015560208201518160010160006101000a81548173ffffffffffffffffffffffffffffffffffffffff021916908373ffffffffffffffffffffffffffffffffffffffff16021790555060408201518160020190805190602001906115f7929190612383565b506060820151816003019080519060200190611614929190612383565b5060808201518160040160006101000a81548160ff021916908360ff16021790555060a0820151816005019080519060200190611652929190612403565b509050503373ffffffffffffffffffffffffffffffffffffffff16600b547fe52515fa15a0cfd32fd25a657d2146ea496a781b5c94f883f655b733c942b702858760405180806020018360ff1660ff168152602001828103825284818151815260200191508051906020019080838360005b838110156116df5780820151818401526020810190506116c4565b50505050905090810190601f16801561170c5780820380516001836020036101000a031916815260200191505b50935050505060405180910390a3600190509392505050565b600080600260008673ffffffffffffffffffffffffffffffffffffffff1673ffffffffffffffffffffffffffffffffffffffff16815260200190815260200160002060003373ffffffffffffffffffffffffffffffffffffffff1673ffffffffffffffffffffffffffffffffffffffff16815260200190815260200160002054905082600160008773ffffffffffffffffffffffffffffffffffffffff1673ffffffffffffffffffffffffffffffffffffffff16815260200190815260200160002054101580156117f65750828110155b151561180157600080fd5b82600160008673ffffffffffffffffffffffffffffffffffffffff1673ffffffffffffffffffffffffffffffffffffffff1681526020019081526020016000206000828254019250508190555082600160008773ffffffffffffffffffffffffffffffffffffffff1673ffffffffffffffffffffffffffffffffffffffff168152602001908152602001600020600082825403925050819055507fffffffffffffffffffffffffffffffffffffffffffffffffffffffffffffffff81101561194e5782600260008773ffffffffffffffffffffffffffffffffffffffff1673ffffffffffffffffffffffffffffffffffffffff16815260200190815260200160002060003373ffffffffffffffffffffffffffffffffffffffff1673ffffffffffffffffffffffffffffffffffffffff168152602001908152602001600020600082825403925050819055505b8373ffffffffffffffffffffffffffffffffffffffff168573ffffffffffffffffffffffffffffffffffffffff167fddf252ad1be2c89b69c2b068fc378daa952ba7f163c4a11628f55a4df523b3ef856040518082815260200191505060405180910390a360019150509392505050565b60016020528060005260406000206000915090505481565b6103e881565b600460009054906101000a900460ff1681565b600a5481565b60086020528060005260406000206000915090508060000154908060010160009054906101000a900473ffffffffffffffffffffffffffffffffffffffff16905082565b6002602052816000526040600020602052806000526040600020600091509150505481565b600b5481565b6000600160008373ffffffffffffffffffffffffffffffffffffffff1673ffffffffffffffffffffffffffffffffffffffff168152602001908152602001600020549050919050565b60607f8bc2e06f62da7b9fdc5203cddbd68637aacc4909869d52e589449b6718ffa3ef600860003373ffffffffffffffffffffffffffffffffffffffff1673ffffffffffffffffffffffffffffffffffffffff16815260200190815260200160002060020160405180806020018281038252838181548152602001915080548015611b5857602002820191906000526020600020905b815481526020019060010190808311611b44575b50509250505060405180910390a1600860003373ffffffffffffffffffffffffffffffffffffffff1673ffffffffffffffffffffffffffffffffffffffff168152602001908152602001600020600201805480602002602001604051908101604052809291908181526020018280548015611bf257602002820191906000526020600020905b815481526020019060010190808311611bde575b5050505050905090565b600c60029054906101000a900473ffffffffffffffffffffffffffffffffffffffff1681565b60058054600181600116156101000203166002900480601f016020809104026020016040519081016040528092919081815260200182805460018160011615610100020316600290048015611cb85780601f10611c8d57610100808354040283529160200191611cb8565b820191906000526020600020905b815481529060010190602001808311611c9b57829003601f168201915b505050505081565b600c60009054906101000a900460ff1681565b60008160016000600660009054906101000a900473ffffffffffffffffffffffffffffffffffffffff1673ffffffffffffffffffffffffffffffffffffffff1673ffffffffffffffffffffffffffffffffffffffff1681526020019081526020016000205410151515611d4557600080fd5b611d9782600160003373ffffffffffffffffffffffffffffffffffffffff1673ffffffffffffffffffffffffffffffffffffffff1681526020019081526020016000205461236a90919063ffffffff16565b600160003373ffffffffffffffffffffffffffffffffffffffff1673ffffffffffffffffffffffffffffffffffffffff16815260200190815260200160002081905550611e2c82600160008673ffffffffffffffffffffffffffffffffffffffff1673ffffffffffffffffffffffffffffffffffffffff1681526020019081526020016000205461234c90919063ffffffff16565b600160008573ffffffffffffffffffffffffffffffffffffffff1673ffffffffffffffffffffffffffffffffffffffff168152602001908152602001600020819055508273ffffffffffffffffffffffffffffffffffffffff163373ffffffffffffffffffffffffffffffffffffffff167fddf252ad1be2c89b69c2b068fc378daa952ba7f163c4a11628f55a4df523b3ef846040518082815260200191505060405180910390a36001905092915050565b60096020528160005260406000206020528060005260406000206000915091509054906101000a900460ff1681565b60607f0c4ae26fb47ae87df3d36e82881909ed1eaf2243302e2b307bf1c64aefc8456c6007600084815260200190815260200160002060050160405180806020018281038252838181548152602001915080548015611f8b57602002820191906000526020600020905b815481526020019060010190808311611f77575b50509250505060405180910390a160076000838152602001908152602001600020600501805480602002602001604051908101604052809291908181526020018280548015611ff957602002820191906000526020600020905b815481526020019060010190808311611fe5575b50505050509050919050565b6000600c60029054906101000a900473ffffffffffffffffffffffffffffffffffffffff1673ffffffffffffffffffffffffffffffffffffffff163373ffffffffffffffffffffffffffffffffffffffff1614151561206357600080fd5b600a60008154809291906001019190505550606060405190810160405280600a5481526020018373ffffffffffffffffffffffffffffffffffffffff16815260200160006040519080825280602002602001820160405280156120d55781602001602082028038833980820191505090505b50815250600860008473ffffffffffffffffffffffffffffffffffffffff1673ffffffffffffffffffffffffffffffffffffffff1681526020019081526020016000206000820151816000015560208201518160010160006101000a81548173ffffffffffffffffffffffffffffffffffffffff021916908373ffffffffffffffffffffffffffffffffffffffff1602179055506040820151816002019080519060200190612185929190612403565b509050506121a582600c60009054906101000a900460ff1660ff16611cd3565b508173ffffffffffffffffffffffffffffffffffffffff16600a547f4b671216edfc4634e6fc868e9b6d7f7987af44a9da63212698a749b64d04a478600860003373ffffffffffffffffffffffffffffffffffffffff1673ffffffffffffffffffffffffffffffffffffffff1681526020019081526020016000206002016040518080602001828103825283818154815260200191508054801561226857602002820191906000526020600020905b815481526020019060010190808311612254575b50509250505060405180910390a360019050919050565b6000600260008473ffffffffffffffffffffffffffffffffffffffff1673ffffffffffffffffffffffffffffffffffffffff16815260200190815260200160002060008373ffffffffffffffffffffffffffffffffffffffff1673ffffffffffffffffffffffffffffffffffffffff16815260200190815260200160002054905092915050565b600c60019054906101000a900460ff1681565b6000808284029050600084148061233a575082848281151561233757fe5b04145b151561234257fe5b8091505092915050565b600080828401905083811015151561236057fe5b8091505092915050565b600082821115151561237857fe5b818303905092915050565b828054600181600116156101000203166002900490600052602060002090601f016020900481019282601f106123c457805160ff19168380011785556123f2565b828001600101855582156123f2579182015b828111156123f15782518255916020019190600101906123d6565b5b5090506123ff9190612450565b5090565b82805482825590600052602060002090810192821561243f579160200282015b8281111561243e578251825591602001919060010190612423565b5b50905061244c9190612450565b5090565b61247291905b8082111561246e576000816000905550600101612456565b5090565b905600a165627a7a723058202a3f6cfb272e2198850e5d879478d82a70d36a05fb2018fbad29d4fcd1ce2a410029",
  "source": "pragma solidity ^0.4.18;\n\nimport \"./Token/JournalToken.sol\";\n\ncontract OpenJournal is JournalToken(0, \"OJToken\", 18, \"OJ\") {\n    \n    struct Journal {\n        uint256 number;\n        address author;\n        string title;\n        string description;     //    \n        uint8 value;\n        uint[] subscribed;\n        //uint[] reference_journal;\n    }\n    \n    struct Subscriber {\n        uint256 subscriber_number;          //  number(   )\n        address subscriber_address;         //  \n        uint[] subscriber_journal;          //   \n    }    \n\n    mapping (uint => Journal) public journals;                                  //   : Journal\n    mapping (address => Subscriber) public subscribers;                         //   : Subscriber\n    mapping (address => mapping (uint => bool)) public is_subscribed;           //     \n\n    uint256 public subscriberNumber;       // Subscriber ( test  2  )\n    uint256 public journalNumber;          // Journal ( test  2  )\n    uint8 public signUpCost;               //   \n    uint8 public upperbound_value;         //       \n    address public owner;  \n\n    event LogSignUp(\n        uint256 indexed _subscriber_number, \n        address indexed _subscriber_address, \n        uint[] _subscriber_journal\n    );  \n\n    event LogRegistJournal(\n        uint256 indexed _number, \n        address indexed _author, \n        string _title, \n        uint8 _value\n    );  \n\n    event LogSubscribeJournal(\n        address indexed _subscriber, \n        uint[] _myjournals, \n        uint[] _subscribed\n    );\n\n    event LogShowSubscribedJournal(\n        uint[] _journals\n    );  \n\n    event LogShowJournalSubscriber(\n        uint[] _subscriber\n    );     \n\n    \n    event Test(\n        uint256 a,\n        uint256 b\n    );\n    \n\n    function OpenJournal(\n        uint256 _subscriberNumber,\n        uint256 _journalNumber,\n        uint8 _signUpCost,\n        uint8 _upperbound_value\n    ) public {\n        subscriberNumber = _subscriberNumber;\n        journalNumber = _journalNumber;\n        signUpCost = _signUpCost;\n        upperbound_value = _upperbound_value;\n        owner = msg.sender;\n    }\n\n    modifier onlyOwner {\n        require(msg.sender == owner);\n        _;\n    }   \n\n    function signUp(address _to) public onlyOwner returns (bool) {\n        subscriberNumber++;            \n        subscribers[_to] = Subscriber(\n            subscriberNumber,\n            _to,\n            new uint[](0)\n        );\n        transfer(_to, signUpCost);   \n        emit LogSignUp(subscriberNumber, _to, subscribers[msg.sender].subscriber_journal);\n        return true;\n    }\n\n    function registJournal(uint8 _journalValue, string _title, string _description) public returns (bool) {\n        require(_journalValue <= upperbound_value);\n        journalNumber++;\n        journals[journalNumber] = Journal(\n            journalNumber,\n            msg.sender,\n            _title,\n            _description,\n            _journalValue,\n            new uint[](0)            \n        );\n        emit LogRegistJournal(journalNumber, msg.sender, _title, _journalValue);   \n\n        return true;    \n    }\n\n    function subscribeJournal(uint256 _journalNumber) public returns (bool){\n        require(_journalNumber > 0 && _journalNumber <= journalNumber && is_subscribed[msg.sender][_journalNumber] == false);        \n\n        transfer(journals[_journalNumber].author, journals[_journalNumber].value);\n        uint sub_id = subscribers[msg.sender].subscriber_number;\n\n        subscribers[msg.sender].subscriber_journal.push(_journalNumber);  \n        journals[_journalNumber].subscribed.push(sub_id);       \n        is_subscribed[msg.sender][_journalNumber] = true;\n\n        emit LogSubscribeJournal(msg.sender, subscribers[msg.sender].subscriber_journal, journals[_journalNumber].subscribed);\n\n        return true;\n    }\n\n    function showSubscribedJournal() public view returns (uint[]){\n        emit LogShowSubscribedJournal(subscribers[msg.sender].subscriber_journal);\n\n        return subscribers[msg.sender].subscriber_journal;\n    }\n\n    function showJournalSubscriber(uint _journalNumber) public view returns (uint[]) {\n        emit LogShowJournalSubscriber(journals[_journalNumber].subscribed);\n\n        return journals[_journalNumber].subscribed;\n    }\n}\n",
  "sourcePath": "/Users/chaminjun/Desktop/GraduationProject/2018-cap1-1/src/OpenJournal/blockchain/contracts/OpenJournal.sol",
  "compiler": {
    "name": "solc",
    "version": "0.4.23+commit.124ca40d.Emscripten.clang"
  },
  "schemaVersion": "2.0.0",
  "updatedAt": "2018-05-06T01:56:51.732Z"
}