{
  "contractName": "OpenJournal",
  "abi": [
    {
      "constant": true,
      "inputs": [],
      "name": "name",
      "outputs": [
        {
          "name": "",
          "type": "string"
        }
      ],
      "payable": false,
      "stateMutability": "view",
      "type": "function"
    },
    {
      "constant": false,
      "inputs": [
        {
          "name": "_spender",
          "type": "address"
        },
        {
          "name": "_value",
          "type": "uint256"
        }
      ],
      "name": "approve",
      "outputs": [
        {
          "name": "success",
          "type": "bool"
        }
      ],
      "payable": false,
      "stateMutability": "nonpayable",
      "type": "function"
    },
    {
      "constant": true,
      "inputs": [],
      "name": "getOwnerAddress",
      "outputs": [
        {
          "name": "ownerAddress",
          "type": "address"
        }
      ],
      "payable": false,
      "stateMutability": "view",
      "type": "function"
    },
    {
      "constant": false,
      "inputs": [
        {
          "name": "_to",
          "type": "address"
        },
        {
          "name": "_value",
          "type": "uint256"
        }
      ],
      "name": "transferFromOwner",
      "outputs": [
        {
          "name": "success",
          "type": "bool"
        }
      ],
      "payable": false,
      "stateMutability": "nonpayable",
      "type": "function"
    },
    {
      "constant": true,
      "inputs": [],
      "name": "totalSupply",
      "outputs": [
        {
          "name": "",
          "type": "uint256"
        }
      ],
      "payable": false,
      "stateMutability": "view",
      "type": "function"
    },
    {
      "constant": true,
      "inputs": [
        {
          "name": "",
          "type": "uint256"
        }
      ],
      "name": "journals",
      "outputs": [
        {
          "name": "number",
          "type": "uint256"
        },
        {
          "name": "author",
          "type": "address"
        },
        {
          "name": "title",
          "type": "string"
        },
        {
          "name": "author_share",
          "type": "uint256"
        },
        {
          "name": "value",
          "type": "uint256"
        },
        {
          "name": "reference_count",
          "type": "uint256"
        },
        {
          "name": "final_enroll",
          "type": "bool"
        }
      ],
      "payable": false,
      "stateMutability": "view",
      "type": "function"
    },
    {
      "constant": true,
      "inputs": [
        {
          "name": "_to",
          "type": "address"
        }
      ],
      "name": "balanceOfEther",
      "outputs": [
        {
          "name": "",
          "type": "uint256"
        }
      ],
      "payable": false,
      "stateMutability": "view",
      "type": "function"
    },
    {
      "constant": false,
      "inputs": [
        {
          "name": "_value",
          "type": "uint256"
        }
      ],
      "name": "sellToken",
      "outputs": [],
      "payable": false,
      "stateMutability": "nonpayable",
      "type": "function"
    },
    {
      "constant": false,
      "inputs": [
        {
          "name": "_from",
          "type": "address"
        },
        {
          "name": "_to",
          "type": "address"
        },
        {
          "name": "_value",
          "type": "uint256"
        }
      ],
      "name": "transferFrom",
      "outputs": [
        {
          "name": "success",
          "type": "bool"
        }
      ],
      "payable": false,
      "stateMutability": "nonpayable",
      "type": "function"
    },
    {
      "constant": true,
      "inputs": [
        {
          "name": "",
          "type": "address"
        }
      ],
      "name": "balances",
      "outputs": [
        {
          "name": "",
          "type": "uint256"
        }
      ],
      "payable": false,
      "stateMutability": "view",
      "type": "function"
    },
    {
      "constant": true,
      "inputs": [],
      "name": "userNumber",
      "outputs": [
        {
          "name": "",
          "type": "uint256"
        }
      ],
      "payable": false,
      "stateMutability": "view",
      "type": "function"
    },
    {
      "constant": true,
      "inputs": [
        {
          "name": "",
          "type": "address"
        }
      ],
      "name": "users_by_address",
      "outputs": [
        {
          "name": "user_number",
          "type": "uint256"
        },
        {
          "name": "user_address",
          "type": "address"
        },
        {
          "name": "is_user",
          "type": "bool"
        }
      ],
      "payable": false,
      "stateMutability": "view",
      "type": "function"
    },
    {
      "constant": true,
      "inputs": [],
      "name": "rate",
      "outputs": [
        {
          "name": "",
          "type": "uint256"
        }
      ],
      "payable": false,
      "stateMutability": "view",
      "type": "function"
    },
    {
      "constant": true,
      "inputs": [],
      "name": "decimals",
      "outputs": [
        {
          "name": "",
          "type": "uint8"
        }
      ],
      "payable": false,
      "stateMutability": "view",
      "type": "function"
    },
    {
      "constant": true,
      "inputs": [
        {
          "name": "",
          "type": "uint256"
        }
      ],
      "name": "users_by_number",
      "outputs": [
        {
          "name": "user_number",
          "type": "uint256"
        },
        {
          "name": "user_address",
          "type": "address"
        },
        {
          "name": "is_user",
          "type": "bool"
        }
      ],
      "payable": false,
      "stateMutability": "view",
      "type": "function"
    },
    {
      "constant": true,
      "inputs": [],
      "name": "lowerbound_value",
      "outputs": [
        {
          "name": "",
          "type": "uint256"
        }
      ],
      "payable": false,
      "stateMutability": "view",
      "type": "function"
    },
    {
      "constant": true,
      "inputs": [
        {
          "name": "",
          "type": "address"
        },
        {
          "name": "",
          "type": "address"
        }
      ],
      "name": "allowed",
      "outputs": [
        {
          "name": "",
          "type": "uint256"
        }
      ],
      "payable": false,
      "stateMutability": "view",
      "type": "function"
    },
    {
      "constant": true,
      "inputs": [
        {
          "name": "_owner",
          "type": "address"
        }
      ],
      "name": "balanceOf",
      "outputs": [
        {
          "name": "balance",
          "type": "uint256"
        }
      ],
      "payable": false,
      "stateMutability": "view",
      "type": "function"
    },
    {
      "constant": false,
      "inputs": [],
      "name": "withdrawEther",
      "outputs": [],
      "payable": false,
      "stateMutability": "nonpayable",
      "type": "function"
    },
    {
      "constant": true,
      "inputs": [],
      "name": "owner",
      "outputs": [
        {
          "name": "",
          "type": "address"
        }
      ],
      "payable": false,
      "stateMutability": "view",
      "type": "function"
    },
    {
      "constant": true,
      "inputs": [],
      "name": "symbol",
      "outputs": [
        {
          "name": "",
          "type": "string"
        }
      ],
      "payable": false,
      "stateMutability": "view",
      "type": "function"
    },
    {
      "constant": true,
      "inputs": [],
      "name": "signUpCost",
      "outputs": [
        {
          "name": "",
          "type": "uint256"
        }
      ],
      "payable": false,
      "stateMutability": "view",
      "type": "function"
    },
    {
      "constant": false,
      "inputs": [],
      "name": "buyToken",
      "outputs": [],
      "payable": true,
      "stateMutability": "payable",
      "type": "function"
    },
    {
      "constant": false,
      "inputs": [
        {
          "name": "_newOwner",
          "type": "address"
        }
      ],
      "name": "changeOwner",
      "outputs": [],
      "payable": false,
      "stateMutability": "nonpayable",
      "type": "function"
    },
    {
      "constant": false,
      "inputs": [
        {
          "name": "_to",
          "type": "address"
        },
        {
          "name": "_value",
          "type": "uint256"
        }
      ],
      "name": "transfer",
      "outputs": [
        {
          "name": "success",
          "type": "bool"
        }
      ],
      "payable": false,
      "stateMutability": "nonpayable",
      "type": "function"
    },
    {
      "constant": true,
      "inputs": [],
      "name": "tokenGenerationMax",
      "outputs": [
        {
          "name": "",
          "type": "uint256"
        }
      ],
      "payable": false,
      "stateMutability": "view",
      "type": "function"
    },
    {
      "constant": true,
      "inputs": [
        {
          "name": "",
          "type": "address"
        },
        {
          "name": "",
          "type": "uint256"
        }
      ],
      "name": "is_subscribed",
      "outputs": [
        {
          "name": "",
          "type": "bool"
        }
      ],
      "payable": false,
      "stateMutability": "view",
      "type": "function"
    },
    {
      "constant": true,
      "inputs": [
        {
          "name": "_owner",
          "type": "address"
        },
        {
          "name": "_spender",
          "type": "address"
        }
      ],
      "name": "allowance",
      "outputs": [
        {
          "name": "remaining",
          "type": "uint256"
        }
      ],
      "payable": false,
      "stateMutability": "view",
      "type": "function"
    },
    {
      "constant": true,
      "inputs": [],
      "name": "upperbound_value",
      "outputs": [
        {
          "name": "",
          "type": "uint256"
        }
      ],
      "payable": false,
      "stateMutability": "view",
      "type": "function"
    },
    {
      "inputs": [
        {
          "name": "_userNumber",
          "type": "uint256"
        },
        {
          "name": "_signUpCost",
          "type": "uint256"
        },
        {
          "name": "_upperbound_value",
          "type": "uint256"
        },
        {
          "name": "_lowerbound_value",
          "type": "uint256"
        }
      ],
      "payable": false,
      "stateMutability": "nonpayable",
      "type": "constructor"
    },
    {
      "payable": true,
      "stateMutability": "payable",
      "type": "fallback"
    },
    {
      "anonymous": false,
      "inputs": [
        {
          "indexed": false,
          "name": "_user_number",
          "type": "uint256"
        },
        {
          "indexed": false,
          "name": "_user_address",
          "type": "address"
        },
        {
          "indexed": false,
          "name": "_user_subscribe_journal",
          "type": "uint256[]"
        },
        {
          "indexed": false,
          "name": "_user_regist_journal",
          "type": "uint256[]"
        },
        {
          "indexed": false,
          "name": "_is_user",
          "type": "bool"
        }
      ],
      "name": "LogSignUp",
      "type": "event"
    },
    {
      "anonymous": false,
      "inputs": [
        {
          "indexed": false,
          "name": "_number",
          "type": "uint256"
        },
        {
          "indexed": false,
          "name": "_author",
          "type": "address"
        },
        {
          "indexed": false,
          "name": "_title",
          "type": "string"
        },
        {
          "indexed": false,
          "name": "_author_share",
          "type": "uint256"
        },
        {
          "indexed": false,
          "name": "_value",
          "type": "uint256"
        },
        {
          "indexed": false,
          "name": "_reference_journal",
          "type": "uint256[]"
        },
        {
          "indexed": false,
          "name": "_contributors",
          "type": "uint256[]"
        },
        {
          "indexed": false,
          "name": "_contributors_share",
          "type": "uint256[]"
        }
      ],
      "name": "LogRegistJournal",
      "type": "event"
    },
    {
      "anonymous": false,
      "inputs": [
        {
          "indexed": false,
          "name": "_subscriber",
          "type": "address"
        },
        {
          "indexed": false,
          "name": "_myjournals",
          "type": "uint256[]"
        },
        {
          "indexed": false,
          "name": "_subscribed",
          "type": "uint256[]"
        },
        {
          "indexed": false,
          "name": "_is_subscribed",
          "type": "bool"
        },
        {
          "indexed": false,
          "name": "_author_value",
          "type": "uint256"
        }
      ],
      "name": "LogSubscribeJournal",
      "type": "event"
    },
    {
      "anonymous": false,
      "inputs": [
        {
          "indexed": false,
          "name": "_user_regist_journal",
          "type": "uint256[]"
        }
      ],
      "name": "LogGetUserRegistedJournals",
      "type": "event"
    },
    {
      "anonymous": false,
      "inputs": [
        {
          "indexed": false,
          "name": "_user_subscribe_journal",
          "type": "uint256"
        }
      ],
      "name": "LogGetUserSubscribedJournals",
      "type": "event"
    },
    {
      "anonymous": false,
      "inputs": [
        {
          "indexed": false,
          "name": "_number",
          "type": "uint256"
        },
        {
          "indexed": false,
          "name": "_author",
          "type": "address"
        }
      ],
      "name": "LogGetAuthorAddress",
      "type": "event"
    },
    {
      "anonymous": false,
      "inputs": [
        {
          "indexed": false,
          "name": "_number",
          "type": "uint256"
        },
        {
          "indexed": false,
          "name": "_value",
          "type": "uint256"
        }
      ],
      "name": "LogGetValue",
      "type": "event"
    },
    {
      "anonymous": false,
      "inputs": [
        {
          "indexed": false,
          "name": "_msgValue",
          "type": "uint256"
        },
        {
          "indexed": false,
          "name": "_amount",
          "type": "uint256"
        },
        {
          "indexed": false,
          "name": "_totalSupply",
          "type": "uint256"
        },
        {
          "indexed": false,
          "name": "_msgSender",
          "type": "address"
        },
        {
          "indexed": false,
          "name": "_decimals",
          "type": "uint8"
        },
        {
          "indexed": false,
          "name": "_symbol",
          "type": "string"
        }
      ],
      "name": "BuyToken",
      "type": "event"
    },
    {
      "anonymous": false,
      "inputs": [
        {
          "indexed": false,
          "name": "_msgValue",
          "type": "uint256"
        },
        {
          "indexed": false,
          "name": "_amount",
          "type": "uint256"
        },
        {
          "indexed": false,
          "name": "_totalSupply",
          "type": "uint256"
        },
        {
          "indexed": false,
          "name": "_msgSender",
          "type": "address"
        }
      ],
      "name": "SellToken",
      "type": "event"
    },
    {
      "anonymous": false,
      "inputs": [
        {
          "indexed": true,
          "name": "_from",
          "type": "address"
        },
        {
          "indexed": true,
          "name": "_to",
          "type": "address"
        },
        {
          "indexed": false,
          "name": "_value",
          "type": "uint256"
        }
      ],
      "name": "Transfer",
      "type": "event"
    },
    {
      "anonymous": false,
      "inputs": [
        {
          "indexed": true,
          "name": "_from",
          "type": "address"
        },
        {
          "indexed": true,
          "name": "_to",
          "type": "address"
        },
        {
          "indexed": false,
          "name": "_value",
          "type": "uint256"
        },
        {
          "indexed": false,
          "name": "_mini_value",
          "type": "uint256"
        }
      ],
      "name": "TransferAll",
      "type": "event"
    },
    {
      "anonymous": false,
      "inputs": [
        {
          "indexed": true,
          "name": "_owner",
          "type": "address"
        },
        {
          "indexed": true,
          "name": "_spender",
          "type": "address"
        },
        {
          "indexed": false,
          "name": "_value",
          "type": "uint256"
        }
      ],
      "name": "Approval",
      "type": "event"
    },
    {
      "constant": false,
      "inputs": [],
      "name": "signUp",
      "outputs": [
        {
          "name": "",
          "type": "bool"
        }
      ],
      "payable": false,
      "stateMutability": "nonpayable",
      "type": "function"
    },
    {
      "constant": false,
      "inputs": [
        {
          "name": "_journal_number",
          "type": "uint256"
        },
        {
          "name": "_title",
          "type": "string"
        },
        {
          "name": "_author_share",
          "type": "uint256"
        },
        {
          "name": "_journal_value",
          "type": "uint256"
        },
        {
          "name": "_reference_journal",
          "type": "uint256[]"
        },
        {
          "name": "_contributors",
          "type": "uint256[]"
        },
        {
          "name": "_contributors_share",
          "type": "uint256[]"
        }
      ],
      "name": "registJournal",
      "outputs": [
        {
          "name": "",
          "type": "bool"
        }
      ],
      "payable": false,
      "stateMutability": "nonpayable",
      "type": "function"
    },
    {
      "constant": false,
      "inputs": [
        {
          "name": "_journal_number",
          "type": "uint256"
        }
      ],
      "name": "subscribeJournal",
      "outputs": [
        {
          "name": "",
          "type": "bool"
        }
      ],
      "payable": false,
      "stateMutability": "nonpayable",
      "type": "function"
    },
    {
      "constant": true,
      "inputs": [
        {
          "name": "_journal_number",
          "type": "uint256"
        }
      ],
      "name": "getIsJournalValid",
      "outputs": [
        {
          "name": "",
          "type": "bool"
        }
      ],
      "payable": false,
      "stateMutability": "view",
      "type": "function"
    },
    {
      "constant": true,
      "inputs": [
        {
          "name": "_journal_number",
          "type": "uint256"
        }
      ],
      "name": "getAuthorAddress",
      "outputs": [
        {
          "name": "",
          "type": "address"
        }
      ],
      "payable": false,
      "stateMutability": "view",
      "type": "function"
    },
    {
      "constant": true,
      "inputs": [
        {
          "name": "_journal_number",
          "type": "uint256"
        }
      ],
      "name": "getJournalTitle",
      "outputs": [
        {
          "name": "",
          "type": "string"
        }
      ],
      "payable": false,
      "stateMutability": "view",
      "type": "function"
    },
    {
      "constant": true,
      "inputs": [
        {
          "name": "_journal_number",
          "type": "uint256"
        }
      ],
      "name": "getValue",
      "outputs": [
        {
          "name": "",
          "type": "uint256"
        }
      ],
      "payable": false,
      "stateMutability": "view",
      "type": "function"
    },
    {
      "constant": true,
      "inputs": [
        {
          "name": "_journal_number",
          "type": "uint256"
        }
      ],
      "name": "getJournalSubscriber",
      "outputs": [
        {
          "name": "",
          "type": "uint256[]"
        }
      ],
      "payable": false,
      "stateMutability": "view",
      "type": "function"
    },
    {
      "constant": true,
      "inputs": [
        {
          "name": "_journal_number",
          "type": "uint256"
        }
      ],
      "name": "getReferenceJournal",
      "outputs": [
        {
          "name": "",
          "type": "uint256[]"
        }
      ],
      "payable": false,
      "stateMutability": "view",
      "type": "function"
    },
    {
      "constant": true,
      "inputs": [
        {
          "name": "_journal_number",
          "type": "uint256"
        }
      ],
      "name": "getIsSubscribedJournal",
      "outputs": [
        {
          "name": "",
          "type": "bool"
        }
      ],
      "payable": false,
      "stateMutability": "view",
      "type": "function"
    },
    {
      "constant": true,
      "inputs": [
        {
          "name": "_journal_number",
          "type": "uint256"
        }
      ],
      "name": "getAuthorShare",
      "outputs": [
        {
          "name": "",
          "type": "uint256"
        }
      ],
      "payable": false,
      "stateMutability": "view",
      "type": "function"
    },
    {
      "constant": true,
      "inputs": [
        {
          "name": "_journal_number",
          "type": "uint256"
        }
      ],
      "name": "getReferenceCount",
      "outputs": [
        {
          "name": "",
          "type": "uint256"
        }
      ],
      "payable": false,
      "stateMutability": "view",
      "type": "function"
    },
    {
      "constant": true,
      "inputs": [
        {
          "name": "_journal_number",
          "type": "uint256"
        }
      ],
      "name": "getContributors",
      "outputs": [
        {
          "name": "",
          "type": "uint256[]"
        }
      ],
      "payable": false,
      "stateMutability": "view",
      "type": "function"
    },
    {
      "constant": true,
      "inputs": [
        {
          "name": "_journal_number",
          "type": "uint256"
        }
      ],
      "name": "getContributorsShare",
      "outputs": [
        {
          "name": "",
          "type": "uint256[]"
        }
      ],
      "payable": false,
      "stateMutability": "view",
      "type": "function"
    },
    {
      "constant": true,
      "inputs": [],
      "name": "getIsUserValid",
      "outputs": [
        {
          "name": "",
          "type": "bool"
        }
      ],
      "payable": false,
      "stateMutability": "view",
      "type": "function"
    },
    {
      "constant": true,
      "inputs": [],
      "name": "getUserSubscribedJournals",
      "outputs": [
        {
          "name": "",
          "type": "uint256[]"
        }
      ],
      "payable": false,
      "stateMutability": "view",
      "type": "function"
    },
    {
      "constant": true,
      "inputs": [],
      "name": "getUserRegistedJournals",
      "outputs": [
        {
          "name": "",
          "type": "uint256[]"
        }
      ],
      "payable": false,
      "stateMutability": "view",
      "type": "function"
    },
    {
      "constant": true,
      "inputs": [],
      "name": "getSignupCost",
      "outputs": [
        {
          "name": "",
          "type": "uint256"
        }
      ],
      "payable": false,
      "stateMutability": "view",
      "type": "function"
    },
    {
      "constant": true,
      "inputs": [],
      "name": "getUpperboundValue",
      "outputs": [
        {
          "name": "",
          "type": "uint256"
        }
      ],
      "payable": false,
      "stateMutability": "view",
      "type": "function"
    },
    {
      "constant": true,
      "inputs": [],
      "name": "getLowerboundValue",
      "outputs": [
        {
          "name": "",
          "type": "uint256"
        }
      ],
      "payable": false,
      "stateMutability": "view",
      "type": "function"
    },
    {
      "constant": false,
      "inputs": [
        {
          "name": "_signUpCost",
          "type": "uint256"
        }
      ],
      "name": "setSignupCost",
      "outputs": [],
      "payable": false,
      "stateMutability": "nonpayable",
      "type": "function"
    },
    {
      "constant": false,
      "inputs": [
        {
          "name": "_upperbound_value",
          "type": "uint256"
        }
      ],
      "name": "setUpperboundValue",
      "outputs": [],
      "payable": false,
      "stateMutability": "nonpayable",
      "type": "function"
    },
    {
      "constant": false,
      "inputs": [
        {
          "name": "_lowerbound_value",
          "type": "uint256"
        }
      ],
      "name": "setLowerboundValue",
      "outputs": [],
      "payable": false,
      "stateMutability": "nonpayable",
      "type": "function"
    },
    {
      "constant": false,
      "inputs": [
        {
          "name": "_journal_number",
          "type": "uint256"
        },
        {
          "name": "_author_share",
          "type": "uint256"
        }
      ],
      "name": "setAuthorShare",
      "outputs": [],
      "payable": false,
      "stateMutability": "nonpayable",
      "type": "function"
    },
    {
      "constant": false,
      "inputs": [
        {
          "name": "_journal_number",
          "type": "uint256"
        },
        {
          "name": "_contributors",
          "type": "uint256[]"
        }
      ],
      "name": "setContributors",
      "outputs": [],
      "payable": false,
      "stateMutability": "nonpayable",
      "type": "function"
    },
    {
      "constant": false,
      "inputs": [
        {
          "name": "_journal_number",
          "type": "uint256"
        },
        {
          "name": "_contributors_share",
          "type": "uint256[]"
        }
      ],
      "name": "setContributorsShare",
      "outputs": [],
      "payable": false,
      "stateMutability": "nonpayable",
      "type": "function"
    }
  ],
  "bytecode": "0x60806040523480156200001157600080fd5b50604051608080620047658339810180604052810190808051906020019092919080519060200190929190805190602001909291908051906020019092919050505062030d406040805190810160405280600d81526020017f4a6f75726e616c20546f6b656e0000000000000000000000000000000000000081525060126040805190810160405280600281526020017f6a7400000000000000000000000000000000000000000000000000000000000081525033600160006101000a81548173ffffffffffffffffffffffffffffffffffffffff021916908373ffffffffffffffffffffffffffffffffffffffff16021790555033600760006101000a81548173ffffffffffffffffffffffffffffffffffffffff021916908373ffffffffffffffffffffffffffffffffffffffff16021790555082600490805190602001906200015f929190620002af565b50806006908051906020019062000178929190620002af565b5081600560006101000a81548160ff021916908360ff160217905550620001cc600560009054906101000a900460ff1660ff16600a0a85620002796401000000000262004169179091906401000000009004565b600081905550600054600260003373ffffffffffffffffffffffffffffffffffffffff1673ffffffffffffffffffffffffffffffffffffffff168152602001908152602001600020819055505050505083600c819055506200025b600560009054906101000a900460ff1660ff16600a0a84620002796401000000000262004169179091906401000000009004565b600d8190555081600e8190555080600f81905550505050506200035e565b600080828402905060008414806200029c57508284828115156200029957fe5b04145b1515620002a557fe5b8091505092915050565b828054600181600116156101000203166002900490600052602060002090601f016020900481019282601f10620002f257805160ff191683800117855562000323565b8280016001018555821562000323579182015b828111156200032257825182559160200191906001019062000305565b5b50905062000332919062000336565b5090565b6200035b91905b80821115620003575760008160009055506001016200033d565b5090565b90565b6143f7806200036e6000396000f300608060405260043610610293576000357c0100000000000000000000000000000000000000000000000000000000900463ffffffff16806301e4bab71461029d57806306fdde03146102de578063095ea7b31461036e5780630c4f65bd146103d35780630eb18ce61461042a5780630ec8e9b7146104595780630f18ac071461049e5780630ff4c916146105035780631467534014610544578063146f37721461056f57806318160ddd146105f1578063197cc19e1461061c578063211149041461071c5780632397e4d71461077357806323b872dd146107a057806327e235e3146108255780632b4e84131461087c5780632bd47b27146108a75780632c4e722e1461093c578063313ce567146109675780633c1ab00f1461099857806344078e7314610a1a5780634670ee2f14610a995780634898bf1f14610b0557806352ca6b5614610c6d578063563620b514610c985780635c65816514610cc55780635e676f5a14610d3c578063643db01214610d6957806364a9408d14610da05780636a19275914610e225780636ea7d1a314610e9257806370a0823114610f385780637362377b14610f8f578063747fc24814610fa6578063768d13fe14610fe757806381701e0f146110125780638da5cb5b1461105757806395d89b41146110ae57806397a099801461113e578063983899221461116b5780639e9378cc146111d7578063a482171914611202578063a5b5dd981461120c578063a6f9dae11461128e578063a9059cbb146112d1578063ac7b481d14611336578063ae082d58146113a3578063b57e6ea1146113e8578063b5a2d85914611413578063bf96ae6314611483578063c1a20d7c146114b2578063c1f9c930146114dd578063dd62ed3e14611542578063f23c081b146115b9575b61029b6115e4565b005b3480156102a957600080fd5b506102c86004803603810190808035906020019092919050505061180e565b6040518082815260200191505060405180910390f35b3480156102ea57600080fd5b506102f361182e565b6040518080602001828103825283818151815260200191508051906020019080838360005b83811015610333578082015181840152602081019050610318565b50505050905090810190601f1680156103605780820380516001836020036101000a031916815260200191505b509250505060405180910390f35b34801561037a57600080fd5b506103b9600480360381019080803573ffffffffffffffffffffffffffffffffffffffff169060200190929190803590602001909291905050506118cc565b604051808215151515815260200191505060405180910390f35b3480156103df57600080fd5b506103e86119be565b604051808273ffffffffffffffffffffffffffffffffffffffff1673ffffffffffffffffffffffffffffffffffffffff16815260200191505060405180910390f35b34801561043657600080fd5b5061043f6119e8565b604051808215151515815260200191505060405180910390f35b34801561046557600080fd5b5061048460048036038101908080359060200190929190505050611a3f565b604051808215151515815260200191505060405180910390f35b3480156104aa57600080fd5b506104e9600480360381019080803573ffffffffffffffffffffffffffffffffffffffff16906020019092919080359060200190929190505050611fc2565b604051808215151515815260200191505060405180910390f35b34801561050f57600080fd5b5061052e60048036038101908080359060200190929190505050612233565b6040518082815260200191505060405180910390f35b34801561055057600080fd5b50610559612253565b6040518082815260200191505060405180910390f35b34801561057b57600080fd5b5061059a6004803603810190808035906020019092919050505061225d565b6040518080602001828103825283818151815260200191508051906020019060200280838360005b838110156105dd5780820151818401526020810190506105c2565b505050509050019250505060405180910390f35b3480156105fd57600080fd5b506106066122cb565b6040518082815260200191505060405180910390f35b34801561062857600080fd5b50610647600480360381019080803590602001909291905050506122d1565b604051808881526020018773ffffffffffffffffffffffffffffffffffffffff1673ffffffffffffffffffffffffffffffffffffffff1681526020018060200186815260200185815260200184815260200183151515158152602001828103825287818151815260200191508051906020019080838360005b838110156106db5780820151818401526020810190506106c0565b50505050905090810190601f1680156107085780820380516001836020036101000a031916815260200191505b509850505050505050505060405180910390f35b34801561072857600080fd5b5061075d600480360381019080803573ffffffffffffffffffffffffffffffffffffffff1690602001909291905050506123d8565b6040518082815260200191505060405180910390f35b34801561077f57600080fd5b5061079e600480360381019080803590602001909291905050506123f9565b005b3480156107ac57600080fd5b5061080b600480360381019080803573ffffffffffffffffffffffffffffffffffffffff169060200190929190803573ffffffffffffffffffffffffffffffffffffffff169060200190929190803590602001909291905050506125ec565b604051808215151515815260200191505060405180910390f35b34801561083157600080fd5b50610866600480360381019080803573ffffffffffffffffffffffffffffffffffffffff16906020019092919050505061299b565b6040518082815260200191505060405180910390f35b34801561088857600080fd5b506108916129b3565b6040518082815260200191505060405180910390f35b3480156108b357600080fd5b506108e8600480360381019080803573ffffffffffffffffffffffffffffffffffffffff1690602001909291905050506129b9565b604051808481526020018373ffffffffffffffffffffffffffffffffffffffff1673ffffffffffffffffffffffffffffffffffffffff16815260200182151515158152602001935050505060405180910390f35b34801561094857600080fd5b50610951612a10565b6040518082815260200191505060405180910390f35b34801561097357600080fd5b5061097c612a16565b604051808260ff1660ff16815260200191505060405180910390f35b3480156109a457600080fd5b506109c360048036038101908080359060200190929190505050612a29565b6040518080602001828103825283818151815260200191508051906020019060200280838360005b83811015610a065780820151818401526020810190506109eb565b505050509050019250505060405180910390f35b348015610a2657600080fd5b50610a4560048036038101908080359060200190929190505050612a97565b604051808481526020018373ffffffffffffffffffffffffffffffffffffffff1673ffffffffffffffffffffffffffffffffffffffff16815260200182151515158152602001935050505060405180910390f35b348015610aa557600080fd5b50610aae612aee565b6040518080602001828103825283818151815260200191508051906020019060200280838360005b83811015610af1578082015181840152602081019050610ad6565b505050509050019250505060405180910390f35b348015610b1157600080fd5b50610c5360048036038101908080359060200190929190803590602001908201803590602001908080601f01602080910402602001604051908101604052809392919081815260200183838082843782019150505050505091929192908035906020019092919080359060200190929190803590602001908201803590602001908080602002602001604051908101604052809392919081815260200183836020028082843782019150505050505091929192908035906020019082018035906020019080806020026020016040519081016040528093929190818152602001838360200280828437820191505050505050919291929080359060200190820180359060200190808060200260200160405190810160405280939291908181526020018383602002808284378201915050505050509192919290505050612b86565b604051808215151515815260200191505060405180910390f35b348015610c7957600080fd5b50610c826131a8565b6040518082815260200191505060405180910390f35b348015610ca457600080fd5b50610cc3600480360381019080803590602001909291905050506131ae565b005b348015610cd157600080fd5b50610d26600480360381019080803573ffffffffffffffffffffffffffffffffffffffff169060200190929190803573ffffffffffffffffffffffffffffffffffffffff169060200190929190505050613214565b6040518082815260200191505060405180910390f35b348015610d4857600080fd5b50610d6760048036038101908080359060200190929190505050613239565b005b348015610d7557600080fd5b50610d9e600480360381019080803590602001909291908035906020019092919050505061329f565b005b348015610dac57600080fd5b50610dcb600480360381019080803590602001909291905050506132be565b6040518080602001828103825283818151815260200191508051906020019060200280838360005b83811015610e0e578082015181840152602081019050610df3565b505050509050019250505060405180910390f35b348015610e2e57600080fd5b50610e90600480360381019080803590602001909291908035906020019082018035906020019080806020026020016040519081016040528093929190818152602001838360200280828437820191505050505050919291929050505061332c565b005b348015610e9e57600080fd5b50610ebd600480360381019080803590602001909291905050506133bc565b6040518080602001828103825283818151815260200191508051906020019080838360005b83811015610efd578082015181840152602081019050610ee2565b50505050905090810190601f168015610f2a5780820380516001836020036101000a031916815260200191505b509250505060405180910390f35b348015610f4457600080fd5b50610f79600480360381019080803573ffffffffffffffffffffffffffffffffffffffff169060200190929190505050613474565b6040518082815260200191505060405180910390f35b348015610f9b57600080fd5b50610fa46134bd565b005b348015610fb257600080fd5b50610fd16004803603810190808035906020019092919050505061359b565b6040518082815260200191505060405180910390f35b348015610ff357600080fd5b50610ffc6135bb565b6040518082815260200191505060405180910390f35b34801561101e57600080fd5b5061103d600480360381019080803590602001909291905050506135c5565b604051808215151515815260200191505060405180910390f35b34801561106357600080fd5b5061106c61362c565b604051808273ffffffffffffffffffffffffffffffffffffffff1673ffffffffffffffffffffffffffffffffffffffff16815260200191505060405180910390f35b3480156110ba57600080fd5b506110c3613652565b6040518080602001828103825283818151815260200191508051906020019080838360005b838110156111035780820151818401526020810190506110e8565b50505050905090810190601f1680156111305780820380516001836020036101000a031916815260200191505b509250505060405180910390f35b34801561114a57600080fd5b50611169600480360381019080803590602001909291905050506136f0565b005b34801561117757600080fd5b50611180613756565b6040518080602001828103825283818151815260200191508051906020019060200280838360005b838110156111c35780820151818401526020810190506111a8565b505050509050019250505060405180910390f35b3480156111e357600080fd5b506111ec6137ee565b6040518082815260200191505060405180910390f35b61120a6115e4565b005b34801561121857600080fd5b50611237600480360381019080803590602001909291905050506137f4565b6040518080602001828103825283818151815260200191508051906020019060200280838360005b8381101561127a57808201518184015260208101905061125f565b505050509050019250505060405180910390f35b34801561129a57600080fd5b506112cf600480360381019080803573ffffffffffffffffffffffffffffffffffffffff169060200190929190505050613862565b005b3480156112dd57600080fd5b5061131c600480360381019080803573ffffffffffffffffffffffffffffffffffffffff16906020019092919080359060200190929190505050613902565b604051808215151515815260200191505060405180910390f35b34801561134257600080fd5b5061136160048036038101908080359060200190929190505050613aeb565b604051808273ffffffffffffffffffffffffffffffffffffffff1673ffffffffffffffffffffffffffffffffffffffff16815260200191505060405180910390f35b3480156113af57600080fd5b506113ce60048036038101908080359060200190929190505050613b2b565b604051808215151515815260200191505060405180910390f35b3480156113f457600080fd5b506113fd613b58565b6040518082815260200191505060405180910390f35b34801561141f57600080fd5b506114816004803603810190808035906020019092919080359060200190820180359060200190808060200260200160405190810160405280939291908181526020018383602002808284378201915050505050509192919290505050613b76565b005b34801561148f57600080fd5b50611498613ba5565b604051808215151515815260200191505060405180910390f35b3480156114be57600080fd5b506114c76140a3565b6040518082815260200191505060405180910390f35b3480156114e957600080fd5b50611528600480360381019080803573ffffffffffffffffffffffffffffffffffffffff169060200190929190803590602001909291905050506140ad565b604051808215151515815260200191505060405180910390f35b34801561154e57600080fd5b506115a3600480360381019080803573ffffffffffffffffffffffffffffffffffffffff169060200190929190803573ffffffffffffffffffffffffffffffffffffffff1690602001909291905050506140dc565b6040518082815260200191505060405180910390f35b3480156115c557600080fd5b506115ce614163565b6040518082815260200191505060405180910390f35b600080341115156115f457600080fd5b6116096127103461416990919063ffffffff16565b905061165d81600260003373ffffffffffffffffffffffffffffffffffffffff1673ffffffffffffffffffffffffffffffffffffffff1681526020019081526020016000205461419c90919063ffffffff16565b600260003373ffffffffffffffffffffffffffffffffffffffff1673ffffffffffffffffffffffffffffffffffffffff168152602001908152602001600020819055506116b58160005461419c90919063ffffffff16565b600081905550600560009054906101000a900460ff1660ff16600a0a620f424002600054111515156116e657600080fd5b7f712a7c91acc43a1321298fb00af337b26e06f3905018f430338ea13df04e7db6348260005433600560009054906101000a900460ff166006604051808781526020018681526020018581526020018473ffffffffffffffffffffffffffffffffffffffff1673ffffffffffffffffffffffffffffffffffffffff1681526020018360ff1660ff168152602001806020018281038252838181546001816001161561010002031660029004815260200191508054600181600116156101000203166002900480156117f85780601f106117cd576101008083540402835291602001916117f8565b820191906000526020600020905b8154815290600101906020018083116117db57829003601f168201915b505097505050505050505060405180910390a150565b600060086000838152602001908152602001600020600301549050919050565b60048054600181600116156101000203166002900480601f0160208091040260200160405190810160405280929190818152602001828054600181600116156101000203166002900480156118c45780601f10611899576101008083540402835291602001916118c4565b820191906000526020600020905b8154815290600101906020018083116118a757829003601f168201915b505050505081565b600081600360003373ffffffffffffffffffffffffffffffffffffffff1673ffffffffffffffffffffffffffffffffffffffff16815260200190815260200160002060008573ffffffffffffffffffffffffffffffffffffffff1673ffffffffffffffffffffffffffffffffffffffff168152602001908152602001600020819055508273ffffffffffffffffffffffffffffffffffffffff163373ffffffffffffffffffffffffffffffffffffffff167f8c5be1e5ebec7d5bd14f71427d1e84f3dd0314c0f7b2291e5b200ac8c7c3b925846040518082815260200191505060405180910390a36001905092915050565b6000600160009054906101000a900473ffffffffffffffffffffffffffffffffffffffff16905090565b6000600a60003373ffffffffffffffffffffffffffffffffffffffff1673ffffffffffffffffffffffffffffffffffffffff16815260200190815260200160002060040160009054906101000a900460ff16905090565b6000806000806000806000806000801515600b60003373ffffffffffffffffffffffffffffffffffffffff1673ffffffffffffffffffffffffffffffffffffffff16815260200190815260200160002060008c815260200190815260200160002060009054906101000a900460ff161515141515611abc57600080fd5b600860008b81526020019081526020016000206008018054905094506000851415611aff57600860008b8152602001908152602001600020600401549750611c50565b600860008b8152602001908152602001600020600301549350611b546064611b4686600860008f81526020019081526020016000206004015461416990919063ffffffff16565b6141ba90919063ffffffff16565b9750600092505b84831015611c4f57600860008b815260200190815260200160002060080183815481101515611b8657fe5b90600052602060002001549150600860008b815260200190815260200160002060090183815481101515611bb657fe5b90600052602060002001549050611bff6064611bf183600860008f81526020019081526020016000206004015461416990919063ffffffff16565b6141ba90919063ffffffff16565b9550611c416009600084815260200190815260200160002060010160009054906101000a900473ffffffffffffffffffffffffffffffffffffffff1687613902565b508280600101935050611b5b565b5b611c90600860008c815260200190815260200160002060010160009054906101000a900473ffffffffffffffffffffffffffffffffffffffff1689613902565b50600a60003373ffffffffffffffffffffffffffffffffffffffff1673ffffffffffffffffffffffffffffffffffffffff16815260200190815260200160002060000154601081905550600a60003373ffffffffffffffffffffffffffffffffffffffff1673ffffffffffffffffffffffffffffffffffffffff1681526020019081526020016000206002018a9080600181540180825580915050906001820390600052602060002001600090919290919091505550600860008b815260200190815260200160002060060160105490806001815401808255809150509060018203906000526020600020016000909192909190915055506001600b60003373ffffffffffffffffffffffffffffffffffffffff1673ffffffffffffffffffffffffffffffffffffffff16815260200190815260200160002060008c815260200190815260200160002060006101000a81548160ff021916908315150217905550611dfa8a6141d5565b507f0b652e40e3ac958f888830c7b7142c7028784c31fcb6ec787fa1e5da89507ba633600a60003373ffffffffffffffffffffffffffffffffffffffff1673ffffffffffffffffffffffffffffffffffffffff168152602001908152602001600020600201600860008e8152602001908152602001600020600601600b60003373ffffffffffffffffffffffffffffffffffffffff1673ffffffffffffffffffffffffffffffffffffffff16815260200190815260200160002060008f815260200190815260200160002060009054906101000a900460ff168c604051808673ffffffffffffffffffffffffffffffffffffffff1673ffffffffffffffffffffffffffffffffffffffff1681526020018060200180602001851515151581526020018481526020018381038352878181548152602001915080548015611f5f57602002820191906000526020600020905b815481526020019060010190808311611f4b575b50508381038252868181548152602001915080548015611f9e57602002820191906000526020600020905b815481526020019060010190808311611f8a575b505097505050505050505060405180910390a1600198505050505050505050919050565b60008160026000600760009054906101000a900473ffffffffffffffffffffffffffffffffffffffff1673ffffffffffffffffffffffffffffffffffffffff1673ffffffffffffffffffffffffffffffffffffffff168152602001908152602001600020541015151561203457600080fd5b6120a88260026000600760009054906101000a900473ffffffffffffffffffffffffffffffffffffffff1673ffffffffffffffffffffffffffffffffffffffff1673ffffffffffffffffffffffffffffffffffffffff1681526020019081526020016000205461427390919063ffffffff16565b60026000600760009054906101000a900473ffffffffffffffffffffffffffffffffffffffff1673ffffffffffffffffffffffffffffffffffffffff1673ffffffffffffffffffffffffffffffffffffffff1681526020019081526020016000208190555061215f82600260008673ffffffffffffffffffffffffffffffffffffffff1673ffffffffffffffffffffffffffffffffffffffff1681526020019081526020016000205461419c90919063ffffffff16565b600260008573ffffffffffffffffffffffffffffffffffffffff1673ffffffffffffffffffffffffffffffffffffffff168152602001908152602001600020819055508273ffffffffffffffffffffffffffffffffffffffff16600760009054906101000a900473ffffffffffffffffffffffffffffffffffffffff1673ffffffffffffffffffffffffffffffffffffffff167fddf252ad1be2c89b69c2b068fc378daa952ba7f163c4a11628f55a4df523b3ef846040518082815260200191505060405180910390a36001905092915050565b600060086000838152602001908152602001600020600401549050919050565b6000600e54905090565b6060600860008381526020019081526020016000206009018054806020026020016040519081016040528092919081815260200182805480156122bf57602002820191906000526020600020905b8154815260200190600101908083116122ab575b50505050509050919050565b60005481565b60086020528060005260406000206000915090508060000154908060010160009054906101000a900473ffffffffffffffffffffffffffffffffffffffff1690806002018054600181600116156101000203166002900480601f0160208091040260200160405190810160405280929190818152602001828054600181600116156101000203166002900480156123a95780601f1061237e576101008083540402835291602001916123a9565b820191906000526020600020905b81548152906001019060200180831161238c57829003601f168201915b50505050509080600301549080600401549080600501549080600a0160009054906101000a900460ff16905087565b60008173ffffffffffffffffffffffffffffffffffffffff16319050919050565b600081600260003373ffffffffffffffffffffffffffffffffffffffff1673ffffffffffffffffffffffffffffffffffffffff168152602001908152602001600020541015801561244c57508160005410155b8015612459575060008214155b151561246457600080fd5b612479612710836141ba90919063ffffffff16565b90506124cd82600260003373ffffffffffffffffffffffffffffffffffffffff1673ffffffffffffffffffffffffffffffffffffffff1681526020019081526020016000205461427390919063ffffffff16565b600260003373ffffffffffffffffffffffffffffffffffffffff1673ffffffffffffffffffffffffffffffffffffffff168152602001908152602001600020819055506125258260005461427390919063ffffffff16565b6000819055503373ffffffffffffffffffffffffffffffffffffffff166108fc829081150290604051600060405180830381858888f19350505050151561256b57600080fd5b7f241e6666a37e994e9acf140190540c74190f1be9cbe04c868d62d91ee0b92883828260005433604051808581526020018481526020018381526020018273ffffffffffffffffffffffffffffffffffffffff1673ffffffffffffffffffffffffffffffffffffffff16815260200194505050505060405180910390a15050565b600080600360008673ffffffffffffffffffffffffffffffffffffffff1673ffffffffffffffffffffffffffffffffffffffff16815260200190815260200160002060003373ffffffffffffffffffffffffffffffffffffffff1673ffffffffffffffffffffffffffffffffffffffff16815260200190815260200160002054905082600260008773ffffffffffffffffffffffffffffffffffffffff1673ffffffffffffffffffffffffffffffffffffffff16815260200190815260200160002054101580156126bd5750828110155b15156126c857600080fd5b61271a83600260008773ffffffffffffffffffffffffffffffffffffffff1673ffffffffffffffffffffffffffffffffffffffff1681526020019081526020016000205461419c90919063ffffffff16565b600260008673ffffffffffffffffffffffffffffffffffffffff1673ffffffffffffffffffffffffffffffffffffffff168152602001908152602001600020819055506127af83600260008873ffffffffffffffffffffffffffffffffffffffff1673ffffffffffffffffffffffffffffffffffffffff1681526020019081526020016000205461427390919063ffffffff16565b600260008773ffffffffffffffffffffffffffffffffffffffff1673ffffffffffffffffffffffffffffffffffffffff168152602001908152602001600020819055507fffffffffffffffffffffffffffffffffffffffffffffffffffffffffffffffff81101561292a576128a983600360008873ffffffffffffffffffffffffffffffffffffffff1673ffffffffffffffffffffffffffffffffffffffff16815260200190815260200160002060003373ffffffffffffffffffffffffffffffffffffffff1673ffffffffffffffffffffffffffffffffffffffff1681526020019081526020016000205461427390919063ffffffff16565b600360008773ffffffffffffffffffffffffffffffffffffffff1673ffffffffffffffffffffffffffffffffffffffff16815260200190815260200160002060003373ffffffffffffffffffffffffffffffffffffffff1673ffffffffffffffffffffffffffffffffffffffff168152602001908152602001600020819055505b8373ffffffffffffffffffffffffffffffffffffffff168573ffffffffffffffffffffffffffffffffffffffff167fddf252ad1be2c89b69c2b068fc378daa952ba7f163c4a11628f55a4df523b3ef856040518082815260200191505060405180910390a360019150509392505050565b60026020528060005260406000206000915090505481565b600c5481565b600a6020528060005260406000206000915090508060000154908060010160009054906101000a900473ffffffffffffffffffffffffffffffffffffffff16908060040160009054906101000a900460ff16905083565b61271081565b600560009054906101000a900460ff1681565b606060086000838152602001908152602001600020600801805480602002602001604051908101604052809291908181526020018280548015612a8b57602002820191906000526020600020905b815481526020019060010190808311612a77575b50505050509050919050565b60096020528060005260406000206000915090508060000154908060010160009054906101000a900473ffffffffffffffffffffffffffffffffffffffff16908060040160009054906101000a900460ff16905083565b6060600a60003373ffffffffffffffffffffffffffffffffffffffff1673ffffffffffffffffffffffffffffffffffffffff168152602001908152602001600020600301805480602002602001604051908101604052809291908181526020018280548015612b7c57602002820191906000526020600020905b815481526020019060010190808311612b68575b5050505050905090565b6000806000600e548711158015612b9f5750600f548710155b1515612baa57600080fd5b610160604051908101604052808b81526020013373ffffffffffffffffffffffffffffffffffffffff1681526020018a8152602001898152602001612c0d600560009054906101000a900460ff1660ff16600a0a8a61416990919063ffffffff16565b8152602001600081526020016000604051908082528060200260200182016040528015612c495781602001602082028038833980820191505090505b5081526020016000604051908082528060200260200182016040528015612c7f5781602001602082028038833980820191505090505b5081526020016000604051908082528060200260200182016040528015612cb55781602001602082028038833980820191505090505b5081526020016000604051908082528060200260200182016040528015612ceb5781602001602082028038833980820191505090505b50815260200160011515815250600860008c81526020019081526020016000206000820151816000015560208201518160010160006101000a81548173ffffffffffffffffffffffffffffffffffffffff021916908373ffffffffffffffffffffffffffffffffffffffff1602179055506040820151816002019080519060200190612d7892919061428c565b50606082015181600301556080820151816004015560a0820151816005015560c0820151816006019080519060200190612db392919061430c565b5060e0820151816007019080519060200190612dd092919061430c565b50610100820151816008019080519060200190612dee92919061430c565b50610120820151816009019080519060200190612e0c92919061430c565b5061014082015181600a0160006101000a81548160ff021916908315150217905550905050600091505b8551821015612ea157600860008b81526020019081526020016000206007018683815181101515612e6357fe5b906020019060200201519080600181540180825580915050906001820390600052602060002001600090919290919091505550816001019150612e36565b600090505b8451811015612f6857600860008b81526020019081526020016000206008018582815181101515612ed357fe5b906020019060200201519080600181540180825580915050906001820390600052602060002001600090919290919091505550600860008b81526020019081526020016000206009018482815181101515612f2a57fe5b906020019060200201519080600181540180825580915050906001820390600052602060002001600090919290919091505550806001019050612ea6565b600a60003373ffffffffffffffffffffffffffffffffffffffff1673ffffffffffffffffffffffffffffffffffffffff1681526020019081526020016000206003018a90806001815401808255809150509060018203906000526020600020016000909192909190915055507fcc348e801ac344360dd9637b0e326028a91c9f6d959db5f85fd503b68e6eac148a338b8b8b8b8b8b604051808981526020018873ffffffffffffffffffffffffffffffffffffffff1673ffffffffffffffffffffffffffffffffffffffff1681526020018060200187815260200186815260200180602001806020018060200185810385528b818151815260200191508051906020019080838360005b8381101561308d578082015181840152602081019050613072565b50505050905090810190601f1680156130ba5780820380516001836020036101000a031916815260200191505b50858103845288818151815260200191508051906020019060200280838360005b838110156130f65780820151818401526020810190506130db565b50505050905001858103835287818151815260200191508051906020019060200280838360005b8381101561313857808201518184015260208101905061311d565b50505050905001858103825286818151815260200191508051906020019060200280838360005b8381101561317a57808201518184015260208101905061315f565b505050509050019c5050505050505050505050505060405180910390a1600192505050979650505050505050565b600f5481565b600160009054906101000a900473ffffffffffffffffffffffffffffffffffffffff1673ffffffffffffffffffffffffffffffffffffffff163373ffffffffffffffffffffffffffffffffffffffff1614151561320a57600080fd5b80600d8190555050565b6003602052816000526040600020602052806000526040600020600091509150505481565b600160009054906101000a900473ffffffffffffffffffffffffffffffffffffffff1673ffffffffffffffffffffffffffffffffffffffff163373ffffffffffffffffffffffffffffffffffffffff1614151561329557600080fd5b80600e8190555050565b8060086000848152602001908152602001600020600301819055505050565b60606008600083815260200190815260200160002060070180548060200260200160405190810160405280929190818152602001828054801561332057602002820191906000526020600020905b81548152602001906001019080831161330c575b50505050509050919050565b600080600083519250600090505b8281101561337b5761336c848281518110151561335357fe5b906020019060200201518361419c90919063ffffffff16565b9150808060010191505061333a565b60648214151561338a57600080fd5b836008600087815260200190815260200160002060090190805190602001906133b4929190614359565b505050505050565b6060600860008381526020019081526020016000206002018054600181600116156101000203166002900480601f0160208091040260200160405190810160405280929190818152602001828054600181600116156101000203166002900480156134685780601f1061343d57610100808354040283529160200191613468565b820191906000526020600020905b81548152906001019060200180831161344b57829003601f168201915b50505050509050919050565b6000600260008373ffffffffffffffffffffffffffffffffffffffff1673ffffffffffffffffffffffffffffffffffffffff168152602001908152602001600020549050919050565b600160009054906101000a900473ffffffffffffffffffffffffffffffffffffffff1673ffffffffffffffffffffffffffffffffffffffff163373ffffffffffffffffffffffffffffffffffffffff1614151561351957600080fd5b600760009054906101000a900473ffffffffffffffffffffffffffffffffffffffff1673ffffffffffffffffffffffffffffffffffffffff166108fc3073ffffffffffffffffffffffffffffffffffffffff16319081150290604051600060405180830381858888f19350505050158015613598573d6000803e3d6000fd5b50565b600060086000838152602001908152602001600020600501549050919050565b6000600f54905090565b6000600b60003373ffffffffffffffffffffffffffffffffffffffff1673ffffffffffffffffffffffffffffffffffffffff168152602001908152602001600020600083815260200190815260200160002060009054906101000a900460ff169050919050565b600760009054906101000a900473ffffffffffffffffffffffffffffffffffffffff1681565b60068054600181600116156101000203166002900480601f0160208091040260200160405190810160405280929190818152602001828054600181600116156101000203166002900480156136e85780601f106136bd576101008083540402835291602001916136e8565b820191906000526020600020905b8154815290600101906020018083116136cb57829003601f168201915b505050505081565b600160009054906101000a900473ffffffffffffffffffffffffffffffffffffffff1673ffffffffffffffffffffffffffffffffffffffff163373ffffffffffffffffffffffffffffffffffffffff1614151561374c57600080fd5b80600f8190555050565b6060600a60003373ffffffffffffffffffffffffffffffffffffffff1673ffffffffffffffffffffffffffffffffffffffff1681526020019081526020016000206002018054806020026020016040519081016040528092919081815260200182805480156137e457602002820191906000526020600020905b8154815260200190600101908083116137d0575b5050505050905090565b600d5481565b60606008600083815260200190815260200160002060060180548060200260200160405190810160405280929190818152602001828054801561385657602002820191906000526020600020905b815481526020019060010190808311613842575b50505050509050919050565b600160009054906101000a900473ffffffffffffffffffffffffffffffffffffffff1673ffffffffffffffffffffffffffffffffffffffff163373ffffffffffffffffffffffffffffffffffffffff161415156138be57600080fd5b80600160006101000a81548173ffffffffffffffffffffffffffffffffffffffff021916908373ffffffffffffffffffffffffffffffffffffffff16021790555050565b600081600260003373ffffffffffffffffffffffffffffffffffffffff1673ffffffffffffffffffffffffffffffffffffffff168152602001908152602001600020541015151561395257600080fd5b6139a482600260003373ffffffffffffffffffffffffffffffffffffffff1673ffffffffffffffffffffffffffffffffffffffff1681526020019081526020016000205461427390919063ffffffff16565b600260003373ffffffffffffffffffffffffffffffffffffffff1673ffffffffffffffffffffffffffffffffffffffff16815260200190815260200160002081905550613a3982600260008673ffffffffffffffffffffffffffffffffffffffff1673ffffffffffffffffffffffffffffffffffffffff1681526020019081526020016000205461419c90919063ffffffff16565b600260008573ffffffffffffffffffffffffffffffffffffffff1673ffffffffffffffffffffffffffffffffffffffff168152602001908152602001600020819055508273ffffffffffffffffffffffffffffffffffffffff163373ffffffffffffffffffffffffffffffffffffffff167fddf252ad1be2c89b69c2b068fc378daa952ba7f163c4a11628f55a4df523b3ef846040518082815260200191505060405180910390a36001905092915050565b60006008600083815260200190815260200160002060010160009054906101000a900473ffffffffffffffffffffffffffffffffffffffff169050919050565b600060086000838152602001908152602001600020600a0160009054906101000a900460ff169050919050565b600560009054906101000a900460ff1660ff16600a0a620f42400281565b80600860008481526020019081526020016000206008019080519060200190613ba0929190614359565b505050565b6000613bbd6001600c5461419c90919063ffffffff16565b600c8190555060a060405190810160405280600c5481526020013373ffffffffffffffffffffffffffffffffffffffff1681526020016000604051908082528060200260200182016040528015613c235781602001602082028038833980820191505090505b5081526020016000604051908082528060200260200182016040528015613c595781602001602082028038833980820191505090505b5081526020016001151581525060096000600c5481526020019081526020016000206000820151816000015560208201518160010160006101000a81548173ffffffffffffffffffffffffffffffffffffffff021916908373ffffffffffffffffffffffffffffffffffffffff1602179055506040820151816002019080519060200190613ce892919061430c565b506060820151816003019080519060200190613d0592919061430c565b5060808201518160040160006101000a81548160ff02191690831515021790555090505060a060405190810160405280600c5481526020013373ffffffffffffffffffffffffffffffffffffffff1681526020016000604051908082528060200260200182016040528015613d895781602001602082028038833980820191505090505b5081526020016000604051908082528060200260200182016040528015613dbf5781602001602082028038833980820191505090505b50815260200160011515815250600a60003373ffffffffffffffffffffffffffffffffffffffff1673ffffffffffffffffffffffffffffffffffffffff1681526020019081526020016000206000820151816000015560208201518160010160006101000a81548173ffffffffffffffffffffffffffffffffffffffff021916908373ffffffffffffffffffffffffffffffffffffffff1602179055506040820151816002019080519060200190613e7892919061430c565b506060820151816003019080519060200190613e9592919061430c565b5060808201518160040160006101000a81548160ff021916908315150217905550905050613ec533600d54611fc2565b507fca310f420e278a6f4a5934b17f0a1d74d7f1ef41386e888bf9c645cca0419111600c5433600a60003373ffffffffffffffffffffffffffffffffffffffff1673ffffffffffffffffffffffffffffffffffffffff168152602001908152602001600020600201600a60003373ffffffffffffffffffffffffffffffffffffffff1673ffffffffffffffffffffffffffffffffffffffff168152602001908152602001600020600301600a60003373ffffffffffffffffffffffffffffffffffffffff1673ffffffffffffffffffffffffffffffffffffffff16815260200190815260200160002060040160009054906101000a900460ff16604051808681526020018573ffffffffffffffffffffffffffffffffffffffff1673ffffffffffffffffffffffffffffffffffffffff168152602001806020018060200184151515158152602001838103835286818154815260200191508054801561404a57602002820191906000526020600020905b815481526020019060010190808311614036575b5050838103825285818154815260200191508054801561408957602002820191906000526020600020905b815481526020019060010190808311614075575b505097505050505050505060405180910390a16001905090565b6000600d54905090565b600b6020528160005260406000206020528060005260406000206000915091509054906101000a900460ff1681565b6000600360008473ffffffffffffffffffffffffffffffffffffffff1673ffffffffffffffffffffffffffffffffffffffff16815260200190815260200160002060008373ffffffffffffffffffffffffffffffffffffffff1673ffffffffffffffffffffffffffffffffffffffff16815260200190815260200160002054905092915050565b600e5481565b6000808284029050600084148061418a575082848281151561418757fe5b04145b151561419257fe5b8091505092915050565b60008082840190508381101515156141b057fe5b8091505092915050565b60008082848115156141c857fe5b0490508091505092915050565b60008060008060086000868152602001908152602001600020600701805490509250600090505b8281101561426757600860008681526020019081526020016000206007018181548110151561422757fe5b90600052602060002001549150600860008381526020019081526020016000206005016000815480929190600101919050555080806001019150506141fc565b60019350505050919050565b600082821115151561428157fe5b818303905092915050565b828054600181600116156101000203166002900490600052602060002090601f016020900481019282601f106142cd57805160ff19168380011785556142fb565b828001600101855582156142fb579182015b828111156142fa5782518255916020019190600101906142df565b5b50905061430891906143a6565b5090565b828054828255906000526020600020908101928215614348579160200282015b8281111561434757825182559160200191906001019061432c565b5b50905061435591906143a6565b5090565b828054828255906000526020600020908101928215614395579160200282015b82811115614394578251825591602001919060010190614379565b5b5090506143a291906143a6565b5090565b6143c891905b808211156143c45760008160009055506001016143ac565b5090565b905600a165627a7a72305820ff8ac116924a20bced8fdaf97aed4eb0fd96557b8f3f3130e857f593a63ef57e0029",
  "source": "pragma solidity ^0.4.21;\n\nimport \"./Token/JournalToken.sol\";\n\ncontract OpenJournal is JournalToken(200000, \"Journal Token\", 18, \"jt\") {\n    \n    struct Journal {\n        uint256 number;\n        address author;\n        string title;\n        uint256 author_share;\n        uint256 value;\n        uint256 reference_count;\n        uint[] subscribed;\n        uint[] reference_journal;\n        uint256[] contributors;\n        uint256[] contributors_share;\n        bool final_enroll;\n    }\n\n    struct User {\n        uint256 user_number;                    \n        address user_address;                   \n        uint[] user_subscribe_journal;          \n        uint[] user_regist_journal;\n        bool is_user;             \n    }    \n\n    mapping (uint256 => Journal) public journals;                               \n    mapping (uint256 => User) public users_by_number;\n    mapping (address => User) public users_by_address;                                     \n\n    mapping (address => mapping (uint => bool)) public is_subscribed;           \n\n    uint256 public userNumber;               \n    uint256 public signUpCost;               \n    uint256 public upperbound_value;         \n    uint256 public lowerbound_value;             \n    \n    uint user_num;\n\n    event LogSignUp(\n        uint256 _user_number, \n        address _user_address, \n        uint[] _user_subscribe_journal,\n        uint[] _user_regist_journal,\n        bool _is_user\n    );  \n\n    event LogRegistJournal(\n        uint256 _number, \n        address _author, \n        string _title,\n        uint256 _author_share,\n        uint256 _value,\n        uint[] _reference_journal,\n        uint256[] _contributors,\n        uint256[] _contributors_share        \n    );  \n\n    event LogSubscribeJournal(\n        address _subscriber, \n        uint[] _myjournals, \n        uint[] _subscribed,\n        bool _is_subscribed,\n        uint256 _author_value\n    );\n\n    event LogGetUserRegistedJournals(\n        uint[] _user_regist_journal\n    );\n\n    event LogGetUserSubscribedJournals(\n        uint _user_subscribe_journal\n    );\n\n    event LogGetAuthorAddress (\n        uint256 _number,\n        address _author\n    );\n\n    event LogGetValue (\n        uint256 _number,\n        uint256 _value\n    );\n\n    function OpenJournal(\n        uint256 _userNumber,\n        uint256 _signUpCost,\n        uint256 _upperbound_value,\n        uint256 _lowerbound_value\n    ) public {\n        userNumber = _userNumber;\n        signUpCost = _signUpCost.mul(10**uint256(decimals));        //   signUpCost = _signUpCost.mul(10**uint256(4));\n        upperbound_value = _upperbound_value;\n        lowerbound_value = _lowerbound_value;\n    }\n\n    function signUp() public returns (bool) {\n        userNumber = userNumber.add(1); \n        users_by_number[userNumber] = User(\n            userNumber,\n            msg.sender,\n            new uint[](0),\n            new uint[](0),\n            true\n        );\n\n        users_by_address[msg.sender] = User(\n            userNumber,\n            msg.sender,\n            new uint[](0),\n            new uint[](0),\n            true\n        );\n        transferFromOwner(msg.sender, signUpCost);   \n\n        emit LogSignUp(\n            userNumber, \n            msg.sender, \n            users_by_address[msg.sender].user_subscribe_journal, \n            users_by_address[msg.sender].user_regist_journal,\n            users_by_address[msg.sender].is_user\n        );\n\n        return true;\n    }\n\n    function registJournal(uint256 _journal_number, \n                    string _title, \n                    uint256 _author_share, \n                    uint _journal_value, \n                    uint256[] _reference_journal,\n                    uint256[] _contributors,\n                    uint256[] _contributors_share\n        ) public returns (bool) {\n\n        require(_journal_value <= upperbound_value && _journal_value >= lowerbound_value);\n    \n        journals[_journal_number] = Journal(\n            _journal_number,\n            msg.sender,\n            _title,\n            _author_share,\n            _journal_value.mul(10**uint256(decimals)),     //   _journal_value.mul(10**uint256(4))\n            0,\n            new uint[](0),\n            new uint[](0),\n            new uint[](0),\n            new uint256[](0),\n            true\n        );\n\n        for(uint256 ref = 0; ref <_reference_journal.length; ++ref)\n            journals[_journal_number].reference_journal.push(_reference_journal[ref]);\n\n        for(uint256 cont = 0; cont <_contributors.length; ++cont){\n            journals[_journal_number].contributors.push(_contributors[cont]);\n            journals[_journal_number].contributors_share.push(_contributors_share[cont]);\n        }\n\n        users_by_address[msg.sender].user_regist_journal.push(_journal_number);    \n\n        emit LogRegistJournal(\n            _journal_number,\n            msg.sender,\n            _title,\n            _author_share,\n            _journal_value,\n            _reference_journal,\n            _contributors,\n            _contributors_share            \n        );  \n \n        return true;    \n    }\n\n    function subscribeJournal(uint256 _journal_number) public returns (bool){\n        require(is_subscribed[msg.sender][_journal_number] == false); \n\n        uint256 author_token;\n        uint256 contributor_token;\n        uint256 contributor_each_token;               \n        uint256 contributor_num = journals[_journal_number].contributors.length;        \n\n        if(contributor_num == 0){\n            author_token = journals[_journal_number].value;\n        } else{\n            uint256 author_share = journals[_journal_number].author_share;\n            author_token = journals[_journal_number].value.mul(author_share).div(100);\n\n            for(uint256 cont=0; cont < contributor_num; cont++){\n                uint256 contributor_number = journals[_journal_number].contributors[cont];\n                uint256 contributor_share = journals[_journal_number].contributors_share[cont];\n\n                contributor_each_token = journals[_journal_number].value.mul(contributor_share).div(100);\n                transfer(users_by_number[contributor_number].user_address, contributor_each_token);\n            }\n        }\n\n        transfer(journals[_journal_number].author, author_token); \n\n        user_num = users_by_address[msg.sender].user_number;\n\n        users_by_address[msg.sender].user_subscribe_journal.push(_journal_number);  \n        journals[_journal_number].subscribed.push(user_num);       \n        is_subscribed[msg.sender][_journal_number] = true;\n\n        upReferenceCount(_journal_number);\n\n        emit LogSubscribeJournal(\n            msg.sender, \n            users_by_address[msg.sender].user_subscribe_journal, \n            journals[_journal_number].subscribed, \n            is_subscribed[msg.sender][_journal_number],\n            author_token\n        );\n\n        return true;\n    }\n\n    function upReferenceCount(uint256 _journal_number) internal returns (bool) {\n        uint256 reference_num = journals[_journal_number].reference_journal.length;\n        uint256 reference_journal_num; \n\n        for(uint256 ref=0; ref < reference_num; ref++){\n            reference_journal_num = journals[_journal_number].reference_journal[ref];\n            journals[reference_journal_num].reference_count++;\n        }\n\n        return true;\n    }\n\n    function getIsJournalValid(uint _journal_number) public view returns (bool) {\n        return journals[_journal_number].final_enroll;\n    }\n\n    function getAuthorAddress(uint256 _journal_number) public view returns (address){\n        return journals[_journal_number].author;\n    }\n\n    function getJournalTitle(uint256 _journal_number) public view returns (string){\n        return journals[_journal_number].title;\n    }\n\n    function getValue(uint256 _journal_number) public view returns (uint256){\n        return journals[_journal_number].value;\n    }\n\n    function getJournalSubscriber(uint _journal_number) public view returns (uint[]) {\n        return journals[_journal_number].subscribed;\n    }\n\n    function getReferenceJournal(uint _journal_number) public view returns (uint256[]) {\n        return journals[_journal_number].reference_journal;\n    }    \n\n    function getIsSubscribedJournal(uint _journal_number) public view returns (bool) {\n        return is_subscribed[msg.sender][_journal_number];\n    }\n\n    function getAuthorShare(uint _journal_number) public view returns (uint256) {\n        return journals[_journal_number].author_share;\n    }\n\n    function getReferenceCount(uint _journal_number) public view returns (uint256) {\n        return journals[_journal_number].reference_count;\n    }\n\n    function getContributors(uint _journal_number) public view returns (uint256[]) {\n        return journals[_journal_number].contributors;\n    }\n\n    function getContributorsShare(uint _journal_number) public view returns (uint256[]) {\n        return journals[_journal_number].contributors_share;\n    }\n\n    function getIsUserValid() public view returns (bool) {\n        return users_by_address[msg.sender].is_user;\n    }\n\n    function getUserSubscribedJournals() public view returns (uint[]) {\n        return users_by_address[msg.sender].user_subscribe_journal;\n    }    \n\n    function getUserRegistedJournals() public view returns (uint[]) {\n        return users_by_address[msg.sender].user_regist_journal;\n    } \n\n    function getSignupCost() public view returns (uint256) {\n        return signUpCost;\n    }\n\n    function getUpperboundValue() public view returns (uint256) {\n        return upperbound_value;\n    }\n\n    function getLowerboundValue() public view returns (uint256) {\n        return lowerbound_value;\n    }\n    \n    function setSignupCost(uint256 _signUpCost) public onlyOwner{\n        signUpCost = _signUpCost;\n    }\n\n    function setUpperboundValue(uint256 _upperbound_value) public onlyOwner{\n        upperbound_value = _upperbound_value;\n    }\n\n    function setLowerboundValue(uint256 _lowerbound_value) public onlyOwner{\n        lowerbound_value = _lowerbound_value;\n    }\n\n    function setAuthorShare(uint _journal_number, uint _author_share) public {\n        journals[_journal_number].author_share = _author_share;\n    }\n\n    function setContributors(uint _journal_number, uint256[] _contributors) public {\n        journals[_journal_number].contributors = _contributors;\n    }\n\n    function setContributorsShare(uint _journal_number, uint256[] _contributors_share) public {\n        uint256 new_length = _contributors_share.length;\n        uint256 new_total;\n\n        for(uint i=0; i<new_length; i++)\n            new_total = new_total.add(_contributors_share[i]);\n\n        require(new_total == 100);\n\n        journals[_journal_number].contributors_share = _contributors_share;\n    }   \n }\n",
  "sourcePath": "/Users/chaminjun/Desktop/GraduationProject/2018-cap1-1/src/contracts/OpenJournal.sol",
  "compiler": {
    "name": "solc",
    "version": "0.4.23+commit.124ca40d.Emscripten.clang"
  },
  "schemaVersion": "2.0.0",
  "updatedAt": "2018-05-27T05:23:03.612Z"
}