{
  "contractName": "OpenJournal",
  "abi": [
    {
      "constant": true,
      "inputs": [],
      "name": "name",
      "outputs": [
        {
          "name": "",
          "type": "string"
        }
      ],
      "payable": false,
      "stateMutability": "view",
      "type": "function"
    },
    {
      "constant": false,
      "inputs": [
        {
          "name": "_spender",
          "type": "address"
        },
        {
          "name": "_value",
          "type": "uint256"
        }
      ],
      "name": "approve",
      "outputs": [
        {
          "name": "success",
          "type": "bool"
        }
      ],
      "payable": false,
      "stateMutability": "nonpayable",
      "type": "function"
    },
    {
      "constant": true,
      "inputs": [],
      "name": "getOwnerAddress",
      "outputs": [
        {
          "name": "ownerAddress",
          "type": "address"
        }
      ],
      "payable": false,
      "stateMutability": "view",
      "type": "function"
    },
    {
      "constant": false,
      "inputs": [
        {
          "name": "_to",
          "type": "address"
        },
        {
          "name": "_value",
          "type": "uint256"
        }
      ],
      "name": "transferFromOwner",
      "outputs": [
        {
          "name": "success",
          "type": "bool"
        }
      ],
      "payable": false,
      "stateMutability": "nonpayable",
      "type": "function"
    },
    {
      "constant": true,
      "inputs": [],
      "name": "totalSupply",
      "outputs": [
        {
          "name": "",
          "type": "uint256"
        }
      ],
      "payable": false,
      "stateMutability": "view",
      "type": "function"
    },
    {
      "constant": true,
      "inputs": [
        {
          "name": "",
          "type": "uint256"
        }
      ],
      "name": "journals",
      "outputs": [
        {
          "name": "number",
          "type": "uint256"
        },
        {
          "name": "author",
          "type": "address"
        },
        {
          "name": "title",
          "type": "string"
        },
        {
          "name": "author_share",
          "type": "uint256"
        },
        {
          "name": "value",
          "type": "uint256"
        },
        {
          "name": "honor_count",
          "type": "uint256"
        },
        {
          "name": "final_enroll",
          "type": "bool"
        }
      ],
      "payable": false,
      "stateMutability": "view",
      "type": "function"
    },
    {
      "constant": true,
      "inputs": [
        {
          "name": "_to",
          "type": "address"
        }
      ],
      "name": "balanceOfEther",
      "outputs": [
        {
          "name": "",
          "type": "uint256"
        }
      ],
      "payable": false,
      "stateMutability": "view",
      "type": "function"
    },
    {
      "constant": false,
      "inputs": [
        {
          "name": "_value",
          "type": "uint256"
        }
      ],
      "name": "sellToken",
      "outputs": [],
      "payable": false,
      "stateMutability": "nonpayable",
      "type": "function"
    },
    {
      "constant": false,
      "inputs": [
        {
          "name": "_from",
          "type": "address"
        },
        {
          "name": "_to",
          "type": "address"
        },
        {
          "name": "_value",
          "type": "uint256"
        }
      ],
      "name": "transferFrom",
      "outputs": [
        {
          "name": "success",
          "type": "bool"
        }
      ],
      "payable": false,
      "stateMutability": "nonpayable",
      "type": "function"
    },
    {
      "constant": true,
      "inputs": [
        {
          "name": "",
          "type": "address"
        }
      ],
      "name": "balances",
      "outputs": [
        {
          "name": "",
          "type": "uint256"
        }
      ],
      "payable": false,
      "stateMutability": "view",
      "type": "function"
    },
    {
      "constant": true,
      "inputs": [],
      "name": "userNumber",
      "outputs": [
        {
          "name": "",
          "type": "uint256"
        }
      ],
      "payable": false,
      "stateMutability": "view",
      "type": "function"
    },
    {
      "constant": true,
      "inputs": [
        {
          "name": "",
          "type": "address"
        }
      ],
      "name": "users_by_address",
      "outputs": [
        {
          "name": "user_number",
          "type": "uint256"
        },
        {
          "name": "user_address",
          "type": "address"
        },
        {
          "name": "is_user",
          "type": "bool"
        }
      ],
      "payable": false,
      "stateMutability": "view",
      "type": "function"
    },
    {
      "constant": true,
      "inputs": [],
      "name": "rate",
      "outputs": [
        {
          "name": "",
          "type": "uint256"
        }
      ],
      "payable": false,
      "stateMutability": "view",
      "type": "function"
    },
    {
      "constant": true,
      "inputs": [],
      "name": "decimals",
      "outputs": [
        {
          "name": "",
          "type": "uint8"
        }
      ],
      "payable": false,
      "stateMutability": "view",
      "type": "function"
    },
    {
      "constant": true,
      "inputs": [
        {
          "name": "",
          "type": "uint256"
        }
      ],
      "name": "users_by_number",
      "outputs": [
        {
          "name": "user_number",
          "type": "uint256"
        },
        {
          "name": "user_address",
          "type": "address"
        },
        {
          "name": "is_user",
          "type": "bool"
        }
      ],
      "payable": false,
      "stateMutability": "view",
      "type": "function"
    },
    {
      "constant": true,
      "inputs": [],
      "name": "lowerbound_value",
      "outputs": [
        {
          "name": "",
          "type": "uint256"
        }
      ],
      "payable": false,
      "stateMutability": "view",
      "type": "function"
    },
    {
      "constant": true,
      "inputs": [
        {
          "name": "",
          "type": "address"
        },
        {
          "name": "",
          "type": "address"
        }
      ],
      "name": "allowed",
      "outputs": [
        {
          "name": "",
          "type": "uint256"
        }
      ],
      "payable": false,
      "stateMutability": "view",
      "type": "function"
    },
    {
      "constant": true,
      "inputs": [
        {
          "name": "_owner",
          "type": "address"
        }
      ],
      "name": "balanceOf",
      "outputs": [
        {
          "name": "balance",
          "type": "uint256"
        }
      ],
      "payable": false,
      "stateMutability": "view",
      "type": "function"
    },
    {
      "constant": false,
      "inputs": [],
      "name": "withdrawEther",
      "outputs": [],
      "payable": false,
      "stateMutability": "nonpayable",
      "type": "function"
    },
    {
      "constant": true,
      "inputs": [],
      "name": "owner",
      "outputs": [
        {
          "name": "",
          "type": "address"
        }
      ],
      "payable": false,
      "stateMutability": "view",
      "type": "function"
    },
    {
      "constant": true,
      "inputs": [],
      "name": "symbol",
      "outputs": [
        {
          "name": "",
          "type": "string"
        }
      ],
      "payable": false,
      "stateMutability": "view",
      "type": "function"
    },
    {
      "constant": true,
      "inputs": [],
      "name": "signUpCost",
      "outputs": [
        {
          "name": "",
          "type": "uint256"
        }
      ],
      "payable": false,
      "stateMutability": "view",
      "type": "function"
    },
    {
      "constant": false,
      "inputs": [],
      "name": "buyToken",
      "outputs": [],
      "payable": true,
      "stateMutability": "payable",
      "type": "function"
    },
    {
      "constant": false,
      "inputs": [
        {
          "name": "_newOwner",
          "type": "address"
        }
      ],
      "name": "changeOwner",
      "outputs": [],
      "payable": false,
      "stateMutability": "nonpayable",
      "type": "function"
    },
    {
      "constant": false,
      "inputs": [
        {
          "name": "_to",
          "type": "address"
        },
        {
          "name": "_value",
          "type": "uint256"
        }
      ],
      "name": "transfer",
      "outputs": [
        {
          "name": "success",
          "type": "bool"
        }
      ],
      "payable": false,
      "stateMutability": "nonpayable",
      "type": "function"
    },
    {
      "constant": true,
      "inputs": [],
      "name": "tokenGenerationMax",
      "outputs": [
        {
          "name": "",
          "type": "uint256"
        }
      ],
      "payable": false,
      "stateMutability": "view",
      "type": "function"
    },
    {
      "constant": true,
      "inputs": [
        {
          "name": "",
          "type": "address"
        },
        {
          "name": "",
          "type": "uint256"
        }
      ],
      "name": "is_subscribed",
      "outputs": [
        {
          "name": "",
          "type": "bool"
        }
      ],
      "payable": false,
      "stateMutability": "view",
      "type": "function"
    },
    {
      "constant": true,
      "inputs": [
        {
          "name": "_owner",
          "type": "address"
        },
        {
          "name": "_spender",
          "type": "address"
        }
      ],
      "name": "allowance",
      "outputs": [
        {
          "name": "remaining",
          "type": "uint256"
        }
      ],
      "payable": false,
      "stateMutability": "view",
      "type": "function"
    },
    {
      "constant": true,
      "inputs": [],
      "name": "upperbound_value",
      "outputs": [
        {
          "name": "",
          "type": "uint256"
        }
      ],
      "payable": false,
      "stateMutability": "view",
      "type": "function"
    },
    {
      "inputs": [
        {
          "name": "_userNumber",
          "type": "uint256"
        },
        {
          "name": "_signUpCost",
          "type": "uint256"
        },
        {
          "name": "_upperbound_value",
          "type": "uint256"
        },
        {
          "name": "_lowerbound_value",
          "type": "uint256"
        }
      ],
      "payable": false,
      "stateMutability": "nonpayable",
      "type": "constructor"
    },
    {
      "payable": true,
      "stateMutability": "payable",
      "type": "fallback"
    },
    {
      "anonymous": false,
      "inputs": [
        {
          "indexed": false,
          "name": "_user_number",
          "type": "uint256"
        },
        {
          "indexed": false,
          "name": "_user_address",
          "type": "address"
        },
        {
          "indexed": false,
          "name": "_user_subscribe_journal",
          "type": "uint256[]"
        },
        {
          "indexed": false,
          "name": "_user_regist_journal",
          "type": "uint256[]"
        },
        {
          "indexed": false,
          "name": "_is_user",
          "type": "bool"
        }
      ],
      "name": "LogSignUp",
      "type": "event"
    },
    {
      "anonymous": false,
      "inputs": [
        {
          "indexed": false,
          "name": "_number",
          "type": "uint256"
        },
        {
          "indexed": false,
          "name": "_author",
          "type": "address"
        },
        {
          "indexed": false,
          "name": "_title",
          "type": "string"
        },
        {
          "indexed": false,
          "name": "_author_share",
          "type": "uint256"
        },
        {
          "indexed": false,
          "name": "_value",
          "type": "uint256"
        },
        {
          "indexed": false,
          "name": "_reference_journal",
          "type": "uint256[]"
        },
        {
          "indexed": false,
          "name": "_contributors",
          "type": "uint256[]"
        },
        {
          "indexed": false,
          "name": "_contributors_share",
          "type": "uint256[]"
        }
      ],
      "name": "LogRegistJournal",
      "type": "event"
    },
    {
      "anonymous": false,
      "inputs": [
        {
          "indexed": false,
          "name": "_subscriber",
          "type": "address"
        },
        {
          "indexed": false,
          "name": "_myjournals",
          "type": "uint256[]"
        },
        {
          "indexed": false,
          "name": "_subscribed",
          "type": "uint256[]"
        },
        {
          "indexed": false,
          "name": "_is_subscribed",
          "type": "bool"
        },
        {
          "indexed": false,
          "name": "_author_value",
          "type": "uint256"
        }
      ],
      "name": "LogSubscribeJournal",
      "type": "event"
    },
    {
      "anonymous": false,
      "inputs": [
        {
          "indexed": false,
          "name": "_user_regist_journal",
          "type": "uint256[]"
        }
      ],
      "name": "LogGetUserRegistedJournals",
      "type": "event"
    },
    {
      "anonymous": false,
      "inputs": [
        {
          "indexed": false,
          "name": "_user_subscribe_journal",
          "type": "uint256"
        }
      ],
      "name": "LogGetUserSubscribedJournals",
      "type": "event"
    },
    {
      "anonymous": false,
      "inputs": [
        {
          "indexed": false,
          "name": "_number",
          "type": "uint256"
        },
        {
          "indexed": false,
          "name": "_author",
          "type": "address"
        }
      ],
      "name": "LogGetAuthorAddress",
      "type": "event"
    },
    {
      "anonymous": false,
      "inputs": [
        {
          "indexed": false,
          "name": "_number",
          "type": "uint256"
        },
        {
          "indexed": false,
          "name": "_value",
          "type": "uint256"
        }
      ],
      "name": "LogGetValue",
      "type": "event"
    },
    {
      "anonymous": false,
      "inputs": [
        {
          "indexed": false,
          "name": "_msgValue",
          "type": "uint256"
        },
        {
          "indexed": false,
          "name": "_amount",
          "type": "uint256"
        },
        {
          "indexed": false,
          "name": "_totalSupply",
          "type": "uint256"
        },
        {
          "indexed": false,
          "name": "_msgSender",
          "type": "address"
        },
        {
          "indexed": false,
          "name": "_decimals",
          "type": "uint8"
        },
        {
          "indexed": false,
          "name": "_symbol",
          "type": "string"
        }
      ],
      "name": "BuyToken",
      "type": "event"
    },
    {
      "anonymous": false,
      "inputs": [
        {
          "indexed": false,
          "name": "_msgValue",
          "type": "uint256"
        },
        {
          "indexed": false,
          "name": "_amount",
          "type": "uint256"
        },
        {
          "indexed": false,
          "name": "_totalSupply",
          "type": "uint256"
        },
        {
          "indexed": false,
          "name": "_msgSender",
          "type": "address"
        }
      ],
      "name": "SellToken",
      "type": "event"
    },
    {
      "anonymous": false,
      "inputs": [
        {
          "indexed": true,
          "name": "_from",
          "type": "address"
        },
        {
          "indexed": true,
          "name": "_to",
          "type": "address"
        },
        {
          "indexed": false,
          "name": "_value",
          "type": "uint256"
        }
      ],
      "name": "Transfer",
      "type": "event"
    },
    {
      "anonymous": false,
      "inputs": [
        {
          "indexed": true,
          "name": "_from",
          "type": "address"
        },
        {
          "indexed": true,
          "name": "_to",
          "type": "address"
        },
        {
          "indexed": false,
          "name": "_value",
          "type": "uint256"
        },
        {
          "indexed": false,
          "name": "_mini_value",
          "type": "uint256"
        }
      ],
      "name": "TransferAll",
      "type": "event"
    },
    {
      "anonymous": false,
      "inputs": [
        {
          "indexed": true,
          "name": "_owner",
          "type": "address"
        },
        {
          "indexed": true,
          "name": "_spender",
          "type": "address"
        },
        {
          "indexed": false,
          "name": "_value",
          "type": "uint256"
        }
      ],
      "name": "Approval",
      "type": "event"
    },
    {
      "constant": false,
      "inputs": [],
      "name": "signUp",
      "outputs": [
        {
          "name": "",
          "type": "bool"
        }
      ],
      "payable": false,
      "stateMutability": "nonpayable",
      "type": "function"
    },
    {
      "constant": false,
      "inputs": [
        {
          "name": "_journal_number",
          "type": "uint256"
        },
        {
          "name": "_title",
          "type": "string"
        },
        {
          "name": "_author_share",
          "type": "uint256"
        },
        {
          "name": "_journal_value",
          "type": "uint256"
        },
        {
          "name": "_reference_journal",
          "type": "uint256[]"
        },
        {
          "name": "_contributors",
          "type": "uint256[]"
        },
        {
          "name": "_contributors_share",
          "type": "uint256[]"
        }
      ],
      "name": "registJournal",
      "outputs": [
        {
          "name": "",
          "type": "bool"
        }
      ],
      "payable": false,
      "stateMutability": "nonpayable",
      "type": "function"
    },
    {
      "constant": false,
      "inputs": [
        {
          "name": "_journal_number",
          "type": "uint256"
        }
      ],
      "name": "subscribeJournal",
      "outputs": [
        {
          "name": "",
          "type": "bool"
        }
      ],
      "payable": false,
      "stateMutability": "nonpayable",
      "type": "function"
    },
    {
      "constant": true,
      "inputs": [
        {
          "name": "_journal_number",
          "type": "uint256"
        }
      ],
      "name": "getIsJournalValid",
      "outputs": [
        {
          "name": "",
          "type": "bool"
        }
      ],
      "payable": false,
      "stateMutability": "view",
      "type": "function"
    },
    {
      "constant": true,
      "inputs": [
        {
          "name": "_journal_number",
          "type": "uint256"
        }
      ],
      "name": "getAuthorAddress",
      "outputs": [
        {
          "name": "",
          "type": "address"
        }
      ],
      "payable": false,
      "stateMutability": "view",
      "type": "function"
    },
    {
      "constant": true,
      "inputs": [
        {
          "name": "_journal_number",
          "type": "uint256"
        }
      ],
      "name": "getValue",
      "outputs": [
        {
          "name": "",
          "type": "uint256"
        }
      ],
      "payable": false,
      "stateMutability": "view",
      "type": "function"
    },
    {
      "constant": true,
      "inputs": [
        {
          "name": "_journal_number",
          "type": "uint256"
        }
      ],
      "name": "getJournalSubscriber",
      "outputs": [
        {
          "name": "",
          "type": "uint256[]"
        }
      ],
      "payable": false,
      "stateMutability": "view",
      "type": "function"
    },
    {
      "constant": true,
      "inputs": [
        {
          "name": "_journal_number",
          "type": "uint256"
        }
      ],
      "name": "getReferenceJournal",
      "outputs": [
        {
          "name": "",
          "type": "uint256[]"
        }
      ],
      "payable": false,
      "stateMutability": "view",
      "type": "function"
    },
    {
      "constant": true,
      "inputs": [
        {
          "name": "_journal_number",
          "type": "uint256"
        }
      ],
      "name": "getIsSubscribedJournal",
      "outputs": [
        {
          "name": "",
          "type": "bool"
        }
      ],
      "payable": false,
      "stateMutability": "view",
      "type": "function"
    },
    {
      "constant": true,
      "inputs": [
        {
          "name": "_journal_number",
          "type": "uint256"
        }
      ],
      "name": "getAuthorShare",
      "outputs": [
        {
          "name": "",
          "type": "uint256"
        }
      ],
      "payable": false,
      "stateMutability": "view",
      "type": "function"
    },
    {
      "constant": true,
      "inputs": [
        {
          "name": "_journal_number",
          "type": "uint256"
        }
      ],
      "name": "getReferenceCount",
      "outputs": [
        {
          "name": "",
          "type": "uint256"
        }
      ],
      "payable": false,
      "stateMutability": "view",
      "type": "function"
    },
    {
      "constant": true,
      "inputs": [
        {
          "name": "_journal_number",
          "type": "uint256"
        }
      ],
      "name": "getContributors",
      "outputs": [
        {
          "name": "",
          "type": "uint256[]"
        }
      ],
      "payable": false,
      "stateMutability": "view",
      "type": "function"
    },
    {
      "constant": true,
      "inputs": [],
      "name": "getUserNumber",
      "outputs": [
        {
          "name": "",
          "type": "uint256"
        }
      ],
      "payable": false,
      "stateMutability": "view",
      "type": "function"
    },
    {
      "constant": true,
      "inputs": [],
      "name": "getIsUserValid",
      "outputs": [
        {
          "name": "",
          "type": "bool"
        }
      ],
      "payable": false,
      "stateMutability": "view",
      "type": "function"
    },
    {
      "constant": true,
      "inputs": [],
      "name": "getUserSubscribedJournals",
      "outputs": [
        {
          "name": "",
          "type": "uint256[]"
        }
      ],
      "payable": false,
      "stateMutability": "view",
      "type": "function"
    },
    {
      "constant": true,
      "inputs": [],
      "name": "getUserRegistedJournals",
      "outputs": [
        {
          "name": "",
          "type": "uint256[]"
        }
      ],
      "payable": false,
      "stateMutability": "view",
      "type": "function"
    },
    {
      "constant": true,
      "inputs": [],
      "name": "getSignupCost",
      "outputs": [
        {
          "name": "",
          "type": "uint256"
        }
      ],
      "payable": false,
      "stateMutability": "view",
      "type": "function"
    },
    {
      "constant": true,
      "inputs": [],
      "name": "getUpperboundValue",
      "outputs": [
        {
          "name": "",
          "type": "uint256"
        }
      ],
      "payable": false,
      "stateMutability": "view",
      "type": "function"
    },
    {
      "constant": true,
      "inputs": [],
      "name": "getLowerboundValue",
      "outputs": [
        {
          "name": "",
          "type": "uint256"
        }
      ],
      "payable": false,
      "stateMutability": "view",
      "type": "function"
    },
    {
      "constant": false,
      "inputs": [
        {
          "name": "_signUpCost",
          "type": "uint256"
        }
      ],
      "name": "setSignupCost",
      "outputs": [],
      "payable": false,
      "stateMutability": "nonpayable",
      "type": "function"
    },
    {
      "constant": false,
      "inputs": [
        {
          "name": "_upperbound_value",
          "type": "uint256"
        }
      ],
      "name": "setUpperboundValue",
      "outputs": [],
      "payable": false,
      "stateMutability": "nonpayable",
      "type": "function"
    },
    {
      "constant": false,
      "inputs": [
        {
          "name": "_lowerbound_value",
          "type": "uint256"
        }
      ],
      "name": "setLowerboundValue",
      "outputs": [],
      "payable": false,
      "stateMutability": "nonpayable",
      "type": "function"
    },
    {
      "constant": false,
      "inputs": [
        {
          "name": "_journal_number",
          "type": "uint256"
        },
        {
          "name": "_author_share",
          "type": "uint256"
        }
      ],
      "name": "setAuthorShare",
      "outputs": [],
      "payable": false,
      "stateMutability": "nonpayable",
      "type": "function"
    },
    {
      "constant": false,
      "inputs": [
        {
          "name": "_journal_number",
          "type": "uint256"
        },
        {
          "name": "_contributors",
          "type": "uint256[]"
        }
      ],
      "name": "setContributors",
      "outputs": [],
      "payable": false,
      "stateMutability": "nonpayable",
      "type": "function"
    },
    {
      "constant": false,
      "inputs": [
        {
          "name": "_journal_number",
          "type": "uint256"
        },
        {
          "name": "_contributors_share",
          "type": "uint256[]"
        }
      ],
      "name": "setContributorsShare",
      "outputs": [],
      "payable": false,
      "stateMutability": "nonpayable",
      "type": "function"
    }
  ],
  "bytecode": "0x60806040523480156200001157600080fd5b50604051608080620045a78339810180604052810190808051906020019092919080519060200190929190805190602001909291908051906020019092919050505062030d406040805190810160405280600d81526020017f4a6f75726e616c20546f6b656e0000000000000000000000000000000000000081525060126040805190810160405280600281526020017f6a7400000000000000000000000000000000000000000000000000000000000081525033600160006101000a81548173ffffffffffffffffffffffffffffffffffffffff021916908373ffffffffffffffffffffffffffffffffffffffff16021790555033600760006101000a81548173ffffffffffffffffffffffffffffffffffffffff021916908373ffffffffffffffffffffffffffffffffffffffff16021790555082600490805190602001906200015f929190620002af565b50806006908051906020019062000178929190620002af565b5081600560006101000a81548160ff021916908360ff160217905550620001cc600560009054906101000a900460ff1660ff16600a0a85620002796401000000000262003fab179091906401000000009004565b600081905550600054600260003373ffffffffffffffffffffffffffffffffffffffff1673ffffffffffffffffffffffffffffffffffffffff168152602001908152602001600020819055505050505083600c819055506200025b600560009054906101000a900460ff1660ff16600a0a84620002796401000000000262003fab179091906401000000009004565b600d8190555081600e8190555080600f81905550505050506200035e565b600080828402905060008414806200029c57508284828115156200029957fe5b04145b1515620002a557fe5b8091505092915050565b828054600181600116156101000203166002900490600052602060002090601f016020900481019282601f10620002f257805160ff191683800117855562000323565b8280016001018555821562000323579182015b828111156200032257825182559160200191906001019062000305565b5b50905062000332919062000336565b5090565b6200035b91905b80821115620003575760008160009055506001016200033d565b5090565b90565b614239806200036e6000396000f300608060405260043610610288576000357c0100000000000000000000000000000000000000000000000000000000900463ffffffff16806301e4bab71461029257806306fdde03146102d3578063095ea7b3146103635780630c4f65bd146103c85780630eb18ce61461041f5780630ec8e9b71461044e5780630f18ac07146104935780630ff4c916146104f8578063146753401461053957806318160ddd14610564578063197cc19e1461058f57806320c9ad2c1461068f57806321114904146106ba5780632397e4d71461071157806323b872dd1461073e57806327e235e3146107c35780632b4e84131461081a5780632bd47b27146108455780632c4e722e146108da578063313ce567146109055780633c1ab00f1461093657806344078e73146109b85780634670ee2f14610a375780634898bf1f14610aa357806352ca6b5614610c0b578063563620b514610c365780635c65816514610c635780635e676f5a14610cda578063643db01214610d0757806364a9408d14610d3e5780636a19275914610dc057806370a0823114610e305780637362377b14610e87578063747fc24814610e9e578063768d13fe14610edf57806381701e0f14610f0a5780638da5cb5b14610f4f57806395d89b4114610fa657806397a099801461103657806398389922146110635780639e9378cc146110cf578063a4821719146110fa578063a5b5dd9814611104578063a6f9dae114611186578063a9059cbb146111c9578063ac7b481d1461122e578063ae082d581461129b578063b57e6ea1146112e0578063b5a2d8591461130b578063bf96ae631461137b578063c1a20d7c146113aa578063c1f9c930146113d5578063dd62ed3e1461143a578063f23c081b146114b1575b6102906114dc565b005b34801561029e57600080fd5b506102bd60048036038101908080359060200190929190505050611706565b6040518082815260200191505060405180910390f35b3480156102df57600080fd5b506102e8611726565b6040518080602001828103825283818151815260200191508051906020019080838360005b8381101561032857808201518184015260208101905061030d565b50505050905090810190601f1680156103555780820380516001836020036101000a031916815260200191505b509250505060405180910390f35b34801561036f57600080fd5b506103ae600480360381019080803573ffffffffffffffffffffffffffffffffffffffff169060200190929190803590602001909291905050506117c4565b604051808215151515815260200191505060405180910390f35b3480156103d457600080fd5b506103dd6118b6565b604051808273ffffffffffffffffffffffffffffffffffffffff1673ffffffffffffffffffffffffffffffffffffffff16815260200191505060405180910390f35b34801561042b57600080fd5b506104346118e0565b604051808215151515815260200191505060405180910390f35b34801561045a57600080fd5b5061047960048036038101908080359060200190929190505050611937565b604051808215151515815260200191505060405180910390f35b34801561049f57600080fd5b506104de600480360381019080803573ffffffffffffffffffffffffffffffffffffffff16906020019092919080359060200190929190505050611ee0565b604051808215151515815260200191505060405180910390f35b34801561050457600080fd5b5061052360048036038101908080359060200190929190505050612151565b6040518082815260200191505060405180910390f35b34801561054557600080fd5b5061054e612171565b6040518082815260200191505060405180910390f35b34801561057057600080fd5b5061057961217b565b6040518082815260200191505060405180910390f35b34801561059b57600080fd5b506105ba60048036038101908080359060200190929190505050612181565b604051808881526020018773ffffffffffffffffffffffffffffffffffffffff1673ffffffffffffffffffffffffffffffffffffffff1681526020018060200186815260200185815260200184815260200183151515158152602001828103825287818151815260200191508051906020019080838360005b8381101561064e578082015181840152602081019050610633565b50505050905090810190601f16801561067b5780820380516001836020036101000a031916815260200191505b509850505050505050505060405180910390f35b34801561069b57600080fd5b506106a4612288565b6040518082815260200191505060405180910390f35b3480156106c657600080fd5b506106fb600480360381019080803573ffffffffffffffffffffffffffffffffffffffff1690602001909291905050506122d2565b6040518082815260200191505060405180910390f35b34801561071d57600080fd5b5061073c600480360381019080803590602001909291905050506122f3565b005b34801561074a57600080fd5b506107a9600480360381019080803573ffffffffffffffffffffffffffffffffffffffff169060200190929190803573ffffffffffffffffffffffffffffffffffffffff169060200190929190803590602001909291905050506124e6565b604051808215151515815260200191505060405180910390f35b3480156107cf57600080fd5b50610804600480360381019080803573ffffffffffffffffffffffffffffffffffffffff169060200190929190505050612895565b6040518082815260200191505060405180910390f35b34801561082657600080fd5b5061082f6128ad565b6040518082815260200191505060405180910390f35b34801561085157600080fd5b50610886600480360381019080803573ffffffffffffffffffffffffffffffffffffffff1690602001909291905050506128b3565b604051808481526020018373ffffffffffffffffffffffffffffffffffffffff1673ffffffffffffffffffffffffffffffffffffffff16815260200182151515158152602001935050505060405180910390f35b3480156108e657600080fd5b506108ef61290a565b6040518082815260200191505060405180910390f35b34801561091157600080fd5b5061091a612910565b604051808260ff1660ff16815260200191505060405180910390f35b34801561094257600080fd5b5061096160048036038101908080359060200190929190505050612923565b6040518080602001828103825283818151815260200191508051906020019060200280838360005b838110156109a4578082015181840152602081019050610989565b505050509050019250505060405180910390f35b3480156109c457600080fd5b506109e360048036038101908080359060200190929190505050612991565b604051808481526020018373ffffffffffffffffffffffffffffffffffffffff1673ffffffffffffffffffffffffffffffffffffffff16815260200182151515158152602001935050505060405180910390f35b348015610a4357600080fd5b50610a4c6129e8565b6040518080602001828103825283818151815260200191508051906020019060200280838360005b83811015610a8f578082015181840152602081019050610a74565b505050509050019250505060405180910390f35b348015610aaf57600080fd5b50610bf160048036038101908080359060200190929190803590602001908201803590602001908080601f01602080910402602001604051908101604052809392919081815260200183838082843782019150505050505091929192908035906020019092919080359060200190929190803590602001908201803590602001908080602002602001604051908101604052809392919081815260200183836020028082843782019150505050505091929192908035906020019082018035906020019080806020026020016040519081016040528093929190818152602001838360200280828437820191505050505050919291929080359060200190820180359060200190808060200260200160405190810160405280939291908181526020018383602002808284378201915050505050509192919290505050612a80565b604051808215151515815260200191505060405180910390f35b348015610c1757600080fd5b50610c206130a2565b6040518082815260200191505060405180910390f35b348015610c4257600080fd5b50610c61600480360381019080803590602001909291905050506130a8565b005b348015610c6f57600080fd5b50610cc4600480360381019080803573ffffffffffffffffffffffffffffffffffffffff169060200190929190803573ffffffffffffffffffffffffffffffffffffffff16906020019092919050505061310e565b6040518082815260200191505060405180910390f35b348015610ce657600080fd5b50610d0560048036038101908080359060200190929190505050613133565b005b348015610d1357600080fd5b50610d3c6004803603810190808035906020019092919080359060200190929190505050613199565b005b348015610d4a57600080fd5b50610d69600480360381019080803590602001909291905050506131b8565b6040518080602001828103825283818151815260200191508051906020019060200280838360005b83811015610dac578082015181840152602081019050610d91565b505050509050019250505060405180910390f35b348015610dcc57600080fd5b50610e2e6004803603810190808035906020019092919080359060200190820180359060200190808060200260200160405190810160405280939291908181526020018383602002808284378201915050505050509192919290505050613226565b005b348015610e3c57600080fd5b50610e71600480360381019080803573ffffffffffffffffffffffffffffffffffffffff1690602001909291905050506132b6565b6040518082815260200191505060405180910390f35b348015610e9357600080fd5b50610e9c6132ff565b005b348015610eaa57600080fd5b50610ec9600480360381019080803590602001909291905050506133dd565b6040518082815260200191505060405180910390f35b348015610eeb57600080fd5b50610ef46133fd565b6040518082815260200191505060405180910390f35b348015610f1657600080fd5b50610f3560048036038101908080359060200190929190505050613407565b604051808215151515815260200191505060405180910390f35b348015610f5b57600080fd5b50610f6461346e565b604051808273ffffffffffffffffffffffffffffffffffffffff1673ffffffffffffffffffffffffffffffffffffffff16815260200191505060405180910390f35b348015610fb257600080fd5b50610fbb613494565b6040518080602001828103825283818151815260200191508051906020019080838360005b83811015610ffb578082015181840152602081019050610fe0565b50505050905090810190601f1680156110285780820380516001836020036101000a031916815260200191505b509250505060405180910390f35b34801561104257600080fd5b5061106160048036038101908080359060200190929190505050613532565b005b34801561106f57600080fd5b50611078613598565b6040518080602001828103825283818151815260200191508051906020019060200280838360005b838110156110bb5780820151818401526020810190506110a0565b505050509050019250505060405180910390f35b3480156110db57600080fd5b506110e4613630565b6040518082815260200191505060405180910390f35b6111026114dc565b005b34801561111057600080fd5b5061112f60048036038101908080359060200190929190505050613636565b6040518080602001828103825283818151815260200191508051906020019060200280838360005b83811015611172578082015181840152602081019050611157565b505050509050019250505060405180910390f35b34801561119257600080fd5b506111c7600480360381019080803573ffffffffffffffffffffffffffffffffffffffff1690602001909291905050506136a4565b005b3480156111d557600080fd5b50611214600480360381019080803573ffffffffffffffffffffffffffffffffffffffff16906020019092919080359060200190929190505050613744565b604051808215151515815260200191505060405180910390f35b34801561123a57600080fd5b506112596004803603810190808035906020019092919050505061392d565b604051808273ffffffffffffffffffffffffffffffffffffffff1673ffffffffffffffffffffffffffffffffffffffff16815260200191505060405180910390f35b3480156112a757600080fd5b506112c66004803603810190808035906020019092919050505061396d565b604051808215151515815260200191505060405180910390f35b3480156112ec57600080fd5b506112f561399a565b6040518082815260200191505060405180910390f35b34801561131757600080fd5b5061137960048036038101908080359060200190929190803590602001908201803590602001908080602002602001604051908101604052809392919081815260200183836020028082843782019150505050505091929192905050506139b8565b005b34801561138757600080fd5b506113906139e7565b604051808215151515815260200191505060405180910390f35b3480156113b657600080fd5b506113bf613ee5565b6040518082815260200191505060405180910390f35b3480156113e157600080fd5b50611420600480360381019080803573ffffffffffffffffffffffffffffffffffffffff16906020019092919080359060200190929190505050613eef565b604051808215151515815260200191505060405180910390f35b34801561144657600080fd5b5061149b600480360381019080803573ffffffffffffffffffffffffffffffffffffffff169060200190929190803573ffffffffffffffffffffffffffffffffffffffff169060200190929190505050613f1e565b6040518082815260200191505060405180910390f35b3480156114bd57600080fd5b506114c6613fa5565b6040518082815260200191505060405180910390f35b600080341115156114ec57600080fd5b61150161271034613fab90919063ffffffff16565b905061155581600260003373ffffffffffffffffffffffffffffffffffffffff1673ffffffffffffffffffffffffffffffffffffffff16815260200190815260200160002054613fde90919063ffffffff16565b600260003373ffffffffffffffffffffffffffffffffffffffff1673ffffffffffffffffffffffffffffffffffffffff168152602001908152602001600020819055506115ad81600054613fde90919063ffffffff16565b600081905550600560009054906101000a900460ff1660ff16600a0a620f424002600054111515156115de57600080fd5b7f712a7c91acc43a1321298fb00af337b26e06f3905018f430338ea13df04e7db6348260005433600560009054906101000a900460ff166006604051808781526020018681526020018581526020018473ffffffffffffffffffffffffffffffffffffffff1673ffffffffffffffffffffffffffffffffffffffff1681526020018360ff1660ff168152602001806020018281038252838181546001816001161561010002031660029004815260200191508054600181600116156101000203166002900480156116f05780601f106116c5576101008083540402835291602001916116f0565b820191906000526020600020905b8154815290600101906020018083116116d357829003601f168201915b505097505050505050505060405180910390a150565b600060086000838152602001908152602001600020600301549050919050565b60048054600181600116156101000203166002900480601f0160208091040260200160405190810160405280929190818152602001828054600181600116156101000203166002900480156117bc5780601f10611791576101008083540402835291602001916117bc565b820191906000526020600020905b81548152906001019060200180831161179f57829003601f168201915b505050505081565b600081600360003373ffffffffffffffffffffffffffffffffffffffff1673ffffffffffffffffffffffffffffffffffffffff16815260200190815260200160002060008573ffffffffffffffffffffffffffffffffffffffff1673ffffffffffffffffffffffffffffffffffffffff168152602001908152602001600020819055508273ffffffffffffffffffffffffffffffffffffffff163373ffffffffffffffffffffffffffffffffffffffff167f8c5be1e5ebec7d5bd14f71427d1e84f3dd0314c0f7b2291e5b200ac8c7c3b925846040518082815260200191505060405180910390a36001905092915050565b6000600160009054906101000a900473ffffffffffffffffffffffffffffffffffffffff16905090565b6000600a60003373ffffffffffffffffffffffffffffffffffffffff1673ffffffffffffffffffffffffffffffffffffffff16815260200190815260200160002060040160009054906101000a900460ff16905090565b6000806000806000806000806000801515600b60003373ffffffffffffffffffffffffffffffffffffffff1673ffffffffffffffffffffffffffffffffffffffff16815260200190815260200160002060008c815260200190815260200160002060009054906101000a900460ff1615151415156119b457600080fd5b600860008b815260200190815260200160002060080180549050945060008514156119f757600860008b8152602001908152602001600020600401549750611b48565b600860008b8152602001908152602001600020600301549350611a4c6064611a3e86600860008f815260200190815260200160002060040154613fab90919063ffffffff16565b613ffc90919063ffffffff16565b9750600092505b84831015611b4757600860008b815260200190815260200160002060080183815481101515611a7e57fe5b90600052602060002001549150600860008b815260200190815260200160002060090183815481101515611aae57fe5b90600052602060002001549050611af76064611ae983600860008f815260200190815260200160002060040154613fab90919063ffffffff16565b613ffc90919063ffffffff16565b9550611b396009600084815260200190815260200160002060010160009054906101000a900473ffffffffffffffffffffffffffffffffffffffff1687613744565b508280600101935050611a53565b5b611b88600860008c815260200190815260200160002060010160009054906101000a900473ffffffffffffffffffffffffffffffffffffffff1689613744565b50600a60003373ffffffffffffffffffffffffffffffffffffffff1673ffffffffffffffffffffffffffffffffffffffff16815260200190815260200160002060000154601081905550600a60003373ffffffffffffffffffffffffffffffffffffffff1673ffffffffffffffffffffffffffffffffffffffff1681526020019081526020016000206002018a9080600181540180825580915050906001820390600052602060002001600090919290919091505550600860008b81526020019081526020016000206006016010549080600181540180825580915050906001820390600052602060002001600090919290919091505550600860008b8152602001908152602001600020600501600081548092919060010191905055506001600b60003373ffffffffffffffffffffffffffffffffffffffff1673ffffffffffffffffffffffffffffffffffffffff16815260200190815260200160002060008c815260200190815260200160002060006101000a81548160ff021916908315150217905550611d188a614017565b507f0b652e40e3ac958f888830c7b7142c7028784c31fcb6ec787fa1e5da89507ba633600a60003373ffffffffffffffffffffffffffffffffffffffff1673ffffffffffffffffffffffffffffffffffffffff168152602001908152602001600020600201600860008e8152602001908152602001600020600601600b60003373ffffffffffffffffffffffffffffffffffffffff1673ffffffffffffffffffffffffffffffffffffffff16815260200190815260200160002060008f815260200190815260200160002060009054906101000a900460ff168c604051808673ffffffffffffffffffffffffffffffffffffffff1673ffffffffffffffffffffffffffffffffffffffff1681526020018060200180602001851515151581526020018481526020018381038352878181548152602001915080548015611e7d57602002820191906000526020600020905b815481526020019060010190808311611e69575b50508381038252868181548152602001915080548015611ebc57602002820191906000526020600020905b815481526020019060010190808311611ea8575b505097505050505050505060405180910390a1600198505050505050505050919050565b60008160026000600760009054906101000a900473ffffffffffffffffffffffffffffffffffffffff1673ffffffffffffffffffffffffffffffffffffffff1673ffffffffffffffffffffffffffffffffffffffff1681526020019081526020016000205410151515611f5257600080fd5b611fc68260026000600760009054906101000a900473ffffffffffffffffffffffffffffffffffffffff1673ffffffffffffffffffffffffffffffffffffffff1673ffffffffffffffffffffffffffffffffffffffff168152602001908152602001600020546140b590919063ffffffff16565b60026000600760009054906101000a900473ffffffffffffffffffffffffffffffffffffffff1673ffffffffffffffffffffffffffffffffffffffff1673ffffffffffffffffffffffffffffffffffffffff1681526020019081526020016000208190555061207d82600260008673ffffffffffffffffffffffffffffffffffffffff1673ffffffffffffffffffffffffffffffffffffffff16815260200190815260200160002054613fde90919063ffffffff16565b600260008573ffffffffffffffffffffffffffffffffffffffff1673ffffffffffffffffffffffffffffffffffffffff168152602001908152602001600020819055508273ffffffffffffffffffffffffffffffffffffffff16600760009054906101000a900473ffffffffffffffffffffffffffffffffffffffff1673ffffffffffffffffffffffffffffffffffffffff167fddf252ad1be2c89b69c2b068fc378daa952ba7f163c4a11628f55a4df523b3ef846040518082815260200191505060405180910390a36001905092915050565b600060086000838152602001908152602001600020600401549050919050565b6000600e54905090565b60005481565b60086020528060005260406000206000915090508060000154908060010160009054906101000a900473ffffffffffffffffffffffffffffffffffffffff1690806002018054600181600116156101000203166002900480601f0160208091040260200160405190810160405280929190818152602001828054600181600116156101000203166002900480156122595780601f1061222e57610100808354040283529160200191612259565b820191906000526020600020905b81548152906001019060200180831161223c57829003601f168201915b50505050509080600301549080600401549080600501549080600a0160009054906101000a900460ff16905087565b6000600a60003373ffffffffffffffffffffffffffffffffffffffff1673ffffffffffffffffffffffffffffffffffffffff16815260200190815260200160002060000154905090565b60008173ffffffffffffffffffffffffffffffffffffffff16319050919050565b600081600260003373ffffffffffffffffffffffffffffffffffffffff1673ffffffffffffffffffffffffffffffffffffffff168152602001908152602001600020541015801561234657508160005410155b8015612353575060008214155b151561235e57600080fd5b61237361271083613ffc90919063ffffffff16565b90506123c782600260003373ffffffffffffffffffffffffffffffffffffffff1673ffffffffffffffffffffffffffffffffffffffff168152602001908152602001600020546140b590919063ffffffff16565b600260003373ffffffffffffffffffffffffffffffffffffffff1673ffffffffffffffffffffffffffffffffffffffff1681526020019081526020016000208190555061241f826000546140b590919063ffffffff16565b6000819055503373ffffffffffffffffffffffffffffffffffffffff166108fc829081150290604051600060405180830381858888f19350505050151561246557600080fd5b7f241e6666a37e994e9acf140190540c74190f1be9cbe04c868d62d91ee0b92883828260005433604051808581526020018481526020018381526020018273ffffffffffffffffffffffffffffffffffffffff1673ffffffffffffffffffffffffffffffffffffffff16815260200194505050505060405180910390a15050565b600080600360008673ffffffffffffffffffffffffffffffffffffffff1673ffffffffffffffffffffffffffffffffffffffff16815260200190815260200160002060003373ffffffffffffffffffffffffffffffffffffffff1673ffffffffffffffffffffffffffffffffffffffff16815260200190815260200160002054905082600260008773ffffffffffffffffffffffffffffffffffffffff1673ffffffffffffffffffffffffffffffffffffffff16815260200190815260200160002054101580156125b75750828110155b15156125c257600080fd5b61261483600260008773ffffffffffffffffffffffffffffffffffffffff1673ffffffffffffffffffffffffffffffffffffffff16815260200190815260200160002054613fde90919063ffffffff16565b600260008673ffffffffffffffffffffffffffffffffffffffff1673ffffffffffffffffffffffffffffffffffffffff168152602001908152602001600020819055506126a983600260008873ffffffffffffffffffffffffffffffffffffffff1673ffffffffffffffffffffffffffffffffffffffff168152602001908152602001600020546140b590919063ffffffff16565b600260008773ffffffffffffffffffffffffffffffffffffffff1673ffffffffffffffffffffffffffffffffffffffff168152602001908152602001600020819055507fffffffffffffffffffffffffffffffffffffffffffffffffffffffffffffffff811015612824576127a383600360008873ffffffffffffffffffffffffffffffffffffffff1673ffffffffffffffffffffffffffffffffffffffff16815260200190815260200160002060003373ffffffffffffffffffffffffffffffffffffffff1673ffffffffffffffffffffffffffffffffffffffff168152602001908152602001600020546140b590919063ffffffff16565b600360008773ffffffffffffffffffffffffffffffffffffffff1673ffffffffffffffffffffffffffffffffffffffff16815260200190815260200160002060003373ffffffffffffffffffffffffffffffffffffffff1673ffffffffffffffffffffffffffffffffffffffff168152602001908152602001600020819055505b8373ffffffffffffffffffffffffffffffffffffffff168573ffffffffffffffffffffffffffffffffffffffff167fddf252ad1be2c89b69c2b068fc378daa952ba7f163c4a11628f55a4df523b3ef856040518082815260200191505060405180910390a360019150509392505050565b60026020528060005260406000206000915090505481565b600c5481565b600a6020528060005260406000206000915090508060000154908060010160009054906101000a900473ffffffffffffffffffffffffffffffffffffffff16908060040160009054906101000a900460ff16905083565b61271081565b600560009054906101000a900460ff1681565b60606008600083815260200190815260200160002060080180548060200260200160405190810160405280929190818152602001828054801561298557602002820191906000526020600020905b815481526020019060010190808311612971575b50505050509050919050565b60096020528060005260406000206000915090508060000154908060010160009054906101000a900473ffffffffffffffffffffffffffffffffffffffff16908060040160009054906101000a900460ff16905083565b6060600a60003373ffffffffffffffffffffffffffffffffffffffff1673ffffffffffffffffffffffffffffffffffffffff168152602001908152602001600020600301805480602002602001604051908101604052809291908181526020018280548015612a7657602002820191906000526020600020905b815481526020019060010190808311612a62575b5050505050905090565b6000806000600e548711158015612a995750600f548710155b1515612aa457600080fd5b610160604051908101604052808b81526020013373ffffffffffffffffffffffffffffffffffffffff1681526020018a8152602001898152602001612b07600560009054906101000a900460ff1660ff16600a0a8a613fab90919063ffffffff16565b8152602001600081526020016000604051908082528060200260200182016040528015612b435781602001602082028038833980820191505090505b5081526020016000604051908082528060200260200182016040528015612b795781602001602082028038833980820191505090505b5081526020016000604051908082528060200260200182016040528015612baf5781602001602082028038833980820191505090505b5081526020016000604051908082528060200260200182016040528015612be55781602001602082028038833980820191505090505b50815260200160011515815250600860008c81526020019081526020016000206000820151816000015560208201518160010160006101000a81548173ffffffffffffffffffffffffffffffffffffffff021916908373ffffffffffffffffffffffffffffffffffffffff1602179055506040820151816002019080519060200190612c729291906140ce565b50606082015181600301556080820151816004015560a0820151816005015560c0820151816006019080519060200190612cad92919061414e565b5060e0820151816007019080519060200190612cca92919061414e565b50610100820151816008019080519060200190612ce892919061414e565b50610120820151816009019080519060200190612d0692919061414e565b5061014082015181600a0160006101000a81548160ff021916908315150217905550905050600091505b8551821015612d9b57600860008b81526020019081526020016000206007018683815181101515612d5d57fe5b906020019060200201519080600181540180825580915050906001820390600052602060002001600090919290919091505550816001019150612d30565b600090505b8451811015612e6257600860008b81526020019081526020016000206008018582815181101515612dcd57fe5b906020019060200201519080600181540180825580915050906001820390600052602060002001600090919290919091505550600860008b81526020019081526020016000206009018482815181101515612e2457fe5b906020019060200201519080600181540180825580915050906001820390600052602060002001600090919290919091505550806001019050612da0565b600a60003373ffffffffffffffffffffffffffffffffffffffff1673ffffffffffffffffffffffffffffffffffffffff1681526020019081526020016000206003018a90806001815401808255809150509060018203906000526020600020016000909192909190915055507fcc348e801ac344360dd9637b0e326028a91c9f6d959db5f85fd503b68e6eac148a338b8b8b8b8b8b604051808981526020018873ffffffffffffffffffffffffffffffffffffffff1673ffffffffffffffffffffffffffffffffffffffff1681526020018060200187815260200186815260200180602001806020018060200185810385528b818151815260200191508051906020019080838360005b83811015612f87578082015181840152602081019050612f6c565b50505050905090810190601f168015612fb45780820380516001836020036101000a031916815260200191505b50858103845288818151815260200191508051906020019060200280838360005b83811015612ff0578082015181840152602081019050612fd5565b50505050905001858103835287818151815260200191508051906020019060200280838360005b83811015613032578082015181840152602081019050613017565b50505050905001858103825286818151815260200191508051906020019060200280838360005b83811015613074578082015181840152602081019050613059565b505050509050019c5050505050505050505050505060405180910390a1600192505050979650505050505050565b600f5481565b600160009054906101000a900473ffffffffffffffffffffffffffffffffffffffff1673ffffffffffffffffffffffffffffffffffffffff163373ffffffffffffffffffffffffffffffffffffffff1614151561310457600080fd5b80600d8190555050565b6003602052816000526040600020602052806000526040600020600091509150505481565b600160009054906101000a900473ffffffffffffffffffffffffffffffffffffffff1673ffffffffffffffffffffffffffffffffffffffff163373ffffffffffffffffffffffffffffffffffffffff1614151561318f57600080fd5b80600e8190555050565b8060086000848152602001908152602001600020600301819055505050565b60606008600083815260200190815260200160002060070180548060200260200160405190810160405280929190818152602001828054801561321a57602002820191906000526020600020905b815481526020019060010190808311613206575b50505050509050919050565b600080600083519250600090505b8281101561327557613266848281518110151561324d57fe5b9060200190602002015183613fde90919063ffffffff16565b91508080600101915050613234565b60648214151561328457600080fd5b836008600087815260200190815260200160002060090190805190602001906132ae92919061419b565b505050505050565b6000600260008373ffffffffffffffffffffffffffffffffffffffff1673ffffffffffffffffffffffffffffffffffffffff168152602001908152602001600020549050919050565b600160009054906101000a900473ffffffffffffffffffffffffffffffffffffffff1673ffffffffffffffffffffffffffffffffffffffff163373ffffffffffffffffffffffffffffffffffffffff1614151561335b57600080fd5b600760009054906101000a900473ffffffffffffffffffffffffffffffffffffffff1673ffffffffffffffffffffffffffffffffffffffff166108fc3073ffffffffffffffffffffffffffffffffffffffff16319081150290604051600060405180830381858888f193505050501580156133da573d6000803e3d6000fd5b50565b600060086000838152602001908152602001600020600501549050919050565b6000600f54905090565b6000600b60003373ffffffffffffffffffffffffffffffffffffffff1673ffffffffffffffffffffffffffffffffffffffff168152602001908152602001600020600083815260200190815260200160002060009054906101000a900460ff169050919050565b600760009054906101000a900473ffffffffffffffffffffffffffffffffffffffff1681565b60068054600181600116156101000203166002900480601f01602080910402602001604051908101604052809291908181526020018280546001816001161561010002031660029004801561352a5780601f106134ff5761010080835404028352916020019161352a565b820191906000526020600020905b81548152906001019060200180831161350d57829003601f168201915b505050505081565b600160009054906101000a900473ffffffffffffffffffffffffffffffffffffffff1673ffffffffffffffffffffffffffffffffffffffff163373ffffffffffffffffffffffffffffffffffffffff1614151561358e57600080fd5b80600f8190555050565b6060600a60003373ffffffffffffffffffffffffffffffffffffffff1673ffffffffffffffffffffffffffffffffffffffff16815260200190815260200160002060020180548060200260200160405190810160405280929190818152602001828054801561362657602002820191906000526020600020905b815481526020019060010190808311613612575b5050505050905090565b600d5481565b60606008600083815260200190815260200160002060060180548060200260200160405190810160405280929190818152602001828054801561369857602002820191906000526020600020905b815481526020019060010190808311613684575b50505050509050919050565b600160009054906101000a900473ffffffffffffffffffffffffffffffffffffffff1673ffffffffffffffffffffffffffffffffffffffff163373ffffffffffffffffffffffffffffffffffffffff1614151561370057600080fd5b80600160006101000a81548173ffffffffffffffffffffffffffffffffffffffff021916908373ffffffffffffffffffffffffffffffffffffffff16021790555050565b600081600260003373ffffffffffffffffffffffffffffffffffffffff1673ffffffffffffffffffffffffffffffffffffffff168152602001908152602001600020541015151561379457600080fd5b6137e682600260003373ffffffffffffffffffffffffffffffffffffffff1673ffffffffffffffffffffffffffffffffffffffff168152602001908152602001600020546140b590919063ffffffff16565b600260003373ffffffffffffffffffffffffffffffffffffffff1673ffffffffffffffffffffffffffffffffffffffff1681526020019081526020016000208190555061387b82600260008673ffffffffffffffffffffffffffffffffffffffff1673ffffffffffffffffffffffffffffffffffffffff16815260200190815260200160002054613fde90919063ffffffff16565b600260008573ffffffffffffffffffffffffffffffffffffffff1673ffffffffffffffffffffffffffffffffffffffff168152602001908152602001600020819055508273ffffffffffffffffffffffffffffffffffffffff163373ffffffffffffffffffffffffffffffffffffffff167fddf252ad1be2c89b69c2b068fc378daa952ba7f163c4a11628f55a4df523b3ef846040518082815260200191505060405180910390a36001905092915050565b60006008600083815260200190815260200160002060010160009054906101000a900473ffffffffffffffffffffffffffffffffffffffff169050919050565b600060086000838152602001908152602001600020600a0160009054906101000a900460ff169050919050565b600560009054906101000a900460ff1660ff16600a0a620f42400281565b806008600084815260200190815260200160002060080190805190602001906139e292919061419b565b505050565b60006139ff6001600c54613fde90919063ffffffff16565b600c8190555060a060405190810160405280600c5481526020013373ffffffffffffffffffffffffffffffffffffffff1681526020016000604051908082528060200260200182016040528015613a655781602001602082028038833980820191505090505b5081526020016000604051908082528060200260200182016040528015613a9b5781602001602082028038833980820191505090505b5081526020016001151581525060096000600c5481526020019081526020016000206000820151816000015560208201518160010160006101000a81548173ffffffffffffffffffffffffffffffffffffffff021916908373ffffffffffffffffffffffffffffffffffffffff1602179055506040820151816002019080519060200190613b2a92919061414e565b506060820151816003019080519060200190613b4792919061414e565b5060808201518160040160006101000a81548160ff02191690831515021790555090505060a060405190810160405280600c5481526020013373ffffffffffffffffffffffffffffffffffffffff1681526020016000604051908082528060200260200182016040528015613bcb5781602001602082028038833980820191505090505b5081526020016000604051908082528060200260200182016040528015613c015781602001602082028038833980820191505090505b50815260200160011515815250600a60003373ffffffffffffffffffffffffffffffffffffffff1673ffffffffffffffffffffffffffffffffffffffff1681526020019081526020016000206000820151816000015560208201518160010160006101000a81548173ffffffffffffffffffffffffffffffffffffffff021916908373ffffffffffffffffffffffffffffffffffffffff1602179055506040820151816002019080519060200190613cba92919061414e565b506060820151816003019080519060200190613cd792919061414e565b5060808201518160040160006101000a81548160ff021916908315150217905550905050613d0733600d54611ee0565b507fca310f420e278a6f4a5934b17f0a1d74d7f1ef41386e888bf9c645cca0419111600c5433600a60003373ffffffffffffffffffffffffffffffffffffffff1673ffffffffffffffffffffffffffffffffffffffff168152602001908152602001600020600201600a60003373ffffffffffffffffffffffffffffffffffffffff1673ffffffffffffffffffffffffffffffffffffffff168152602001908152602001600020600301600a60003373ffffffffffffffffffffffffffffffffffffffff1673ffffffffffffffffffffffffffffffffffffffff16815260200190815260200160002060040160009054906101000a900460ff16604051808681526020018573ffffffffffffffffffffffffffffffffffffffff1673ffffffffffffffffffffffffffffffffffffffff1681526020018060200180602001841515151581526020018381038352868181548152602001915080548015613e8c57602002820191906000526020600020905b815481526020019060010190808311613e78575b50508381038252858181548152602001915080548015613ecb57602002820191906000526020600020905b815481526020019060010190808311613eb7575b505097505050505050505060405180910390a16001905090565b6000600d54905090565b600b6020528160005260406000206020528060005260406000206000915091509054906101000a900460ff1681565b6000600360008473ffffffffffffffffffffffffffffffffffffffff1673ffffffffffffffffffffffffffffffffffffffff16815260200190815260200160002060008373ffffffffffffffffffffffffffffffffffffffff1673ffffffffffffffffffffffffffffffffffffffff16815260200190815260200160002054905092915050565b600e5481565b60008082840290506000841480613fcc5750828482811515613fc957fe5b04145b1515613fd457fe5b8091505092915050565b6000808284019050838110151515613ff257fe5b8091505092915050565b600080828481151561400a57fe5b0490508091505092915050565b60008060008060086000868152602001908152602001600020600701805490509250600090505b828110156140a957600860008681526020019081526020016000206007018181548110151561406957fe5b906000526020600020015491506008600083815260200190815260200160002060050160008154809291906001019190505550808060010191505061403e565b60019350505050919050565b60008282111515156140c357fe5b818303905092915050565b828054600181600116156101000203166002900490600052602060002090601f016020900481019282601f1061410f57805160ff191683800117855561413d565b8280016001018555821561413d579182015b8281111561413c578251825591602001919060010190614121565b5b50905061414a91906141e8565b5090565b82805482825590600052602060002090810192821561418a579160200282015b8281111561418957825182559160200191906001019061416e565b5b50905061419791906141e8565b5090565b8280548282559060005260206000209081019282156141d7579160200282015b828111156141d65782518255916020019190600101906141bb565b5b5090506141e491906141e8565b5090565b61420a91905b808211156142065760008160009055506001016141ee565b5090565b905600a165627a7a723058200d2cf830087fb219ce257828b9a51379b1a12c10fffa23c8f4382b347911d6010029",
  "source": "pragma solidity ^0.4.21;\n\nimport \"./Token/JournalToken.sol\";\n\ncontract OpenJournal is JournalToken(200000, \"Journal Token\", 18, \"jt\") {\n    \n    struct Journal {\n        uint256 number;\n        address author;\n        string title;\n        uint256 author_share;\n        uint256 value;\n        uint256 honor_count;\n        uint[] subscribed;\n        uint[] reference_journal;\n        uint256[] contributors;\n        uint256[] contributors_share;\n        bool final_enroll;\n    }\n\n    struct User {\n        uint256 user_number;                    \n        address user_address;                   \n        uint[] user_subscribe_journal;          \n        uint[] user_regist_journal;\n        bool is_user;             \n    }    \n\n    mapping (uint256 => Journal) public journals;                               \n    mapping (uint256 => User) public users_by_number;\n    mapping (address => User) public users_by_address;                                     \n\n    mapping (address => mapping (uint => bool)) public is_subscribed;           \n\n    uint256 public userNumber;               \n    uint256 public signUpCost;               \n    uint256 public upperbound_value;         \n    uint256 public lowerbound_value;             \n    \n    uint user_num;\n\n    event LogSignUp(\n        uint256 _user_number, \n        address _user_address, \n        uint[] _user_subscribe_journal,\n        uint[] _user_regist_journal,\n        bool _is_user\n    );  \n\n    event LogRegistJournal(\n        uint256 _number, \n        address _author, \n        string _title,\n        uint256 _author_share,\n        uint256 _value,\n        uint[] _reference_journal,\n        uint256[] _contributors,\n        uint256[] _contributors_share        \n    );  \n\n    event LogSubscribeJournal(\n        address _subscriber, \n        uint[] _myjournals, \n        uint[] _subscribed,\n        bool _is_subscribed,\n        uint256 _author_value\n    );\n\n    event LogGetUserRegistedJournals(\n        uint[] _user_regist_journal\n    );\n\n    event LogGetUserSubscribedJournals(\n        uint _user_subscribe_journal\n    );\n\n    event LogGetAuthorAddress (\n        uint256 _number,\n        address _author\n    );\n\n    event LogGetValue (\n        uint256 _number,\n        uint256 _value\n    );\n\n    function OpenJournal(\n        uint256 _userNumber,\n        uint256 _signUpCost,\n        uint256 _upperbound_value,\n        uint256 _lowerbound_value\n    ) public {\n        userNumber = _userNumber;\n        signUpCost = _signUpCost.mul(10**uint256(decimals));        //   signUpCost = _signUpCost.mul(10**uint256(4));\n        upperbound_value = _upperbound_value;\n        lowerbound_value = _lowerbound_value;\n    }\n\n    function signUp() public returns (bool) {\n        userNumber = userNumber.add(1); \n        users_by_number[userNumber] = User(\n            userNumber,\n            msg.sender,\n            new uint[](0),\n            new uint[](0),\n            true\n        );\n\n        users_by_address[msg.sender] = User(\n            userNumber,\n            msg.sender,\n            new uint[](0),\n            new uint[](0),\n            true\n        );\n        transferFromOwner(msg.sender, signUpCost);   \n\n        emit LogSignUp(\n            userNumber, \n            msg.sender, \n            users_by_address[msg.sender].user_subscribe_journal, \n            users_by_address[msg.sender].user_regist_journal,\n            users_by_address[msg.sender].is_user\n        );\n\n        return true;\n    }\n\n    function registJournal(uint256 _journal_number, \n                    string _title, \n                    uint256 _author_share, \n                    uint _journal_value, \n                    uint256[] _reference_journal,\n                    uint256[] _contributors,\n                    uint256[] _contributors_share\n        ) public returns (bool) {\n\n        require(_journal_value <= upperbound_value && _journal_value >= lowerbound_value);\n    \n        journals[_journal_number] = Journal(\n            _journal_number,\n            msg.sender,\n            _title,\n            _author_share,\n            _journal_value.mul(10**uint256(decimals)),     //   _journal_value.mul(10**uint256(4))\n            0,\n            new uint[](0),\n            new uint[](0),\n            new uint[](0),\n            new uint256[](0),\n            true\n        );\n\n        for(uint256 ref = 0; ref <_reference_journal.length; ++ref)\n            journals[_journal_number].reference_journal.push(_reference_journal[ref]);\n\n        for(uint256 cont = 0; cont <_contributors.length; ++cont){\n            journals[_journal_number].contributors.push(_contributors[cont]);\n            journals[_journal_number].contributors_share.push(_contributors_share[cont]);\n        }\n\n        users_by_address[msg.sender].user_regist_journal.push(_journal_number);    \n\n        emit LogRegistJournal(\n            _journal_number,\n            msg.sender,\n            _title,\n            _author_share,\n            _journal_value,\n            _reference_journal,\n            _contributors,\n            _contributors_share            \n        );  \n \n        return true;    \n    }\n\n    function subscribeJournal(uint256 _journal_number) public returns (bool){\n        require(is_subscribed[msg.sender][_journal_number] == false); \n\n        uint256 author_token;\n        uint256 contributor_token;\n        uint256 contributor_each_token;               \n        uint256 contributor_num = journals[_journal_number].contributors.length;        \n\n        if(contributor_num == 0){\n            author_token = journals[_journal_number].value;\n        } else{\n            uint256 author_share = journals[_journal_number].author_share;\n            author_token = journals[_journal_number].value.mul(author_share).div(100);\n\n            for(uint256 cont=0; cont < contributor_num; cont++){\n                uint256 contributor_number = journals[_journal_number].contributors[cont];\n                uint256 contributor_share = journals[_journal_number].contributors_share[cont];\n\n                contributor_each_token = journals[_journal_number].value.mul(contributor_share).div(100);\n                transfer(users_by_number[contributor_number].user_address, contributor_each_token);\n            }\n        }\n\n        transfer(journals[_journal_number].author, author_token); \n\n        user_num = users_by_address[msg.sender].user_number;\n\n        users_by_address[msg.sender].user_subscribe_journal.push(_journal_number);  \n        journals[_journal_number].subscribed.push(user_num);\n\tjournals[_journal_number].honor_count++;       \n        is_subscribed[msg.sender][_journal_number] = true;\n\n        upHonorCount(_journal_number);\n\n        emit LogSubscribeJournal(\n            msg.sender, \n            users_by_address[msg.sender].user_subscribe_journal, \n            journals[_journal_number].subscribed, \n            is_subscribed[msg.sender][_journal_number],\n            author_token\n        );\n\n        return true;\n    }\n\n    function upHonorCount(uint256 _journal_number) internal returns (bool) {\n        uint256 reference_num = journals[_journal_number].reference_journal.length;\n        uint256 reference_journal_num; \n\n        for(uint256 ref=0; ref < reference_num; ref++){\n            reference_journal_num = journals[_journal_number].reference_journal[ref];\n            journals[reference_journal_num].honor_count++;\n        }\n\n        return true;\n    }\n\n    function getIsJournalValid(uint _journal_number) public view returns (bool) {\n        return journals[_journal_number].final_enroll;\n    }\n\n    function getAuthorAddress(uint256 _journal_number) public view returns (address){\n        return journals[_journal_number].author;\n    }\n\n    function getValue(uint256 _journal_number) public view returns (uint256){\n        return journals[_journal_number].value;\n    }\n\n    function getJournalSubscriber(uint _journal_number) public view returns (uint[]) {\n        return journals[_journal_number].subscribed;\n    }\n\n    function getReferenceJournal(uint _journal_number) public view returns (uint256[]) {\n        return journals[_journal_number].reference_journal;\n    }    \n\n    function getIsSubscribedJournal(uint _journal_number) public view returns (bool) {\n        return is_subscribed[msg.sender][_journal_number];\n    }\n\n    function getAuthorShare(uint _journal_number) public view returns (uint256) {\n        return journals[_journal_number].author_share;\n    }\n\n    function getReferenceCount(uint _journal_number) public view returns (uint256) {\n        return journals[_journal_number].honor_count;\n    }\n\n    function getContributors(uint _journal_number) public view returns (uint256[]) {\n        return journals[_journal_number].contributors;\n    }\n\n    //function getContributorsShare(uint _journal_number) public view returns (uint256[]) {\n    //    return journals[_journal_number].contributors_share;\n    //}\n\n    function getUserNumber() public view returns (uint256) {\n        return users_by_address[msg.sender].user_number;\n    }\n\n    function getIsUserValid() public view returns (bool) {\n        return users_by_address[msg.sender].is_user;\n    }\n\n    function getUserSubscribedJournals() public view returns (uint[]) {\n        return users_by_address[msg.sender].user_subscribe_journal;\n    }    \n\n    function getUserRegistedJournals() public view returns (uint[]) {\n        return users_by_address[msg.sender].user_regist_journal;\n    } \n\n    function getSignupCost() public view returns (uint256) {\n        return signUpCost;\n    }\n\n    function getUpperboundValue() public view returns (uint256) {\n        return upperbound_value;\n    }\n\n    function getLowerboundValue() public view returns (uint256) {\n        return lowerbound_value;\n    }\n    \n    function setSignupCost(uint256 _signUpCost) public onlyOwner{\n        signUpCost = _signUpCost;\n    }\n\n    function setUpperboundValue(uint256 _upperbound_value) public onlyOwner{\n        upperbound_value = _upperbound_value;\n    }\n\n    function setLowerboundValue(uint256 _lowerbound_value) public onlyOwner{\n        lowerbound_value = _lowerbound_value;\n    }\n\n    function setAuthorShare(uint _journal_number, uint _author_share) public {\n        journals[_journal_number].author_share = _author_share;\n    }\n\n    function setContributors(uint _journal_number, uint256[] _contributors) public {\n        journals[_journal_number].contributors = _contributors;\n    }\n\n    function setContributorsShare(uint _journal_number, uint256[] _contributors_share) public {\n        uint256 new_length = _contributors_share.length;\n        uint256 new_total;\n\n        for(uint i=0; i<new_length; i++)\n            new_total = new_total.add(_contributors_share[i]);\n\n        require(new_total == 100);\n\n        journals[_journal_number].contributors_share = _contributors_share;\n    }   \n }\n",
  "sourcePath": "/home/ubuntu/captone/2018-cap1-1/src/contracts/OpenJournal.sol",
  "compiler": {
    "name": "solc",
    "version": "0.4.23+commit.124ca40d.Emscripten.clang"
  },
  "schemaVersion": "2.0.0",
  "updatedAt": "2018-05-31T07:34:55.281Z"
}