{
  "contractName": "OpenJournal",
  "abi": [
    {
      "constant": true,
      "inputs": [],
      "name": "name",
      "outputs": [
        {
          "name": "",
          "type": "string"
        }
      ],
      "payable": false,
      "stateMutability": "view",
      "type": "function"
    },
    {
      "constant": false,
      "inputs": [
        {
          "name": "_spender",
          "type": "address"
        },
        {
          "name": "_value",
          "type": "uint256"
        }
      ],
      "name": "approve",
      "outputs": [
        {
          "name": "success",
          "type": "bool"
        }
      ],
      "payable": false,
      "stateMutability": "nonpayable",
      "type": "function"
    },
    {
      "constant": true,
      "inputs": [],
      "name": "getOwnerAddress",
      "outputs": [
        {
          "name": "ownerAddress",
          "type": "address"
        }
      ],
      "payable": false,
      "stateMutability": "view",
      "type": "function"
    },
    {
      "constant": false,
      "inputs": [
        {
          "name": "_to",
          "type": "address"
        },
        {
          "name": "_value",
          "type": "uint256"
        }
      ],
      "name": "transferFromOwner",
      "outputs": [
        {
          "name": "success",
          "type": "bool"
        }
      ],
      "payable": false,
      "stateMutability": "nonpayable",
      "type": "function"
    },
    {
      "constant": true,
      "inputs": [],
      "name": "totalSupply",
      "outputs": [
        {
          "name": "",
          "type": "uint256"
        }
      ],
      "payable": false,
      "stateMutability": "view",
      "type": "function"
    },
    {
      "constant": true,
      "inputs": [
        {
          "name": "",
          "type": "uint256"
        }
      ],
      "name": "journals",
      "outputs": [
        {
          "name": "number",
          "type": "uint256"
        },
        {
          "name": "author",
          "type": "address"
        },
        {
          "name": "title",
          "type": "string"
        },
        {
          "name": "value",
          "type": "uint256"
        }
      ],
      "payable": false,
      "stateMutability": "view",
      "type": "function"
    },
    {
      "constant": true,
      "inputs": [
        {
          "name": "_to",
          "type": "address"
        }
      ],
      "name": "balanceOfEther",
      "outputs": [
        {
          "name": "",
          "type": "uint256"
        }
      ],
      "payable": false,
      "stateMutability": "view",
      "type": "function"
    },
    {
      "constant": false,
      "inputs": [
        {
          "name": "_value",
          "type": "uint256"
        }
      ],
      "name": "sellToken",
      "outputs": [],
      "payable": false,
      "stateMutability": "nonpayable",
      "type": "function"
    },
    {
      "constant": false,
      "inputs": [
        {
          "name": "_from",
          "type": "address"
        },
        {
          "name": "_to",
          "type": "address"
        },
        {
          "name": "_value",
          "type": "uint256"
        }
      ],
      "name": "transferFrom",
      "outputs": [
        {
          "name": "success",
          "type": "bool"
        }
      ],
      "payable": false,
      "stateMutability": "nonpayable",
      "type": "function"
    },
    {
      "constant": true,
      "inputs": [
        {
          "name": "",
          "type": "address"
        }
      ],
      "name": "balances",
      "outputs": [
        {
          "name": "",
          "type": "uint256"
        }
      ],
      "payable": false,
      "stateMutability": "view",
      "type": "function"
    },
    {
      "constant": true,
      "inputs": [],
      "name": "userNumber",
      "outputs": [
        {
          "name": "",
          "type": "uint256"
        }
      ],
      "payable": false,
      "stateMutability": "view",
      "type": "function"
    },
    {
      "constant": true,
      "inputs": [],
      "name": "rate",
      "outputs": [
        {
          "name": "",
          "type": "uint256"
        }
      ],
      "payable": false,
      "stateMutability": "view",
      "type": "function"
    },
    {
      "constant": true,
      "inputs": [],
      "name": "decimals",
      "outputs": [
        {
          "name": "",
          "type": "uint8"
        }
      ],
      "payable": false,
      "stateMutability": "view",
      "type": "function"
    },
    {
      "constant": true,
      "inputs": [],
      "name": "lowerbound_value",
      "outputs": [
        {
          "name": "",
          "type": "uint256"
        }
      ],
      "payable": false,
      "stateMutability": "view",
      "type": "function"
    },
    {
      "constant": true,
      "inputs": [
        {
          "name": "",
          "type": "address"
        },
        {
          "name": "",
          "type": "address"
        }
      ],
      "name": "allowed",
      "outputs": [
        {
          "name": "",
          "type": "uint256"
        }
      ],
      "payable": false,
      "stateMutability": "view",
      "type": "function"
    },
    {
      "constant": true,
      "inputs": [
        {
          "name": "_owner",
          "type": "address"
        }
      ],
      "name": "balanceOf",
      "outputs": [
        {
          "name": "balance",
          "type": "uint256"
        }
      ],
      "payable": false,
      "stateMutability": "view",
      "type": "function"
    },
    {
      "constant": false,
      "inputs": [],
      "name": "withdrawEther",
      "outputs": [],
      "payable": false,
      "stateMutability": "nonpayable",
      "type": "function"
    },
    {
      "constant": true,
      "inputs": [],
      "name": "owner",
      "outputs": [
        {
          "name": "",
          "type": "address"
        }
      ],
      "payable": false,
      "stateMutability": "view",
      "type": "function"
    },
    {
      "constant": true,
      "inputs": [],
      "name": "symbol",
      "outputs": [
        {
          "name": "",
          "type": "string"
        }
      ],
      "payable": false,
      "stateMutability": "view",
      "type": "function"
    },
    {
      "constant": true,
      "inputs": [],
      "name": "signUpCost",
      "outputs": [
        {
          "name": "",
          "type": "uint256"
        }
      ],
      "payable": false,
      "stateMutability": "view",
      "type": "function"
    },
    {
      "constant": false,
      "inputs": [],
      "name": "buyToken",
      "outputs": [],
      "payable": true,
      "stateMutability": "payable",
      "type": "function"
    },
    {
      "constant": false,
      "inputs": [
        {
          "name": "_newOwner",
          "type": "address"
        }
      ],
      "name": "changeOwner",
      "outputs": [],
      "payable": false,
      "stateMutability": "nonpayable",
      "type": "function"
    },
    {
      "constant": true,
      "inputs": [
        {
          "name": "",
          "type": "address"
        }
      ],
      "name": "users",
      "outputs": [
        {
          "name": "user_number",
          "type": "uint256"
        },
        {
          "name": "user_address",
          "type": "address"
        }
      ],
      "payable": false,
      "stateMutability": "view",
      "type": "function"
    },
    {
      "constant": false,
      "inputs": [
        {
          "name": "_to",
          "type": "address"
        },
        {
          "name": "_value",
          "type": "uint256"
        }
      ],
      "name": "transfer",
      "outputs": [
        {
          "name": "success",
          "type": "bool"
        }
      ],
      "payable": false,
      "stateMutability": "nonpayable",
      "type": "function"
    },
    {
      "constant": true,
      "inputs": [],
      "name": "tokenGenerationMax",
      "outputs": [
        {
          "name": "",
          "type": "uint256"
        }
      ],
      "payable": false,
      "stateMutability": "view",
      "type": "function"
    },
    {
      "constant": true,
      "inputs": [
        {
          "name": "",
          "type": "address"
        }
      ],
      "name": "mini_balances",
      "outputs": [
        {
          "name": "",
          "type": "uint256"
        }
      ],
      "payable": false,
      "stateMutability": "view",
      "type": "function"
    },
    {
      "constant": true,
      "inputs": [
        {
          "name": "",
          "type": "address"
        },
        {
          "name": "",
          "type": "uint256"
        }
      ],
      "name": "is_subscribed",
      "outputs": [
        {
          "name": "",
          "type": "bool"
        }
      ],
      "payable": false,
      "stateMutability": "view",
      "type": "function"
    },
    {
      "constant": true,
      "inputs": [
        {
          "name": "_owner",
          "type": "address"
        },
        {
          "name": "_spender",
          "type": "address"
        }
      ],
      "name": "allowance",
      "outputs": [
        {
          "name": "remaining",
          "type": "uint256"
        }
      ],
      "payable": false,
      "stateMutability": "view",
      "type": "function"
    },
    {
      "constant": true,
      "inputs": [],
      "name": "author_share",
      "outputs": [
        {
          "name": "",
          "type": "uint256"
        }
      ],
      "payable": false,
      "stateMutability": "view",
      "type": "function"
    },
    {
      "constant": true,
      "inputs": [],
      "name": "upperbound_value",
      "outputs": [
        {
          "name": "",
          "type": "uint256"
        }
      ],
      "payable": false,
      "stateMutability": "view",
      "type": "function"
    },
    {
      "inputs": [
        {
          "name": "_userNumber",
          "type": "uint256"
        },
        {
          "name": "_signUpCost",
          "type": "uint256"
        },
        {
          "name": "_upperbound_value",
          "type": "uint256"
        },
        {
          "name": "_lowerbound_value",
          "type": "uint256"
        },
        {
          "name": "_author_share",
          "type": "uint256"
        }
      ],
      "payable": false,
      "stateMutability": "nonpayable",
      "type": "constructor"
    },
    {
      "payable": true,
      "stateMutability": "payable",
      "type": "fallback"
    },
    {
      "anonymous": false,
      "inputs": [
        {
          "indexed": false,
          "name": "_user_number",
          "type": "uint256"
        },
        {
          "indexed": false,
          "name": "_user_address",
          "type": "address"
        },
        {
          "indexed": false,
          "name": "_user_subscribe_journal",
          "type": "uint256[]"
        },
        {
          "indexed": false,
          "name": "_user_regist_journal",
          "type": "uint256[]"
        }
      ],
      "name": "LogSignUp",
      "type": "event"
    },
    {
      "anonymous": false,
      "inputs": [
        {
          "indexed": false,
          "name": "_number",
          "type": "uint256"
        },
        {
          "indexed": false,
          "name": "_author",
          "type": "address"
        },
        {
          "indexed": false,
          "name": "_title",
          "type": "string"
        },
        {
          "indexed": false,
          "name": "_value",
          "type": "uint256"
        },
        {
          "indexed": false,
          "name": "_reference_journal",
          "type": "uint256[]"
        },
        {
          "indexed": false,
          "name": "_user_regist_journal",
          "type": "uint256[]"
        }
      ],
      "name": "LogRegistJournal",
      "type": "event"
    },
    {
      "anonymous": false,
      "inputs": [
        {
          "indexed": false,
          "name": "_subscriber",
          "type": "address"
        },
        {
          "indexed": false,
          "name": "_myjournals",
          "type": "uint256[]"
        },
        {
          "indexed": false,
          "name": "_subscribed",
          "type": "uint256[]"
        },
        {
          "indexed": false,
          "name": "_is_subscribed",
          "type": "bool"
        },
        {
          "indexed": false,
          "name": "_author_value",
          "type": "uint256"
        },
        {
          "indexed": false,
          "name": "_ref_value",
          "type": "uint256"
        }
      ],
      "name": "LogSubscribeJournal",
      "type": "event"
    },
    {
      "anonymous": false,
      "inputs": [
        {
          "indexed": false,
          "name": "_user_regist_journal",
          "type": "uint256[]"
        }
      ],
      "name": "LogGetUserRegistedJournals",
      "type": "event"
    },
    {
      "anonymous": false,
      "inputs": [
        {
          "indexed": false,
          "name": "_user_subscribe_journal",
          "type": "uint256"
        }
      ],
      "name": "LogGetUserSubscribedJournals",
      "type": "event"
    },
    {
      "anonymous": false,
      "inputs": [
        {
          "indexed": false,
          "name": "_number",
          "type": "uint256"
        },
        {
          "indexed": false,
          "name": "_author",
          "type": "address"
        }
      ],
      "name": "LogGetAuthorAddress",
      "type": "event"
    },
    {
      "anonymous": false,
      "inputs": [
        {
          "indexed": false,
          "name": "_number",
          "type": "uint256"
        },
        {
          "indexed": false,
          "name": "_value",
          "type": "uint256"
        }
      ],
      "name": "LogGetValue",
      "type": "event"
    },
    {
      "anonymous": false,
      "inputs": [
        {
          "indexed": false,
          "name": "_msgValue",
          "type": "uint256"
        },
        {
          "indexed": false,
          "name": "_amount",
          "type": "uint256"
        },
        {
          "indexed": false,
          "name": "_totalSupply",
          "type": "uint256"
        },
        {
          "indexed": false,
          "name": "_msgSender",
          "type": "address"
        },
        {
          "indexed": false,
          "name": "_decimals",
          "type": "uint8"
        },
        {
          "indexed": false,
          "name": "_symbol",
          "type": "string"
        }
      ],
      "name": "BuyToken",
      "type": "event"
    },
    {
      "anonymous": false,
      "inputs": [
        {
          "indexed": false,
          "name": "_msgValue",
          "type": "uint256"
        },
        {
          "indexed": false,
          "name": "_amount",
          "type": "uint256"
        },
        {
          "indexed": false,
          "name": "_totalSupply",
          "type": "uint256"
        },
        {
          "indexed": false,
          "name": "_msgSender",
          "type": "address"
        }
      ],
      "name": "SellToken",
      "type": "event"
    },
    {
      "anonymous": false,
      "inputs": [
        {
          "indexed": true,
          "name": "_from",
          "type": "address"
        },
        {
          "indexed": true,
          "name": "_to",
          "type": "address"
        },
        {
          "indexed": false,
          "name": "_value",
          "type": "uint256"
        }
      ],
      "name": "Transfer",
      "type": "event"
    },
    {
      "anonymous": false,
      "inputs": [
        {
          "indexed": true,
          "name": "_from",
          "type": "address"
        },
        {
          "indexed": true,
          "name": "_to",
          "type": "address"
        },
        {
          "indexed": false,
          "name": "_value",
          "type": "uint256"
        },
        {
          "indexed": false,
          "name": "_mini_value",
          "type": "uint256"
        }
      ],
      "name": "TransferAll",
      "type": "event"
    },
    {
      "anonymous": false,
      "inputs": [
        {
          "indexed": true,
          "name": "_owner",
          "type": "address"
        },
        {
          "indexed": true,
          "name": "_spender",
          "type": "address"
        },
        {
          "indexed": false,
          "name": "_value",
          "type": "uint256"
        }
      ],
      "name": "Approval",
      "type": "event"
    },
    {
      "constant": false,
      "inputs": [],
      "name": "signUp",
      "outputs": [
        {
          "name": "",
          "type": "bool"
        }
      ],
      "payable": false,
      "stateMutability": "nonpayable",
      "type": "function"
    },
    {
      "constant": false,
      "inputs": [
        {
          "name": "_journalNumber",
          "type": "uint256"
        },
        {
          "name": "_title",
          "type": "string"
        },
        {
          "name": "_journalValue",
          "type": "uint256"
        },
        {
          "name": "_referenceJournal",
          "type": "uint256[]"
        }
      ],
      "name": "registJournal",
      "outputs": [
        {
          "name": "",
          "type": "bool"
        }
      ],
      "payable": false,
      "stateMutability": "nonpayable",
      "type": "function"
    },
    {
      "constant": false,
      "inputs": [
        {
          "name": "_journalNumber",
          "type": "uint256"
        }
      ],
      "name": "subscribeJournal",
      "outputs": [
        {
          "name": "",
          "type": "bool"
        }
      ],
      "payable": false,
      "stateMutability": "nonpayable",
      "type": "function"
    },
    {
      "constant": true,
      "inputs": [
        {
          "name": "_journalNumber",
          "type": "uint256"
        }
      ],
      "name": "getAuthorAddress",
      "outputs": [
        {
          "name": "",
          "type": "address"
        }
      ],
      "payable": false,
      "stateMutability": "view",
      "type": "function"
    },
    {
      "constant": true,
      "inputs": [
        {
          "name": "_journalNumber",
          "type": "uint256"
        }
      ],
      "name": "getJournalTitle",
      "outputs": [
        {
          "name": "",
          "type": "string"
        }
      ],
      "payable": false,
      "stateMutability": "view",
      "type": "function"
    },
    {
      "constant": true,
      "inputs": [
        {
          "name": "_journalNumber",
          "type": "uint256"
        }
      ],
      "name": "getValue",
      "outputs": [
        {
          "name": "",
          "type": "uint256"
        }
      ],
      "payable": false,
      "stateMutability": "view",
      "type": "function"
    },
    {
      "constant": true,
      "inputs": [
        {
          "name": "_journalNumber",
          "type": "uint256"
        }
      ],
      "name": "getJournalSubscriber",
      "outputs": [
        {
          "name": "",
          "type": "uint256[]"
        }
      ],
      "payable": false,
      "stateMutability": "view",
      "type": "function"
    },
    {
      "constant": true,
      "inputs": [
        {
          "name": "_journalNumber",
          "type": "uint256"
        }
      ],
      "name": "getReferenceJournal",
      "outputs": [
        {
          "name": "",
          "type": "uint256[]"
        }
      ],
      "payable": false,
      "stateMutability": "view",
      "type": "function"
    },
    {
      "constant": true,
      "inputs": [
        {
          "name": "_journalNumber",
          "type": "uint256"
        }
      ],
      "name": "getIsSubscribedJournal",
      "outputs": [
        {
          "name": "",
          "type": "bool"
        }
      ],
      "payable": false,
      "stateMutability": "view",
      "type": "function"
    },
    {
      "constant": true,
      "inputs": [],
      "name": "getUserSubscribedJournals",
      "outputs": [
        {
          "name": "",
          "type": "uint256[]"
        }
      ],
      "payable": false,
      "stateMutability": "view",
      "type": "function"
    },
    {
      "constant": true,
      "inputs": [],
      "name": "getUserRegistedJournals",
      "outputs": [
        {
          "name": "",
          "type": "uint256[]"
        }
      ],
      "payable": false,
      "stateMutability": "view",
      "type": "function"
    },
    {
      "constant": true,
      "inputs": [],
      "name": "getSignupCost",
      "outputs": [
        {
          "name": "",
          "type": "uint256"
        }
      ],
      "payable": false,
      "stateMutability": "view",
      "type": "function"
    },
    {
      "constant": true,
      "inputs": [],
      "name": "getUpperboundValue",
      "outputs": [
        {
          "name": "",
          "type": "uint256"
        }
      ],
      "payable": false,
      "stateMutability": "view",
      "type": "function"
    },
    {
      "constant": true,
      "inputs": [],
      "name": "getLowerboundValue",
      "outputs": [
        {
          "name": "",
          "type": "uint256"
        }
      ],
      "payable": false,
      "stateMutability": "view",
      "type": "function"
    },
    {
      "constant": true,
      "inputs": [],
      "name": "getAuthorShare",
      "outputs": [
        {
          "name": "",
          "type": "uint256"
        }
      ],
      "payable": false,
      "stateMutability": "view",
      "type": "function"
    },
    {
      "constant": false,
      "inputs": [
        {
          "name": "_signUpCost",
          "type": "uint256"
        }
      ],
      "name": "setSignupCost",
      "outputs": [],
      "payable": false,
      "stateMutability": "nonpayable",
      "type": "function"
    },
    {
      "constant": false,
      "inputs": [
        {
          "name": "_upperbound_value",
          "type": "uint256"
        }
      ],
      "name": "setUpperboundValue",
      "outputs": [],
      "payable": false,
      "stateMutability": "nonpayable",
      "type": "function"
    },
    {
      "constant": false,
      "inputs": [
        {
          "name": "_lowerbound_value",
          "type": "uint256"
        }
      ],
      "name": "setLowerboundValue",
      "outputs": [],
      "payable": false,
      "stateMutability": "nonpayable",
      "type": "function"
    },
    {
      "constant": false,
      "inputs": [
        {
          "name": "_author_share",
          "type": "uint256"
        }
      ],
      "name": "setAuthorShare",
      "outputs": [],
      "payable": false,
      "stateMutability": "nonpayable",
      "type": "function"
    }
  ],
  "bytecode": "0x60806040523480156200001157600080fd5b5060405160a08062003ca483398101806040528101908080519060200190929190805190602001909291908051906020019092919080519060200190929190805190602001909291905050506103e86040805190810160405280600781526020017f4f4a546f6b656e0000000000000000000000000000000000000000000000000081525060126040805190810160405280600281526020017f4f4a00000000000000000000000000000000000000000000000000000000000081525033600160006101000a81548173ffffffffffffffffffffffffffffffffffffffff021916908373ffffffffffffffffffffffffffffffffffffffff16021790555033600860006101000a81548173ffffffffffffffffffffffffffffffffffffffff021916908373ffffffffffffffffffffffffffffffffffffffff160217905550826005908051906020019062000168929190620002c0565b50806007908051906020019062000181929190620002c0565b5081600660006101000a81548160ff021916908360ff160217905550620001d5600660009054906101000a900460ff1660ff16600a0a856200028a6401000000000262003782179091906401000000009004565b600081905550600054600260003373ffffffffffffffffffffffffffffffffffffffff1673ffffffffffffffffffffffffffffffffffffffff168152602001908152602001600020819055505050505084600c8190555062000264600660009054906101000a900460ff1660ff16600a0a856200028a6401000000000262003782179091906401000000009004565b600d8190555082600e8190555081600f819055508060108190555050505050506200036f565b60008082840290506000841480620002ad5750828482811515620002aa57fe5b04145b1515620002b657fe5b8091505092915050565b828054600181600116156101000203166002900490600052602060002090601f016020900481019282601f106200030357805160ff191683800117855562000334565b8280016001018555821562000334579182015b828111156200033357825182559160200191906001019062000316565b5b50905062000343919062000347565b5090565b6200036c91905b80821115620003685760008160009055506001016200034e565b5090565b90565b613925806200037f6000396000f300608060405260043610610251576000357c0100000000000000000000000000000000000000000000000000000000900463ffffffff16806306fdde031461025b578063095ea7b3146102eb5780630c4f65bd146103505780630ec8e9b7146103a75780630f18ac07146103ec5780630ff4c9161461045157806312aa10b214610492578063146753401461056a57806318160ddd14610595578063197cc19e146105c057806321114904146106a75780632397e4d7146106fe57806323b872dd1461072b57806327e235e3146107b05780632b4e8413146108075780632c4e722e14610832578063313ce5671461085d5780634670ee2f1461088e57806352ca6b56146108fa578063563620b5146109255780635c658165146109525780635e676f5a146109c957806364a9408d146109f65780636ea7d1a314610a7857806370a0823114610b1e5780637362377b14610b75578063768d13fe14610b8c57806381701e0f14610bb75780638da5cb5b14610bfc57806395d89b4114610c5357806397a0998014610ce35780639838992214610d105780639e9378cc14610d7c5780639f37351714610da7578063a482171914610dd2578063a5b5dd9814610ddc578063a6f9dae114610e5e578063a87430ba14610ea1578063a9059cbb14610f2b578063ac7b481d14610f90578063b57e6ea114610ffd578063ba9ce9e614611028578063bf96ae631461107f578063c1a20d7c146110ae578063c1f9c930146110d9578063dd62ed3e1461113e578063ed8f430a146111b5578063f23c081b146111e0578063f2e56fce1461120b575b610259611238565b005b34801561026757600080fd5b50610270611462565b6040518080602001828103825283818151815260200191508051906020019080838360005b838110156102b0578082015181840152602081019050610295565b50505050905090810190601f1680156102dd5780820380516001836020036101000a031916815260200191505b509250505060405180910390f35b3480156102f757600080fd5b50610336600480360381019080803573ffffffffffffffffffffffffffffffffffffffff16906020019092919080359060200190929190505050611500565b604051808215151515815260200191505060405180910390f35b34801561035c57600080fd5b506103656115f2565b604051808273ffffffffffffffffffffffffffffffffffffffff1673ffffffffffffffffffffffffffffffffffffffff16815260200191505060405180910390f35b3480156103b357600080fd5b506103d26004803603810190808035906020019092919050505061161c565b604051808215151515815260200191505060405180910390f35b3480156103f857600080fd5b50610437600480360381019080803573ffffffffffffffffffffffffffffffffffffffff16906020019092919080359060200190929190505050611b89565b604051808215151515815260200191505060405180910390f35b34801561045d57600080fd5b5061047c60048036038101908080359060200190929190505050611dfa565b6040518082815260200191505060405180910390f35b34801561049e57600080fd5b5061055060048036038101908080359060200190929190803590602001908201803590602001908080601f01602080910402602001604051908101604052809392919081815260200183838082843782019150505050505091929192908035906020019092919080359060200190820180359060200190808060200260200160405190810160405280939291908181526020018383602002808284378201915050505050509192919290505050611e1a565b604051808215151515815260200191505060405180910390f35b34801561057657600080fd5b5061057f61227a565b6040518082815260200191505060405180910390f35b3480156105a157600080fd5b506105aa612284565b6040518082815260200191505060405180910390f35b3480156105cc57600080fd5b506105eb6004803603810190808035906020019092919050505061228a565b604051808581526020018473ffffffffffffffffffffffffffffffffffffffff1673ffffffffffffffffffffffffffffffffffffffff16815260200180602001838152602001828103825284818151815260200191508051906020019080838360005b8381101561066957808201518184015260208101905061064e565b50505050905090810190601f1680156106965780820380516001836020036101000a031916815260200191505b509550505050505060405180910390f35b3480156106b357600080fd5b506106e8600480360381019080803573ffffffffffffffffffffffffffffffffffffffff169060200190929190505050612372565b6040518082815260200191505060405180910390f35b34801561070a57600080fd5b5061072960048036038101908080359060200190929190505050612393565b005b34801561073757600080fd5b50610796600480360381019080803573ffffffffffffffffffffffffffffffffffffffff169060200190929190803573ffffffffffffffffffffffffffffffffffffffff16906020019092919080359060200190929190505050612586565b604051808215151515815260200191505060405180910390f35b3480156107bc57600080fd5b506107f1600480360381019080803573ffffffffffffffffffffffffffffffffffffffff169060200190929190505050612935565b6040518082815260200191505060405180910390f35b34801561081357600080fd5b5061081c61294d565b6040518082815260200191505060405180910390f35b34801561083e57600080fd5b50610847612953565b6040518082815260200191505060405180910390f35b34801561086957600080fd5b50610872612959565b604051808260ff1660ff16815260200191505060405180910390f35b34801561089a57600080fd5b506108a361296c565b6040518080602001828103825283818151815260200191508051906020019060200280838360005b838110156108e65780820151818401526020810190506108cb565b505050509050019250505060405180910390f35b34801561090657600080fd5b5061090f612a04565b6040518082815260200191505060405180910390f35b34801561093157600080fd5b5061095060048036038101908080359060200190929190505050612a0a565b005b34801561095e57600080fd5b506109b3600480360381019080803573ffffffffffffffffffffffffffffffffffffffff169060200190929190803573ffffffffffffffffffffffffffffffffffffffff169060200190929190505050612a70565b6040518082815260200191505060405180910390f35b3480156109d557600080fd5b506109f460048036038101908080359060200190929190505050612a95565b005b348015610a0257600080fd5b50610a2160048036038101908080359060200190929190505050612afb565b6040518080602001828103825283818151815260200191508051906020019060200280838360005b83811015610a64578082015181840152602081019050610a49565b505050509050019250505060405180910390f35b348015610a8457600080fd5b50610aa360048036038101908080359060200190929190505050612b69565b6040518080602001828103825283818151815260200191508051906020019080838360005b83811015610ae3578082015181840152602081019050610ac8565b50505050905090810190601f168015610b105780820380516001836020036101000a031916815260200191505b509250505060405180910390f35b348015610b2a57600080fd5b50610b5f600480360381019080803573ffffffffffffffffffffffffffffffffffffffff169060200190929190505050612c21565b6040518082815260200191505060405180910390f35b348015610b8157600080fd5b50610b8a612c6a565b005b348015610b9857600080fd5b50610ba1612d48565b6040518082815260200191505060405180910390f35b348015610bc357600080fd5b50610be260048036038101908080359060200190929190505050612d52565b604051808215151515815260200191505060405180910390f35b348015610c0857600080fd5b50610c11612db9565b604051808273ffffffffffffffffffffffffffffffffffffffff1673ffffffffffffffffffffffffffffffffffffffff16815260200191505060405180910390f35b348015610c5f57600080fd5b50610c68612ddf565b6040518080602001828103825283818151815260200191508051906020019080838360005b83811015610ca8578082015181840152602081019050610c8d565b50505050905090810190601f168015610cd55780820380516001836020036101000a031916815260200191505b509250505060405180910390f35b348015610cef57600080fd5b50610d0e60048036038101908080359060200190929190505050612e7d565b005b348015610d1c57600080fd5b50610d25612ee3565b6040518080602001828103825283818151815260200191508051906020019060200280838360005b83811015610d68578082015181840152602081019050610d4d565b505050509050019250505060405180910390f35b348015610d8857600080fd5b50610d91612f7b565b6040518082815260200191505060405180910390f35b348015610db357600080fd5b50610dbc612f81565b6040518082815260200191505060405180910390f35b610dda611238565b005b348015610de857600080fd5b50610e0760048036038101908080359060200190929190505050612f8b565b6040518080602001828103825283818151815260200191508051906020019060200280838360005b83811015610e4a578082015181840152602081019050610e2f565b505050509050019250505060405180910390f35b348015610e6a57600080fd5b50610e9f600480360381019080803573ffffffffffffffffffffffffffffffffffffffff169060200190929190505050612ff9565b005b348015610ead57600080fd5b50610ee2600480360381019080803573ffffffffffffffffffffffffffffffffffffffff169060200190929190505050613099565b604051808381526020018273ffffffffffffffffffffffffffffffffffffffff1673ffffffffffffffffffffffffffffffffffffffff1681526020019250505060405180910390f35b348015610f3757600080fd5b50610f76600480360381019080803573ffffffffffffffffffffffffffffffffffffffff169060200190929190803590602001909291905050506130dd565b604051808215151515815260200191505060405180910390f35b348015610f9c57600080fd5b50610fbb600480360381019080803590602001909291905050506132c6565b604051808273ffffffffffffffffffffffffffffffffffffffff1673ffffffffffffffffffffffffffffffffffffffff16815260200191505060405180910390f35b34801561100957600080fd5b50611012613306565b6040518082815260200191505060405180910390f35b34801561103457600080fd5b50611069600480360381019080803573ffffffffffffffffffffffffffffffffffffffff169060200190929190505050613324565b6040518082815260200191505060405180910390f35b34801561108b57600080fd5b5061109461333c565b604051808215151515815260200191505060405180910390f35b3480156110ba57600080fd5b506110c3613650565b6040518082815260200191505060405180910390f35b3480156110e557600080fd5b50611124600480360381019080803573ffffffffffffffffffffffffffffffffffffffff1690602001909291908035906020019092919050505061365a565b604051808215151515815260200191505060405180910390f35b34801561114a57600080fd5b5061119f600480360381019080803573ffffffffffffffffffffffffffffffffffffffff169060200190929190803573ffffffffffffffffffffffffffffffffffffffff169060200190929190505050613689565b6040518082815260200191505060405180910390f35b3480156111c157600080fd5b506111ca613710565b6040518082815260200191505060405180910390f35b3480156111ec57600080fd5b506111f5613716565b6040518082815260200191505060405180910390f35b34801561121757600080fd5b506112366004803603810190808035906020019092919050505061371c565b005b6000803411151561124857600080fd5b61125d6127103461378290919063ffffffff16565b90506112b181600260003373ffffffffffffffffffffffffffffffffffffffff1673ffffffffffffffffffffffffffffffffffffffff168152602001908152602001600020546137b590919063ffffffff16565b600260003373ffffffffffffffffffffffffffffffffffffffff1673ffffffffffffffffffffffffffffffffffffffff16815260200190815260200160002081905550611309816000546137b590919063ffffffff16565b600081905550600660009054906101000a900460ff1660ff16600a0a62989680026000541115151561133a57600080fd5b7f712a7c91acc43a1321298fb00af337b26e06f3905018f430338ea13df04e7db6348260005433600660009054906101000a900460ff166007604051808781526020018681526020018581526020018473ffffffffffffffffffffffffffffffffffffffff1673ffffffffffffffffffffffffffffffffffffffff1681526020018360ff1660ff1681526020018060200182810382528381815460018160011615610100020316600290048152602001915080546001816001161561010002031660029004801561144c5780601f106114215761010080835404028352916020019161144c565b820191906000526020600020905b81548152906001019060200180831161142f57829003601f168201915b505097505050505050505060405180910390a150565b60058054600181600116156101000203166002900480601f0160208091040260200160405190810160405280929190818152602001828054600181600116156101000203166002900480156114f85780601f106114cd576101008083540402835291602001916114f8565b820191906000526020600020905b8154815290600101906020018083116114db57829003601f168201915b505050505081565b600081600460003373ffffffffffffffffffffffffffffffffffffffff1673ffffffffffffffffffffffffffffffffffffffff16815260200190815260200160002060008573ffffffffffffffffffffffffffffffffffffffff1673ffffffffffffffffffffffffffffffffffffffff168152602001908152602001600020819055508273ffffffffffffffffffffffffffffffffffffffff163373ffffffffffffffffffffffffffffffffffffffff167f8c5be1e5ebec7d5bd14f71427d1e84f3dd0314c0f7b2291e5b200ac8c7c3b925846040518082815260200191505060405180910390a36001905092915050565b6000600160009054906101000a900473ffffffffffffffffffffffffffffffffffffffff16905090565b60008060008060008060008060001515600b60003373ffffffffffffffffffffffffffffffffffffffff1673ffffffffffffffffffffffffffffffffffffffff16815260200190815260200160002060008b815260200190815260200160002060009054906101000a900460ff16151514151561169857600080fd5b600960008a815260200190815260200160002060050180549050925060008314156116db57600960008a8152602001908152602001600020600301549650611820565b611719606461170b601054600960008e81526020019081526020016000206003015461378290919063ffffffff16565b6137d390919063ffffffff16565b965061174487600960008c8152602001908152602001600020600301546137ee90919063ffffffff16565b955061175983876137d390919063ffffffff16565b945061176e838661378290919063ffffffff16565b935061179561178685886137ee90919063ffffffff16565b886137b590919063ffffffff16565b9650600091505b8282101561181f5761181160096000600960008d8152602001908152602001600020600501858154811015156117ce57fe5b9060005260206000200154815260200190815260200160002060010160009054906101000a900473ffffffffffffffffffffffffffffffffffffffff16866130dd565b50818060010192505061179c565b5b611860600960008b815260200190815260200160002060010160009054906101000a900473ffffffffffffffffffffffffffffffffffffffff16886130dd565b50600a60003373ffffffffffffffffffffffffffffffffffffffff1673ffffffffffffffffffffffffffffffffffffffff168152602001908152602001600020600001549050600a60003373ffffffffffffffffffffffffffffffffffffffff1673ffffffffffffffffffffffffffffffffffffffff168152602001908152602001600020600201899080600181540180825580915050906001820390600052602060002001600090919290919091505550600960008a81526020019081526020016000206004018190806001815401808255809150509060018203906000526020600020016000909192909190915055506001600b60003373ffffffffffffffffffffffffffffffffffffffff1673ffffffffffffffffffffffffffffffffffffffff16815260200190815260200160002060008b815260200190815260200160002060006101000a81548160ff0219169083151502179055507f79e05d30e4f1714bc1dfc35894cf13b7c22c628914f491dbca6c7a0662c6f39a33600a60003373ffffffffffffffffffffffffffffffffffffffff1673ffffffffffffffffffffffffffffffffffffffff168152602001908152602001600020600201600960008d8152602001908152602001600020600401600b60003373ffffffffffffffffffffffffffffffffffffffff1673ffffffffffffffffffffffffffffffffffffffff16815260200190815260200160002060008e815260200190815260200160002060009054906101000a900460ff168b8a604051808773ffffffffffffffffffffffffffffffffffffffff1673ffffffffffffffffffffffffffffffffffffffff1681526020018060200180602001861515151581526020018581526020018481526020018381038352888181548152602001915080548015611b2657602002820191906000526020600020905b815481526020019060010190808311611b12575b50508381038252878181548152602001915080548015611b6557602002820191906000526020600020905b815481526020019060010190808311611b51575b50509850505050505050505060405180910390a16001975050505050505050919050565b60008160026000600860009054906101000a900473ffffffffffffffffffffffffffffffffffffffff1673ffffffffffffffffffffffffffffffffffffffff1673ffffffffffffffffffffffffffffffffffffffff1681526020019081526020016000205410151515611bfb57600080fd5b611c6f8260026000600860009054906101000a900473ffffffffffffffffffffffffffffffffffffffff1673ffffffffffffffffffffffffffffffffffffffff1673ffffffffffffffffffffffffffffffffffffffff168152602001908152602001600020546137ee90919063ffffffff16565b60026000600860009054906101000a900473ffffffffffffffffffffffffffffffffffffffff1673ffffffffffffffffffffffffffffffffffffffff1673ffffffffffffffffffffffffffffffffffffffff16815260200190815260200160002081905550611d2682600260008673ffffffffffffffffffffffffffffffffffffffff1673ffffffffffffffffffffffffffffffffffffffff168152602001908152602001600020546137b590919063ffffffff16565b600260008573ffffffffffffffffffffffffffffffffffffffff1673ffffffffffffffffffffffffffffffffffffffff168152602001908152602001600020819055508273ffffffffffffffffffffffffffffffffffffffff16600860009054906101000a900473ffffffffffffffffffffffffffffffffffffffff1673ffffffffffffffffffffffffffffffffffffffff167fddf252ad1be2c89b69c2b068fc378daa952ba7f163c4a11628f55a4df523b3ef846040518082815260200191505060405180910390a36001905092915050565b600060096000838152602001908152602001600020600301549050919050565b600080600e548411158015611e315750600f548410155b1515611e3c57600080fd5b60c0604051908101604052808781526020013373ffffffffffffffffffffffffffffffffffffffff168152602001868152602001611e98600660009054906101000a900460ff1660ff16600a0a8761378290919063ffffffff16565b81526020016000604051908082528060200260200182016040528015611ecd5781602001602082028038833980820191505090505b5081526020016000604051908082528060200260200182016040528015611f035781602001602082028038833980820191505090505b50815250600960008881526020019081526020016000206000820151816000015560208201518160010160006101000a81548173ffffffffffffffffffffffffffffffffffffffff021916908373ffffffffffffffffffffffffffffffffffffffff1602179055506040820151816002019080519060200190611f87929190613807565b50606082015181600301556080820151816004019080519060200190611fae929190613887565b5060a0820151816005019080519060200190611fcb929190613887565b50905050600090505b825181101561203f5760096000878152602001908152602001600020600501838281518110151561200157fe5b906020019060200201519080600181540180825580915050906001820390600052602060002001600090919290919091505550806001019050611fd4565b600a60003373ffffffffffffffffffffffffffffffffffffffff1673ffffffffffffffffffffffffffffffffffffffff1681526020019081526020016000206003018690806001815401808255809150509060018203906000526020600020016000909192909190915055507f1ba346c2b9ba06b8ecf1ac3daccb73c61a48c7ed5816c424456d395629b1804c86338787600960008c8152602001908152602001600020600501600a60003373ffffffffffffffffffffffffffffffffffffffff1673ffffffffffffffffffffffffffffffffffffffff168152602001908152602001600020600301604051808781526020018673ffffffffffffffffffffffffffffffffffffffff1673ffffffffffffffffffffffffffffffffffffffff168152602001806020018581526020018060200180602001848103845288818151815260200191508051906020019080838360005b838110156121ae578082015181840152602081019050612193565b50505050905090810190601f1680156121db5780820380516001836020036101000a031916815260200191505b50848103835286818154815260200191508054801561221957602002820191906000526020600020905b815481526020019060010190808311612205575b5050848103825285818154815260200191508054801561225857602002820191906000526020600020905b815481526020019060010190808311612244575b5050995050505050505050505060405180910390a16001915050949350505050565b6000600e54905090565b60005481565b60096020528060005260406000206000915090508060000154908060010160009054906101000a900473ffffffffffffffffffffffffffffffffffffffff1690806002018054600181600116156101000203166002900480601f0160208091040260200160405190810160405280929190818152602001828054600181600116156101000203166002900480156123625780601f1061233757610100808354040283529160200191612362565b820191906000526020600020905b81548152906001019060200180831161234557829003601f168201915b5050505050908060030154905084565b60008173ffffffffffffffffffffffffffffffffffffffff16319050919050565b600081600260003373ffffffffffffffffffffffffffffffffffffffff1673ffffffffffffffffffffffffffffffffffffffff16815260200190815260200160002054101580156123e657508160005410155b80156123f3575060008214155b15156123fe57600080fd5b612413612710836137d390919063ffffffff16565b905061246782600260003373ffffffffffffffffffffffffffffffffffffffff1673ffffffffffffffffffffffffffffffffffffffff168152602001908152602001600020546137ee90919063ffffffff16565b600260003373ffffffffffffffffffffffffffffffffffffffff1673ffffffffffffffffffffffffffffffffffffffff168152602001908152602001600020819055506124bf826000546137ee90919063ffffffff16565b6000819055503373ffffffffffffffffffffffffffffffffffffffff166108fc829081150290604051600060405180830381858888f19350505050151561250557600080fd5b7f241e6666a37e994e9acf140190540c74190f1be9cbe04c868d62d91ee0b92883828260005433604051808581526020018481526020018381526020018273ffffffffffffffffffffffffffffffffffffffff1673ffffffffffffffffffffffffffffffffffffffff16815260200194505050505060405180910390a15050565b600080600460008673ffffffffffffffffffffffffffffffffffffffff1673ffffffffffffffffffffffffffffffffffffffff16815260200190815260200160002060003373ffffffffffffffffffffffffffffffffffffffff1673ffffffffffffffffffffffffffffffffffffffff16815260200190815260200160002054905082600260008773ffffffffffffffffffffffffffffffffffffffff1673ffffffffffffffffffffffffffffffffffffffff16815260200190815260200160002054101580156126575750828110155b151561266257600080fd5b6126b483600260008773ffffffffffffffffffffffffffffffffffffffff1673ffffffffffffffffffffffffffffffffffffffff168152602001908152602001600020546137b590919063ffffffff16565b600260008673ffffffffffffffffffffffffffffffffffffffff1673ffffffffffffffffffffffffffffffffffffffff1681526020019081526020016000208190555061274983600260008873ffffffffffffffffffffffffffffffffffffffff1673ffffffffffffffffffffffffffffffffffffffff168152602001908152602001600020546137ee90919063ffffffff16565b600260008773ffffffffffffffffffffffffffffffffffffffff1673ffffffffffffffffffffffffffffffffffffffff168152602001908152602001600020819055507fffffffffffffffffffffffffffffffffffffffffffffffffffffffffffffffff8110156128c45761284383600460008873ffffffffffffffffffffffffffffffffffffffff1673ffffffffffffffffffffffffffffffffffffffff16815260200190815260200160002060003373ffffffffffffffffffffffffffffffffffffffff1673ffffffffffffffffffffffffffffffffffffffff168152602001908152602001600020546137ee90919063ffffffff16565b600460008773ffffffffffffffffffffffffffffffffffffffff1673ffffffffffffffffffffffffffffffffffffffff16815260200190815260200160002060003373ffffffffffffffffffffffffffffffffffffffff1673ffffffffffffffffffffffffffffffffffffffff168152602001908152602001600020819055505b8373ffffffffffffffffffffffffffffffffffffffff168573ffffffffffffffffffffffffffffffffffffffff167fddf252ad1be2c89b69c2b068fc378daa952ba7f163c4a11628f55a4df523b3ef856040518082815260200191505060405180910390a360019150509392505050565b60026020528060005260406000206000915090505481565b600c5481565b61271081565b600660009054906101000a900460ff1681565b6060600a60003373ffffffffffffffffffffffffffffffffffffffff1673ffffffffffffffffffffffffffffffffffffffff1681526020019081526020016000206003018054806020026020016040519081016040528092919081815260200182805480156129fa57602002820191906000526020600020905b8154815260200190600101908083116129e6575b5050505050905090565b600f5481565b600160009054906101000a900473ffffffffffffffffffffffffffffffffffffffff1673ffffffffffffffffffffffffffffffffffffffff163373ffffffffffffffffffffffffffffffffffffffff16141515612a6657600080fd5b80600d8190555050565b6004602052816000526040600020602052806000526040600020600091509150505481565b600160009054906101000a900473ffffffffffffffffffffffffffffffffffffffff1673ffffffffffffffffffffffffffffffffffffffff163373ffffffffffffffffffffffffffffffffffffffff16141515612af157600080fd5b80600e8190555050565b606060096000838152602001908152602001600020600501805480602002602001604051908101604052809291908181526020018280548015612b5d57602002820191906000526020600020905b815481526020019060010190808311612b49575b50505050509050919050565b6060600960008381526020019081526020016000206002018054600181600116156101000203166002900480601f016020809104026020016040519081016040528092919081815260200182805460018160011615610100020316600290048015612c155780601f10612bea57610100808354040283529160200191612c15565b820191906000526020600020905b815481529060010190602001808311612bf857829003601f168201915b50505050509050919050565b6000600260008373ffffffffffffffffffffffffffffffffffffffff1673ffffffffffffffffffffffffffffffffffffffff168152602001908152602001600020549050919050565b600160009054906101000a900473ffffffffffffffffffffffffffffffffffffffff1673ffffffffffffffffffffffffffffffffffffffff163373ffffffffffffffffffffffffffffffffffffffff16141515612cc657600080fd5b600860009054906101000a900473ffffffffffffffffffffffffffffffffffffffff1673ffffffffffffffffffffffffffffffffffffffff166108fc3073ffffffffffffffffffffffffffffffffffffffff16319081150290604051600060405180830381858888f19350505050158015612d45573d6000803e3d6000fd5b50565b6000600f54905090565b6000600b60003373ffffffffffffffffffffffffffffffffffffffff1673ffffffffffffffffffffffffffffffffffffffff168152602001908152602001600020600083815260200190815260200160002060009054906101000a900460ff169050919050565b600860009054906101000a900473ffffffffffffffffffffffffffffffffffffffff1681565b60078054600181600116156101000203166002900480601f016020809104026020016040519081016040528092919081815260200182805460018160011615610100020316600290048015612e755780601f10612e4a57610100808354040283529160200191612e75565b820191906000526020600020905b815481529060010190602001808311612e5857829003601f168201915b505050505081565b600160009054906101000a900473ffffffffffffffffffffffffffffffffffffffff1673ffffffffffffffffffffffffffffffffffffffff163373ffffffffffffffffffffffffffffffffffffffff16141515612ed957600080fd5b80600f8190555050565b6060600a60003373ffffffffffffffffffffffffffffffffffffffff1673ffffffffffffffffffffffffffffffffffffffff168152602001908152602001600020600201805480602002602001604051908101604052809291908181526020018280548015612f7157602002820191906000526020600020905b815481526020019060010190808311612f5d575b5050505050905090565b600d5481565b6000601054905090565b606060096000838152602001908152602001600020600401805480602002602001604051908101604052809291908181526020018280548015612fed57602002820191906000526020600020905b815481526020019060010190808311612fd9575b50505050509050919050565b600160009054906101000a900473ffffffffffffffffffffffffffffffffffffffff1673ffffffffffffffffffffffffffffffffffffffff163373ffffffffffffffffffffffffffffffffffffffff1614151561305557600080fd5b80600160006101000a81548173ffffffffffffffffffffffffffffffffffffffff021916908373ffffffffffffffffffffffffffffffffffffffff16021790555050565b600a6020528060005260406000206000915090508060000154908060010160009054906101000a900473ffffffffffffffffffffffffffffffffffffffff16905082565b600081600260003373ffffffffffffffffffffffffffffffffffffffff1673ffffffffffffffffffffffffffffffffffffffff168152602001908152602001600020541015151561312d57600080fd5b61317f82600260003373ffffffffffffffffffffffffffffffffffffffff1673ffffffffffffffffffffffffffffffffffffffff168152602001908152602001600020546137ee90919063ffffffff16565b600260003373ffffffffffffffffffffffffffffffffffffffff1673ffffffffffffffffffffffffffffffffffffffff1681526020019081526020016000208190555061321482600260008673ffffffffffffffffffffffffffffffffffffffff1673ffffffffffffffffffffffffffffffffffffffff168152602001908152602001600020546137b590919063ffffffff16565b600260008573ffffffffffffffffffffffffffffffffffffffff1673ffffffffffffffffffffffffffffffffffffffff168152602001908152602001600020819055508273ffffffffffffffffffffffffffffffffffffffff163373ffffffffffffffffffffffffffffffffffffffff167fddf252ad1be2c89b69c2b068fc378daa952ba7f163c4a11628f55a4df523b3ef846040518082815260200191505060405180910390a36001905092915050565b60006009600083815260200190815260200160002060010160009054906101000a900473ffffffffffffffffffffffffffffffffffffffff169050919050565b600660009054906101000a900460ff1660ff16600a0a629896800281565b60036020528060005260406000206000915090505481565b60006133546001600c546137b590919063ffffffff16565b600c81905550608060405190810160405280600c5481526020013373ffffffffffffffffffffffffffffffffffffffff16815260200160006040519080825280602002602001820160405280156133ba5781602001602082028038833980820191505090505b50815260200160006040519080825280602002602001820160405280156133f05781602001602082028038833980820191505090505b50815250600a60003373ffffffffffffffffffffffffffffffffffffffff1673ffffffffffffffffffffffffffffffffffffffff1681526020019081526020016000206000820151816000015560208201518160010160006101000a81548173ffffffffffffffffffffffffffffffffffffffff021916908373ffffffffffffffffffffffffffffffffffffffff16021790555060408201518160020190805190602001906134a0929190613887565b5060608201518160030190805190602001906134bd929190613887565b509050506134cd33600d54611b89565b507ff8a12d67722ed57c7127e2fc35a36b6fb0395824ad00f85f565eb3addfffab48600c5433600a60003373ffffffffffffffffffffffffffffffffffffffff1673ffffffffffffffffffffffffffffffffffffffff168152602001908152602001600020600201600a60003373ffffffffffffffffffffffffffffffffffffffff1673ffffffffffffffffffffffffffffffffffffffff168152602001908152602001600020600301604051808581526020018473ffffffffffffffffffffffffffffffffffffffff1673ffffffffffffffffffffffffffffffffffffffff168152602001806020018060200183810383528581815481526020019150805480156135f857602002820191906000526020600020905b8154815260200190600101908083116135e4575b5050838103825284818154815260200191508054801561363757602002820191906000526020600020905b815481526020019060010190808311613623575b5050965050505050505060405180910390a16001905090565b6000600d54905090565b600b6020528160005260406000206020528060005260406000206000915091509054906101000a900460ff1681565b6000600460008473ffffffffffffffffffffffffffffffffffffffff1673ffffffffffffffffffffffffffffffffffffffff16815260200190815260200160002060008373ffffffffffffffffffffffffffffffffffffffff1673ffffffffffffffffffffffffffffffffffffffff16815260200190815260200160002054905092915050565b60105481565b600e5481565b600160009054906101000a900473ffffffffffffffffffffffffffffffffffffffff1673ffffffffffffffffffffffffffffffffffffffff163373ffffffffffffffffffffffffffffffffffffffff1614151561377857600080fd5b8060108190555050565b600080828402905060008414806137a357508284828115156137a057fe5b04145b15156137ab57fe5b8091505092915050565b60008082840190508381101515156137c957fe5b8091505092915050565b60008082848115156137e157fe5b0490508091505092915050565b60008282111515156137fc57fe5b818303905092915050565b828054600181600116156101000203166002900490600052602060002090601f016020900481019282601f1061384857805160ff1916838001178555613876565b82800160010185558215613876579182015b8281111561387557825182559160200191906001019061385a565b5b50905061388391906138d4565b5090565b8280548282559060005260206000209081019282156138c3579160200282015b828111156138c25782518255916020019190600101906138a7565b5b5090506138d091906138d4565b5090565b6138f691905b808211156138f25760008160009055506001016138da565b5090565b905600a165627a7a72305820f83076a280c550251ef99e860b995a367e67cd84bc59f0ab5cefc30b0eb685b90029",
  "source": "pragma solidity ^0.4.21;\n\nimport \"./Token/JournalToken.sol\";\n\ncontract OpenJournal is JournalToken(1000, \"OJToken\", 18, \"OJ\") {\n    \n    struct Journal {\n        uint256 number;\n        address author;\n        string title;\n        uint256 value;\n        uint[] subscribed;\n        uint256[] reference_journal;\n    }\n    \n    struct User {\n        uint256 user_number;                    \n        address user_address;                   \n        uint[] user_subscribe_journal;          \n        uint[] user_regist_journal;             \n    }    \n\n    mapping (uint256 => Journal) public journals;                               \n    mapping (address => User) public users;                                     \n    mapping (address => mapping (uint => bool)) public is_subscribed;           \n\n    uint256 public userNumber;               \n    uint256 public signUpCost;               \n    uint256 public upperbound_value;         \n    uint256 public lowerbound_value;         \n    uint256 public author_share;\n\n    event LogSignUp(\n        uint256 _user_number, \n        address _user_address, \n        uint[] _user_subscribe_journal,\n        uint[] _user_regist_journal\n    );  \n\n    event LogRegistJournal(\n        uint256 _number, \n        address _author, \n        string _title, \n        uint256 _value,\n        uint256[] _reference_journal,\n        uint[] _user_regist_journal\n    );  \n\n    event LogSubscribeJournal(\n        address _subscriber, \n        uint[] _myjournals, \n        uint[] _subscribed,\n        bool _is_subscribed,\n        uint256 _author_value,\n        uint256 _ref_value\n    );\n\n    event LogGetUserRegistedJournals(\n        uint[] _user_regist_journal\n    );\n\n    event LogGetUserSubscribedJournals(\n        uint _user_subscribe_journal\n    );\n\n    event LogGetAuthorAddress (\n        uint256 _number,\n        address _author\n    );\n\n    event LogGetValue (\n        uint256 _number,\n        uint256 _value\n    );\n\n    function OpenJournal(\n        uint256 _userNumber,\n        uint256 _signUpCost,\n        uint256 _upperbound_value,\n        uint256 _lowerbound_value,\n        uint256 _author_share\n    ) public {\n        userNumber = _userNumber;\n        signUpCost = _signUpCost.mul(10**uint256(decimals));        //    : signUpCost = _signUpCost.mul(10**uint256(4));\n        upperbound_value = _upperbound_value;\n        lowerbound_value = _lowerbound_value;\n        author_share = _author_share;\n    }\n\n    function signUp() public returns (bool) {\n        userNumber = userNumber.add(1);            \n        users[msg.sender] = User(\n            userNumber,\n            msg.sender,\n            new uint[](0),\n            new uint[](0)\n        );\n        transferFromOwner(msg.sender, signUpCost);   \n\n        emit LogSignUp(\n            userNumber, \n            msg.sender, \n            users[msg.sender].user_subscribe_journal, \n            users[msg.sender].user_regist_journal\n        );\n\n        return true;\n    }\n\n    function registJournal(uint256 _journalNumber, string _title, uint256 _journalValue, uint256[] _referenceJournal) public returns (bool) {\n        require(_journalValue <= upperbound_value && _journalValue >= lowerbound_value);\n    \n        journals[_journalNumber] = Journal(\n            _journalNumber,\n            msg.sender,\n            _title,\n            _journalValue.mul(10**uint256(decimals)),     //    : _journalValue.mul(10**uint256(4))\n            new uint[](0),\n            new uint256[](0)\n        );\n\n        for(uint256 ref = 0; ref <_referenceJournal.length; ++ref)\n            journals[_journalNumber].reference_journal.push(_referenceJournal[ref]);\n\n        users[msg.sender].user_regist_journal.push(_journalNumber);\n        \n        emit LogRegistJournal(\n            _journalNumber, \n            msg.sender, \n            _title, \n            _journalValue, \n            journals[_journalNumber].reference_journal,\n            users[msg.sender].user_regist_journal\n        );   \n \n        return true;    \n    }\n\n    function subscribeJournal(uint256 _journalNumber) public returns (bool){\n        require(is_subscribed[msg.sender][_journalNumber] == false); \n\n        uint256 author_token;\n        uint256 reference_token;\n        uint256 reference_each_token;\n        uint256 reference_total_token;\n        uint256 reference_num = journals[_journalNumber].reference_journal.length;\n\n        if(reference_num == 0){\n            author_token = journals[_journalNumber].value;\n        } else{\n            author_token = journals[_journalNumber].value.mul(author_share).div(100);\n            reference_token = journals[_journalNumber].value.sub(author_token);\n            reference_each_token = reference_token.div(reference_num);\n            reference_total_token = reference_each_token.mul(reference_num);\n            author_token = author_token.add(reference_token.sub(reference_total_token));\n\n            for(uint256 ref = 0; ref < reference_num; ref++)\n                transfer(journals[journals[_journalNumber].reference_journal[ref]].author, reference_each_token);                    \n        }\n\n        transfer(journals[_journalNumber].author, author_token); \n\n        uint sub_id = users[msg.sender].user_number;\n\n        users[msg.sender].user_subscribe_journal.push(_journalNumber);  \n        journals[_journalNumber].subscribed.push(sub_id);       \n        is_subscribed[msg.sender][_journalNumber] = true;\n\n        emit LogSubscribeJournal(\n            msg.sender, \n            users[msg.sender].user_subscribe_journal, \n            journals[_journalNumber].subscribed, \n            is_subscribed[msg.sender][_journalNumber],\n            author_token,\n            reference_each_token\n        );\n\n        return true;\n    }\n\n    function getAuthorAddress(uint256 _journalNumber) public view returns (address){\n        return journals[_journalNumber].author;\n    }\n\n    function getJournalTitle(uint256 _journalNumber) public view returns (string){\n        return journals[_journalNumber].title;\n    }\n\n    function getValue(uint256 _journalNumber) public view returns (uint256){\n        return journals[_journalNumber].value;\n    }\n\n    function getJournalSubscriber(uint _journalNumber) public view returns (uint[]) {\n        return journals[_journalNumber].subscribed;\n    }\n\n    function getReferenceJournal(uint _journalNumber) public view returns (uint256[]) {\n        return journals[_journalNumber].reference_journal;\n    }\n\n    function getIsSubscribedJournal(uint _journalNumber) public view returns (bool) {\n        return is_subscribed[msg.sender][_journalNumber];\n    }\n\n    function getUserSubscribedJournals() public view returns (uint[]) {\n        return users[msg.sender].user_subscribe_journal;\n    }    \n\n    function getUserRegistedJournals() public view returns (uint[]) {\n        return users[msg.sender].user_regist_journal;\n    } \n\n    function getSignupCost() public view returns (uint256) {\n        return signUpCost;\n    }\n\n    function getUpperboundValue() public view returns (uint256) {\n        return upperbound_value;\n    }\n\n    function getLowerboundValue() public view returns (uint256) {\n        return lowerbound_value;\n    }\n\n    function getAuthorShare() public view returns (uint256) {\n        return author_share;\n    }\n\n    function setSignupCost(uint256 _signUpCost) public onlyOwner{\n        signUpCost = _signUpCost;\n    }\n\n    function setUpperboundValue(uint256 _upperbound_value) public onlyOwner{\n        upperbound_value = _upperbound_value;\n    }\n\n    function setLowerboundValue(uint256 _lowerbound_value) public onlyOwner{\n        lowerbound_value = _lowerbound_value;\n    }\n\n    function setAuthorShare(uint256 _author_share) public onlyOwner{\n        author_share = _author_share;\n    } \n }\n",
  "sourcePath": "/home/hoon/captone3/2018-cap1-1/src/OpenJournal/blockchain/contracts/OpenJournal.sol",
  "compiler": {
    "name": "solc",
    "version": "0.4.24+commit.e67f0147.Emscripten.clang"
  },
  "schemaVersion": "2.0.0",
  "updatedAt": "2018-05-23T12:17:40.256Z"
}