{
  "contractName": "OpenJournal",
  "abi": [
    {
      "constant": true,
      "inputs": [],
      "name": "name",
      "outputs": [
        {
          "name": "",
          "type": "string"
        }
      ],
      "payable": false,
      "stateMutability": "view",
      "type": "function"
    },
    {
      "constant": false,
      "inputs": [
        {
          "name": "_spender",
          "type": "address"
        },
        {
          "name": "_value",
          "type": "uint256"
        }
      ],
      "name": "approve",
      "outputs": [
        {
          "name": "success",
          "type": "bool"
        }
      ],
      "payable": false,
      "stateMutability": "nonpayable",
      "type": "function"
    },
    {
      "constant": true,
      "inputs": [],
      "name": "getOwnerAddress",
      "outputs": [
        {
          "name": "ownerAddress",
          "type": "address"
        }
      ],
      "payable": false,
      "stateMutability": "view",
      "type": "function"
    },
    {
      "constant": false,
      "inputs": [
        {
          "name": "_to",
          "type": "address"
        },
        {
          "name": "_value",
          "type": "uint256"
        }
      ],
      "name": "transferFromOwner",
      "outputs": [
        {
          "name": "success",
          "type": "bool"
        }
      ],
      "payable": false,
      "stateMutability": "nonpayable",
      "type": "function"
    },
    {
      "constant": true,
      "inputs": [],
      "name": "totalSupply",
      "outputs": [
        {
          "name": "",
          "type": "uint256"
        }
      ],
      "payable": false,
      "stateMutability": "view",
      "type": "function"
    },
    {
      "constant": true,
      "inputs": [
        {
          "name": "",
          "type": "uint256"
        }
      ],
      "name": "journals",
      "outputs": [
        {
          "name": "number",
          "type": "uint256"
        },
        {
          "name": "author",
          "type": "address"
        },
        {
          "name": "title",
          "type": "string"
        },
        {
          "name": "value",
          "type": "uint256"
        }
      ],
      "payable": false,
      "stateMutability": "view",
      "type": "function"
    },
    {
      "constant": true,
      "inputs": [
        {
          "name": "_to",
          "type": "address"
        }
      ],
      "name": "balanceOfEther",
      "outputs": [
        {
          "name": "",
          "type": "uint256"
        }
      ],
      "payable": false,
      "stateMutability": "view",
      "type": "function"
    },
    {
      "constant": false,
      "inputs": [
        {
          "name": "_value",
          "type": "uint256"
        }
      ],
      "name": "sellToken",
      "outputs": [],
      "payable": false,
      "stateMutability": "nonpayable",
      "type": "function"
    },
    {
      "constant": false,
      "inputs": [
        {
          "name": "_from",
          "type": "address"
        },
        {
          "name": "_to",
          "type": "address"
        },
        {
          "name": "_value",
          "type": "uint256"
        }
      ],
      "name": "transferFrom",
      "outputs": [
        {
          "name": "success",
          "type": "bool"
        }
      ],
      "payable": false,
      "stateMutability": "nonpayable",
      "type": "function"
    },
    {
      "constant": true,
      "inputs": [
        {
          "name": "",
          "type": "address"
        }
      ],
      "name": "balances",
      "outputs": [
        {
          "name": "",
          "type": "uint256"
        }
      ],
      "payable": false,
      "stateMutability": "view",
      "type": "function"
    },
    {
      "constant": true,
      "inputs": [],
      "name": "userNumber",
      "outputs": [
        {
          "name": "",
          "type": "uint256"
        }
      ],
      "payable": false,
      "stateMutability": "view",
      "type": "function"
    },
    {
      "constant": true,
      "inputs": [],
      "name": "rate",
      "outputs": [
        {
          "name": "",
          "type": "uint256"
        }
      ],
      "payable": false,
      "stateMutability": "view",
      "type": "function"
    },
    {
      "constant": true,
      "inputs": [],
      "name": "decimals",
      "outputs": [
        {
          "name": "",
          "type": "uint8"
        }
      ],
      "payable": false,
      "stateMutability": "view",
      "type": "function"
    },
    {
      "constant": true,
      "inputs": [],
      "name": "lowerbound_value",
      "outputs": [
        {
          "name": "",
          "type": "uint256"
        }
      ],
      "payable": false,
      "stateMutability": "view",
      "type": "function"
    },
    {
      "constant": true,
      "inputs": [
        {
          "name": "",
          "type": "address"
        },
        {
          "name": "",
          "type": "address"
        }
      ],
      "name": "allowed",
      "outputs": [
        {
          "name": "",
          "type": "uint256"
        }
      ],
      "payable": false,
      "stateMutability": "view",
      "type": "function"
    },
    {
      "constant": true,
      "inputs": [
        {
          "name": "_owner",
          "type": "address"
        }
      ],
      "name": "balanceOf",
      "outputs": [
        {
          "name": "balance",
          "type": "uint256"
        }
      ],
      "payable": false,
      "stateMutability": "view",
      "type": "function"
    },
    {
      "constant": false,
      "inputs": [],
      "name": "withdrawEther",
      "outputs": [],
      "payable": false,
      "stateMutability": "nonpayable",
      "type": "function"
    },
    {
      "constant": true,
      "inputs": [],
      "name": "owner",
      "outputs": [
        {
          "name": "",
          "type": "address"
        }
      ],
      "payable": false,
      "stateMutability": "view",
      "type": "function"
    },
    {
      "constant": true,
      "inputs": [],
      "name": "symbol",
      "outputs": [
        {
          "name": "",
          "type": "string"
        }
      ],
      "payable": false,
      "stateMutability": "view",
      "type": "function"
    },
    {
      "constant": true,
      "inputs": [],
      "name": "signUpCost",
      "outputs": [
        {
          "name": "",
          "type": "uint256"
        }
      ],
      "payable": false,
      "stateMutability": "view",
      "type": "function"
    },
    {
      "constant": false,
      "inputs": [],
      "name": "buyToken",
      "outputs": [],
      "payable": true,
      "stateMutability": "payable",
      "type": "function"
    },
    {
      "constant": false,
      "inputs": [
        {
          "name": "_newOwner",
          "type": "address"
        }
      ],
      "name": "changeOwner",
      "outputs": [],
      "payable": false,
      "stateMutability": "nonpayable",
      "type": "function"
    },
    {
      "constant": true,
      "inputs": [
        {
          "name": "",
          "type": "address"
        }
      ],
      "name": "users",
      "outputs": [
        {
          "name": "user_number",
          "type": "uint256"
        },
        {
          "name": "user_address",
          "type": "address"
        }
      ],
      "payable": false,
      "stateMutability": "view",
      "type": "function"
    },
    {
      "constant": false,
      "inputs": [
        {
          "name": "_to",
          "type": "address"
        },
        {
          "name": "_value",
          "type": "uint256"
        }
      ],
      "name": "transfer",
      "outputs": [
        {
          "name": "success",
          "type": "bool"
        }
      ],
      "payable": false,
      "stateMutability": "nonpayable",
      "type": "function"
    },
    {
      "constant": true,
      "inputs": [],
      "name": "tokenGenerationMax",
      "outputs": [
        {
          "name": "",
          "type": "uint256"
        }
      ],
      "payable": false,
      "stateMutability": "view",
      "type": "function"
    },
    {
      "constant": true,
      "inputs": [
        {
          "name": "",
          "type": "address"
        },
        {
          "name": "",
          "type": "uint256"
        }
      ],
      "name": "is_subscribed",
      "outputs": [
        {
          "name": "",
          "type": "bool"
        }
      ],
      "payable": false,
      "stateMutability": "view",
      "type": "function"
    },
    {
      "constant": true,
      "inputs": [
        {
          "name": "_owner",
          "type": "address"
        },
        {
          "name": "_spender",
          "type": "address"
        }
      ],
      "name": "allowance",
      "outputs": [
        {
          "name": "remaining",
          "type": "uint256"
        }
      ],
      "payable": false,
      "stateMutability": "view",
      "type": "function"
    },
    {
      "constant": true,
      "inputs": [],
      "name": "author_share",
      "outputs": [
        {
          "name": "",
          "type": "uint256"
        }
      ],
      "payable": false,
      "stateMutability": "view",
      "type": "function"
    },
    {
      "constant": true,
      "inputs": [],
      "name": "upperbound_value",
      "outputs": [
        {
          "name": "",
          "type": "uint256"
        }
      ],
      "payable": false,
      "stateMutability": "view",
      "type": "function"
    },
    {
      "inputs": [
        {
          "name": "_userNumber",
          "type": "uint256"
        },
        {
          "name": "_signUpCost",
          "type": "uint256"
        },
        {
          "name": "_upperbound_value",
          "type": "uint256"
        },
        {
          "name": "_lowerbound_value",
          "type": "uint256"
        },
        {
          "name": "_author_share",
          "type": "uint256"
        }
      ],
      "payable": false,
      "stateMutability": "nonpayable",
      "type": "constructor"
    },
    {
      "payable": true,
      "stateMutability": "payable",
      "type": "fallback"
    },
    {
      "anonymous": false,
      "inputs": [
        {
          "indexed": false,
          "name": "_user_number",
          "type": "uint256"
        },
        {
          "indexed": false,
          "name": "_user_address",
          "type": "address"
        },
        {
          "indexed": false,
          "name": "_user_subscribe_journal",
          "type": "uint256[]"
        },
        {
          "indexed": false,
          "name": "_user_regist_journal",
          "type": "uint256[]"
        }
      ],
      "name": "LogSignUp",
      "type": "event"
    },
    {
      "anonymous": false,
      "inputs": [
        {
          "indexed": false,
          "name": "_number",
          "type": "uint256"
        },
        {
          "indexed": false,
          "name": "_author",
          "type": "address"
        },
        {
          "indexed": false,
          "name": "_title",
          "type": "string"
        },
        {
          "indexed": false,
          "name": "_value",
          "type": "uint256"
        },
        {
          "indexed": false,
          "name": "_reference_journal",
          "type": "uint256[]"
        },
        {
          "indexed": false,
          "name": "_user_regist_journal",
          "type": "uint256[]"
        }
      ],
      "name": "LogRegistJournal",
      "type": "event"
    },
    {
      "anonymous": false,
      "inputs": [
        {
          "indexed": false,
          "name": "_subscriber",
          "type": "address"
        },
        {
          "indexed": false,
          "name": "_myjournals",
          "type": "uint256[]"
        },
        {
          "indexed": false,
          "name": "_subscribed",
          "type": "uint256[]"
        },
        {
          "indexed": false,
          "name": "_is_subscribed",
          "type": "bool"
        },
        {
          "indexed": false,
          "name": "_author_value",
          "type": "uint256"
        },
        {
          "indexed": false,
          "name": "_ref_value",
          "type": "uint256"
        }
      ],
      "name": "LogSubscribeJournal",
      "type": "event"
    },
    {
      "anonymous": false,
      "inputs": [
        {
          "indexed": false,
          "name": "_user_regist_journal",
          "type": "uint256[]"
        }
      ],
      "name": "LogGetUserRegistedJournals",
      "type": "event"
    },
    {
      "anonymous": false,
      "inputs": [
        {
          "indexed": false,
          "name": "_user_subscribe_journal",
          "type": "uint256"
        }
      ],
      "name": "LogGetUserSubscribedJournals",
      "type": "event"
    },
    {
      "anonymous": false,
      "inputs": [
        {
          "indexed": false,
          "name": "_number",
          "type": "uint256"
        },
        {
          "indexed": false,
          "name": "_author",
          "type": "address"
        }
      ],
      "name": "LogGetAuthorAddress",
      "type": "event"
    },
    {
      "anonymous": false,
      "inputs": [
        {
          "indexed": false,
          "name": "_number",
          "type": "uint256"
        },
        {
          "indexed": false,
          "name": "_value",
          "type": "uint256"
        }
      ],
      "name": "LogGetValue",
      "type": "event"
    },
    {
      "anonymous": false,
      "inputs": [
        {
          "indexed": false,
          "name": "_msgValue",
          "type": "uint256"
        },
        {
          "indexed": false,
          "name": "_amount",
          "type": "uint256"
        },
        {
          "indexed": false,
          "name": "_totalSupply",
          "type": "uint256"
        },
        {
          "indexed": false,
          "name": "_msgSender",
          "type": "address"
        },
        {
          "indexed": false,
          "name": "_decimals",
          "type": "uint8"
        },
        {
          "indexed": false,
          "name": "_symbol",
          "type": "string"
        }
      ],
      "name": "BuyToken",
      "type": "event"
    },
    {
      "anonymous": false,
      "inputs": [
        {
          "indexed": false,
          "name": "_msgValue",
          "type": "uint256"
        },
        {
          "indexed": false,
          "name": "_amount",
          "type": "uint256"
        },
        {
          "indexed": false,
          "name": "_totalSupply",
          "type": "uint256"
        },
        {
          "indexed": false,
          "name": "_msgSender",
          "type": "address"
        }
      ],
      "name": "SellToken",
      "type": "event"
    },
    {
      "anonymous": false,
      "inputs": [
        {
          "indexed": true,
          "name": "_from",
          "type": "address"
        },
        {
          "indexed": true,
          "name": "_to",
          "type": "address"
        },
        {
          "indexed": false,
          "name": "_value",
          "type": "uint256"
        }
      ],
      "name": "Transfer",
      "type": "event"
    },
    {
      "anonymous": false,
      "inputs": [
        {
          "indexed": true,
          "name": "_from",
          "type": "address"
        },
        {
          "indexed": true,
          "name": "_to",
          "type": "address"
        },
        {
          "indexed": false,
          "name": "_value",
          "type": "uint256"
        },
        {
          "indexed": false,
          "name": "_mini_value",
          "type": "uint256"
        }
      ],
      "name": "TransferAll",
      "type": "event"
    },
    {
      "anonymous": false,
      "inputs": [
        {
          "indexed": true,
          "name": "_owner",
          "type": "address"
        },
        {
          "indexed": true,
          "name": "_spender",
          "type": "address"
        },
        {
          "indexed": false,
          "name": "_value",
          "type": "uint256"
        }
      ],
      "name": "Approval",
      "type": "event"
    },
    {
      "constant": false,
      "inputs": [],
      "name": "signUp",
      "outputs": [
        {
          "name": "",
          "type": "bool"
        }
      ],
      "payable": false,
      "stateMutability": "nonpayable",
      "type": "function"
    },
    {
      "constant": false,
      "inputs": [
        {
          "name": "_journalNumber",
          "type": "uint256"
        },
        {
          "name": "_title",
          "type": "string"
        },
        {
          "name": "_journalValue",
          "type": "uint256"
        },
        {
          "name": "_referenceJournal",
          "type": "uint256[]"
        }
      ],
      "name": "registJournal",
      "outputs": [
        {
          "name": "",
          "type": "bool"
        }
      ],
      "payable": false,
      "stateMutability": "nonpayable",
      "type": "function"
    },
    {
      "constant": false,
      "inputs": [
        {
          "name": "_journalNumber",
          "type": "uint256"
        }
      ],
      "name": "subscribeJournal",
      "outputs": [
        {
          "name": "",
          "type": "bool"
        }
      ],
      "payable": false,
      "stateMutability": "nonpayable",
      "type": "function"
    },
    {
      "constant": true,
      "inputs": [
        {
          "name": "_journalNumber",
          "type": "uint256"
        }
      ],
      "name": "getAuthorAddress",
      "outputs": [
        {
          "name": "",
          "type": "address"
        }
      ],
      "payable": false,
      "stateMutability": "view",
      "type": "function"
    },
    {
      "constant": true,
      "inputs": [
        {
          "name": "_journalNumber",
          "type": "uint256"
        }
      ],
      "name": "getJournalTitle",
      "outputs": [
        {
          "name": "",
          "type": "string"
        }
      ],
      "payable": false,
      "stateMutability": "view",
      "type": "function"
    },
    {
      "constant": true,
      "inputs": [
        {
          "name": "_journalNumber",
          "type": "uint256"
        }
      ],
      "name": "getValue",
      "outputs": [
        {
          "name": "",
          "type": "uint256"
        }
      ],
      "payable": false,
      "stateMutability": "view",
      "type": "function"
    },
    {
      "constant": true,
      "inputs": [
        {
          "name": "_journalNumber",
          "type": "uint256"
        }
      ],
      "name": "getJournalSubscriber",
      "outputs": [
        {
          "name": "",
          "type": "uint256[]"
        }
      ],
      "payable": false,
      "stateMutability": "view",
      "type": "function"
    },
    {
      "constant": true,
      "inputs": [
        {
          "name": "_journalNumber",
          "type": "uint256"
        }
      ],
      "name": "getReferenceJournal",
      "outputs": [
        {
          "name": "",
          "type": "uint256[]"
        }
      ],
      "payable": false,
      "stateMutability": "view",
      "type": "function"
    },
    {
      "constant": true,
      "inputs": [
        {
          "name": "_journalNumber",
          "type": "uint256"
        }
      ],
      "name": "getIsSubscribedJournal",
      "outputs": [
        {
          "name": "",
          "type": "bool"
        }
      ],
      "payable": false,
      "stateMutability": "view",
      "type": "function"
    },
    {
      "constant": true,
      "inputs": [],
      "name": "getUserSubscribedJournals",
      "outputs": [
        {
          "name": "",
          "type": "uint256[]"
        }
      ],
      "payable": false,
      "stateMutability": "view",
      "type": "function"
    },
    {
      "constant": true,
      "inputs": [],
      "name": "getUserRegistedJournals",
      "outputs": [
        {
          "name": "",
          "type": "uint256[]"
        }
      ],
      "payable": false,
      "stateMutability": "view",
      "type": "function"
    },
    {
      "constant": true,
      "inputs": [],
      "name": "getSignupCost",
      "outputs": [
        {
          "name": "",
          "type": "uint256"
        }
      ],
      "payable": false,
      "stateMutability": "view",
      "type": "function"
    },
    {
      "constant": true,
      "inputs": [],
      "name": "getUpperboundValue",
      "outputs": [
        {
          "name": "",
          "type": "uint256"
        }
      ],
      "payable": false,
      "stateMutability": "view",
      "type": "function"
    },
    {
      "constant": true,
      "inputs": [],
      "name": "getLowerboundValue",
      "outputs": [
        {
          "name": "",
          "type": "uint256"
        }
      ],
      "payable": false,
      "stateMutability": "view",
      "type": "function"
    },
    {
      "constant": true,
      "inputs": [],
      "name": "getAuthorShare",
      "outputs": [
        {
          "name": "",
          "type": "uint256"
        }
      ],
      "payable": false,
      "stateMutability": "view",
      "type": "function"
    },
    {
      "constant": false,
      "inputs": [
        {
          "name": "_signUpCost",
          "type": "uint256"
        }
      ],
      "name": "setSignupCost",
      "outputs": [],
      "payable": false,
      "stateMutability": "nonpayable",
      "type": "function"
    },
    {
      "constant": false,
      "inputs": [
        {
          "name": "_upperbound_value",
          "type": "uint256"
        }
      ],
      "name": "setUpperboundValue",
      "outputs": [],
      "payable": false,
      "stateMutability": "nonpayable",
      "type": "function"
    },
    {
      "constant": false,
      "inputs": [
        {
          "name": "_lowerbound_value",
          "type": "uint256"
        }
      ],
      "name": "setLowerboundValue",
      "outputs": [],
      "payable": false,
      "stateMutability": "nonpayable",
      "type": "function"
    },
    {
      "constant": false,
      "inputs": [
        {
          "name": "_author_share",
          "type": "uint256"
        }
      ],
      "name": "setAuthorShare",
      "outputs": [],
      "payable": false,
      "stateMutability": "nonpayable",
      "type": "function"
    }
  ],
  "bytecode": "0x60806040523480156200001157600080fd5b5060405160a08062003c2b833981018060405281019080805190602001909291908051906020019092919080519060200190929190805190602001909291908051906020019092919050505062030d406040805190810160405280600d81526020017f4a6f75726e616c20546f6b656e0000000000000000000000000000000000000081525060126040805190810160405280600281526020017f6a7400000000000000000000000000000000000000000000000000000000000081525033600160006101000a81548173ffffffffffffffffffffffffffffffffffffffff021916908373ffffffffffffffffffffffffffffffffffffffff16021790555033600760006101000a81548173ffffffffffffffffffffffffffffffffffffffff021916908373ffffffffffffffffffffffffffffffffffffffff160217905550826004908051906020019062000169929190620002c1565b50806006908051906020019062000182929190620002c1565b5081600560006101000a81548160ff021916908360ff160217905550620001d6600560009054906101000a900460ff1660ff16600a0a856200028b6401000000000262003708179091906401000000009004565b600081905550600054600260003373ffffffffffffffffffffffffffffffffffffffff1673ffffffffffffffffffffffffffffffffffffffff168152602001908152602001600020819055505050505084600b8190555062000265600560009054906101000a900460ff1660ff16600a0a856200028b6401000000000262003708179091906401000000009004565b600c8190555082600d8190555081600e8190555080600f81905550505050505062000370565b60008082840290506000841480620002ae5750828482811515620002ab57fe5b04145b1515620002b757fe5b8091505092915050565b828054600181600116156101000203166002900490600052602060002090601f016020900481019282601f106200030457805160ff191683800117855562000335565b8280016001018555821562000335579182015b828111156200033457825182559160200191906001019062000317565b5b50905062000344919062000348565b5090565b6200036d91905b80821115620003695760008160009055506001016200034f565b5090565b90565b6138ab80620003806000396000f300608060405260043610610246576000357c0100000000000000000000000000000000000000000000000000000000900463ffffffff16806306fdde0314610250578063095ea7b3146102e05780630c4f65bd146103455780630ec8e9b71461039c5780630f18ac07146103e15780630ff4c9161461044657806312aa10b214610487578063146753401461055f57806318160ddd1461058a578063197cc19e146105b5578063211149041461069c5780632397e4d7146106f357806323b872dd1461072057806327e235e3146107a55780632b4e8413146107fc5780632c4e722e14610827578063313ce567146108525780634670ee2f1461088357806352ca6b56146108ef578063563620b51461091a5780635c658165146109475780635e676f5a146109be57806364a9408d146109eb5780636ea7d1a314610a6d57806370a0823114610b135780637362377b14610b6a578063768d13fe14610b8157806381701e0f14610bac5780638da5cb5b14610bf157806395d89b4114610c4857806397a0998014610cd85780639838992214610d055780639e9378cc14610d715780639f37351714610d9c578063a482171914610dc7578063a5b5dd9814610dd1578063a6f9dae114610e53578063a87430ba14610e96578063a9059cbb14610f20578063ac7b481d14610f85578063b57e6ea114610ff2578063bf96ae631461101d578063c1a20d7c1461104c578063c1f9c93014611077578063dd62ed3e146110dc578063ed8f430a14611153578063f23c081b1461117e578063f2e56fce146111a9575b61024e6111d6565b005b34801561025c57600080fd5b50610265611400565b6040518080602001828103825283818151815260200191508051906020019080838360005b838110156102a557808201518184015260208101905061028a565b50505050905090810190601f1680156102d25780820380516001836020036101000a031916815260200191505b509250505060405180910390f35b3480156102ec57600080fd5b5061032b600480360381019080803573ffffffffffffffffffffffffffffffffffffffff1690602001909291908035906020019092919050505061149e565b604051808215151515815260200191505060405180910390f35b34801561035157600080fd5b5061035a611590565b604051808273ffffffffffffffffffffffffffffffffffffffff1673ffffffffffffffffffffffffffffffffffffffff16815260200191505060405180910390f35b3480156103a857600080fd5b506103c7600480360381019080803590602001909291905050506115ba565b604051808215151515815260200191505060405180910390f35b3480156103ed57600080fd5b5061042c600480360381019080803573ffffffffffffffffffffffffffffffffffffffff16906020019092919080359060200190929190505050611b27565b604051808215151515815260200191505060405180910390f35b34801561045257600080fd5b5061047160048036038101908080359060200190929190505050611d98565b6040518082815260200191505060405180910390f35b34801561049357600080fd5b5061054560048036038101908080359060200190929190803590602001908201803590602001908080601f01602080910402602001604051908101604052809392919081815260200183838082843782019150505050505091929192908035906020019092919080359060200190820180359060200190808060200260200160405190810160405280939291908181526020018383602002808284378201915050505050509192919290505050611db8565b604051808215151515815260200191505060405180910390f35b34801561056b57600080fd5b50610574612218565b6040518082815260200191505060405180910390f35b34801561059657600080fd5b5061059f612222565b6040518082815260200191505060405180910390f35b3480156105c157600080fd5b506105e060048036038101908080359060200190929190505050612228565b604051808581526020018473ffffffffffffffffffffffffffffffffffffffff1673ffffffffffffffffffffffffffffffffffffffff16815260200180602001838152602001828103825284818151815260200191508051906020019080838360005b8381101561065e578082015181840152602081019050610643565b50505050905090810190601f16801561068b5780820380516001836020036101000a031916815260200191505b509550505050505060405180910390f35b3480156106a857600080fd5b506106dd600480360381019080803573ffffffffffffffffffffffffffffffffffffffff169060200190929190505050612310565b6040518082815260200191505060405180910390f35b3480156106ff57600080fd5b5061071e60048036038101908080359060200190929190505050612331565b005b34801561072c57600080fd5b5061078b600480360381019080803573ffffffffffffffffffffffffffffffffffffffff169060200190929190803573ffffffffffffffffffffffffffffffffffffffff16906020019092919080359060200190929190505050612524565b604051808215151515815260200191505060405180910390f35b3480156107b157600080fd5b506107e6600480360381019080803573ffffffffffffffffffffffffffffffffffffffff1690602001909291905050506128d3565b6040518082815260200191505060405180910390f35b34801561080857600080fd5b506108116128eb565b6040518082815260200191505060405180910390f35b34801561083357600080fd5b5061083c6128f1565b6040518082815260200191505060405180910390f35b34801561085e57600080fd5b506108676128f7565b604051808260ff1660ff16815260200191505060405180910390f35b34801561088f57600080fd5b5061089861290a565b6040518080602001828103825283818151815260200191508051906020019060200280838360005b838110156108db5780820151818401526020810190506108c0565b505050509050019250505060405180910390f35b3480156108fb57600080fd5b506109046129a2565b6040518082815260200191505060405180910390f35b34801561092657600080fd5b50610945600480360381019080803590602001909291905050506129a8565b005b34801561095357600080fd5b506109a8600480360381019080803573ffffffffffffffffffffffffffffffffffffffff169060200190929190803573ffffffffffffffffffffffffffffffffffffffff169060200190929190505050612a0e565b6040518082815260200191505060405180910390f35b3480156109ca57600080fd5b506109e960048036038101908080359060200190929190505050612a33565b005b3480156109f757600080fd5b50610a1660048036038101908080359060200190929190505050612a99565b6040518080602001828103825283818151815260200191508051906020019060200280838360005b83811015610a59578082015181840152602081019050610a3e565b505050509050019250505060405180910390f35b348015610a7957600080fd5b50610a9860048036038101908080359060200190929190505050612b07565b6040518080602001828103825283818151815260200191508051906020019080838360005b83811015610ad8578082015181840152602081019050610abd565b50505050905090810190601f168015610b055780820380516001836020036101000a031916815260200191505b509250505060405180910390f35b348015610b1f57600080fd5b50610b54600480360381019080803573ffffffffffffffffffffffffffffffffffffffff169060200190929190505050612bbf565b6040518082815260200191505060405180910390f35b348015610b7657600080fd5b50610b7f612c08565b005b348015610b8d57600080fd5b50610b96612ce6565b6040518082815260200191505060405180910390f35b348015610bb857600080fd5b50610bd760048036038101908080359060200190929190505050612cf0565b604051808215151515815260200191505060405180910390f35b348015610bfd57600080fd5b50610c06612d57565b604051808273ffffffffffffffffffffffffffffffffffffffff1673ffffffffffffffffffffffffffffffffffffffff16815260200191505060405180910390f35b348015610c5457600080fd5b50610c5d612d7d565b6040518080602001828103825283818151815260200191508051906020019080838360005b83811015610c9d578082015181840152602081019050610c82565b50505050905090810190601f168015610cca5780820380516001836020036101000a031916815260200191505b509250505060405180910390f35b348015610ce457600080fd5b50610d0360048036038101908080359060200190929190505050612e1b565b005b348015610d1157600080fd5b50610d1a612e81565b6040518080602001828103825283818151815260200191508051906020019060200280838360005b83811015610d5d578082015181840152602081019050610d42565b505050509050019250505060405180910390f35b348015610d7d57600080fd5b50610d86612f19565b6040518082815260200191505060405180910390f35b348015610da857600080fd5b50610db1612f1f565b6040518082815260200191505060405180910390f35b610dcf6111d6565b005b348015610ddd57600080fd5b50610dfc60048036038101908080359060200190929190505050612f29565b6040518080602001828103825283818151815260200191508051906020019060200280838360005b83811015610e3f578082015181840152602081019050610e24565b505050509050019250505060405180910390f35b348015610e5f57600080fd5b50610e94600480360381019080803573ffffffffffffffffffffffffffffffffffffffff169060200190929190505050612f97565b005b348015610ea257600080fd5b50610ed7600480360381019080803573ffffffffffffffffffffffffffffffffffffffff169060200190929190505050613037565b604051808381526020018273ffffffffffffffffffffffffffffffffffffffff1673ffffffffffffffffffffffffffffffffffffffff1681526020019250505060405180910390f35b348015610f2c57600080fd5b50610f6b600480360381019080803573ffffffffffffffffffffffffffffffffffffffff1690602001909291908035906020019092919050505061307b565b604051808215151515815260200191505060405180910390f35b348015610f9157600080fd5b50610fb060048036038101908080359060200190929190505050613264565b604051808273ffffffffffffffffffffffffffffffffffffffff1673ffffffffffffffffffffffffffffffffffffffff16815260200191505060405180910390f35b348015610ffe57600080fd5b506110076132a4565b6040518082815260200191505060405180910390f35b34801561102957600080fd5b506110326132c2565b604051808215151515815260200191505060405180910390f35b34801561105857600080fd5b506110616135d6565b6040518082815260200191505060405180910390f35b34801561108357600080fd5b506110c2600480360381019080803573ffffffffffffffffffffffffffffffffffffffff169060200190929190803590602001909291905050506135e0565b604051808215151515815260200191505060405180910390f35b3480156110e857600080fd5b5061113d600480360381019080803573ffffffffffffffffffffffffffffffffffffffff169060200190929190803573ffffffffffffffffffffffffffffffffffffffff16906020019092919050505061360f565b6040518082815260200191505060405180910390f35b34801561115f57600080fd5b50611168613696565b6040518082815260200191505060405180910390f35b34801561118a57600080fd5b5061119361369c565b6040518082815260200191505060405180910390f35b3480156111b557600080fd5b506111d4600480360381019080803590602001909291905050506136a2565b005b600080341115156111e657600080fd5b6111fb6127103461370890919063ffffffff16565b905061124f81600260003373ffffffffffffffffffffffffffffffffffffffff1673ffffffffffffffffffffffffffffffffffffffff1681526020019081526020016000205461373b90919063ffffffff16565b600260003373ffffffffffffffffffffffffffffffffffffffff1673ffffffffffffffffffffffffffffffffffffffff168152602001908152602001600020819055506112a78160005461373b90919063ffffffff16565b600081905550600560009054906101000a900460ff1660ff16600a0a620f424002600054111515156112d857600080fd5b7f712a7c91acc43a1321298fb00af337b26e06f3905018f430338ea13df04e7db6348260005433600560009054906101000a900460ff166006604051808781526020018681526020018581526020018473ffffffffffffffffffffffffffffffffffffffff1673ffffffffffffffffffffffffffffffffffffffff1681526020018360ff1660ff168152602001806020018281038252838181546001816001161561010002031660029004815260200191508054600181600116156101000203166002900480156113ea5780601f106113bf576101008083540402835291602001916113ea565b820191906000526020600020905b8154815290600101906020018083116113cd57829003601f168201915b505097505050505050505060405180910390a150565b60048054600181600116156101000203166002900480601f0160208091040260200160405190810160405280929190818152602001828054600181600116156101000203166002900480156114965780601f1061146b57610100808354040283529160200191611496565b820191906000526020600020905b81548152906001019060200180831161147957829003601f168201915b505050505081565b600081600360003373ffffffffffffffffffffffffffffffffffffffff1673ffffffffffffffffffffffffffffffffffffffff16815260200190815260200160002060008573ffffffffffffffffffffffffffffffffffffffff1673ffffffffffffffffffffffffffffffffffffffff168152602001908152602001600020819055508273ffffffffffffffffffffffffffffffffffffffff163373ffffffffffffffffffffffffffffffffffffffff167f8c5be1e5ebec7d5bd14f71427d1e84f3dd0314c0f7b2291e5b200ac8c7c3b925846040518082815260200191505060405180910390a36001905092915050565b6000600160009054906101000a900473ffffffffffffffffffffffffffffffffffffffff16905090565b60008060008060008060008060001515600a60003373ffffffffffffffffffffffffffffffffffffffff1673ffffffffffffffffffffffffffffffffffffffff16815260200190815260200160002060008b815260200190815260200160002060009054906101000a900460ff16151514151561163657600080fd5b600860008a8152602001908152602001600020600501805490509250600083141561167957600860008a81526020019081526020016000206003015496506117be565b6116b760646116a9600f54600860008e81526020019081526020016000206003015461370890919063ffffffff16565b61375990919063ffffffff16565b96506116e287600860008c81526020019081526020016000206003015461377490919063ffffffff16565b95506116f7838761375990919063ffffffff16565b945061170c838661370890919063ffffffff16565b9350611733611724858861377490919063ffffffff16565b8861373b90919063ffffffff16565b9650600091505b828210156117bd576117af60086000600860008d81526020019081526020016000206005018581548110151561176c57fe5b9060005260206000200154815260200190815260200160002060010160009054906101000a900473ffffffffffffffffffffffffffffffffffffffff168661307b565b50818060010192505061173a565b5b6117fe600860008b815260200190815260200160002060010160009054906101000a900473ffffffffffffffffffffffffffffffffffffffff168861307b565b50600960003373ffffffffffffffffffffffffffffffffffffffff1673ffffffffffffffffffffffffffffffffffffffff168152602001908152602001600020600001549050600960003373ffffffffffffffffffffffffffffffffffffffff1673ffffffffffffffffffffffffffffffffffffffff168152602001908152602001600020600201899080600181540180825580915050906001820390600052602060002001600090919290919091505550600860008a81526020019081526020016000206004018190806001815401808255809150509060018203906000526020600020016000909192909190915055506001600a60003373ffffffffffffffffffffffffffffffffffffffff1673ffffffffffffffffffffffffffffffffffffffff16815260200190815260200160002060008b815260200190815260200160002060006101000a81548160ff0219169083151502179055507f79e05d30e4f1714bc1dfc35894cf13b7c22c628914f491dbca6c7a0662c6f39a33600960003373ffffffffffffffffffffffffffffffffffffffff1673ffffffffffffffffffffffffffffffffffffffff168152602001908152602001600020600201600860008d8152602001908152602001600020600401600a60003373ffffffffffffffffffffffffffffffffffffffff1673ffffffffffffffffffffffffffffffffffffffff16815260200190815260200160002060008e815260200190815260200160002060009054906101000a900460ff168b8a604051808773ffffffffffffffffffffffffffffffffffffffff1673ffffffffffffffffffffffffffffffffffffffff1681526020018060200180602001861515151581526020018581526020018481526020018381038352888181548152602001915080548015611ac457602002820191906000526020600020905b815481526020019060010190808311611ab0575b50508381038252878181548152602001915080548015611b0357602002820191906000526020600020905b815481526020019060010190808311611aef575b50509850505050505050505060405180910390a16001975050505050505050919050565b60008160026000600760009054906101000a900473ffffffffffffffffffffffffffffffffffffffff1673ffffffffffffffffffffffffffffffffffffffff1673ffffffffffffffffffffffffffffffffffffffff1681526020019081526020016000205410151515611b9957600080fd5b611c0d8260026000600760009054906101000a900473ffffffffffffffffffffffffffffffffffffffff1673ffffffffffffffffffffffffffffffffffffffff1673ffffffffffffffffffffffffffffffffffffffff1681526020019081526020016000205461377490919063ffffffff16565b60026000600760009054906101000a900473ffffffffffffffffffffffffffffffffffffffff1673ffffffffffffffffffffffffffffffffffffffff1673ffffffffffffffffffffffffffffffffffffffff16815260200190815260200160002081905550611cc482600260008673ffffffffffffffffffffffffffffffffffffffff1673ffffffffffffffffffffffffffffffffffffffff1681526020019081526020016000205461373b90919063ffffffff16565b600260008573ffffffffffffffffffffffffffffffffffffffff1673ffffffffffffffffffffffffffffffffffffffff168152602001908152602001600020819055508273ffffffffffffffffffffffffffffffffffffffff16600760009054906101000a900473ffffffffffffffffffffffffffffffffffffffff1673ffffffffffffffffffffffffffffffffffffffff167fddf252ad1be2c89b69c2b068fc378daa952ba7f163c4a11628f55a4df523b3ef846040518082815260200191505060405180910390a36001905092915050565b600060086000838152602001908152602001600020600301549050919050565b600080600d548411158015611dcf5750600e548410155b1515611dda57600080fd5b60c0604051908101604052808781526020013373ffffffffffffffffffffffffffffffffffffffff168152602001868152602001611e36600560009054906101000a900460ff1660ff16600a0a8761370890919063ffffffff16565b81526020016000604051908082528060200260200182016040528015611e6b5781602001602082028038833980820191505090505b5081526020016000604051908082528060200260200182016040528015611ea15781602001602082028038833980820191505090505b50815250600860008881526020019081526020016000206000820151816000015560208201518160010160006101000a81548173ffffffffffffffffffffffffffffffffffffffff021916908373ffffffffffffffffffffffffffffffffffffffff1602179055506040820151816002019080519060200190611f2592919061378d565b50606082015181600301556080820151816004019080519060200190611f4c92919061380d565b5060a0820151816005019080519060200190611f6992919061380d565b50905050600090505b8251811015611fdd57600860008781526020019081526020016000206005018382815181101515611f9f57fe5b906020019060200201519080600181540180825580915050906001820390600052602060002001600090919290919091505550806001019050611f72565b600960003373ffffffffffffffffffffffffffffffffffffffff1673ffffffffffffffffffffffffffffffffffffffff1681526020019081526020016000206003018690806001815401808255809150509060018203906000526020600020016000909192909190915055507f1ba346c2b9ba06b8ecf1ac3daccb73c61a48c7ed5816c424456d395629b1804c86338787600860008c8152602001908152602001600020600501600960003373ffffffffffffffffffffffffffffffffffffffff1673ffffffffffffffffffffffffffffffffffffffff168152602001908152602001600020600301604051808781526020018673ffffffffffffffffffffffffffffffffffffffff1673ffffffffffffffffffffffffffffffffffffffff168152602001806020018581526020018060200180602001848103845288818151815260200191508051906020019080838360005b8381101561214c578082015181840152602081019050612131565b50505050905090810190601f1680156121795780820380516001836020036101000a031916815260200191505b5084810383528681815481526020019150805480156121b757602002820191906000526020600020905b8154815260200190600101908083116121a3575b505084810382528581815481526020019150805480156121f657602002820191906000526020600020905b8154815260200190600101908083116121e2575b5050995050505050505050505060405180910390a16001915050949350505050565b6000600d54905090565b60005481565b60086020528060005260406000206000915090508060000154908060010160009054906101000a900473ffffffffffffffffffffffffffffffffffffffff1690806002018054600181600116156101000203166002900480601f0160208091040260200160405190810160405280929190818152602001828054600181600116156101000203166002900480156123005780601f106122d557610100808354040283529160200191612300565b820191906000526020600020905b8154815290600101906020018083116122e357829003601f168201915b5050505050908060030154905084565b60008173ffffffffffffffffffffffffffffffffffffffff16319050919050565b600081600260003373ffffffffffffffffffffffffffffffffffffffff1673ffffffffffffffffffffffffffffffffffffffff168152602001908152602001600020541015801561238457508160005410155b8015612391575060008214155b151561239c57600080fd5b6123b16127108361375990919063ffffffff16565b905061240582600260003373ffffffffffffffffffffffffffffffffffffffff1673ffffffffffffffffffffffffffffffffffffffff1681526020019081526020016000205461377490919063ffffffff16565b600260003373ffffffffffffffffffffffffffffffffffffffff1673ffffffffffffffffffffffffffffffffffffffff1681526020019081526020016000208190555061245d8260005461377490919063ffffffff16565b6000819055503373ffffffffffffffffffffffffffffffffffffffff166108fc829081150290604051600060405180830381858888f1935050505015156124a357600080fd5b7f241e6666a37e994e9acf140190540c74190f1be9cbe04c868d62d91ee0b92883828260005433604051808581526020018481526020018381526020018273ffffffffffffffffffffffffffffffffffffffff1673ffffffffffffffffffffffffffffffffffffffff16815260200194505050505060405180910390a15050565b600080600360008673ffffffffffffffffffffffffffffffffffffffff1673ffffffffffffffffffffffffffffffffffffffff16815260200190815260200160002060003373ffffffffffffffffffffffffffffffffffffffff1673ffffffffffffffffffffffffffffffffffffffff16815260200190815260200160002054905082600260008773ffffffffffffffffffffffffffffffffffffffff1673ffffffffffffffffffffffffffffffffffffffff16815260200190815260200160002054101580156125f55750828110155b151561260057600080fd5b61265283600260008773ffffffffffffffffffffffffffffffffffffffff1673ffffffffffffffffffffffffffffffffffffffff1681526020019081526020016000205461373b90919063ffffffff16565b600260008673ffffffffffffffffffffffffffffffffffffffff1673ffffffffffffffffffffffffffffffffffffffff168152602001908152602001600020819055506126e783600260008873ffffffffffffffffffffffffffffffffffffffff1673ffffffffffffffffffffffffffffffffffffffff1681526020019081526020016000205461377490919063ffffffff16565b600260008773ffffffffffffffffffffffffffffffffffffffff1673ffffffffffffffffffffffffffffffffffffffff168152602001908152602001600020819055507fffffffffffffffffffffffffffffffffffffffffffffffffffffffffffffffff811015612862576127e183600360008873ffffffffffffffffffffffffffffffffffffffff1673ffffffffffffffffffffffffffffffffffffffff16815260200190815260200160002060003373ffffffffffffffffffffffffffffffffffffffff1673ffffffffffffffffffffffffffffffffffffffff1681526020019081526020016000205461377490919063ffffffff16565b600360008773ffffffffffffffffffffffffffffffffffffffff1673ffffffffffffffffffffffffffffffffffffffff16815260200190815260200160002060003373ffffffffffffffffffffffffffffffffffffffff1673ffffffffffffffffffffffffffffffffffffffff168152602001908152602001600020819055505b8373ffffffffffffffffffffffffffffffffffffffff168573ffffffffffffffffffffffffffffffffffffffff167fddf252ad1be2c89b69c2b068fc378daa952ba7f163c4a11628f55a4df523b3ef856040518082815260200191505060405180910390a360019150509392505050565b60026020528060005260406000206000915090505481565b600b5481565b61271081565b600560009054906101000a900460ff1681565b6060600960003373ffffffffffffffffffffffffffffffffffffffff1673ffffffffffffffffffffffffffffffffffffffff16815260200190815260200160002060030180548060200260200160405190810160405280929190818152602001828054801561299857602002820191906000526020600020905b815481526020019060010190808311612984575b5050505050905090565b600e5481565b600160009054906101000a900473ffffffffffffffffffffffffffffffffffffffff1673ffffffffffffffffffffffffffffffffffffffff163373ffffffffffffffffffffffffffffffffffffffff16141515612a0457600080fd5b80600c8190555050565b6003602052816000526040600020602052806000526040600020600091509150505481565b600160009054906101000a900473ffffffffffffffffffffffffffffffffffffffff1673ffffffffffffffffffffffffffffffffffffffff163373ffffffffffffffffffffffffffffffffffffffff16141515612a8f57600080fd5b80600d8190555050565b606060086000838152602001908152602001600020600501805480602002602001604051908101604052809291908181526020018280548015612afb57602002820191906000526020600020905b815481526020019060010190808311612ae7575b50505050509050919050565b6060600860008381526020019081526020016000206002018054600181600116156101000203166002900480601f016020809104026020016040519081016040528092919081815260200182805460018160011615610100020316600290048015612bb35780601f10612b8857610100808354040283529160200191612bb3565b820191906000526020600020905b815481529060010190602001808311612b9657829003601f168201915b50505050509050919050565b6000600260008373ffffffffffffffffffffffffffffffffffffffff1673ffffffffffffffffffffffffffffffffffffffff168152602001908152602001600020549050919050565b600160009054906101000a900473ffffffffffffffffffffffffffffffffffffffff1673ffffffffffffffffffffffffffffffffffffffff163373ffffffffffffffffffffffffffffffffffffffff16141515612c6457600080fd5b600760009054906101000a900473ffffffffffffffffffffffffffffffffffffffff1673ffffffffffffffffffffffffffffffffffffffff166108fc3073ffffffffffffffffffffffffffffffffffffffff16319081150290604051600060405180830381858888f19350505050158015612ce3573d6000803e3d6000fd5b50565b6000600e54905090565b6000600a60003373ffffffffffffffffffffffffffffffffffffffff1673ffffffffffffffffffffffffffffffffffffffff168152602001908152602001600020600083815260200190815260200160002060009054906101000a900460ff169050919050565b600760009054906101000a900473ffffffffffffffffffffffffffffffffffffffff1681565b60068054600181600116156101000203166002900480601f016020809104026020016040519081016040528092919081815260200182805460018160011615610100020316600290048015612e135780601f10612de857610100808354040283529160200191612e13565b820191906000526020600020905b815481529060010190602001808311612df657829003601f168201915b505050505081565b600160009054906101000a900473ffffffffffffffffffffffffffffffffffffffff1673ffffffffffffffffffffffffffffffffffffffff163373ffffffffffffffffffffffffffffffffffffffff16141515612e7757600080fd5b80600e8190555050565b6060600960003373ffffffffffffffffffffffffffffffffffffffff1673ffffffffffffffffffffffffffffffffffffffff168152602001908152602001600020600201805480602002602001604051908101604052809291908181526020018280548015612f0f57602002820191906000526020600020905b815481526020019060010190808311612efb575b5050505050905090565b600c5481565b6000600f54905090565b606060086000838152602001908152602001600020600401805480602002602001604051908101604052809291908181526020018280548015612f8b57602002820191906000526020600020905b815481526020019060010190808311612f77575b50505050509050919050565b600160009054906101000a900473ffffffffffffffffffffffffffffffffffffffff1673ffffffffffffffffffffffffffffffffffffffff163373ffffffffffffffffffffffffffffffffffffffff16141515612ff357600080fd5b80600160006101000a81548173ffffffffffffffffffffffffffffffffffffffff021916908373ffffffffffffffffffffffffffffffffffffffff16021790555050565b60096020528060005260406000206000915090508060000154908060010160009054906101000a900473ffffffffffffffffffffffffffffffffffffffff16905082565b600081600260003373ffffffffffffffffffffffffffffffffffffffff1673ffffffffffffffffffffffffffffffffffffffff16815260200190815260200160002054101515156130cb57600080fd5b61311d82600260003373ffffffffffffffffffffffffffffffffffffffff1673ffffffffffffffffffffffffffffffffffffffff1681526020019081526020016000205461377490919063ffffffff16565b600260003373ffffffffffffffffffffffffffffffffffffffff1673ffffffffffffffffffffffffffffffffffffffff168152602001908152602001600020819055506131b282600260008673ffffffffffffffffffffffffffffffffffffffff1673ffffffffffffffffffffffffffffffffffffffff1681526020019081526020016000205461373b90919063ffffffff16565b600260008573ffffffffffffffffffffffffffffffffffffffff1673ffffffffffffffffffffffffffffffffffffffff168152602001908152602001600020819055508273ffffffffffffffffffffffffffffffffffffffff163373ffffffffffffffffffffffffffffffffffffffff167fddf252ad1be2c89b69c2b068fc378daa952ba7f163c4a11628f55a4df523b3ef846040518082815260200191505060405180910390a36001905092915050565b60006008600083815260200190815260200160002060010160009054906101000a900473ffffffffffffffffffffffffffffffffffffffff169050919050565b600560009054906101000a900460ff1660ff16600a0a620f42400281565b60006132da6001600b5461373b90919063ffffffff16565b600b81905550608060405190810160405280600b5481526020013373ffffffffffffffffffffffffffffffffffffffff16815260200160006040519080825280602002602001820160405280156133405781602001602082028038833980820191505090505b50815260200160006040519080825280602002602001820160405280156133765781602001602082028038833980820191505090505b50815250600960003373ffffffffffffffffffffffffffffffffffffffff1673ffffffffffffffffffffffffffffffffffffffff1681526020019081526020016000206000820151816000015560208201518160010160006101000a81548173ffffffffffffffffffffffffffffffffffffffff021916908373ffffffffffffffffffffffffffffffffffffffff160217905550604082015181600201908051906020019061342692919061380d565b50606082015181600301908051906020019061344392919061380d565b5090505061345333600c54611b27565b507ff8a12d67722ed57c7127e2fc35a36b6fb0395824ad00f85f565eb3addfffab48600b5433600960003373ffffffffffffffffffffffffffffffffffffffff1673ffffffffffffffffffffffffffffffffffffffff168152602001908152602001600020600201600960003373ffffffffffffffffffffffffffffffffffffffff1673ffffffffffffffffffffffffffffffffffffffff168152602001908152602001600020600301604051808581526020018473ffffffffffffffffffffffffffffffffffffffff1673ffffffffffffffffffffffffffffffffffffffff1681526020018060200180602001838103835285818154815260200191508054801561357e57602002820191906000526020600020905b81548152602001906001019080831161356a575b505083810382528481815481526020019150805480156135bd57602002820191906000526020600020905b8154815260200190600101908083116135a9575b5050965050505050505060405180910390a16001905090565b6000600c54905090565b600a6020528160005260406000206020528060005260406000206000915091509054906101000a900460ff1681565b6000600360008473ffffffffffffffffffffffffffffffffffffffff1673ffffffffffffffffffffffffffffffffffffffff16815260200190815260200160002060008373ffffffffffffffffffffffffffffffffffffffff1673ffffffffffffffffffffffffffffffffffffffff16815260200190815260200160002054905092915050565b600f5481565b600d5481565b600160009054906101000a900473ffffffffffffffffffffffffffffffffffffffff1673ffffffffffffffffffffffffffffffffffffffff163373ffffffffffffffffffffffffffffffffffffffff161415156136fe57600080fd5b80600f8190555050565b60008082840290506000841480613729575082848281151561372657fe5b04145b151561373157fe5b8091505092915050565b600080828401905083811015151561374f57fe5b8091505092915050565b600080828481151561376757fe5b0490508091505092915050565b600082821115151561378257fe5b818303905092915050565b828054600181600116156101000203166002900490600052602060002090601f016020900481019282601f106137ce57805160ff19168380011785556137fc565b828001600101855582156137fc579182015b828111156137fb5782518255916020019190600101906137e0565b5b509050613809919061385a565b5090565b828054828255906000526020600020908101928215613849579160200282015b8281111561384857825182559160200191906001019061382d565b5b509050613856919061385a565b5090565b61387c91905b80821115613878576000816000905550600101613860565b5090565b905600a165627a7a72305820dbfa604e899e8c42b2696599d234993b394f9af1c4449e04296f0e08e438ebcd0029",
  "source": "pragma solidity ^0.4.21;\n\nimport \"./Token/JournalToken.sol\";\n\ncontract OpenJournal is JournalToken(200000, \"Journal Token\", 18, \"jt\") {\n    \n    struct Journal {\n        uint256 number;\n        address author;\n        string title;\n        uint256 value;\n        uint[] subscribed;\n        uint256[] reference_journal;\n    }\n    \n    struct User {\n        uint256 user_number;                    \n        address user_address;                   \n        uint[] user_subscribe_journal;          \n        uint[] user_regist_journal;             \n    }    \n\n    mapping (uint256 => Journal) public journals;                               \n    mapping (address => User) public users;                                     \n    mapping (address => mapping (uint => bool)) public is_subscribed;           \n\n    uint256 public userNumber;               \n    uint256 public signUpCost;               \n    uint256 public upperbound_value;         \n    uint256 public lowerbound_value;         \n    uint256 public author_share;\n\n    event LogSignUp(\n        uint256 _user_number, \n        address _user_address, \n        uint[] _user_subscribe_journal,\n        uint[] _user_regist_journal\n    );  \n\n    event LogRegistJournal(\n        uint256 _number, \n        address _author, \n        string _title, \n        uint256 _value,\n        uint256[] _reference_journal,\n        uint[] _user_regist_journal\n    );  \n\n    event LogSubscribeJournal(\n        address _subscriber, \n        uint[] _myjournals, \n        uint[] _subscribed,\n        bool _is_subscribed,\n        uint256 _author_value,\n        uint256 _ref_value\n    );\n\n    event LogGetUserRegistedJournals(\n        uint[] _user_regist_journal\n    );\n\n    event LogGetUserSubscribedJournals(\n        uint _user_subscribe_journal\n    );\n\n    event LogGetAuthorAddress (\n        uint256 _number,\n        address _author\n    );\n\n    event LogGetValue (\n        uint256 _number,\n        uint256 _value\n    );\n\n    function OpenJournal(\n        uint256 _userNumber,\n        uint256 _signUpCost,\n        uint256 _upperbound_value,\n        uint256 _lowerbound_value,\n        uint256 _author_share\n    ) public {\n        userNumber = _userNumber;\n        signUpCost = _signUpCost.mul(10**uint256(decimals));        //    : signUpCost = _signUpCost.mul(10**uint256(4));\n        upperbound_value = _upperbound_value;\n        lowerbound_value = _lowerbound_value;\n        author_share = _author_share;\n    }\n\n    function signUp() public returns (bool) {\n        userNumber = userNumber.add(1);            \n        users[msg.sender] = User(\n            userNumber,\n            msg.sender,\n            new uint[](0),\n            new uint[](0)\n        );\n        transferFromOwner(msg.sender, signUpCost);   \n\n        emit LogSignUp(\n            userNumber, \n            msg.sender, \n            users[msg.sender].user_subscribe_journal, \n            users[msg.sender].user_regist_journal\n        );\n\n        return true;\n    }\n\n    function registJournal(uint256 _journalNumber, string _title, uint256 _journalValue, uint256[] _referenceJournal) public returns (bool) {\n        require(_journalValue <= upperbound_value && _journalValue >= lowerbound_value);\n    \n        journals[_journalNumber] = Journal(\n            _journalNumber,\n            msg.sender,\n            _title,\n            _journalValue.mul(10**uint256(decimals)),     //    : _journalValue.mul(10**uint256(4))\n            new uint[](0),\n            new uint256[](0)\n        );\n\n        for(uint256 ref = 0; ref <_referenceJournal.length; ++ref)\n            journals[_journalNumber].reference_journal.push(_referenceJournal[ref]);\n\n        users[msg.sender].user_regist_journal.push(_journalNumber);\n        \n        emit LogRegistJournal(\n            _journalNumber, \n            msg.sender, \n            _title, \n            _journalValue, \n            journals[_journalNumber].reference_journal,\n            users[msg.sender].user_regist_journal\n        );   \n \n        return true;    \n    }\n\n    function subscribeJournal(uint256 _journalNumber) public returns (bool){\n        require(is_subscribed[msg.sender][_journalNumber] == false); \n\n        uint256 author_token;\n        uint256 reference_token;\n        uint256 reference_each_token;\n        uint256 reference_total_token;\n        uint256 reference_num = journals[_journalNumber].reference_journal.length;\n\n        if(reference_num == 0){\n            author_token = journals[_journalNumber].value;\n        } else{\n            author_token = journals[_journalNumber].value.mul(author_share).div(100);\n            reference_token = journals[_journalNumber].value.sub(author_token);\n            reference_each_token = reference_token.div(reference_num);\n            reference_total_token = reference_each_token.mul(reference_num);\n            author_token = author_token.add(reference_token.sub(reference_total_token));\n\n            for(uint256 ref = 0; ref < reference_num; ref++)\n                transfer(journals[journals[_journalNumber].reference_journal[ref]].author, reference_each_token);                    \n        }\n\n        transfer(journals[_journalNumber].author, author_token); \n\n        uint sub_id = users[msg.sender].user_number;\n\n        users[msg.sender].user_subscribe_journal.push(_journalNumber);  \n        journals[_journalNumber].subscribed.push(sub_id);       \n        is_subscribed[msg.sender][_journalNumber] = true;\n\n        emit LogSubscribeJournal(\n            msg.sender, \n            users[msg.sender].user_subscribe_journal, \n            journals[_journalNumber].subscribed, \n            is_subscribed[msg.sender][_journalNumber],\n            author_token,\n            reference_each_token\n        );\n\n        return true;\n    }\n\n    function getAuthorAddress(uint256 _journalNumber) public view returns (address){\n        return journals[_journalNumber].author;\n    }\n\n    function getJournalTitle(uint256 _journalNumber) public view returns (string){\n        return journals[_journalNumber].title;\n    }\n\n    function getValue(uint256 _journalNumber) public view returns (uint256){\n        return journals[_journalNumber].value;\n    }\n\n    function getJournalSubscriber(uint _journalNumber) public view returns (uint[]) {\n        return journals[_journalNumber].subscribed;\n    }\n\n    function getReferenceJournal(uint _journalNumber) public view returns (uint256[]) {\n        return journals[_journalNumber].reference_journal;\n    }\n\n    function getIsSubscribedJournal(uint _journalNumber) public view returns (bool) {\n        return is_subscribed[msg.sender][_journalNumber];\n    }\n\n    function getUserSubscribedJournals() public view returns (uint[]) {\n        return users[msg.sender].user_subscribe_journal;\n    }    \n\n    function getUserRegistedJournals() public view returns (uint[]) {\n        return users[msg.sender].user_regist_journal;\n    } \n\n    function getSignupCost() public view returns (uint256) {\n        return signUpCost;\n    }\n\n    function getUpperboundValue() public view returns (uint256) {\n        return upperbound_value;\n    }\n\n    function getLowerboundValue() public view returns (uint256) {\n        return lowerbound_value;\n    }\n\n    function getAuthorShare() public view returns (uint256) {\n        return author_share;\n    }\n\n    function setSignupCost(uint256 _signUpCost) public onlyOwner{\n        signUpCost = _signUpCost;\n    }\n\n    function setUpperboundValue(uint256 _upperbound_value) public onlyOwner{\n        upperbound_value = _upperbound_value;\n    }\n\n    function setLowerboundValue(uint256 _lowerbound_value) public onlyOwner{\n        lowerbound_value = _lowerbound_value;\n    }\n\n    function setAuthorShare(uint256 _author_share) public onlyOwner{\n        author_share = _author_share;\n    } \n }\n",
  "sourcePath": "/home/ubuntu/captone/2018-cap1-1/src/contracts/OpenJournal.sol",
  "compiler": {
    "name": "solc",
    "version": "0.4.23+commit.124ca40d.Emscripten.clang"
  },
  "schemaVersion": "2.0.0",
  "updatedAt": "2018-05-24T07:48:27.409Z"
}