{
  "contractName": "OpenJournal",
  "abi": [
    {
      "constant": true,
      "inputs": [],
      "name": "name",
      "outputs": [
        {
          "name": "",
          "type": "string"
        }
      ],
      "payable": false,
      "stateMutability": "view",
      "type": "function"
    },
    {
      "constant": false,
      "inputs": [
        {
          "name": "_spender",
          "type": "address"
        },
        {
          "name": "_value",
          "type": "uint256"
        }
      ],
      "name": "approve",
      "outputs": [
        {
          "name": "success",
          "type": "bool"
        }
      ],
      "payable": false,
      "stateMutability": "nonpayable",
      "type": "function"
    },
    {
      "constant": true,
      "inputs": [],
      "name": "getOwnerAddress",
      "outputs": [
        {
          "name": "ownerAddress",
          "type": "address"
        }
      ],
      "payable": false,
      "stateMutability": "view",
      "type": "function"
    },
    {
      "constant": false,
      "inputs": [
        {
          "name": "_to",
          "type": "address"
        },
        {
          "name": "_value",
          "type": "uint256"
        }
      ],
      "name": "transferFromOwner",
      "outputs": [
        {
          "name": "success",
          "type": "bool"
        }
      ],
      "payable": false,
      "stateMutability": "nonpayable",
      "type": "function"
    },
    {
      "constant": true,
      "inputs": [],
      "name": "totalSupply",
      "outputs": [
        {
          "name": "",
          "type": "uint256"
        }
      ],
      "payable": false,
      "stateMutability": "view",
      "type": "function"
    },
    {
      "constant": true,
      "inputs": [
        {
          "name": "",
          "type": "uint256"
        }
      ],
      "name": "journals",
      "outputs": [
        {
          "name": "number",
          "type": "uint256"
        },
        {
          "name": "author",
          "type": "address"
        },
        {
          "name": "title",
          "type": "string"
        },
        {
          "name": "author_share",
          "type": "uint256"
        },
        {
          "name": "value",
          "type": "uint256"
        },
        {
          "name": "reference_count",
          "type": "uint256"
        },
        {
          "name": "final_enroll",
          "type": "bool"
        }
      ],
      "payable": false,
      "stateMutability": "view",
      "type": "function"
    },
    {
      "constant": true,
      "inputs": [
        {
          "name": "_to",
          "type": "address"
        }
      ],
      "name": "balanceOfEther",
      "outputs": [
        {
          "name": "",
          "type": "uint256"
        }
      ],
      "payable": false,
      "stateMutability": "view",
      "type": "function"
    },
    {
      "constant": false,
      "inputs": [
        {
          "name": "_value",
          "type": "uint256"
        }
      ],
      "name": "sellToken",
      "outputs": [],
      "payable": false,
      "stateMutability": "nonpayable",
      "type": "function"
    },
    {
      "constant": false,
      "inputs": [
        {
          "name": "_from",
          "type": "address"
        },
        {
          "name": "_to",
          "type": "address"
        },
        {
          "name": "_value",
          "type": "uint256"
        }
      ],
      "name": "transferFrom",
      "outputs": [
        {
          "name": "success",
          "type": "bool"
        }
      ],
      "payable": false,
      "stateMutability": "nonpayable",
      "type": "function"
    },
    {
      "constant": true,
      "inputs": [
        {
          "name": "",
          "type": "address"
        }
      ],
      "name": "balances",
      "outputs": [
        {
          "name": "",
          "type": "uint256"
        }
      ],
      "payable": false,
      "stateMutability": "view",
      "type": "function"
    },
    {
      "constant": true,
      "inputs": [],
      "name": "userNumber",
      "outputs": [
        {
          "name": "",
          "type": "uint256"
        }
      ],
      "payable": false,
      "stateMutability": "view",
      "type": "function"
    },
    {
      "constant": true,
      "inputs": [
        {
          "name": "",
          "type": "address"
        }
      ],
      "name": "users_by_address",
      "outputs": [
        {
          "name": "user_number",
          "type": "uint256"
        },
        {
          "name": "user_address",
          "type": "address"
        },
        {
          "name": "is_user",
          "type": "bool"
        }
      ],
      "payable": false,
      "stateMutability": "view",
      "type": "function"
    },
    {
      "constant": true,
      "inputs": [],
      "name": "rate",
      "outputs": [
        {
          "name": "",
          "type": "uint256"
        }
      ],
      "payable": false,
      "stateMutability": "view",
      "type": "function"
    },
    {
      "constant": true,
      "inputs": [],
      "name": "decimals",
      "outputs": [
        {
          "name": "",
          "type": "uint8"
        }
      ],
      "payable": false,
      "stateMutability": "view",
      "type": "function"
    },
    {
      "constant": true,
      "inputs": [
        {
          "name": "",
          "type": "uint256"
        }
      ],
      "name": "users_by_number",
      "outputs": [
        {
          "name": "user_number",
          "type": "uint256"
        },
        {
          "name": "user_address",
          "type": "address"
        },
        {
          "name": "is_user",
          "type": "bool"
        }
      ],
      "payable": false,
      "stateMutability": "view",
      "type": "function"
    },
    {
      "constant": true,
      "inputs": [],
      "name": "lowerbound_value",
      "outputs": [
        {
          "name": "",
          "type": "uint256"
        }
      ],
      "payable": false,
      "stateMutability": "view",
      "type": "function"
    },
    {
      "constant": true,
      "inputs": [
        {
          "name": "",
          "type": "address"
        },
        {
          "name": "",
          "type": "address"
        }
      ],
      "name": "allowed",
      "outputs": [
        {
          "name": "",
          "type": "uint256"
        }
      ],
      "payable": false,
      "stateMutability": "view",
      "type": "function"
    },
    {
      "constant": true,
      "inputs": [
        {
          "name": "_owner",
          "type": "address"
        }
      ],
      "name": "balanceOf",
      "outputs": [
        {
          "name": "balance",
          "type": "uint256"
        }
      ],
      "payable": false,
      "stateMutability": "view",
      "type": "function"
    },
    {
      "constant": false,
      "inputs": [],
      "name": "withdrawEther",
      "outputs": [],
      "payable": false,
      "stateMutability": "nonpayable",
      "type": "function"
    },
    {
      "constant": true,
      "inputs": [],
      "name": "owner",
      "outputs": [
        {
          "name": "",
          "type": "address"
        }
      ],
      "payable": false,
      "stateMutability": "view",
      "type": "function"
    },
    {
      "constant": true,
      "inputs": [],
      "name": "symbol",
      "outputs": [
        {
          "name": "",
          "type": "string"
        }
      ],
      "payable": false,
      "stateMutability": "view",
      "type": "function"
    },
    {
      "constant": true,
      "inputs": [],
      "name": "signUpCost",
      "outputs": [
        {
          "name": "",
          "type": "uint256"
        }
      ],
      "payable": false,
      "stateMutability": "view",
      "type": "function"
    },
    {
      "constant": false,
      "inputs": [],
      "name": "buyToken",
      "outputs": [],
      "payable": true,
      "stateMutability": "payable",
      "type": "function"
    },
    {
      "constant": false,
      "inputs": [
        {
          "name": "_newOwner",
          "type": "address"
        }
      ],
      "name": "changeOwner",
      "outputs": [],
      "payable": false,
      "stateMutability": "nonpayable",
      "type": "function"
    },
    {
      "constant": false,
      "inputs": [
        {
          "name": "_to",
          "type": "address"
        },
        {
          "name": "_value",
          "type": "uint256"
        }
      ],
      "name": "transfer",
      "outputs": [
        {
          "name": "success",
          "type": "bool"
        }
      ],
      "payable": false,
      "stateMutability": "nonpayable",
      "type": "function"
    },
    {
      "constant": true,
      "inputs": [],
      "name": "tokenGenerationMax",
      "outputs": [
        {
          "name": "",
          "type": "uint256"
        }
      ],
      "payable": false,
      "stateMutability": "view",
      "type": "function"
    },
    {
      "constant": true,
      "inputs": [
        {
          "name": "",
          "type": "address"
        },
        {
          "name": "",
          "type": "uint256"
        }
      ],
      "name": "is_subscribed",
      "outputs": [
        {
          "name": "",
          "type": "bool"
        }
      ],
      "payable": false,
      "stateMutability": "view",
      "type": "function"
    },
    {
      "constant": true,
      "inputs": [
        {
          "name": "_owner",
          "type": "address"
        },
        {
          "name": "_spender",
          "type": "address"
        }
      ],
      "name": "allowance",
      "outputs": [
        {
          "name": "remaining",
          "type": "uint256"
        }
      ],
      "payable": false,
      "stateMutability": "view",
      "type": "function"
    },
    {
      "constant": true,
      "inputs": [],
      "name": "upperbound_value",
      "outputs": [
        {
          "name": "",
          "type": "uint256"
        }
      ],
      "payable": false,
      "stateMutability": "view",
      "type": "function"
    },
    {
      "inputs": [
        {
          "name": "_userNumber",
          "type": "uint256"
        },
        {
          "name": "_signUpCost",
          "type": "uint256"
        },
        {
          "name": "_upperbound_value",
          "type": "uint256"
        },
        {
          "name": "_lowerbound_value",
          "type": "uint256"
        }
      ],
      "payable": false,
      "stateMutability": "nonpayable",
      "type": "constructor"
    },
    {
      "payable": true,
      "stateMutability": "payable",
      "type": "fallback"
    },
    {
      "anonymous": false,
      "inputs": [
        {
          "indexed": false,
          "name": "_user_number",
          "type": "uint256"
        },
        {
          "indexed": false,
          "name": "_user_address",
          "type": "address"
        },
        {
          "indexed": false,
          "name": "_user_subscribe_journal",
          "type": "uint256[]"
        },
        {
          "indexed": false,
          "name": "_user_regist_journal",
          "type": "uint256[]"
        },
        {
          "indexed": false,
          "name": "_is_user",
          "type": "bool"
        }
      ],
      "name": "LogSignUp",
      "type": "event"
    },
    {
      "anonymous": false,
      "inputs": [
        {
          "indexed": false,
          "name": "_number",
          "type": "uint256"
        },
        {
          "indexed": false,
          "name": "_author",
          "type": "address"
        },
        {
          "indexed": false,
          "name": "_title",
          "type": "string"
        },
        {
          "indexed": false,
          "name": "_author_share",
          "type": "uint256"
        },
        {
          "indexed": false,
          "name": "_value",
          "type": "uint256"
        },
        {
          "indexed": false,
          "name": "_reference_journal",
          "type": "uint256[]"
        },
        {
          "indexed": false,
          "name": "_contributors",
          "type": "uint256[]"
        },
        {
          "indexed": false,
          "name": "_contributors_share",
          "type": "uint256[]"
        }
      ],
      "name": "LogRegistJournal",
      "type": "event"
    },
    {
      "anonymous": false,
      "inputs": [
        {
          "indexed": false,
          "name": "_subscriber",
          "type": "address"
        },
        {
          "indexed": false,
          "name": "_myjournals",
          "type": "uint256[]"
        },
        {
          "indexed": false,
          "name": "_subscribed",
          "type": "uint256[]"
        },
        {
          "indexed": false,
          "name": "_is_subscribed",
          "type": "bool"
        },
        {
          "indexed": false,
          "name": "_author_value",
          "type": "uint256"
        },
        {
          "indexed": false,
          "name": "_reference_count",
          "type": "uint256"
        }
      ],
      "name": "LogSubscribeJournal",
      "type": "event"
    },
    {
      "anonymous": false,
      "inputs": [
        {
          "indexed": false,
          "name": "_user_regist_journal",
          "type": "uint256[]"
        }
      ],
      "name": "LogGetUserRegistedJournals",
      "type": "event"
    },
    {
      "anonymous": false,
      "inputs": [
        {
          "indexed": false,
          "name": "_user_subscribe_journal",
          "type": "uint256"
        }
      ],
      "name": "LogGetUserSubscribedJournals",
      "type": "event"
    },
    {
      "anonymous": false,
      "inputs": [
        {
          "indexed": false,
          "name": "_number",
          "type": "uint256"
        },
        {
          "indexed": false,
          "name": "_author",
          "type": "address"
        }
      ],
      "name": "LogGetAuthorAddress",
      "type": "event"
    },
    {
      "anonymous": false,
      "inputs": [
        {
          "indexed": false,
          "name": "_number",
          "type": "uint256"
        },
        {
          "indexed": false,
          "name": "_value",
          "type": "uint256"
        }
      ],
      "name": "LogGetValue",
      "type": "event"
    },
    {
      "anonymous": false,
      "inputs": [
        {
          "indexed": false,
          "name": "_msgValue",
          "type": "uint256"
        },
        {
          "indexed": false,
          "name": "_amount",
          "type": "uint256"
        },
        {
          "indexed": false,
          "name": "_totalSupply",
          "type": "uint256"
        },
        {
          "indexed": false,
          "name": "_msgSender",
          "type": "address"
        },
        {
          "indexed": false,
          "name": "_decimals",
          "type": "uint8"
        },
        {
          "indexed": false,
          "name": "_symbol",
          "type": "string"
        }
      ],
      "name": "BuyToken",
      "type": "event"
    },
    {
      "anonymous": false,
      "inputs": [
        {
          "indexed": false,
          "name": "_msgValue",
          "type": "uint256"
        },
        {
          "indexed": false,
          "name": "_amount",
          "type": "uint256"
        },
        {
          "indexed": false,
          "name": "_totalSupply",
          "type": "uint256"
        },
        {
          "indexed": false,
          "name": "_msgSender",
          "type": "address"
        }
      ],
      "name": "SellToken",
      "type": "event"
    },
    {
      "anonymous": false,
      "inputs": [
        {
          "indexed": true,
          "name": "_from",
          "type": "address"
        },
        {
          "indexed": true,
          "name": "_to",
          "type": "address"
        },
        {
          "indexed": false,
          "name": "_value",
          "type": "uint256"
        }
      ],
      "name": "Transfer",
      "type": "event"
    },
    {
      "anonymous": false,
      "inputs": [
        {
          "indexed": true,
          "name": "_from",
          "type": "address"
        },
        {
          "indexed": true,
          "name": "_to",
          "type": "address"
        },
        {
          "indexed": false,
          "name": "_value",
          "type": "uint256"
        },
        {
          "indexed": false,
          "name": "_mini_value",
          "type": "uint256"
        }
      ],
      "name": "TransferAll",
      "type": "event"
    },
    {
      "anonymous": false,
      "inputs": [
        {
          "indexed": true,
          "name": "_owner",
          "type": "address"
        },
        {
          "indexed": true,
          "name": "_spender",
          "type": "address"
        },
        {
          "indexed": false,
          "name": "_value",
          "type": "uint256"
        }
      ],
      "name": "Approval",
      "type": "event"
    },
    {
      "constant": false,
      "inputs": [],
      "name": "signUp",
      "outputs": [
        {
          "name": "",
          "type": "bool"
        }
      ],
      "payable": false,
      "stateMutability": "nonpayable",
      "type": "function"
    },
    {
      "constant": false,
      "inputs": [
        {
          "name": "_journal_number",
          "type": "uint256"
        },
        {
          "name": "_title",
          "type": "string"
        },
        {
          "name": "_author_share",
          "type": "uint256"
        },
        {
          "name": "_journal_value",
          "type": "uint256"
        },
        {
          "name": "_reference_journal",
          "type": "uint256[]"
        },
        {
          "name": "_contributors",
          "type": "uint256[]"
        },
        {
          "name": "_contributors_share",
          "type": "uint256[]"
        }
      ],
      "name": "registJournal",
      "outputs": [
        {
          "name": "",
          "type": "bool"
        }
      ],
      "payable": false,
      "stateMutability": "nonpayable",
      "type": "function"
    },
    {
      "constant": false,
      "inputs": [
        {
          "name": "_journal_number",
          "type": "uint256"
        }
      ],
      "name": "subscribeJournal",
      "outputs": [
        {
          "name": "",
          "type": "bool"
        }
      ],
      "payable": false,
      "stateMutability": "nonpayable",
      "type": "function"
    },
    {
      "constant": true,
      "inputs": [
        {
          "name": "_journal_number",
          "type": "uint256"
        }
      ],
      "name": "getIsJournalValid",
      "outputs": [
        {
          "name": "",
          "type": "bool"
        }
      ],
      "payable": false,
      "stateMutability": "view",
      "type": "function"
    },
    {
      "constant": true,
      "inputs": [
        {
          "name": "_journal_number",
          "type": "uint256"
        }
      ],
      "name": "getAuthorAddress",
      "outputs": [
        {
          "name": "",
          "type": "address"
        }
      ],
      "payable": false,
      "stateMutability": "view",
      "type": "function"
    },
    {
      "constant": true,
      "inputs": [
        {
          "name": "_journal_number",
          "type": "uint256"
        }
      ],
      "name": "getJournalTitle",
      "outputs": [
        {
          "name": "",
          "type": "string"
        }
      ],
      "payable": false,
      "stateMutability": "view",
      "type": "function"
    },
    {
      "constant": true,
      "inputs": [
        {
          "name": "_journal_number",
          "type": "uint256"
        }
      ],
      "name": "getValue",
      "outputs": [
        {
          "name": "",
          "type": "uint256"
        }
      ],
      "payable": false,
      "stateMutability": "view",
      "type": "function"
    },
    {
      "constant": true,
      "inputs": [
        {
          "name": "_journal_number",
          "type": "uint256"
        }
      ],
      "name": "getJournalSubscriber",
      "outputs": [
        {
          "name": "",
          "type": "uint256[]"
        }
      ],
      "payable": false,
      "stateMutability": "view",
      "type": "function"
    },
    {
      "constant": true,
      "inputs": [
        {
          "name": "_journal_number",
          "type": "uint256"
        }
      ],
      "name": "getReferenceJournal",
      "outputs": [
        {
          "name": "",
          "type": "uint256[]"
        }
      ],
      "payable": false,
      "stateMutability": "view",
      "type": "function"
    },
    {
      "constant": true,
      "inputs": [
        {
          "name": "_journal_number",
          "type": "uint256"
        }
      ],
      "name": "getIsSubscribedJournal",
      "outputs": [
        {
          "name": "",
          "type": "bool"
        }
      ],
      "payable": false,
      "stateMutability": "view",
      "type": "function"
    },
    {
      "constant": true,
      "inputs": [],
      "name": "getIsUserValid",
      "outputs": [
        {
          "name": "",
          "type": "bool"
        }
      ],
      "payable": false,
      "stateMutability": "view",
      "type": "function"
    },
    {
      "constant": true,
      "inputs": [],
      "name": "getUserSubscribedJournals",
      "outputs": [
        {
          "name": "",
          "type": "uint256[]"
        }
      ],
      "payable": false,
      "stateMutability": "view",
      "type": "function"
    },
    {
      "constant": true,
      "inputs": [],
      "name": "getUserRegistedJournals",
      "outputs": [
        {
          "name": "",
          "type": "uint256[]"
        }
      ],
      "payable": false,
      "stateMutability": "view",
      "type": "function"
    },
    {
      "constant": true,
      "inputs": [],
      "name": "getSignupCost",
      "outputs": [
        {
          "name": "",
          "type": "uint256"
        }
      ],
      "payable": false,
      "stateMutability": "view",
      "type": "function"
    },
    {
      "constant": true,
      "inputs": [],
      "name": "getUpperboundValue",
      "outputs": [
        {
          "name": "",
          "type": "uint256"
        }
      ],
      "payable": false,
      "stateMutability": "view",
      "type": "function"
    },
    {
      "constant": true,
      "inputs": [],
      "name": "getLowerboundValue",
      "outputs": [
        {
          "name": "",
          "type": "uint256"
        }
      ],
      "payable": false,
      "stateMutability": "view",
      "type": "function"
    },
    {
      "constant": false,
      "inputs": [
        {
          "name": "_signUpCost",
          "type": "uint256"
        }
      ],
      "name": "setSignupCost",
      "outputs": [],
      "payable": false,
      "stateMutability": "nonpayable",
      "type": "function"
    },
    {
      "constant": false,
      "inputs": [
        {
          "name": "_upperbound_value",
          "type": "uint256"
        }
      ],
      "name": "setUpperboundValue",
      "outputs": [],
      "payable": false,
      "stateMutability": "nonpayable",
      "type": "function"
    },
    {
      "constant": false,
      "inputs": [
        {
          "name": "_lowerbound_value",
          "type": "uint256"
        }
      ],
      "name": "setLowerboundValue",
      "outputs": [],
      "payable": false,
      "stateMutability": "nonpayable",
      "type": "function"
    }
  ],
  "bytecode": "0x60806040523480156200001157600080fd5b50604051608080620040488339810180604052810190808051906020019092919080519060200190929190805190602001909291908051906020019092919050505062030d406040805190810160405280600d81526020017f4a6f75726e616c20546f6b656e0000000000000000000000000000000000000081525060126040805190810160405280600281526020017f6a7400000000000000000000000000000000000000000000000000000000000081525033600160006101000a81548173ffffffffffffffffffffffffffffffffffffffff021916908373ffffffffffffffffffffffffffffffffffffffff16021790555033600760006101000a81548173ffffffffffffffffffffffffffffffffffffffff021916908373ffffffffffffffffffffffffffffffffffffffff16021790555082600490805190602001906200015f9291906200028d565b508060069080519060200190620001789291906200028d565b5081600560006101000a81548160ff021916908360ff160217905550620001bb6004600a0a85620002576401000000000262003b59179091906401000000009004565b600081905550600054600260003373ffffffffffffffffffffffffffffffffffffffff1673ffffffffffffffffffffffffffffffffffffffff168152602001908152602001600020819055505050505083600c81905550620002396004600a0a84620002576401000000000262003b59179091906401000000009004565b600d8190555081600e8190555080600f81905550505050506200033c565b600080828402905060008414806200027a57508284828115156200027757fe5b04145b15156200028357fe5b8091505092915050565b828054600181600116156101000203166002900490600052602060002090601f016020900481019282601f10620002d057805160ff191683800117855562000301565b8280016001018555821562000301579182015b8281111562000300578251825591602001919060010190620002e3565b5b50905062000310919062000314565b5090565b6200033991905b80821115620003355760008160009055506001016200031b565b5090565b90565b613cfc806200034c6000396000f300608060405260043610610246576000357c0100000000000000000000000000000000000000000000000000000000900463ffffffff16806306fdde0314610250578063095ea7b3146102e05780630c4f65bd146103455780630eb18ce61461039c5780630ec8e9b7146103cb5780630f18ac07146104105780630ff4c9161461047557806314675340146104b657806318160ddd146104e1578063197cc19e1461050c578063211149041461060c5780632397e4d71461066357806323b872dd1461069057806327e235e3146107155780632b4e84131461076c5780632bd47b27146107975780632c4e722e1461082c578063313ce5671461085757806344078e73146108885780634670ee2f146109075780634898bf1f1461097357806352ca6b5614610adb578063563620b514610b065780635c65816514610b335780635e676f5a14610baa57806364a9408d14610bd75780636ea7d1a314610c5957806370a0823114610cff5780637362377b14610d56578063768d13fe14610d6d57806381701e0f14610d985780638da5cb5b14610ddd57806395d89b4114610e3457806397a0998014610ec45780639838992214610ef15780639e9378cc14610f5d578063a482171914610f88578063a5b5dd9814610f92578063a6f9dae114611014578063a9059cbb14611057578063ac7b481d146110bc578063ae082d5814611129578063b57e6ea11461116e578063bf96ae6314611199578063c1a20d7c146111c8578063c1f9c930146111f3578063dd62ed3e14611258578063f23c081b146112cf575b61024e6112fa565b005b34801561025c57600080fd5b5061026561153a565b6040518080602001828103825283818151815260200191508051906020019080838360005b838110156102a557808201518184015260208101905061028a565b50505050905090810190601f1680156102d25780820380516001836020036101000a031916815260200191505b509250505060405180910390f35b3480156102ec57600080fd5b5061032b600480360381019080803573ffffffffffffffffffffffffffffffffffffffff169060200190929190803590602001909291905050506115d8565b604051808215151515815260200191505060405180910390f35b34801561035157600080fd5b5061035a6116ca565b604051808273ffffffffffffffffffffffffffffffffffffffff1673ffffffffffffffffffffffffffffffffffffffff16815260200191505060405180910390f35b3480156103a857600080fd5b506103b16116f4565b604051808215151515815260200191505060405180910390f35b3480156103d757600080fd5b506103f66004803603810190808035906020019092919050505061174b565b604051808215151515815260200191505060405180910390f35b34801561041c57600080fd5b5061045b600480360381019080803573ffffffffffffffffffffffffffffffffffffffff16906020019092919080359060200190929190505050611d03565b604051808215151515815260200191505060405180910390f35b34801561048157600080fd5b506104a060048036038101908080359060200190929190505050611f74565b6040518082815260200191505060405180910390f35b3480156104c257600080fd5b506104cb611f94565b6040518082815260200191505060405180910390f35b3480156104ed57600080fd5b506104f6611f9e565b6040518082815260200191505060405180910390f35b34801561051857600080fd5b5061053760048036038101908080359060200190929190505050611fa4565b604051808881526020018773ffffffffffffffffffffffffffffffffffffffff1673ffffffffffffffffffffffffffffffffffffffff1681526020018060200186815260200185815260200184815260200183151515158152602001828103825287818151815260200191508051906020019080838360005b838110156105cb5780820151818401526020810190506105b0565b50505050905090810190601f1680156105f85780820380516001836020036101000a031916815260200191505b509850505050505050505060405180910390f35b34801561061857600080fd5b5061064d600480360381019080803573ffffffffffffffffffffffffffffffffffffffff1690602001909291905050506120ab565b6040518082815260200191505060405180910390f35b34801561066f57600080fd5b5061068e600480360381019080803590602001909291905050506120cc565b005b34801561069c57600080fd5b506106fb600480360381019080803573ffffffffffffffffffffffffffffffffffffffff169060200190929190803573ffffffffffffffffffffffffffffffffffffffff169060200190929190803590602001909291905050506122bf565b604051808215151515815260200191505060405180910390f35b34801561072157600080fd5b50610756600480360381019080803573ffffffffffffffffffffffffffffffffffffffff16906020019092919050505061266e565b6040518082815260200191505060405180910390f35b34801561077857600080fd5b50610781612686565b6040518082815260200191505060405180910390f35b3480156107a357600080fd5b506107d8600480360381019080803573ffffffffffffffffffffffffffffffffffffffff16906020019092919050505061268c565b604051808481526020018373ffffffffffffffffffffffffffffffffffffffff1673ffffffffffffffffffffffffffffffffffffffff16815260200182151515158152602001935050505060405180910390f35b34801561083857600080fd5b506108416126e3565b6040518082815260200191505060405180910390f35b34801561086357600080fd5b5061086c6126e9565b604051808260ff1660ff16815260200191505060405180910390f35b34801561089457600080fd5b506108b3600480360381019080803590602001909291905050506126fc565b604051808481526020018373ffffffffffffffffffffffffffffffffffffffff1673ffffffffffffffffffffffffffffffffffffffff16815260200182151515158152602001935050505060405180910390f35b34801561091357600080fd5b5061091c612753565b6040518080602001828103825283818151815260200191508051906020019060200280838360005b8381101561095f578082015181840152602081019050610944565b505050509050019250505060405180910390f35b34801561097f57600080fd5b50610ac160048036038101908080359060200190929190803590602001908201803590602001908080601f016020809104026020016040519081016040528093929190818152602001838380828437820191505050505050919291929080359060200190929190803590602001909291908035906020019082018035906020019080806020026020016040519081016040528093929190818152602001838360200280828437820191505050505050919291929080359060200190820180359060200190808060200260200160405190810160405280939291908181526020018383602002808284378201915050505050509192919290803590602001908201803590602001908080602002602001604051908101604052809392919081815260200183836020028082843782019150505050505091929192905050506127eb565b604051808215151515815260200191505060405180910390f35b348015610ae757600080fd5b50610af0612dfc565b6040518082815260200191505060405180910390f35b348015610b1257600080fd5b50610b3160048036038101908080359060200190929190505050612e02565b005b348015610b3f57600080fd5b50610b94600480360381019080803573ffffffffffffffffffffffffffffffffffffffff169060200190929190803573ffffffffffffffffffffffffffffffffffffffff169060200190929190505050612e68565b6040518082815260200191505060405180910390f35b348015610bb657600080fd5b50610bd560048036038101908080359060200190929190505050612e8d565b005b348015610be357600080fd5b50610c0260048036038101908080359060200190929190505050612ef3565b6040518080602001828103825283818151815260200191508051906020019060200280838360005b83811015610c45578082015181840152602081019050610c2a565b505050509050019250505060405180910390f35b348015610c6557600080fd5b50610c8460048036038101908080359060200190929190505050612f61565b6040518080602001828103825283818151815260200191508051906020019080838360005b83811015610cc4578082015181840152602081019050610ca9565b50505050905090810190601f168015610cf15780820380516001836020036101000a031916815260200191505b509250505060405180910390f35b348015610d0b57600080fd5b50610d40600480360381019080803573ffffffffffffffffffffffffffffffffffffffff169060200190929190505050613019565b6040518082815260200191505060405180910390f35b348015610d6257600080fd5b50610d6b613062565b005b348015610d7957600080fd5b50610d82613140565b6040518082815260200191505060405180910390f35b348015610da457600080fd5b50610dc36004803603810190808035906020019092919050505061314a565b604051808215151515815260200191505060405180910390f35b348015610de957600080fd5b50610df26131b1565b604051808273ffffffffffffffffffffffffffffffffffffffff1673ffffffffffffffffffffffffffffffffffffffff16815260200191505060405180910390f35b348015610e4057600080fd5b50610e496131d7565b6040518080602001828103825283818151815260200191508051906020019080838360005b83811015610e89578082015181840152602081019050610e6e565b50505050905090810190601f168015610eb65780820380516001836020036101000a031916815260200191505b509250505060405180910390f35b348015610ed057600080fd5b50610eef60048036038101908080359060200190929190505050613275565b005b348015610efd57600080fd5b50610f066132db565b6040518080602001828103825283818151815260200191508051906020019060200280838360005b83811015610f49578082015181840152602081019050610f2e565b505050509050019250505060405180910390f35b348015610f6957600080fd5b50610f72613373565b6040518082815260200191505060405180910390f35b610f906112fa565b005b348015610f9e57600080fd5b50610fbd60048036038101908080359060200190929190505050613379565b6040518080602001828103825283818151815260200191508051906020019060200280838360005b83811015611000578082015181840152602081019050610fe5565b505050509050019250505060405180910390f35b34801561102057600080fd5b50611055600480360381019080803573ffffffffffffffffffffffffffffffffffffffff1690602001909291905050506133e7565b005b34801561106357600080fd5b506110a2600480360381019080803573ffffffffffffffffffffffffffffffffffffffff16906020019092919080359060200190929190505050613487565b604051808215151515815260200191505060405180910390f35b3480156110c857600080fd5b506110e760048036038101908080359060200190929190505050613670565b604051808273ffffffffffffffffffffffffffffffffffffffff1673ffffffffffffffffffffffffffffffffffffffff16815260200191505060405180910390f35b34801561113557600080fd5b50611154600480360381019080803590602001909291905050506136b0565b604051808215151515815260200191505060405180910390f35b34801561117a57600080fd5b506111836136dd565b6040518082815260200191505060405180910390f35b3480156111a557600080fd5b506111ae6136fb565b604051808215151515815260200191505060405180910390f35b3480156111d457600080fd5b506111dd613a93565b6040518082815260200191505060405180910390f35b3480156111ff57600080fd5b5061123e600480360381019080803573ffffffffffffffffffffffffffffffffffffffff16906020019092919080359060200190929190505050613a9d565b604051808215151515815260200191505060405180910390f35b34801561126457600080fd5b506112b9600480360381019080803573ffffffffffffffffffffffffffffffffffffffff169060200190929190803573ffffffffffffffffffffffffffffffffffffffff169060200190929190505050613acc565b6040518082815260200191505060405180910390f35b3480156112db57600080fd5b506112e4613b53565b6040518082815260200191505060405180910390f35b6000803411151561130a57600080fd5b6113356127106113276004600a0a34613b5990919063ffffffff16565b613b5990919063ffffffff16565b905061138981600260003373ffffffffffffffffffffffffffffffffffffffff1673ffffffffffffffffffffffffffffffffffffffff16815260200190815260200160002054613b8c90919063ffffffff16565b600260003373ffffffffffffffffffffffffffffffffffffffff1673ffffffffffffffffffffffffffffffffffffffff168152602001908152602001600020819055506113e181600054613b8c90919063ffffffff16565b600081905550600560009054906101000a900460ff1660ff16600a0a620f4240026000541115151561141257600080fd5b7f712a7c91acc43a1321298fb00af337b26e06f3905018f430338ea13df04e7db6348260005433600560009054906101000a900460ff166006604051808781526020018681526020018581526020018473ffffffffffffffffffffffffffffffffffffffff1673ffffffffffffffffffffffffffffffffffffffff1681526020018360ff1660ff168152602001806020018281038252838181546001816001161561010002031660029004815260200191508054600181600116156101000203166002900480156115245780601f106114f957610100808354040283529160200191611524565b820191906000526020600020905b81548152906001019060200180831161150757829003601f168201915b505097505050505050505060405180910390a150565b60048054600181600116156101000203166002900480601f0160208091040260200160405190810160405280929190818152602001828054600181600116156101000203166002900480156115d05780601f106115a5576101008083540402835291602001916115d0565b820191906000526020600020905b8154815290600101906020018083116115b357829003601f168201915b505050505081565b600081600360003373ffffffffffffffffffffffffffffffffffffffff1673ffffffffffffffffffffffffffffffffffffffff16815260200190815260200160002060008573ffffffffffffffffffffffffffffffffffffffff1673ffffffffffffffffffffffffffffffffffffffff168152602001908152602001600020819055508273ffffffffffffffffffffffffffffffffffffffff163373ffffffffffffffffffffffffffffffffffffffff167f8c5be1e5ebec7d5bd14f71427d1e84f3dd0314c0f7b2291e5b200ac8c7c3b925846040518082815260200191505060405180910390a36001905092915050565b6000600160009054906101000a900473ffffffffffffffffffffffffffffffffffffffff16905090565b6000600a60003373ffffffffffffffffffffffffffffffffffffffff1673ffffffffffffffffffffffffffffffffffffffff16815260200190815260200160002060040160009054906101000a900460ff16905090565b6000806000806000806000801515600b60003373ffffffffffffffffffffffffffffffffffffffff1673ffffffffffffffffffffffffffffffffffffffff16815260200190815260200160002060008a815260200190815260200160002060009054906101000a900460ff1615151415156117c557600080fd5b60086000898152602001908152602001600020600801805490509350600084141561180c57600860008981526020019081526020016000206004015460108190555061195b565b60086000898152602001908152602001600020600301549250611861606461185385600860008d815260200190815260200160002060040154613b5990919063ffffffff16565b613baa90919063ffffffff16565b601081905550600091505b8382101561195a576118dd60646118cf600860008c81526020019081526020016000206009018581548110151561189f57fe5b9060005260206000200154600860008d815260200190815260200160002060040154613b5990919063ffffffff16565b613baa90919063ffffffff16565b945061194c60096000600860008c81526020019081526020016000206008018581548110151561190957fe5b9060005260206000200154815260200190815260200160002060010160009054906101000a900473ffffffffffffffffffffffffffffffffffffffff1686613487565b50818060010192505061186c565b5b61199d600860008a815260200190815260200160002060010160009054906101000a900473ffffffffffffffffffffffffffffffffffffffff16601054613487565b50600a60003373ffffffffffffffffffffffffffffffffffffffff1673ffffffffffffffffffffffffffffffffffffffff168152602001908152602001600020600001549050600a60003373ffffffffffffffffffffffffffffffffffffffff1673ffffffffffffffffffffffffffffffffffffffff168152602001908152602001600020600201889080600181540180825580915050906001820390600052602060002001600090919290919091505550600860008981526020019081526020016000206006018190806001815401808255809150509060018203906000526020600020016000909192909190915055506001600b60003373ffffffffffffffffffffffffffffffffffffffff1673ffffffffffffffffffffffffffffffffffffffff16815260200190815260200160002060008a815260200190815260200160002060006101000a81548160ff02191690831515021790555060086000898152602001908152602001600020600501600081548092919060010191905055507f79e05d30e4f1714bc1dfc35894cf13b7c22c628914f491dbca6c7a0662c6f39a33600a60003373ffffffffffffffffffffffffffffffffffffffff1673ffffffffffffffffffffffffffffffffffffffff168152602001908152602001600020600201600860008c8152602001908152602001600020600601600b60003373ffffffffffffffffffffffffffffffffffffffff1673ffffffffffffffffffffffffffffffffffffffff16815260200190815260200160002060008d815260200190815260200160002060009054906101000a900460ff16601054600860008f815260200190815260200160002060050154604051808773ffffffffffffffffffffffffffffffffffffffff1673ffffffffffffffffffffffffffffffffffffffff1681526020018060200180602001861515151581526020018581526020018481526020018381038352888181548152602001915080548015611ca157602002820191906000526020600020905b815481526020019060010190808311611c8d575b50508381038252878181548152602001915080548015611ce057602002820191906000526020600020905b815481526020019060010190808311611ccc575b50509850505050505050505060405180910390a160019650505050505050919050565b60008160026000600760009054906101000a900473ffffffffffffffffffffffffffffffffffffffff1673ffffffffffffffffffffffffffffffffffffffff1673ffffffffffffffffffffffffffffffffffffffff1681526020019081526020016000205410151515611d7557600080fd5b611de98260026000600760009054906101000a900473ffffffffffffffffffffffffffffffffffffffff1673ffffffffffffffffffffffffffffffffffffffff1673ffffffffffffffffffffffffffffffffffffffff16815260200190815260200160002054613bc590919063ffffffff16565b60026000600760009054906101000a900473ffffffffffffffffffffffffffffffffffffffff1673ffffffffffffffffffffffffffffffffffffffff1673ffffffffffffffffffffffffffffffffffffffff16815260200190815260200160002081905550611ea082600260008673ffffffffffffffffffffffffffffffffffffffff1673ffffffffffffffffffffffffffffffffffffffff16815260200190815260200160002054613b8c90919063ffffffff16565b600260008573ffffffffffffffffffffffffffffffffffffffff1673ffffffffffffffffffffffffffffffffffffffff168152602001908152602001600020819055508273ffffffffffffffffffffffffffffffffffffffff16600760009054906101000a900473ffffffffffffffffffffffffffffffffffffffff1673ffffffffffffffffffffffffffffffffffffffff167fddf252ad1be2c89b69c2b068fc378daa952ba7f163c4a11628f55a4df523b3ef846040518082815260200191505060405180910390a36001905092915050565b600060086000838152602001908152602001600020600401549050919050565b6000600e54905090565b60005481565b60086020528060005260406000206000915090508060000154908060010160009054906101000a900473ffffffffffffffffffffffffffffffffffffffff1690806002018054600181600116156101000203166002900480601f01602080910402602001604051908101604052809291908181526020018280546001816001161561010002031660029004801561207c5780601f106120515761010080835404028352916020019161207c565b820191906000526020600020905b81548152906001019060200180831161205f57829003601f168201915b50505050509080600301549080600401549080600501549080600a0160009054906101000a900460ff16905087565b60008173ffffffffffffffffffffffffffffffffffffffff16319050919050565b600081600260003373ffffffffffffffffffffffffffffffffffffffff1673ffffffffffffffffffffffffffffffffffffffff168152602001908152602001600020541015801561211f57508160005410155b801561212c575060008214155b151561213757600080fd5b61214c61271083613baa90919063ffffffff16565b90506121a082600260003373ffffffffffffffffffffffffffffffffffffffff1673ffffffffffffffffffffffffffffffffffffffff16815260200190815260200160002054613bc590919063ffffffff16565b600260003373ffffffffffffffffffffffffffffffffffffffff1673ffffffffffffffffffffffffffffffffffffffff168152602001908152602001600020819055506121f882600054613bc590919063ffffffff16565b6000819055503373ffffffffffffffffffffffffffffffffffffffff166108fc829081150290604051600060405180830381858888f19350505050151561223e57600080fd5b7f241e6666a37e994e9acf140190540c74190f1be9cbe04c868d62d91ee0b92883828260005433604051808581526020018481526020018381526020018273ffffffffffffffffffffffffffffffffffffffff1673ffffffffffffffffffffffffffffffffffffffff16815260200194505050505060405180910390a15050565b600080600360008673ffffffffffffffffffffffffffffffffffffffff1673ffffffffffffffffffffffffffffffffffffffff16815260200190815260200160002060003373ffffffffffffffffffffffffffffffffffffffff1673ffffffffffffffffffffffffffffffffffffffff16815260200190815260200160002054905082600260008773ffffffffffffffffffffffffffffffffffffffff1673ffffffffffffffffffffffffffffffffffffffff16815260200190815260200160002054101580156123905750828110155b151561239b57600080fd5b6123ed83600260008773ffffffffffffffffffffffffffffffffffffffff1673ffffffffffffffffffffffffffffffffffffffff16815260200190815260200160002054613b8c90919063ffffffff16565b600260008673ffffffffffffffffffffffffffffffffffffffff1673ffffffffffffffffffffffffffffffffffffffff1681526020019081526020016000208190555061248283600260008873ffffffffffffffffffffffffffffffffffffffff1673ffffffffffffffffffffffffffffffffffffffff16815260200190815260200160002054613bc590919063ffffffff16565b600260008773ffffffffffffffffffffffffffffffffffffffff1673ffffffffffffffffffffffffffffffffffffffff168152602001908152602001600020819055507fffffffffffffffffffffffffffffffffffffffffffffffffffffffffffffffff8110156125fd5761257c83600360008873ffffffffffffffffffffffffffffffffffffffff1673ffffffffffffffffffffffffffffffffffffffff16815260200190815260200160002060003373ffffffffffffffffffffffffffffffffffffffff1673ffffffffffffffffffffffffffffffffffffffff16815260200190815260200160002054613bc590919063ffffffff16565b600360008773ffffffffffffffffffffffffffffffffffffffff1673ffffffffffffffffffffffffffffffffffffffff16815260200190815260200160002060003373ffffffffffffffffffffffffffffffffffffffff1673ffffffffffffffffffffffffffffffffffffffff168152602001908152602001600020819055505b8373ffffffffffffffffffffffffffffffffffffffff168573ffffffffffffffffffffffffffffffffffffffff167fddf252ad1be2c89b69c2b068fc378daa952ba7f163c4a11628f55a4df523b3ef856040518082815260200191505060405180910390a360019150509392505050565b60026020528060005260406000206000915090505481565b600c5481565b600a6020528060005260406000206000915090508060000154908060010160009054906101000a900473ffffffffffffffffffffffffffffffffffffffff16908060040160009054906101000a900460ff16905083565b61271081565b600560009054906101000a900460ff1681565b60096020528060005260406000206000915090508060000154908060010160009054906101000a900473ffffffffffffffffffffffffffffffffffffffff16908060040160009054906101000a900460ff16905083565b6060600a60003373ffffffffffffffffffffffffffffffffffffffff1673ffffffffffffffffffffffffffffffffffffffff1681526020019081526020016000206003018054806020026020016040519081016040528092919081815260200182805480156127e157602002820191906000526020600020905b8154815260200190600101908083116127cd575b5050505050905090565b6000806000600e5487111580156128045750600f548710155b151561280f57600080fd5b610160604051908101604052808b81526020013373ffffffffffffffffffffffffffffffffffffffff1681526020018a81526020018981526020016128616004600a0a8a613b5990919063ffffffff16565b815260200160008152602001600060405190808252806020026020018201604052801561289d5781602001602082028038833980820191505090505b50815260200160006040519080825280602002602001820160405280156128d35781602001602082028038833980820191505090505b50815260200160006040519080825280602002602001820160405280156129095781602001602082028038833980820191505090505b508152602001600060405190808252806020026020018201604052801561293f5781602001602082028038833980820191505090505b50815260200160011515815250600860008c81526020019081526020016000206000820151816000015560208201518160010160006101000a81548173ffffffffffffffffffffffffffffffffffffffff021916908373ffffffffffffffffffffffffffffffffffffffff16021790555060408201518160020190805190602001906129cc929190613bde565b50606082015181600301556080820151816004015560a0820151816005015560c0820151816006019080519060200190612a07929190613c5e565b5060e0820151816007019080519060200190612a24929190613c5e565b50610100820151816008019080519060200190612a42929190613c5e565b50610120820151816009019080519060200190612a60929190613c5e565b5061014082015181600a0160006101000a81548160ff021916908315150217905550905050600091505b8551821015612af557600860008b81526020019081526020016000206007018683815181101515612ab757fe5b906020019060200201519080600181540180825580915050906001820390600052602060002001600090919290919091505550816001019150612a8a565b600090505b8451811015612bbc57600860008b81526020019081526020016000206008018582815181101515612b2757fe5b906020019060200201519080600181540180825580915050906001820390600052602060002001600090919290919091505550600860008b81526020019081526020016000206009018482815181101515612b7e57fe5b906020019060200201519080600181540180825580915050906001820390600052602060002001600090919290919091505550806001019050612afa565b600a60003373ffffffffffffffffffffffffffffffffffffffff1673ffffffffffffffffffffffffffffffffffffffff1681526020019081526020016000206003018a90806001815401808255809150509060018203906000526020600020016000909192909190915055507fcc348e801ac344360dd9637b0e326028a91c9f6d959db5f85fd503b68e6eac148a338b8b8b8b8b8b604051808981526020018873ffffffffffffffffffffffffffffffffffffffff1673ffffffffffffffffffffffffffffffffffffffff1681526020018060200187815260200186815260200180602001806020018060200185810385528b818151815260200191508051906020019080838360005b83811015612ce1578082015181840152602081019050612cc6565b50505050905090810190601f168015612d0e5780820380516001836020036101000a031916815260200191505b50858103845288818151815260200191508051906020019060200280838360005b83811015612d4a578082015181840152602081019050612d2f565b50505050905001858103835287818151815260200191508051906020019060200280838360005b83811015612d8c578082015181840152602081019050612d71565b50505050905001858103825286818151815260200191508051906020019060200280838360005b83811015612dce578082015181840152602081019050612db3565b505050509050019c5050505050505050505050505060405180910390a1600192505050979650505050505050565b600f5481565b600160009054906101000a900473ffffffffffffffffffffffffffffffffffffffff1673ffffffffffffffffffffffffffffffffffffffff163373ffffffffffffffffffffffffffffffffffffffff16141515612e5e57600080fd5b80600d8190555050565b6003602052816000526040600020602052806000526040600020600091509150505481565b600160009054906101000a900473ffffffffffffffffffffffffffffffffffffffff1673ffffffffffffffffffffffffffffffffffffffff163373ffffffffffffffffffffffffffffffffffffffff16141515612ee957600080fd5b80600e8190555050565b606060086000838152602001908152602001600020600701805480602002602001604051908101604052809291908181526020018280548015612f5557602002820191906000526020600020905b815481526020019060010190808311612f41575b50505050509050919050565b6060600860008381526020019081526020016000206002018054600181600116156101000203166002900480601f01602080910402602001604051908101604052809291908181526020018280546001816001161561010002031660029004801561300d5780601f10612fe25761010080835404028352916020019161300d565b820191906000526020600020905b815481529060010190602001808311612ff057829003601f168201915b50505050509050919050565b6000600260008373ffffffffffffffffffffffffffffffffffffffff1673ffffffffffffffffffffffffffffffffffffffff168152602001908152602001600020549050919050565b600160009054906101000a900473ffffffffffffffffffffffffffffffffffffffff1673ffffffffffffffffffffffffffffffffffffffff163373ffffffffffffffffffffffffffffffffffffffff161415156130be57600080fd5b600760009054906101000a900473ffffffffffffffffffffffffffffffffffffffff1673ffffffffffffffffffffffffffffffffffffffff166108fc3073ffffffffffffffffffffffffffffffffffffffff16319081150290604051600060405180830381858888f1935050505015801561313d573d6000803e3d6000fd5b50565b6000600f54905090565b6000600b60003373ffffffffffffffffffffffffffffffffffffffff1673ffffffffffffffffffffffffffffffffffffffff168152602001908152602001600020600083815260200190815260200160002060009054906101000a900460ff169050919050565b600760009054906101000a900473ffffffffffffffffffffffffffffffffffffffff1681565b60068054600181600116156101000203166002900480601f01602080910402602001604051908101604052809291908181526020018280546001816001161561010002031660029004801561326d5780601f106132425761010080835404028352916020019161326d565b820191906000526020600020905b81548152906001019060200180831161325057829003601f168201915b505050505081565b600160009054906101000a900473ffffffffffffffffffffffffffffffffffffffff1673ffffffffffffffffffffffffffffffffffffffff163373ffffffffffffffffffffffffffffffffffffffff161415156132d157600080fd5b80600f8190555050565b6060600a60003373ffffffffffffffffffffffffffffffffffffffff1673ffffffffffffffffffffffffffffffffffffffff16815260200190815260200160002060020180548060200260200160405190810160405280929190818152602001828054801561336957602002820191906000526020600020905b815481526020019060010190808311613355575b5050505050905090565b600d5481565b6060600860008381526020019081526020016000206006018054806020026020016040519081016040528092919081815260200182805480156133db57602002820191906000526020600020905b8154815260200190600101908083116133c7575b50505050509050919050565b600160009054906101000a900473ffffffffffffffffffffffffffffffffffffffff1673ffffffffffffffffffffffffffffffffffffffff163373ffffffffffffffffffffffffffffffffffffffff1614151561344357600080fd5b80600160006101000a81548173ffffffffffffffffffffffffffffffffffffffff021916908373ffffffffffffffffffffffffffffffffffffffff16021790555050565b600081600260003373ffffffffffffffffffffffffffffffffffffffff1673ffffffffffffffffffffffffffffffffffffffff16815260200190815260200160002054101515156134d757600080fd5b61352982600260003373ffffffffffffffffffffffffffffffffffffffff1673ffffffffffffffffffffffffffffffffffffffff16815260200190815260200160002054613bc590919063ffffffff16565b600260003373ffffffffffffffffffffffffffffffffffffffff1673ffffffffffffffffffffffffffffffffffffffff168152602001908152602001600020819055506135be82600260008673ffffffffffffffffffffffffffffffffffffffff1673ffffffffffffffffffffffffffffffffffffffff16815260200190815260200160002054613b8c90919063ffffffff16565b600260008573ffffffffffffffffffffffffffffffffffffffff1673ffffffffffffffffffffffffffffffffffffffff168152602001908152602001600020819055508273ffffffffffffffffffffffffffffffffffffffff163373ffffffffffffffffffffffffffffffffffffffff167fddf252ad1be2c89b69c2b068fc378daa952ba7f163c4a11628f55a4df523b3ef846040518082815260200191505060405180910390a36001905092915050565b60006008600083815260200190815260200160002060010160009054906101000a900473ffffffffffffffffffffffffffffffffffffffff169050919050565b600060086000838152602001908152602001600020600a0160009054906101000a900460ff169050919050565b600560009054906101000a900460ff1660ff16600a0a620f42400281565b60006137136001600c54613b8c90919063ffffffff16565b600c8190555060a060405190810160405280600c5481526020013373ffffffffffffffffffffffffffffffffffffffff16815260200160006040519080825280602002602001820160405280156137795781602001602082028038833980820191505090505b50815260200160006040519080825280602002602001820160405280156137af5781602001602082028038833980820191505090505b50815260200160011515815250600a60003373ffffffffffffffffffffffffffffffffffffffff1673ffffffffffffffffffffffffffffffffffffffff1681526020019081526020016000206000820151816000015560208201518160010160006101000a81548173ffffffffffffffffffffffffffffffffffffffff021916908373ffffffffffffffffffffffffffffffffffffffff1602179055506040820151816002019080519060200190613868929190613c5e565b506060820151816003019080519060200190613885929190613c5e565b5060808201518160040160006101000a81548160ff0219169083151502179055509050506138b533600d54611d03565b507fca310f420e278a6f4a5934b17f0a1d74d7f1ef41386e888bf9c645cca0419111600c5433600a60003373ffffffffffffffffffffffffffffffffffffffff1673ffffffffffffffffffffffffffffffffffffffff168152602001908152602001600020600201600a60003373ffffffffffffffffffffffffffffffffffffffff1673ffffffffffffffffffffffffffffffffffffffff168152602001908152602001600020600301600a60003373ffffffffffffffffffffffffffffffffffffffff1673ffffffffffffffffffffffffffffffffffffffff16815260200190815260200160002060040160009054906101000a900460ff16604051808681526020018573ffffffffffffffffffffffffffffffffffffffff1673ffffffffffffffffffffffffffffffffffffffff1681526020018060200180602001841515151581526020018381038352868181548152602001915080548015613a3a57602002820191906000526020600020905b815481526020019060010190808311613a26575b50508381038252858181548152602001915080548015613a7957602002820191906000526020600020905b815481526020019060010190808311613a65575b505097505050505050505060405180910390a16001905090565b6000600d54905090565b600b6020528160005260406000206020528060005260406000206000915091509054906101000a900460ff1681565b6000600360008473ffffffffffffffffffffffffffffffffffffffff1673ffffffffffffffffffffffffffffffffffffffff16815260200190815260200160002060008373ffffffffffffffffffffffffffffffffffffffff1673ffffffffffffffffffffffffffffffffffffffff16815260200190815260200160002054905092915050565b600e5481565b60008082840290506000841480613b7a5750828482811515613b7757fe5b04145b1515613b8257fe5b8091505092915050565b6000808284019050838110151515613ba057fe5b8091505092915050565b6000808284811515613bb857fe5b0490508091505092915050565b6000828211151515613bd357fe5b818303905092915050565b828054600181600116156101000203166002900490600052602060002090601f016020900481019282601f10613c1f57805160ff1916838001178555613c4d565b82800160010185558215613c4d579182015b82811115613c4c578251825591602001919060010190613c31565b5b509050613c5a9190613cab565b5090565b828054828255906000526020600020908101928215613c9a579160200282015b82811115613c99578251825591602001919060010190613c7e565b5b509050613ca79190613cab565b5090565b613ccd91905b80821115613cc9576000816000905550600101613cb1565b5090565b905600a165627a7a723058209e6f0595e1ae3ee6735917155381fe0bd4c186cb5085578c083f35c3c8dddfd00029",
  "source": "pragma solidity ^0.4.21;\n\nimport \"./Token/JournalToken.sol\";\n\ncontract OpenJournal is JournalToken(200000, \"Journal Token\", 18, \"jt\") {\n    \n    struct Journal {\n        uint256 number;\n        address author;\n        string title;\n        uint256 author_share;\n        uint256 value;\n        uint256 reference_count;\n        uint[] subscribed;\n        uint[] reference_journal;\n        uint256[] contributors;\n        uint256[] contributors_share;\n        bool final_enroll;\n    }\n    \n    struct User {\n        uint256 user_number;                    \n        address user_address;                   \n        uint[] user_subscribe_journal;          \n        uint[] user_regist_journal;\n        bool is_user;             \n    }    \n\n    mapping (uint256 => Journal) public journals;                               \n    mapping (uint256 => User) public users_by_number;\n    mapping (address => User) public users_by_address;                                     \n\n    mapping (address => mapping (uint => bool)) public is_subscribed;           \n\n    uint256 public userNumber;               \n    uint256 public signUpCost;               \n    uint256 public upperbound_value;         \n    uint256 public lowerbound_value;             \n    \n    uint256 author_token;\n    uint256 contributor_token;\n\n    event LogSignUp(\n        uint256 _user_number, \n        address _user_address, \n        uint[] _user_subscribe_journal,\n        uint[] _user_regist_journal,\n        bool _is_user\n    );  \n\n    event LogRegistJournal(\n        uint256 _number, \n        address _author, \n        string _title,\n        uint256 _author_share,\n        uint256 _value,\n        uint[] _reference_journal,\n        uint[] _contributors,\n        uint256[] _contributors_share        \n    );  \n\n    event LogSubscribeJournal(\n        address _subscriber, \n        uint[] _myjournals, \n        uint[] _subscribed,\n        bool _is_subscribed,\n        uint256 _author_value,\n        uint256 _reference_count\n    );\n\n    event LogGetUserRegistedJournals(\n        uint[] _user_regist_journal\n    );\n\n    event LogGetUserSubscribedJournals(\n        uint _user_subscribe_journal\n    );\n\n    event LogGetAuthorAddress (\n        uint256 _number,\n        address _author\n    );\n\n    event LogGetValue (\n        uint256 _number,\n        uint256 _value\n    );\n\n    function OpenJournal(\n        uint256 _userNumber,\n        uint256 _signUpCost,\n        uint256 _upperbound_value,\n        uint256 _lowerbound_value\n    ) public {\n        userNumber = _userNumber;\n        signUpCost = _signUpCost.mul(10**uint256(4));        //  ... signUpCost = _signUpCost.mul(10**uint256(4));\n        upperbound_value = _upperbound_value;\n        lowerbound_value = _lowerbound_value;\n    }\n\n    function signUp() public returns (bool) {\n        userNumber = userNumber.add(1);            \n        users_by_address[msg.sender] = User(\n            userNumber,\n            msg.sender,\n            new uint[](0),\n            new uint[](0),\n            true\n        );\n        transferFromOwner(msg.sender, signUpCost);   \n\n        emit LogSignUp(\n            userNumber, \n            msg.sender, \n            users_by_address[msg.sender].user_subscribe_journal, \n            users_by_address[msg.sender].user_regist_journal,\n            users_by_address[msg.sender].is_user\n        );\n\n        return true;\n    }\n\n    function registJournal(uint256 _journal_number, \n                    string _title, \n                    uint256 _author_share, \n                    uint _journal_value, \n                    uint256[] _reference_journal,\n                    uint[] _contributors,\n                    uint256[] _contributors_share\n        ) public returns (bool) {\n\n        require(_journal_value <= upperbound_value && _journal_value >= lowerbound_value);\n    \n        journals[_journal_number] = Journal(\n            _journal_number,\n            msg.sender,\n            _title,\n            _author_share,\n            _journal_value.mul(10**uint256(4)),     //  ... _journal_value.mul(10**uint256(4))\n            0,\n            new uint[](0),\n            new uint[](0),\n            new uint[](0),\n            new uint256[](0),\n            true\n        );\n\n        for(uint256 ref = 0; ref <_reference_journal.length; ++ref)\n            journals[_journal_number].reference_journal.push(_reference_journal[ref]);\n\n        for(uint256 cont = 0; cont <_contributors.length; ++cont){\n            journals[_journal_number].contributors.push(_contributors[cont]);\n            journals[_journal_number].contributors_share.push(_contributors_share[cont]);\n        }\n\n        users_by_address[msg.sender].user_regist_journal.push(_journal_number);    \n\n        emit LogRegistJournal(\n            _journal_number,\n            msg.sender,\n            _title,\n            _author_share,\n            _journal_value,\n            _reference_journal,\n            _contributors,\n            _contributors_share            \n        );  \n \n        return true;    \n    }\n\n    function subscribeJournal(uint256 _journal_number) public returns (bool){\n        require(is_subscribed[msg.sender][_journal_number] == false); \n\n        uint256 contributor_total_token;\n        uint256 contributor_each_token;        \n        uint256 contributor_num = journals[_journal_number].contributors.length;\n\n        if(contributor_num == 0){\n            author_token = journals[_journal_number].value;\n        } else{\n            uint256 author_share = journals[_journal_number].author_share;\n            author_token = journals[_journal_number].value.mul(author_share).div(100);\n\n            for(uint cont=0; cont < contributor_num; cont++){\n                contributor_each_token = journals[_journal_number].value.mul(journals[_journal_number].contributors_share[cont]).div(100);\n                transfer(users_by_number[journals[_journal_number].contributors[cont]].user_address, contributor_each_token);\n            }\n        }\n\n        transfer(journals[_journal_number].author, author_token); \n\n        uint sub_id = users_by_address[msg.sender].user_number;\n\n        users_by_address[msg.sender].user_subscribe_journal.push(_journal_number);  \n        journals[_journal_number].subscribed.push(sub_id);       \n        is_subscribed[msg.sender][_journal_number] = true;\n        journals[_journal_number].reference_count++;\n\n        emit LogSubscribeJournal(\n            msg.sender, \n            users_by_address[msg.sender].user_subscribe_journal, \n            journals[_journal_number].subscribed, \n            is_subscribed[msg.sender][_journal_number],\n            author_token,\n            journals[_journal_number].reference_count\n        );\n\n        return true;\n    }\n\n    function getIsJournalValid(uint _journal_number) public view returns (bool) {\n        return journals[_journal_number].final_enroll;\n    }\n\n    function getAuthorAddress(uint256 _journal_number) public view returns (address){\n        return journals[_journal_number].author;\n    }\n\n    function getJournalTitle(uint256 _journal_number) public view returns (string){\n        return journals[_journal_number].title;\n    }\n\n    function getValue(uint256 _journal_number) public view returns (uint256){\n        return journals[_journal_number].value;\n    }\n\n    function getJournalSubscriber(uint _journal_number) public view returns (uint[]) {\n        return journals[_journal_number].subscribed;\n    }\n\n    function getReferenceJournal(uint _journal_number) public view returns (uint256[]) {\n        return journals[_journal_number].reference_journal;\n    }    \n\n    function getIsSubscribedJournal(uint _journal_number) public view returns (bool) {\n        return is_subscribed[msg.sender][_journal_number];\n    }\n\n    function getIsUserValid() public view returns (bool) {\n        return users_by_address[msg.sender].is_user;\n    }\n\n    function getUserSubscribedJournals() public view returns (uint[]) {\n        return users_by_address[msg.sender].user_subscribe_journal;\n    }    \n\n    function getUserRegistedJournals() public view returns (uint[]) {\n        return users_by_address[msg.sender].user_regist_journal;\n    } \n\n    function getSignupCost() public view returns (uint256) {\n        return signUpCost;\n    }\n\n    function getUpperboundValue() public view returns (uint256) {\n        return upperbound_value;\n    }\n\n    function getLowerboundValue() public view returns (uint256) {\n        return lowerbound_value;\n    }\n\n    \n    function setSignupCost(uint256 _signUpCost) public onlyOwner{\n        signUpCost = _signUpCost;\n    }\n\n    function setUpperboundValue(uint256 _upperbound_value) public onlyOwner{\n        upperbound_value = _upperbound_value;\n    }\n\n    function setLowerboundValue(uint256 _lowerbound_value) public onlyOwner{\n        lowerbound_value = _lowerbound_value;\n    }\n   \n }\n",
  "sourcePath": "/Users/chaminjun/Desktop/GraduationProject/2018-cap1-1/src/contracts/OpenJournal.sol",
  "compiler": {
    "name": "solc",
    "version": "0.4.23+commit.124ca40d.Emscripten.clang"
  },
  "schemaVersion": "2.0.0",
  "updatedAt": "2018-05-26T12:37:32.839Z"
}